{
  "contractName": "ClockAuctionBase",
  "abi": [
    {
      "constant": true,
      "inputs": [],
      "name": "ownerCut",
      "outputs": [
        {
          "name": "",
          "type": "uint256"
        }
      ],
      "payable": false,
      "stateMutability": "view",
      "type": "function"
    },
    {
      "constant": true,
      "inputs": [],
      "name": "nonFungibleContract",
      "outputs": [
        {
          "name": "",
          "type": "address"
        }
      ],
      "payable": false,
      "stateMutability": "view",
      "type": "function"
    },
    {
      "payable": false,
      "stateMutability": "nonpayable",
      "type": "fallback"
    },
    {
      "anonymous": false,
      "inputs": [
        {
          "indexed": false,
          "name": "tokenId",
          "type": "uint256"
        },
        {
          "indexed": false,
          "name": "price",
          "type": "uint256"
        }
      ],
      "name": "AuctionCreated",
      "type": "event"
    },
    {
      "anonymous": false,
      "inputs": [
        {
          "indexed": false,
          "name": "tokenId",
          "type": "uint256"
        },
        {
          "indexed": false,
          "name": "totalPrice",
          "type": "uint256"
        },
        {
          "indexed": false,
          "name": "winner",
          "type": "address"
        }
      ],
      "name": "AuctionSuccessful",
      "type": "event"
    },
    {
      "anonymous": false,
      "inputs": [
        {
          "indexed": false,
          "name": "tokenId",
          "type": "uint256"
        }
      ],
      "name": "AuctionCancelled",
      "type": "event"
    }
  ],
  "bytecode": "0x608060405234801561001057600080fd5b5061012a806100206000396000f3006080604052600436106049576000357c0100000000000000000000000000000000000000000000000000000000900463ffffffff16806383b5ff8b146057578063dd1b7a0f14607f575b348015605457600080fd5b50005b348015606257600080fd5b50606960d3565b6040518082815260200191505060405180910390f35b348015608a57600080fd5b50609160d9565b604051808273ffffffffffffffffffffffffffffffffffffffff1673ffffffffffffffffffffffffffffffffffffffff16815260200191505060405180910390f35b60015481565b6000809054906101000a900473ffffffffffffffffffffffffffffffffffffffff16815600a165627a7a72305820fc8f9d08b9fca8306cdee09715b369d111b902663b2ef0ae3a42d86fffd1469c0029",
  "source": "pragma solidity ^0.4.24;\n\nimport \"./../ERC721Draft.sol\";\n\ncontract ClockAuctionBase {\n\n    struct Auction {\n        address seller;\n        uint128 price;\n        uint64 startedAt;\n    }\n\n    ERC721 public nonFungibleContract;\n\n    uint256 public ownerCut;\n\n    mapping (uint256 => Auction) tokenIdToAuction;\n\n    event AuctionCreated(uint256 tokenId, uint256 price);\n    event AuctionSuccessful(uint256 tokenId, uint256 totalPrice, address winner);\n    event AuctionCancelled(uint256 tokenId);\n\n    function() external {}\n\n    modifier canBeStoredWith64Bits(uint256 _value) {\n        require(_value <= 18446744073709551615);\n        _;\n    }\n\n    modifier canBeStoredWith128Bits(uint256 _value) {\n        require(_value < 340282366920938463463374607431768211455);\n        _;\n    }\n\n    function _owns(address _claimant, uint256 _tokenId) internal view returns (bool) {\n        return (nonFungibleContract.ownerOf(_tokenId) == _claimant);\n    }\n\n    function _escrow(address _owner, uint256 _tokenId) internal {\n        nonFungibleContract.transferFrom(_owner, this, _tokenId);\n    }\n\n    function _transfer(address _receiver, uint256 _tokenId) internal {\n        nonFungibleContract.transfer(_receiver, _tokenId);\n    }\n\n    function _addAuction(uint256 _tokenId, Auction _auction) internal {\n        tokenIdToAuction[_tokenId] = _auction;\n\n        emit AuctionCreated(\n            uint256(_tokenId),\n            uint256(_auction.price)\n        );\n    }\n\n    function _cancelAuction(uint256 _tokenId, address _seller) internal {\n        _removeAuction(_tokenId);\n        _transfer(_seller, _tokenId);\n        emit AuctionCancelled(_tokenId);\n    }\n\n    function _bid(uint256 _tokenId, uint256 _bidAmount)\n        internal\n        returns (uint256)\n    {\n        Auction storage auction = tokenIdToAuction[_tokenId];\n\n        require(_isOnAuction(auction));\n\n        uint256 price = _currentPrice(auction);\n        require(_bidAmount == price);\n\n        address seller = auction.seller;\n\n        _removeAuction(_tokenId);\n\n        if (price > 0) {\n            uint256 auctioneerCut = _computeCut(price);\n            uint256 sellerProceeds = price - auctioneerCut;\n\n            seller.transfer(sellerProceeds);\n        }\n\n        emit AuctionSuccessful(_tokenId, price, msg.sender);\n\n        return price;\n    }\n\n    function _removeAuction(uint256 _tokenId) internal {\n        delete tokenIdToAuction[_tokenId];\n    }\n\n    function _isOnAuction(Auction storage _auction) internal view returns (bool) {\n        return (_auction.startedAt > 0);\n    }\n\n    function _currentPrice(Auction storage _auction)\n        internal\n        view\n        returns (uint256)\n    {\n        return _auction.price;\n    }\n\n    function _computeCut(uint256 _price) internal view returns (uint256) {\n        return _price * ownerCut / 10000;\n    }\n\n}\n",
  "sourcePath": "/Users/Keki/Vrexlab/kydy-solidity/contracts/Auction/ClockAuctionBase.sol",
  "compiler": {
    "name": "solc",
    "version": "0.4.24+commit.e67f0147.Emscripten.clang"
  },
  "schemaVersion": "2.0.1",
  "updatedAt": "2018-11-12T07:02:22.682Z"
}