{
  "contractName": "ClockAuction",
  "abi": [
    {
      "constant": false,
      "inputs": [
        {
          "name": "",
          "type": "address"
        },
        {
          "name": "",
          "type": "address"
        },
        {
          "name": "",
          "type": "uint256"
        },
        {
          "name": "",
          "type": "bytes"
        }
      ],
      "name": "onERC721Received",
      "outputs": [
        {
          "name": "",
          "type": "bytes4"
        }
      ],
      "payable": false,
      "stateMutability": "nonpayable",
      "type": "function"
    },
    {
      "constant": false,
      "inputs": [],
      "name": "unpause",
      "outputs": [],
      "payable": false,
      "stateMutability": "nonpayable",
      "type": "function"
    },
    {
      "constant": true,
      "inputs": [],
      "name": "paused",
      "outputs": [
        {
          "name": "",
          "type": "bool"
        }
      ],
      "payable": false,
      "stateMutability": "view",
      "type": "function"
    },
    {
      "constant": true,
      "inputs": [],
      "name": "ownerCut",
      "outputs": [
        {
          "name": "",
          "type": "uint256"
        }
      ],
      "payable": false,
      "stateMutability": "view",
      "type": "function"
    },
    {
      "constant": false,
      "inputs": [],
      "name": "pause",
      "outputs": [],
      "payable": false,
      "stateMutability": "nonpayable",
      "type": "function"
    },
    {
      "constant": true,
      "inputs": [],
      "name": "owner",
      "outputs": [
        {
          "name": "",
          "type": "address"
        }
      ],
      "payable": false,
      "stateMutability": "view",
      "type": "function"
    },
    {
      "constant": true,
      "inputs": [],
      "name": "nonFungibleContract",
      "outputs": [
        {
          "name": "",
          "type": "address"
        }
      ],
      "payable": false,
      "stateMutability": "view",
      "type": "function"
    },
    {
      "constant": false,
      "inputs": [
        {
          "name": "newOwner",
          "type": "address"
        }
      ],
      "name": "transferOwnership",
      "outputs": [],
      "payable": false,
      "stateMutability": "nonpayable",
      "type": "function"
    },
    {
      "inputs": [
        {
          "name": "_nftAddress",
          "type": "address"
        },
        {
          "name": "_cut",
          "type": "uint256"
        }
      ],
      "payable": false,
      "stateMutability": "nonpayable",
      "type": "constructor"
    },
    {
      "payable": false,
      "stateMutability": "nonpayable",
      "type": "fallback"
    },
    {
      "anonymous": false,
      "inputs": [
        {
          "indexed": false,
          "name": "tokenId",
          "type": "uint256"
        },
        {
          "indexed": false,
          "name": "price",
          "type": "uint256"
        }
      ],
      "name": "AuctionCreated",
      "type": "event"
    },
    {
      "anonymous": false,
      "inputs": [
        {
          "indexed": false,
          "name": "tokenId",
          "type": "uint256"
        },
        {
          "indexed": false,
          "name": "totalPrice",
          "type": "uint256"
        },
        {
          "indexed": false,
          "name": "winner",
          "type": "address"
        }
      ],
      "name": "AuctionSuccessful",
      "type": "event"
    },
    {
      "anonymous": false,
      "inputs": [
        {
          "indexed": false,
          "name": "tokenId",
          "type": "uint256"
        }
      ],
      "name": "AuctionCancelled",
      "type": "event"
    },
    {
      "anonymous": false,
      "inputs": [],
      "name": "Pause",
      "type": "event"
    },
    {
      "anonymous": false,
      "inputs": [],
      "name": "Unpause",
      "type": "event"
    },
    {
      "anonymous": false,
      "inputs": [
        {
          "indexed": true,
          "name": "previousOwner",
          "type": "address"
        },
        {
          "indexed": true,
          "name": "newOwner",
          "type": "address"
        }
      ],
      "name": "OwnershipTransferred",
      "type": "event"
    },
    {
      "constant": false,
      "inputs": [],
      "name": "withdrawBalance",
      "outputs": [],
      "payable": false,
      "stateMutability": "nonpayable",
      "type": "function"
    },
    {
      "constant": false,
      "inputs": [
        {
          "name": "_tokenId",
          "type": "uint256"
        },
        {
          "name": "_price",
          "type": "uint256"
        },
        {
          "name": "_seller",
          "type": "address"
        }
      ],
      "name": "createAuction",
      "outputs": [],
      "payable": false,
      "stateMutability": "nonpayable",
      "type": "function"
    },
    {
      "constant": false,
      "inputs": [
        {
          "name": "_tokenId",
          "type": "uint256"
        }
      ],
      "name": "bid",
      "outputs": [],
      "payable": true,
      "stateMutability": "payable",
      "type": "function"
    },
    {
      "constant": false,
      "inputs": [
        {
          "name": "_tokenId",
          "type": "uint256"
        },
        {
          "name": "_seller",
          "type": "address"
        }
      ],
      "name": "cancelAuction",
      "outputs": [],
      "payable": false,
      "stateMutability": "nonpayable",
      "type": "function"
    },
    {
      "constant": false,
      "inputs": [
        {
          "name": "_tokenId",
          "type": "uint256"
        }
      ],
      "name": "cancelAuctionWhenPaused",
      "outputs": [],
      "payable": false,
      "stateMutability": "nonpayable",
      "type": "function"
    },
    {
      "constant": true,
      "inputs": [
        {
          "name": "_tokenId",
          "type": "uint256"
        }
      ],
      "name": "getAuction",
      "outputs": [
        {
          "name": "seller",
          "type": "address"
        },
        {
          "name": "price",
          "type": "uint256"
        },
        {
          "name": "startedAt",
          "type": "uint256"
        }
      ],
      "payable": false,
      "stateMutability": "view",
      "type": "function"
    },
    {
      "constant": true,
      "inputs": [
        {
          "name": "_tokenId",
          "type": "uint256"
        }
      ],
      "name": "getCurrentPrice",
      "outputs": [
        {
          "name": "",
          "type": "uint256"
        }
      ],
      "payable": false,
      "stateMutability": "view",
      "type": "function"
    }
  ],
  "bytecode": "0x60806040526000805460a060020a60ff021916905534801561002057600080fd5b50604051604080610dc183398101604052805160209091015160008054600160a060020a0319163317815561271082111561005a57600080fd5b5060025560018054600160a060020a031916600160a060020a0392909216919091179055610d348061008d6000396000f3006080604052600436106100da5763ffffffff7c0100000000000000000000000000000000000000000000000000000000600035041663150b7a0281146100e95780633f4ba83a1461018d578063454a2ab3146101a45780634e8eaa13146101af57806354279bdd146101d35780635c975abb146101fa5780635fd8c7101461022357806378bd79351461023857806383b5ff8b146102785780638456cb591461029f578063878eb368146102b45780638da5cb5b146102cc578063c55d0f56146102fd578063dd1b7a0f14610315578063f2fde38b1461032a575b3480156100e657600080fd5b50005b3480156100f557600080fd5b50604080516020601f60643560048181013592830184900484028501840190955281845261015894600160a060020a03813581169560248035909216956044359536956084940191819084018382808284375094975061034b9650505050505050565b604080517fffffffff000000000000000000000000000000000000000000000000000000009092168252519081900360200190f35b34801561019957600080fd5b506101a2610374565b005b6101a26004356103ea565b3480156101bb57600080fd5b506101a2600435600160a060020a0360243516610419565b3480156101df57600080fd5b506101a2600435602435600160a060020a0360443516610468565b34801561020657600080fd5b5061020f610517565b604080519115158252519081900360200190f35b34801561022f57600080fd5b506101a2610527565b34801561024457600080fd5b50610250600435610594565b60408051600160a060020a039094168452602084019290925282820152519081900360600190f35b34801561028457600080fd5b5061028d610609565b60408051918252519081900360200190f35b3480156102ab57600080fd5b506101a261060f565b3480156102c057600080fd5b506101a260043561068a565b3480156102d857600080fd5b506102e16106f3565b60408051600160a060020a039092168252519081900360200190f35b34801561030957600080fd5b5061028d600435610702565b34801561032157600080fd5b506102e1610734565b34801561033657600080fd5b506101a2600160a060020a0360043516610743565b7f150b7a0200000000000000000000000000000000000000000000000000000000949350505050565b600054600160a060020a0316331461038b57600080fd5b60005460a060020a900460ff1615156103a357600080fd5b6000805474ff0000000000000000000000000000000000000000191681556040517f7805862f689e2f13df9f062ff482ad3ad112aca9e0847911ed832e158c525b339190a1565b60005460a060020a900460ff161561040157600080fd5b61040b81346107d7565b5061041633826108d4565b50565b60008281526003602052604081209061043182610964565b151561043c57600080fd5b508054600160a060020a03908116908316811461045857600080fd5b610462848261098d565b50505050565b610470610ce8565b60005460a060020a900460ff161561048757600080fd5b826fffffffffffffffffffffffffffffffff81106104a457600080fd5b6104ae33866109d7565b15156104b957600080fd5b6104c33386610a80565b60606040519081016040528084600160a060020a03168152602001856fffffffffffffffffffffffffffffffff1681526020014267ffffffffffffffff1681525091506105108583610af4565b5050505050565b60005460a060020a900460ff1681565b600154600054600160a060020a03918216911633148061054f575033600160a060020a038216145b151561055a57600080fd5b604051600160a060020a03821690303180156108fc02916000818181858888f19350505050158015610590573d6000803e3d6000fd5b5050565b6000818152600360205260408120819081906105af81610964565b15156105ba57600080fd5b8054600190910154600160a060020a03909116956fffffffffffffffffffffffffffffffff8216955070010000000000000000000000000000000090910467ffffffffffffffff169350915050565b60025481565b600054600160a060020a0316331461062657600080fd5b60005460a060020a900460ff161561063d57600080fd5b6000805474ff0000000000000000000000000000000000000000191660a060020a1781556040517f6985a02210a168e66602d3235cb6db0e70f92b3ba4d376a33c0f3d9434bff6259190a1565b6000805460a060020a900460ff1615156106a357600080fd5b600054600160a060020a031633146106ba57600080fd5b5060008181526003602052604090206106d281610964565b15156106dd57600080fd5b8054610590908390600160a060020a031661098d565b600054600160a060020a031681565b600081815260036020526040812061071981610964565b151561072457600080fd5b61072d81610be4565b9392505050565b600154600160a060020a031681565b600054600160a060020a0316331461075a57600080fd5b600160a060020a038116151561076f57600080fd5b60008054604051600160a060020a03808516939216917f8be0079c531659141344cd1fd0a4f28419497f9722a3daafe3b4186f6b6457e091a36000805473ffffffffffffffffffffffffffffffffffffffff1916600160a060020a0392909216919091179055565b6000828152600360205260408120818080806107f285610964565b15156107fd57600080fd5b61080685610be4565b935086841461081457600080fd5b8454600160a060020a0316925061082a88610bfd565b60008411156108895761083c84610c4a565b915061084e848363ffffffff610c7916565b604051909150600160a060020a0384169082156108fc029083906000818181858888f19350505050158015610887573d6000803e3d6000fd5b505b6040805189815260208101869052338183015290517f4fcc30d90a842164dd58501ab874a101a3749c3d4747139cefe7c876f4ccebd29181900360600190a150919695505050505050565b600154604080517f42842e0e000000000000000000000000000000000000000000000000000000008152306004820152600160a060020a03858116602483015260448201859052915191909216916342842e0e91606480830192600092919082900301818387803b15801561094857600080fd5b505af115801561095c573d6000803e3d6000fd5b505050505050565b60010154600070010000000000000000000000000000000090910467ffffffffffffffff161190565b61099682610bfd565b6109a081836108d4565b6040805183815290517f2809c7e17bf978fbc7194c0a694b638c4215e9140cacc6c38ca36010b45697df9181900360200190a15050565b600154604080517f6352211e000000000000000000000000000000000000000000000000000000008152600481018490529051600092600160a060020a0380871693911691636352211e9160248082019260209290919082900301818887803b158015610a4357600080fd5b505af1158015610a57573d6000803e3d6000fd5b505050506040513d6020811015610a6d57600080fd5b5051600160a060020a0316149392505050565b600154604080517f42842e0e000000000000000000000000000000000000000000000000000000008152600160a060020a03858116600483015230602483015260448201859052915191909216916342842e0e91606480830192600092919082900301818387803b15801561094857600080fd5b6000828152600360209081526040918290208351815473ffffffffffffffffffffffffffffffffffffffff1916600160a060020a039091161781558382015160019091018054858501516fffffffffffffffffffffffffffffffff199091166fffffffffffffffffffffffffffffffff90931692831777ffffffffffffffff00000000000000000000000000000000191670010000000000000000000000000000000067ffffffffffffffff9092169190910217905582518581529182015281517fe00a2da3a0f34a566402a244ab7ec63f8ab7472591cb18edf3269aa00461a410929181900390910190a15050565b600101546fffffffffffffffffffffffffffffffff1690565b6000908152600360205260409020805473ffffffffffffffffffffffffffffffffffffffff19168155600101805477ffffffffffffffffffffffffffffffffffffffffffffffff19169055565b6000610c73612710610c6760025485610c9790919063ffffffff16565b9063ffffffff610cc516565b92915050565b60008083831115610c8957600080fd5b5050808203805b5092915050565b600080831515610caa5760009150610c90565b50828202828482811515610cba57fe5b041461072d57600080fd5b600080808311610cd457600080fd5b8284811515610cdf57fe5b04949350505050565b6040805160608101825260008082526020820181905291810191909152905600a165627a7a723058200e31d5317b2e557a293a3fa38146df4b7b80abebc6098e1a7b7d2f88abf108d20029",
  "source": "pragma solidity ^0.4.24;\n\n// import \"./../ERC721Draft.sol\";\nimport \"./../ERC721Standard/ERC721Basic.sol\";\nimport \"./ClockAuctionBase.sol\";\nimport \"./Pausable.sol\";\n\ncontract ClockAuction is Pausable, ClockAuctionBase {\n\n    constructor(address _nftAddress, uint256 _cut) public {\n        require(_cut <= 10000);\n        ownerCut = _cut;\n\n        ERC721Basic candidateContract = ERC721Basic(_nftAddress);\n        nonFungibleContract = candidateContract;\n    }\n\n    function withdrawBalance() external {\n        address nftAddress = address(nonFungibleContract);\n\n        require(\n            msg.sender == owner ||\n            msg.sender == nftAddress\n        );\n        nftAddress.transfer(address(this).balance);\n    }\n\n    function createAuction(\n        uint256 _tokenId,\n        uint256 _price,\n        address _seller\n    )\n        public\n        whenNotPaused\n        canBeStoredWith128Bits(_price)\n    {\n        require(_owns(msg.sender, _tokenId));\n        _escrow(msg.sender, _tokenId);\n        Auction memory auction = Auction(\n            _seller,\n            uint128(_price),\n            uint64(now)\n        );\n        _addAuction(_tokenId, auction);\n    }\n\n    function bid(uint256 _tokenId)\n        public\n        payable\n        whenNotPaused\n    {\n        _bid(_tokenId, msg.value);\n        _transfer(msg.sender, _tokenId);\n    }\n\n    function cancelAuction(uint256 _tokenId, address _seller)\n        public\n    {\n        Auction storage auction = tokenIdToAuction[_tokenId];\n        require(_isOnAuction(auction));\n        address seller = auction.seller;\n        require(_seller == seller);\n        _cancelAuction(_tokenId, seller);\n    }\n\n    function cancelAuctionWhenPaused(uint256 _tokenId)\n        whenPaused\n        onlyOwner\n        public\n    {\n        Auction storage auction = tokenIdToAuction[_tokenId];\n        require(_isOnAuction(auction));\n        _cancelAuction(_tokenId, auction.seller);\n    }\n\n    function getAuction(uint256 _tokenId)\n        public\n        view\n        returns\n    (\n        address seller,\n        uint256 price,\n        uint256 startedAt\n    ) {\n        Auction storage auction = tokenIdToAuction[_tokenId];\n        require(_isOnAuction(auction));\n        return (\n            auction.seller,\n            auction.price,\n            auction.startedAt\n        );\n    }\n\n    function getCurrentPrice(uint256 _tokenId)\n        public\n        view\n        returns (uint256)\n    {\n        Auction storage auction = tokenIdToAuction[_tokenId];\n        require(_isOnAuction(auction));\n        return _currentPrice(auction);\n    }\n\n}\n",
  "sourcePath": "/Users/Keki/Vrexlab/kydy-solidity/contracts/Auction/ClockAuction.sol",
  "compiler": {
    "name": "solc",
    "version": "0.4.24+commit.e67f0147.Emscripten.clang"
  },
  "schemaVersion": "2.0.1",
  "updatedAt": "2018-12-17T03:59:06.904Z"
}