{
  "contractName": "GeneSynthesis",
  "abi": [
    {
      "constant": true,
      "inputs": [],
      "name": "cfoAddress",
      "outputs": [
        {
          "name": "",
          "type": "address"
        }
      ],
      "payable": false,
      "stateMutability": "view",
      "type": "function"
    },
    {
      "constant": true,
      "inputs": [],
      "name": "ceoAddress",
      "outputs": [
        {
          "name": "",
          "type": "address"
        }
      ],
      "payable": false,
      "stateMutability": "view",
      "type": "function"
    },
    {
      "constant": true,
      "inputs": [],
      "name": "geneRelease_",
      "outputs": [
        {
          "name": "",
          "type": "address"
        }
      ],
      "payable": false,
      "stateMutability": "view",
      "type": "function"
    },
    {
      "constant": true,
      "inputs": [],
      "name": "kydyUtil_",
      "outputs": [
        {
          "name": "",
          "type": "address"
        }
      ],
      "payable": false,
      "stateMutability": "view",
      "type": "function"
    },
    {
      "constant": false,
      "inputs": [
        {
          "name": "_newCEO",
          "type": "address"
        }
      ],
      "name": "setCEO",
      "outputs": [],
      "payable": false,
      "stateMutability": "nonpayable",
      "type": "function"
    },
    {
      "constant": false,
      "inputs": [
        {
          "name": "_newCOO",
          "type": "address"
        }
      ],
      "name": "setCOO",
      "outputs": [],
      "payable": false,
      "stateMutability": "nonpayable",
      "type": "function"
    },
    {
      "constant": false,
      "inputs": [],
      "name": "unpause",
      "outputs": [],
      "payable": false,
      "stateMutability": "nonpayable",
      "type": "function"
    },
    {
      "constant": true,
      "inputs": [],
      "name": "normalSeed_",
      "outputs": [
        {
          "name": "",
          "type": "uint256"
        }
      ],
      "payable": false,
      "stateMutability": "view",
      "type": "function"
    },
    {
      "constant": false,
      "inputs": [
        {
          "name": "_newCFO",
          "type": "address"
        }
      ],
      "name": "setCFO",
      "outputs": [],
      "payable": false,
      "stateMutability": "nonpayable",
      "type": "function"
    },
    {
      "constant": true,
      "inputs": [],
      "name": "paused",
      "outputs": [
        {
          "name": "",
          "type": "bool"
        }
      ],
      "payable": false,
      "stateMutability": "view",
      "type": "function"
    },
    {
      "constant": false,
      "inputs": [],
      "name": "pause",
      "outputs": [],
      "payable": false,
      "stateMutability": "nonpayable",
      "type": "function"
    },
    {
      "constant": true,
      "inputs": [],
      "name": "mutationChance",
      "outputs": [
        {
          "name": "",
          "type": "uint256"
        }
      ],
      "payable": false,
      "stateMutability": "view",
      "type": "function"
    },
    {
      "constant": true,
      "inputs": [],
      "name": "mutateSeed_",
      "outputs": [
        {
          "name": "",
          "type": "uint256"
        }
      ],
      "payable": false,
      "stateMutability": "view",
      "type": "function"
    },
    {
      "constant": true,
      "inputs": [],
      "name": "cooAddress",
      "outputs": [
        {
          "name": "",
          "type": "address"
        }
      ],
      "payable": false,
      "stateMutability": "view",
      "type": "function"
    },
    {
      "constant": true,
      "inputs": [],
      "name": "selectSeed_",
      "outputs": [
        {
          "name": "",
          "type": "uint256"
        }
      ],
      "payable": false,
      "stateMutability": "view",
      "type": "function"
    },
    {
      "inputs": [
        {
          "name": "kydyUtilAddr",
          "type": "address"
        },
        {
          "name": "geneReleaseAddr",
          "type": "address"
        }
      ],
      "payable": false,
      "stateMutability": "nonpayable",
      "type": "constructor"
    },
    {
      "anonymous": false,
      "inputs": [
        {
          "indexed": true,
          "name": "gene1",
          "type": "uint256"
        },
        {
          "indexed": true,
          "name": "gene2",
          "type": "uint256"
        },
        {
          "indexed": false,
          "name": "mixedGene",
          "type": "uint256"
        }
      ],
      "name": "synthGeneResult",
      "type": "event"
    },
    {
      "anonymous": false,
      "inputs": [
        {
          "indexed": false,
          "name": "newContract",
          "type": "address"
        }
      ],
      "name": "ContractUpgrade",
      "type": "event"
    },
    {
      "constant": false,
      "inputs": [
        {
          "name": "newKydyUtil",
          "type": "address"
        }
      ],
      "name": "setKydyUtilAddress",
      "outputs": [],
      "payable": false,
      "stateMutability": "nonpayable",
      "type": "function"
    },
    {
      "constant": false,
      "inputs": [
        {
          "name": "newGeneRelease",
          "type": "address"
        }
      ],
      "name": "setGeneReleaseAddress",
      "outputs": [],
      "payable": false,
      "stateMutability": "nonpayable",
      "type": "function"
    },
    {
      "constant": true,
      "inputs": [],
      "name": "isGeneSynthesis",
      "outputs": [
        {
          "name": "",
          "type": "bool"
        }
      ],
      "payable": false,
      "stateMutability": "pure",
      "type": "function"
    },
    {
      "constant": false,
      "inputs": [
        {
          "name": "gene1",
          "type": "uint256"
        },
        {
          "name": "gene2",
          "type": "uint256"
        }
      ],
      "name": "synthGenes",
      "outputs": [
        {
          "name": "",
          "type": "uint256"
        }
      ],
      "payable": false,
      "stateMutability": "nonpayable",
      "type": "function"
    },
    {
      "constant": false,
      "inputs": [
        {
          "name": "trait1",
          "type": "uint256"
        },
        {
          "name": "trait2",
          "type": "uint256"
        },
        {
          "name": "traitIndex",
          "type": "uint256"
        }
      ],
      "name": "mixTraits",
      "outputs": [
        {
          "name": "",
          "type": "uint256"
        }
      ],
      "payable": false,
      "stateMutability": "nonpayable",
      "type": "function"
    },
    {
      "constant": true,
      "inputs": [
        {
          "name": "trait",
          "type": "uint256[4]"
        },
        {
          "name": "num1",
          "type": "uint8"
        },
        {
          "name": "num2",
          "type": "uint8"
        }
      ],
      "name": "swap",
      "outputs": [
        {
          "name": "",
          "type": "uint256[4]"
        }
      ],
      "payable": false,
      "stateMutability": "pure",
      "type": "function"
    },
    {
      "constant": true,
      "inputs": [
        {
          "name": "code1",
          "type": "uint256"
        },
        {
          "name": "code2",
          "type": "uint256"
        }
      ],
      "name": "isMutable",
      "outputs": [
        {
          "name": "",
          "type": "bool"
        }
      ],
      "payable": false,
      "stateMutability": "pure",
      "type": "function"
    },
    {
      "constant": false,
      "inputs": [
        {
          "name": "code1",
          "type": "uint256"
        },
        {
          "name": "code2",
          "type": "uint256"
        },
        {
          "name": "traitIndex",
          "type": "uint256"
        },
        {
          "name": "codeIndex",
          "type": "uint8"
        }
      ],
      "name": "mixCodes",
      "outputs": [
        {
          "name": "",
          "type": "uint256"
        }
      ],
      "payable": false,
      "stateMutability": "nonpayable",
      "type": "function"
    },
    {
      "constant": false,
      "inputs": [
        {
          "name": "percent",
          "type": "uint256"
        }
      ],
      "name": "setMutationChance",
      "outputs": [],
      "payable": false,
      "stateMutability": "nonpayable",
      "type": "function"
    },
    {
      "constant": false,
      "inputs": [
        {
          "name": "code1",
          "type": "uint256"
        },
        {
          "name": "code2",
          "type": "uint256"
        },
        {
          "name": "traitIndex",
          "type": "uint256"
        }
      ],
      "name": "mixCodesMutable",
      "outputs": [
        {
          "name": "",
          "type": "uint256"
        }
      ],
      "payable": false,
      "stateMutability": "nonpayable",
      "type": "function"
    },
    {
      "constant": false,
      "inputs": [
        {
          "name": "code1",
          "type": "uint256"
        },
        {
          "name": "code2",
          "type": "uint256"
        }
      ],
      "name": "mixCodesNormal",
      "outputs": [
        {
          "name": "",
          "type": "uint256"
        }
      ],
      "payable": false,
      "stateMutability": "nonpayable",
      "type": "function"
    }
  ],
  "bytecode": "0x608060408190526002805460a060020a61ffff0219167501000000000000000000000000000000000000000000179055601460035560056004819055600c90557f8e9026bc060d15ef8132d3d185c5aa75bf607d3cb297b98b15801f89f1177d346008557fa4b5bcee0079b1c2170eed13499b8f11bb470967b57c73662c6226fa3d808cfa6009556019600a557f4e4f524d414c000000000000000000000000000000000000000000000000000090527f34830a28f0d3ce3b9864e814bfc0a83461a67ccd50b181c9b501c368503d779b600b553480156100df57600080fd5b506040516040806111b28339810160405280516020909101516000805433600160a060020a031991821681178355600280548316821790556001805483169091179055600680548216600160a060020a03958616179055600780549091169390921692909217905561105b90819061015790396000f30060806040526004361061013a5763ffffffff60e060020a6000350416630519ce79811461013f5780630a0f8168146101705780631048af6c1461018557806316126a2c1461019a57806327d7874c146101af5780632ba73c15146101d25780632e39ff84146101f35780633f4ba83a1461021c5780634b46cc16146102315780634e0a3379146102585780635c975abb146102795780635f866c3f1461028e57806376fe6b82146102af5780638456cb59146102cd57806384f0d65d146102e25780638b07517914610300578063960fa70f146103155780639abfa6c614610330578063b047fb5014610345578063bee5a4641461035a578063e7c71d7b14610375578063eac4eb621461038d578063f0d744cf14610417578063fbbd157c14610432578063ff5c472414610456578063ff5d114914610477575b600080fd5b34801561014b57600080fd5b5061015461048c565b60408051600160a060020a039092168252519081900360200190f35b34801561017c57600080fd5b5061015461049b565b34801561019157600080fd5b506101546104aa565b3480156101a657600080fd5b506101546104b9565b3480156101bb57600080fd5b506101d0600160a060020a03600435166104c8565b005b3480156101de57600080fd5b506101d0600160a060020a0360043516610523565b3480156101ff57600080fd5b5061020861057e565b604080519115158252519081900360200190f35b34801561022857600080fd5b506101d0610583565b34801561023d57600080fd5b506102466105e3565b60408051918252519081900360200190f35b34801561026457600080fd5b506101d0600160a060020a03600435166105e9565b34801561028557600080fd5b50610208610644565b34801561029a57600080fd5b506101d0600160a060020a0360043516610665565b3480156102bb57600080fd5b50610246600435602435604435610725565b3480156102d957600080fd5b506101d061091f565b3480156102ee57600080fd5b506102466004356024356044356109c1565b34801561030c57600080fd5b50610246610c52565b34801561032157600080fd5b50610246600435602435610c58565b34801561033c57600080fd5b50610246610cf1565b34801561035157600080fd5b50610154610cf7565b34801561036657600080fd5b50610246600435602435610d06565b34801561038157600080fd5b506101d0600435610db8565b34801561039957600080fd5b506040805160808181019092526103df91369160049160849190839081908390829080828437509396505060ff8435811695506020909401359093169250610e6a915050565b6040518082608080838360005b838110156104045781810151838201526020016103ec565b5050505090500191505060405180910390f35b34801561042357600080fd5b50610208600435602435610ed0565b34801561043e57600080fd5b5061024660043560243560443560ff60643516610f09565b34801561046257600080fd5b506101d0600160a060020a0360043516610f4a565b34801561048357600080fd5b5061024661100a565b600154600160a060020a031681565b600054600160a060020a031681565b600754600160a060020a031681565b600654600160a060020a031681565b600054600160a060020a031633146104df57600080fd5b600160a060020a03811615156104f457600080fd5b6000805473ffffffffffffffffffffffffffffffffffffffff1916600160a060020a0392909216919091179055565b600054600160a060020a0316331461053a57600080fd5b600160a060020a038116151561054f57600080fd5b6002805473ffffffffffffffffffffffffffffffffffffffff1916600160a060020a0392909216919091179055565b600190565b600054600160a060020a0316331461059a57600080fd5b60025474010000000000000000000000000000000000000000900460ff1615156105c357600080fd5b6002805474ff000000000000000000000000000000000000000019169055565b600b5481565b600054600160a060020a0316331461060057600080fd5b600160a060020a038116151561061557600080fd5b6001805473ffffffffffffffffffffffffffffffffffffffff1916600160a060020a0392909216919091179055565b60025474010000000000000000000000000000000000000000900460ff1681565b60008054600160a060020a0316331461067d57600080fd5b81905080600160a060020a031663e6edbb9e6040518163ffffffff1660e060020a028152600401602060405180830381600087803b1580156106be57600080fd5b505af11580156106d2573d6000803e3d6000fd5b505050506040513d60208110156106e857600080fd5b505115156106f557600080fd5b6007805473ffffffffffffffffffffffffffffffffffffffff1916600160a060020a039290921691909117905550565b60008080600d8611158061073a5750600d8511155b156107485750600a5461078a565b600d8611806107575750600d85115b1561076d57600a5460049060030204905061078a565b601786118061077c5750601785115b1561078a5750600a54600290045b600081111561091657600654600954604080517f5e5201b70000000000000000000000000000000000000000000000000000000081526004810192909252518392606492600160a060020a0390911691635e5201b7916024808201926020929091908290030181600087803b15801561080257600080fd5b505af1158015610816573d6000803e3d6000fd5b505050506040513d602081101561082c57600080fd5b505181151561083757fe5b06101561090957600286066001141561085857601060028704019150610862565b6010600286040191505b600754604080517f4361a2ce00000000000000000000000000000000000000000000000000000000815260048101879052602481018590529051600160a060020a0390921691634361a2ce916044808201926020929091908290030181600087803b1580156108d057600080fd5b505af11580156108e4573d6000803e3d6000fd5b505050506040513d60208110156108fa57600080fd5b50511561090957819250610916565b6109138686610d06565b92505b50509392505050565b600254600160a060020a03163314806109425750600054600160a060020a031633145b806109575750600154600160a060020a031633145b151561096257600080fd5b60025474010000000000000000000000000000000000000000900460ff161561098a57600080fd5b6002805474ff0000000000000000000000000000000000000000191674010000000000000000000000000000000000000000179055565b6000806109cc611010565b6109d4611010565b600092508280805b60048360ff161015610a4a578260030360ff16600454028a9060020a9004601f16858460ff16600481101515610a0e57fe5b602002015260048054601f60ff600387900381169290920260020a8c04169186918616908110610a3a57fe5b60200201526001909201916109dc565b600391505b60008260ff161115610be157600654600854604080517f5e5201b7000000000000000000000000000000000000000000000000000000008152600481019290925251601992606492600160a060020a0390911691635e5201b7916024808201926020929091908290030181600087803b158015610acb57600080fd5b505af1158015610adf573d6000803e3d6000fd5b505050506040513d6020811015610af557600080fd5b5051811515610b0057fe5b061015610b1857610b15858360018503610e6a565b94505b600654600854604080517f5e5201b7000000000000000000000000000000000000000000000000000000008152600481019290925251601992606492600160a060020a0390911691635e5201b7916024808201926020929091908290030181600087803b158015610b8857600080fd5b505af1158015610b9c573d6000803e3d6000fd5b505050506040513d6020811015610bb257600080fd5b5051811515610bbd57fe5b061015610bd557610bd2848360018503610e6a565b93505b60001990910190610a4f565b5060005b60048160ff161015610c44576004548160030360ff1602610c30868360ff16600481101515610c1057fe5b60200201518660ff851660048110610c2457fe5b60200201518b85610f09565b60029190910a029590950194600101610be5565b509398975050505050505050565b600a5481565b60008080805b6005548260ff161015610cb057600354610c919060ff841690810260020a808904620fffff9081169291890416906109c1565b60035460ff84160260020a810293909301926001909201919050610c5e565b604080518481529051869188917fc68a987810b3262f3c9fe3bc4ec50455f0f337430434944c6ea33895e5f1edca9181900360200190a35090949350505050565b60095481565b600254600160a060020a031681565b600060326064600660009054906101000a9004600160a060020a0316600160a060020a0316635e5201b7600b546040518263ffffffff1660e060020a02815260040180828152602001915050602060405180830381600087803b158015610d6c57600080fd5b505af1158015610d80573d6000803e3d6000fd5b505050506040513d6020811015610d9657600080fd5b5051811515610da157fe5b061015610daf575081610db2565b50805b92915050565b600054600160a060020a03163314610dcf57600080fd5b6064811115610e6557604080517f08c379a000000000000000000000000000000000000000000000000000000000815260206004820152603860248201527f6d75746174696f6e4368616e63652076616c75652073686f756c64206265206c60448201527f657373207468616e206f7220657175616c20746f203130300000000000000000606482015290519081900360840190fd5b600a55565b610e72611010565b60008460ff851660048110610e8357fe5b602002015190508460ff841660048110610e9957fe5b60200201518560ff861660048110610ead57fe5b6020020152808560ff851660048110610ec257fe5b602002015250929392505050565b600081830360011480610ee557508282036001145b15610f005760048383010660011415610f0057506001610db2565b50600092915050565b60008160ff1660031415610f3857610f218585610ed0565b15610f3857610f31858585610725565b9050610f42565b610f318585610d06565b949350505050565b60008054600160a060020a03163314610f6257600080fd5b81905080600160a060020a031663c733ef4a6040518163ffffffff1660e060020a028152600401602060405180830381600087803b158015610fa357600080fd5b505af1158015610fb7573d6000803e3d6000fd5b505050506040513d6020811015610fcd57600080fd5b50511515610fda57600080fd5b6006805473ffffffffffffffffffffffffffffffffffffffff1916600160a060020a039290921691909117905550565b60085481565b60806040519081016040528060049060208202803883395091929150505600a165627a7a7230582007d9641fcd1114df2d352f149d06afe85d499b0bd351ea3d5d6a9ac22e2dee0f0029",
  "source": "pragma solidity ^0.4.24;\n\nimport \"./ExternalInterfaces/KydyUtilInterface.sol\";\nimport \"./ExternalInterfaces/GeneReleaseInterface.sol\";\nimport \"./KydyAccessControl.sol\";\nimport \"./KydyUtil.sol\";\n\ncontract GeneSynthesis is KydyAccessControl {\n    bool public isGeneSynthesis = true;\n    uint256 traitBits_ = 20;\n    uint256 codeBits_ = 5;\n    uint256 traitsInGene_ = 12;\n\n    KydyUtilInterface public kydyUtil_;\n    GeneReleaseInterface public geneRelease_;\n\n    constructor(address kydyUtilAddr, address geneReleaseAddr) public {\n        ceoAddress = msg.sender;\n        cooAddress = msg.sender;\n        cfoAddress = msg.sender;\n        kydyUtil_ = KydyUtilInterface(kydyUtilAddr);\n        geneRelease_ = GeneReleaseInterface(geneReleaseAddr);\n    }\n\n    function setKydyUtilAddress(address newKydyUtil) public onlyCEO {\n        KydyUtilInterface candidateContract = KydyUtilInterface(newKydyUtil);\n\n        require(candidateContract.isKydyUtil());\n\n        kydyUtil_ = candidateContract;\n    }\n\n    function setGeneReleaseAddress(address newGeneRelease) public onlyCEO {\n        GeneReleaseInterface candidateContract = GeneReleaseInterface(newGeneRelease);\n\n        require(candidateContract.isGeneRelease());\n\n        geneRelease_ = candidateContract;\n    }\n\n    function isGeneSynthesis() public pure returns (bool) {\n        return true;\n    }\n\n    event synthGeneResult(uint256 indexed gene1, uint256 indexed gene2, uint256 mixedGene);\n    function synthGenes(uint256 gene1, uint256 gene2) public returns (uint256) {\n        uint256 _mixedGene = 0;\n\n        for (uint8 i = 0 ; i < traitsInGene_; i++) {\n            uint256 _mixedTrait =\n                mixTraits(\n                    (gene1 >> (i * traitBits_)) & 0xfffff,\n                    (gene2 >> (i * traitBits_)) & 0xfffff,\n                    i\n                );\n            _mixedGene += _mixedTrait << (i * traitBits_);\n        }\n\n        emit synthGeneResult(gene1, gene2, _mixedGene);\n        return _mixedGene;\n    }\n\n    uint256 public selectSeed_ = uint256(keccak256(\"SELECT\"));\n\n    function mixTraits(uint256 trait1, uint256 trait2, uint256 traitIndex) public returns (uint256) {\n        uint256 _mixedTrait = 0;\n        uint256[4] memory _mcode; // mother's trait to code array\n        uint256[4] memory _fcode; // father's trait to code array\n\n        for (uint8 i = 0 ; i < 4 ; i++) {\n            _mcode[i] = (trait1 >> codeBits_ * (3 - i)) & 0x1f;\n            _fcode[i] = (trait2 >> codeBits_ * (3 - i)) & 0x1f;\n        }\n\n        for (uint8 j = 3 ; j > 0 ; j--) { // gene swapping\n            if(kydyUtil_.getRand(selectSeed_) % 100 < 25) {\n                _mcode = swap(_mcode, j, j - 1);\n            }\n            if(kydyUtil_.getRand(selectSeed_) % 100 < 25) {\n                _fcode = swap(_fcode, j, j - 1);\n            }\n        }\n\n        for (uint8 k = 0 ; k < 4 ; k++) {\n            _mixedTrait += mixCodes(_mcode[k], _fcode[k], traitIndex, k) << ((3 - k) * codeBits_);\n        }\n\n        return _mixedTrait;\n    }\n\n    function swap(uint256[4] trait, uint8 num1, uint8 num2) public pure returns (uint256[4]) {\n        uint256 temp = 0;\n\n        temp = trait[num1];\n        trait[num1] = trait[num2];\n        trait[num2] = temp;\n\n        return trait;\n    }\n\n    function isMutable(uint256 code1, uint256 code2) public pure returns (bool) {\n        if (code1 - code2 == 1 || code2 - code1 == 1) {\n            if ((code1 + code2) % 4 == 1) return true;\n        }\n        return false;\n    }\n\n    function mixCodes(uint256 code1, uint256 code2, uint256 traitIndex, uint8 codeIndex) public returns (uint256) {\n        if (codeIndex == 3) { // only active code can be mutated\n            if (isMutable(code1, code2)) return mixCodesMutable(code1, code2, traitIndex);\n            else return mixCodesNormal(code1, code2);\n        }\n        else return mixCodesNormal(code1, code2);\n    }\n\n    uint256 public mutateSeed_ = uint256(keccak256(\"MUTATE\"));\n    uint256 public mutationChance = 25; // percent\n\n    function setMutationChance(uint256 percent) public onlyCEO {\n        require(percent <= 100, \"mutationChance value should be less than or equal to 100\");\n        mutationChance = percent;\n    }\n\n    function mixCodesMutable(uint256 code1, uint256 code2, uint256 traitIndex) public returns (uint256) {\n        uint256 result;\n        uint256 mutProbability = 0;\n\n        if (code1 <= 13 || code2 <= 13) { // mutation probability will be 0.25 -> total 14%\n            mutProbability = mutationChance;\n        }\n        else if (code1 > 13 || code2 > 13) { // mutation probability will be 0.25 * 0.75 -> total 10.5%\n            mutProbability = (mutationChance * 3) / 4;\n        }\n        else if (code1 > 23 || code2 > 23) { // mutation probability will be 0.25 * 0.50 -> total 7%\n            mutProbability = mutationChance / 2;\n        }\n        \n        if (mutProbability > 0) {\n            if (kydyUtil_.getRand(mutateSeed_) % 100 < mutProbability) {\n                if (code1 % 2 == 1) result = (code1 >> 1) + 0x10;\n                else result = (code2 >> 1) + 0x10;\n\n                if (geneRelease_.isCodeReleased(traitIndex, result)) return result;\n                else return mixCodesNormal(code1, code2);\n            } else {\n                return mixCodesNormal(code1, code2);\n            }\n        }\n    }\n\n    uint256 public normalSeed_ = uint256(keccak256(\"NORMAL\"));\n\n    function mixCodesNormal(uint256 code1, uint256 code2) public returns (uint256) {\n        if (kydyUtil_.getRand(normalSeed_) % 100 < 50) return code1;\n        else return code2;\n    }\n}\n",
  "sourcePath": "/Users/Keki/Vrexlab/kydy-solidity/contracts/GeneSynthesis.sol",
  "compiler": {
    "name": "solc",
    "version": "0.4.24+commit.e67f0147.Emscripten.clang"
  },
  "schemaVersion": "2.0.1",
  "updatedAt": "2018-12-17T03:59:09.773Z"
}