{
  "contractName": "GeneScience",
  "abi": [
    {
      "constant": true,
      "inputs": [],
      "name": "cfoAddress",
      "outputs": [
        {
          "name": "",
          "type": "address"
        }
      ],
      "payable": false,
      "stateMutability": "view",
      "type": "function"
    },
    {
      "constant": true,
      "inputs": [],
      "name": "ceoAddress",
      "outputs": [
        {
          "name": "",
          "type": "address"
        }
      ],
      "payable": false,
      "stateMutability": "view",
      "type": "function"
    },
    {
      "constant": true,
      "inputs": [],
      "name": "geneRelease_",
      "outputs": [
        {
          "name": "",
          "type": "address"
        }
      ],
      "payable": false,
      "stateMutability": "view",
      "type": "function"
    },
    {
      "constant": true,
      "inputs": [],
      "name": "kydyUtil_",
      "outputs": [
        {
          "name": "",
          "type": "address"
        }
      ],
      "payable": false,
      "stateMutability": "view",
      "type": "function"
    },
    {
      "constant": false,
      "inputs": [
        {
          "name": "_newCEO",
          "type": "address"
        }
      ],
      "name": "setCEO",
      "outputs": [],
      "payable": false,
      "stateMutability": "nonpayable",
      "type": "function"
    },
    {
      "constant": false,
      "inputs": [
        {
          "name": "_newCOO",
          "type": "address"
        }
      ],
      "name": "setCOO",
      "outputs": [],
      "payable": false,
      "stateMutability": "nonpayable",
      "type": "function"
    },
    {
      "constant": false,
      "inputs": [],
      "name": "unpause",
      "outputs": [],
      "payable": false,
      "stateMutability": "nonpayable",
      "type": "function"
    },
    {
      "constant": true,
      "inputs": [],
      "name": "normalSeed_",
      "outputs": [
        {
          "name": "",
          "type": "uint256"
        }
      ],
      "payable": false,
      "stateMutability": "view",
      "type": "function"
    },
    {
      "constant": false,
      "inputs": [
        {
          "name": "_newCFO",
          "type": "address"
        }
      ],
      "name": "setCFO",
      "outputs": [],
      "payable": false,
      "stateMutability": "nonpayable",
      "type": "function"
    },
    {
      "constant": true,
      "inputs": [],
      "name": "paused",
      "outputs": [
        {
          "name": "",
          "type": "bool"
        }
      ],
      "payable": false,
      "stateMutability": "view",
      "type": "function"
    },
    {
      "constant": false,
      "inputs": [],
      "name": "pause",
      "outputs": [],
      "payable": false,
      "stateMutability": "nonpayable",
      "type": "function"
    },
    {
      "constant": true,
      "inputs": [],
      "name": "mutationChance",
      "outputs": [
        {
          "name": "",
          "type": "uint256"
        }
      ],
      "payable": false,
      "stateMutability": "view",
      "type": "function"
    },
    {
      "constant": true,
      "inputs": [],
      "name": "mutateSeed_",
      "outputs": [
        {
          "name": "",
          "type": "uint256"
        }
      ],
      "payable": false,
      "stateMutability": "view",
      "type": "function"
    },
    {
      "constant": true,
      "inputs": [],
      "name": "cooAddress",
      "outputs": [
        {
          "name": "",
          "type": "address"
        }
      ],
      "payable": false,
      "stateMutability": "view",
      "type": "function"
    },
    {
      "constant": true,
      "inputs": [],
      "name": "selectSeed_",
      "outputs": [
        {
          "name": "",
          "type": "uint256"
        }
      ],
      "payable": false,
      "stateMutability": "view",
      "type": "function"
    },
    {
      "inputs": [
        {
          "name": "kydyUtilAddr",
          "type": "address"
        },
        {
          "name": "geneReleaseAddr",
          "type": "address"
        }
      ],
      "payable": false,
      "stateMutability": "nonpayable",
      "type": "constructor"
    },
    {
      "anonymous": false,
      "inputs": [
        {
          "indexed": true,
          "name": "gene1",
          "type": "uint256"
        },
        {
          "indexed": true,
          "name": "gene2",
          "type": "uint256"
        },
        {
          "indexed": false,
          "name": "mixedGene",
          "type": "uint256"
        }
      ],
      "name": "mixGeneResult",
      "type": "event"
    },
    {
      "anonymous": false,
      "inputs": [
        {
          "indexed": false,
          "name": "newContract",
          "type": "address"
        }
      ],
      "name": "ContractUpgrade",
      "type": "event"
    },
    {
      "constant": false,
      "inputs": [
        {
          "name": "newKydyUtil",
          "type": "address"
        }
      ],
      "name": "setKydyUtilAddress",
      "outputs": [],
      "payable": false,
      "stateMutability": "nonpayable",
      "type": "function"
    },
    {
      "constant": false,
      "inputs": [
        {
          "name": "newGeneRelease",
          "type": "address"
        }
      ],
      "name": "setGeneReleaseAddress",
      "outputs": [],
      "payable": false,
      "stateMutability": "nonpayable",
      "type": "function"
    },
    {
      "constant": true,
      "inputs": [],
      "name": "isGeneScience",
      "outputs": [
        {
          "name": "",
          "type": "bool"
        }
      ],
      "payable": false,
      "stateMutability": "pure",
      "type": "function"
    },
    {
      "constant": false,
      "inputs": [
        {
          "name": "gene1",
          "type": "uint256"
        },
        {
          "name": "gene2",
          "type": "uint256"
        }
      ],
      "name": "mixGenes",
      "outputs": [
        {
          "name": "",
          "type": "uint256"
        }
      ],
      "payable": false,
      "stateMutability": "nonpayable",
      "type": "function"
    },
    {
      "constant": false,
      "inputs": [
        {
          "name": "trait1",
          "type": "uint256"
        },
        {
          "name": "trait2",
          "type": "uint256"
        },
        {
          "name": "traitIndex",
          "type": "uint256"
        }
      ],
      "name": "mixTraits",
      "outputs": [
        {
          "name": "",
          "type": "uint256"
        }
      ],
      "payable": false,
      "stateMutability": "nonpayable",
      "type": "function"
    },
    {
      "constant": false,
      "inputs": [
        {
          "name": "trait",
          "type": "uint256[4]"
        },
        {
          "name": "num1",
          "type": "uint8"
        },
        {
          "name": "num2",
          "type": "uint8"
        }
      ],
      "name": "swap",
      "outputs": [
        {
          "name": "",
          "type": "uint256[4]"
        }
      ],
      "payable": false,
      "stateMutability": "nonpayable",
      "type": "function"
    },
    {
      "constant": true,
      "inputs": [
        {
          "name": "code1",
          "type": "uint256"
        },
        {
          "name": "code2",
          "type": "uint256"
        }
      ],
      "name": "isMutable",
      "outputs": [
        {
          "name": "",
          "type": "bool"
        }
      ],
      "payable": false,
      "stateMutability": "pure",
      "type": "function"
    },
    {
      "constant": false,
      "inputs": [
        {
          "name": "code1",
          "type": "uint256"
        },
        {
          "name": "code2",
          "type": "uint256"
        },
        {
          "name": "traitIndex",
          "type": "uint256"
        },
        {
          "name": "codeIndex",
          "type": "uint8"
        }
      ],
      "name": "mixCodes",
      "outputs": [
        {
          "name": "",
          "type": "uint256"
        }
      ],
      "payable": false,
      "stateMutability": "nonpayable",
      "type": "function"
    },
    {
      "constant": false,
      "inputs": [
        {
          "name": "percent",
          "type": "uint256"
        }
      ],
      "name": "setMutationChance",
      "outputs": [],
      "payable": false,
      "stateMutability": "nonpayable",
      "type": "function"
    },
    {
      "constant": false,
      "inputs": [
        {
          "name": "code1",
          "type": "uint256"
        },
        {
          "name": "code2",
          "type": "uint256"
        },
        {
          "name": "traitIndex",
          "type": "uint256"
        }
      ],
      "name": "mixCodesMutable",
      "outputs": [
        {
          "name": "",
          "type": "uint256"
        }
      ],
      "payable": false,
      "stateMutability": "nonpayable",
      "type": "function"
    },
    {
      "constant": false,
      "inputs": [
        {
          "name": "code1",
          "type": "uint256"
        },
        {
          "name": "code2",
          "type": "uint256"
        }
      ],
      "name": "mixCodesNormal",
      "outputs": [
        {
          "name": "",
          "type": "uint256"
        }
      ],
      "payable": false,
      "stateMutability": "nonpayable",
      "type": "function"
    }
  ],
  "bytecode": "0x60806040526000600260146101000a81548160ff0219169083151502179055506001600260156101000a81548160ff02191690831515021790555060146003556005600455600c60055560405180807f53454c4543540000000000000000000000000000000000000000000000000000815250600601905060405180910390206001900460085560405180807f4d5554415445000000000000000000000000000000000000000000000000000081525060060190506040518091039020600190046009556019600a5560405180807f4e4f524d414c00000000000000000000000000000000000000000000000000008152506006019050604051809103902060019004600b5534801561011157600080fd5b50604051604080611cb68339810180604052810190808051906020019092919080519060200190929190505050336000806101000a81548173ffffffffffffffffffffffffffffffffffffffff021916908373ffffffffffffffffffffffffffffffffffffffff16021790555033600260006101000a81548173ffffffffffffffffffffffffffffffffffffffff021916908373ffffffffffffffffffffffffffffffffffffffff16021790555033600160006101000a81548173ffffffffffffffffffffffffffffffffffffffff021916908373ffffffffffffffffffffffffffffffffffffffff16021790555081600660006101000a81548173ffffffffffffffffffffffffffffffffffffffff021916908373ffffffffffffffffffffffffffffffffffffffff16021790555080600760006101000a81548173ffffffffffffffffffffffffffffffffffffffff021916908373ffffffffffffffffffffffffffffffffffffffff1602179055505050611a23806102936000396000f300608060405260043610610154576000357c0100000000000000000000000000000000000000000000000000000000900463ffffffff1680630519ce79146101595780630a0f8168146101b05780631048af6c1461020757806316126a2c1461025e57806327d7874c146102b55780632ba73c15146102f85780633f4ba83a1461033b5780634b46cc16146103525780634e0a33791461037d57806354c15b82146103c05780635c975abb146103ef5780635f866c3f1461041e57806376fe6b82146104615780638456cb59146104b657806384f0d65d146104cd5780638b075179146105225780638d8b1b881461054d5780639abfa6c614610598578063b047fb50146105c3578063bee5a4641461061a578063e7c71d7b14610665578063eac4eb6214610692578063f0d744cf1461073a578063fbbd157c14610789578063ff5c4724146107eb578063ff5d11491461082e575b600080fd5b34801561016557600080fd5b5061016e610859565b604051808273ffffffffffffffffffffffffffffffffffffffff1673ffffffffffffffffffffffffffffffffffffffff16815260200191505060405180910390f35b3480156101bc57600080fd5b506101c561087f565b604051808273ffffffffffffffffffffffffffffffffffffffff1673ffffffffffffffffffffffffffffffffffffffff16815260200191505060405180910390f35b34801561021357600080fd5b5061021c6108a4565b604051808273ffffffffffffffffffffffffffffffffffffffff1673ffffffffffffffffffffffffffffffffffffffff16815260200191505060405180910390f35b34801561026a57600080fd5b506102736108ca565b604051808273ffffffffffffffffffffffffffffffffffffffff1673ffffffffffffffffffffffffffffffffffffffff16815260200191505060405180910390f35b3480156102c157600080fd5b506102f6600480360381019080803573ffffffffffffffffffffffffffffffffffffffff1690602001909291905050506108f0565b005b34801561030457600080fd5b50610339600480360381019080803573ffffffffffffffffffffffffffffffffffffffff1690602001909291905050506109ca565b005b34801561034757600080fd5b50610350610aa5565b005b34801561035e57600080fd5b50610367610b38565b6040518082815260200191505060405180910390f35b34801561038957600080fd5b506103be600480360381019080803573ffffffffffffffffffffffffffffffffffffffff169060200190929190505050610b3e565b005b3480156103cc57600080fd5b506103d5610c19565b604051808215151515815260200191505060405180910390f35b3480156103fb57600080fd5b50610404610c22565b604051808215151515815260200191505060405180910390f35b34801561042a57600080fd5b5061045f600480360381019080803573ffffffffffffffffffffffffffffffffffffffff169060200190929190505050610c35565b005b34801561046d57600080fd5b506104a0600480360381019080803590602001909291908035906020019092919080359060200190929190505050610d84565b6040518082815260200191505060405180910390f35b3480156104c257600080fd5b506104cb61102f565b005b3480156104d957600080fd5b5061050c600480360381019080803590602001909291908035906020019092919080359060200190929190505050611173565b6040518082815260200191505060405180910390f35b34801561052e57600080fd5b50610537611487565b6040518082815260200191505060405180910390f35b34801561055957600080fd5b50610582600480360381019080803590602001909291908035906020019092919050505061148d565b6040518082815260200191505060405180910390f35b3480156105a457600080fd5b506105ad611543565b6040518082815260200191505060405180910390f35b3480156105cf57600080fd5b506105d8611549565b604051808273ffffffffffffffffffffffffffffffffffffffff1673ffffffffffffffffffffffffffffffffffffffff16815260200191505060405180910390f35b34801561062657600080fd5b5061064f600480360381019080803590602001909291908035906020019092919050505061156f565b6040518082815260200191505060405180910390f35b34801561067157600080fd5b5061069060048036038101908080359060200190929190505050611665565b005b34801561069e57600080fd5b506106fc6004803603810190808060800190600480602002604051908101604052809291908260046020028082843782019150505050509192919290803560ff169060200190929190803560ff169060200190929190505050611769565b6040518082600460200280838360005b8381101561072757808201518184015260208101905061070c565b5050505090500191505060405180910390f35b34801561074657600080fd5b5061076f60048036038101908080359060200190929190803590602001909291905050506117e4565b604051808215151515815260200191505060405180910390f35b34801561079557600080fd5b506107d5600480360381019080803590602001909291908035906020019092919080359060200190929190803560ff16906020019092919050505061182a565b6040518082815260200191505060405180910390f35b3480156107f757600080fd5b5061082c600480360381019080803573ffffffffffffffffffffffffffffffffffffffff16906020019092919050505061187f565b005b34801561083a57600080fd5b506108436119ce565b6040518082815260200191505060405180910390f35b600160009054906101000a900473ffffffffffffffffffffffffffffffffffffffff1681565b6000809054906101000a900473ffffffffffffffffffffffffffffffffffffffff1681565b600760009054906101000a900473ffffffffffffffffffffffffffffffffffffffff1681565b600660009054906101000a900473ffffffffffffffffffffffffffffffffffffffff1681565b6000809054906101000a900473ffffffffffffffffffffffffffffffffffffffff1673ffffffffffffffffffffffffffffffffffffffff163373ffffffffffffffffffffffffffffffffffffffff1614151561094b57600080fd5b600073ffffffffffffffffffffffffffffffffffffffff168173ffffffffffffffffffffffffffffffffffffffff161415151561098757600080fd5b806000806101000a81548173ffffffffffffffffffffffffffffffffffffffff021916908373ffffffffffffffffffffffffffffffffffffffff16021790555050565b6000809054906101000a900473ffffffffffffffffffffffffffffffffffffffff1673ffffffffffffffffffffffffffffffffffffffff163373ffffffffffffffffffffffffffffffffffffffff16141515610a2557600080fd5b600073ffffffffffffffffffffffffffffffffffffffff168173ffffffffffffffffffffffffffffffffffffffff1614151515610a6157600080fd5b80600260006101000a81548173ffffffffffffffffffffffffffffffffffffffff021916908373ffffffffffffffffffffffffffffffffffffffff16021790555050565b6000809054906101000a900473ffffffffffffffffffffffffffffffffffffffff1673ffffffffffffffffffffffffffffffffffffffff163373ffffffffffffffffffffffffffffffffffffffff16141515610b0057600080fd5b600260149054906101000a900460ff161515610b1b57600080fd5b6000600260146101000a81548160ff021916908315150217905550565b600b5481565b6000809054906101000a900473ffffffffffffffffffffffffffffffffffffffff1673ffffffffffffffffffffffffffffffffffffffff163373ffffffffffffffffffffffffffffffffffffffff16141515610b9957600080fd5b600073ffffffffffffffffffffffffffffffffffffffff168173ffffffffffffffffffffffffffffffffffffffff1614151515610bd557600080fd5b80600160006101000a81548173ffffffffffffffffffffffffffffffffffffffff021916908373ffffffffffffffffffffffffffffffffffffffff16021790555050565b60006001905090565b600260149054906101000a900460ff1681565b60008060009054906101000a900473ffffffffffffffffffffffffffffffffffffffff1673ffffffffffffffffffffffffffffffffffffffff163373ffffffffffffffffffffffffffffffffffffffff16141515610c9257600080fd5b8190508073ffffffffffffffffffffffffffffffffffffffff1663e6edbb9e6040518163ffffffff167c0100000000000000000000000000000000000000000000000000000000028152600401602060405180830381600087803b158015610cf957600080fd5b505af1158015610d0d573d6000803e3d6000fd5b505050506040513d6020811015610d2357600080fd5b81019080805190602001909291905050501515610d3f57600080fd5b80600760006101000a81548173ffffffffffffffffffffffffffffffffffffffff021916908373ffffffffffffffffffffffffffffffffffffffff1602179055505050565b6000806000809050600d86111580610d9d5750600d8511155b15610dac57600a549050610e01565b600d861180610dbb5750600d85115b15610dd95760046003600a5402811515610dd157fe5b049050610e00565b6017861180610de85750601785115b15610dff576002600a54811515610dfb57fe5b0490505b5b5b600081111561102557806064600660009054906101000a900473ffffffffffffffffffffffffffffffffffffffff1673ffffffffffffffffffffffffffffffffffffffff16635e5201b76009546040518263ffffffff167c010000000000000000000000000000000000000000000000000000000002815260040180828152602001915050602060405180830381600087803b158015610ea057600080fd5b505af1158015610eb4573d6000803e3d6000fd5b505050506040513d6020811015610eca57600080fd5b8101908080519060200190929190505050811515610ee457fe5b061015611014576001600287811515610ef957fe5b061415610f135760106001879060020a9004019150610f22565b60106001869060020a90040191505b600760009054906101000a900473ffffffffffffffffffffffffffffffffffffffff1673ffffffffffffffffffffffffffffffffffffffff16634361a2ce85846040518363ffffffff167c01000000000000000000000000000000000000000000000000000000000281526004018083815260200182815260200192505050602060405180830381600087803b158015610fbb57600080fd5b505af1158015610fcf573d6000803e3d6000fd5b505050506040513d6020811015610fe557600080fd5b81019080805190602001909291905050501561100357819250611026565b61100d868661156f565b9250611026565b61101e868661156f565b9250611026565b5b50509392505050565b600260009054906101000a900473ffffffffffffffffffffffffffffffffffffffff1673ffffffffffffffffffffffffffffffffffffffff163373ffffffffffffffffffffffffffffffffffffffff1614806110d757506000809054906101000a900473ffffffffffffffffffffffffffffffffffffffff1673ffffffffffffffffffffffffffffffffffffffff163373ffffffffffffffffffffffffffffffffffffffff16145b8061112f5750600160009054906101000a900473ffffffffffffffffffffffffffffffffffffffff1673ffffffffffffffffffffffffffffffffffffffff163373ffffffffffffffffffffffffffffffffffffffff16145b151561113a57600080fd5b600260149054906101000a900460ff1615151561115657600080fd5b6001600260146101000a81548160ff021916908315150217905550565b60008061117e6119d4565b6111866119d4565b6000806000809550600092505b60048360ff16101561120a57601f8360030360ff16600454028b9060020a900416858460ff166004811015156111c557fe5b602002018181525050601f8360030360ff16600454028a9060020a900416848460ff166004811015156111f457fe5b6020020181815250508280600101935050611193565b600391505b60008260ff16111561140f5760196064600660009054906101000a900473ffffffffffffffffffffffffffffffffffffffff1673ffffffffffffffffffffffffffffffffffffffff16635e5201b76008546040518263ffffffff167c010000000000000000000000000000000000000000000000000000000002815260040180828152602001915050602060405180830381600087803b1580156112b257600080fd5b505af11580156112c6573d6000803e3d6000fd5b505050506040513d60208110156112dc57600080fd5b81019080805190602001909291905050508115156112f657fe5b06101561130e5761130b858360018503611769565b94505b60196064600660009054906101000a900473ffffffffffffffffffffffffffffffffffffffff1673ffffffffffffffffffffffffffffffffffffffff16635e5201b76008546040518263ffffffff167c010000000000000000000000000000000000000000000000000000000002815260040180828152602001915050602060405180830381600087803b1580156113a557600080fd5b505af11580156113b9573d6000803e3d6000fd5b505050506040513d60208110156113cf57600080fd5b81019080805190602001909291905050508115156113e957fe5b061015611401576113fe848360018503611769565b93505b81806001900392505061120f565b600090505b60048160ff161015611477576004548160030360ff1602611461868360ff1660048110151561143f57fe5b6020020151868460ff1660048110151561145557fe5b60200201518b8561182a565b9060020a02860195508080600101915050611414565b8596505050505050509392505050565b600a5481565b60008060008060009250600091505b6005548260ff1610156114fe576114dd620fffff6003548460ff1602889060020a900416620fffff6003548560ff1602889060020a9004168460ff16611173565b90506003548260ff1602819060020a0283019250818060010192505061149c565b84867f8324f2996823af8004d58dcafc2fbd0863a359c33a888ae2c408530ff0594fca856040518082815260200191505060405180910390a382935050505092915050565b60095481565b600260009054906101000a900473ffffffffffffffffffffffffffffffffffffffff1681565b600060326064600660009054906101000a900473ffffffffffffffffffffffffffffffffffffffff1673ffffffffffffffffffffffffffffffffffffffff16635e5201b7600b546040518263ffffffff167c010000000000000000000000000000000000000000000000000000000002815260040180828152602001915050602060405180830381600087803b15801561160857600080fd5b505af115801561161c573d6000803e3d6000fd5b505050506040513d602081101561163257600080fd5b810190808051906020019092919050505081151561164c57fe5b06101561165b5782905061165f565b8190505b92915050565b6000809054906101000a900473ffffffffffffffffffffffffffffffffffffffff1673ffffffffffffffffffffffffffffffffffffffff163373ffffffffffffffffffffffffffffffffffffffff161415156116c057600080fd5b6064811115151561175f576040517f08c379a00000000000000000000000000000000000000000000000000000000081526004018080602001828103825260388152602001807f6d75746174696f6e4368616e63652076616c75652073686f756c64206265206c81526020017f657373207468616e206f7220657175616c20746f20313030000000000000000081525060400191505060405180910390fd5b80600a8190555050565b6117716119d4565b6000809050848460ff1660048110151561178757fe5b60200201519050848360ff1660048110151561179f57fe5b6020020151858560ff166004811015156117b557fe5b60200201818152505080858460ff166004811015156117d057fe5b602002018181525050849150509392505050565b6000600182840314806117f957506001838303145b1561181f576001600483850181151561180e57fe5b06141561181e5760019050611824565b5b600090505b92915050565b600060038260ff16141561186a5761184285856117e4565b1561185957611852858585610d84565b9050611877565b611863858561156f565b9050611877565b611874858561156f565b90505b949350505050565b60008060009054906101000a900473ffffffffffffffffffffffffffffffffffffffff1673ffffffffffffffffffffffffffffffffffffffff163373ffffffffffffffffffffffffffffffffffffffff161415156118dc57600080fd5b8190508073ffffffffffffffffffffffffffffffffffffffff1663c733ef4a6040518163ffffffff167c0100000000000000000000000000000000000000000000000000000000028152600401602060405180830381600087803b15801561194357600080fd5b505af1158015611957573d6000803e3d6000fd5b505050506040513d602081101561196d57600080fd5b8101908080519060200190929190505050151561198957600080fd5b80600660006101000a81548173ffffffffffffffffffffffffffffffffffffffff021916908373ffffffffffffffffffffffffffffffffffffffff1602179055505050565b60085481565b6080604051908101604052806004906020820280388339808201915050905050905600a165627a7a723058202794d93569eb3d711cab6af02dc5f9a036a6671eacaecae1d40b80872c25dce70029",
  "source": "pragma solidity ^0.4.24;\n\nimport \"./ExternalInterfaces/KydyUtilInterface.sol\";\nimport \"./ExternalInterfaces/GeneReleaseInterface.sol\";\nimport \"./KydyAccessControl.sol\";\nimport \"./KydyUtil.sol\";\n\ncontract GeneScience is KydyAccessControl {\n    bool public isGeneScience = true;\n    uint256 traitBits_ = 20;\n    uint256 codeBits_ = 5;\n    uint256 traitsInGene_ = 12;\n\n    KydyUtilInterface public kydyUtil_;\n    GeneReleaseInterface public geneRelease_;\n\n    constructor(address kydyUtilAddr, address geneReleaseAddr) public {\n        ceoAddress = msg.sender;\n        cooAddress = msg.sender;\n        cfoAddress = msg.sender;\n        kydyUtil_ = KydyUtilInterface(kydyUtilAddr);\n        geneRelease_ = GeneReleaseInterface(geneReleaseAddr);\n    }\n\n    function setKydyUtilAddress(address newKydyUtil) public onlyCEO {\n        KydyUtilInterface candidateContract = KydyUtilInterface(newKydyUtil);\n\n        require(candidateContract.isKydyUtil());\n\n        kydyUtil_ = candidateContract;\n    }\n\n    function setGeneReleaseAddress(address newGeneRelease) public onlyCEO {\n        GeneReleaseInterface candidateContract = GeneReleaseInterface(newGeneRelease);\n\n        require(candidateContract.isGeneRelease());\n\n        geneRelease_ = candidateContract;\n    }\n\n    function isGeneScience() public pure returns (bool) {\n        return true;\n    }\n\n    event mixGeneResult(uint256 indexed gene1, uint256 indexed gene2, uint256 mixedGene);\n    function mixGenes(uint256 gene1, uint256 gene2) public returns (uint256) {\n        uint256 _mixedGene = 0;\n\n        for (uint8 i = 0 ; i < traitsInGene_; i++) {\n            uint256 _mixedTrait =\n                mixTraits(\n                    (gene1 >> (i * traitBits_)) & 0xfffff,\n                    (gene2 >> (i * traitBits_)) & 0xfffff,\n                    i\n                );\n            _mixedGene += _mixedTrait << (i * traitBits_);\n        }\n\n        emit mixGeneResult(gene1, gene2, _mixedGene);\n        return _mixedGene;\n    }\n\n    uint256 public selectSeed_ = uint256(keccak256(\"SELECT\"));\n\n    function mixTraits(uint256 trait1, uint256 trait2, uint256 traitIndex) public returns (uint256) {\n        uint256 _mixedTrait = 0;\n        uint256[4] memory _mcode; // mother's trait to code array\n        uint256[4] memory _fcode; // father's trait to code array\n\n        for (uint8 i = 0 ; i < 4 ; i++) {\n            _mcode[i] = (trait1 >> codeBits_ * (3 - i)) & 0x1f;\n            _fcode[i] = (trait2 >> codeBits_ * (3 - i)) & 0x1f;\n        }\n\n        for (uint8 j = 3 ; j > 0 ; j--) { // gene swapping\n            if(kydyUtil_.getRand(selectSeed_) % 100 < 25) {\n                _mcode = swap(_mcode, j, j - 1);\n            }\n            if(kydyUtil_.getRand(selectSeed_) % 100 < 25) {\n                _fcode = swap(_fcode, j, j - 1);\n            }\n        }\n\n        for (uint8 k = 0 ; k < 4 ; k++) {\n            _mixedTrait += mixCodes(_mcode[k], _fcode[k], traitIndex, k) << ((3 - k) * codeBits_);\n        }\n\n        return _mixedTrait;\n    }\n\n    function swap(uint256[4] trait, uint8 num1, uint8 num2) public returns (uint256[4]) {\n        uint256 temp = 0;\n\n        temp = trait[num1];\n        trait[num1] = trait[num2];\n        trait[num2] = temp;\n\n        return trait;\n    }\n\n    function isMutable(uint256 code1, uint256 code2) public pure returns (bool) {\n        if (code1 - code2 == 1 || code2 - code1 == 1) {\n            if ((code1 + code2) % 4 == 1) return true;\n        }\n        return false;\n    }\n\n    function mixCodes(uint256 code1, uint256 code2, uint256 traitIndex, uint8 codeIndex) public returns (uint256) {\n        if (codeIndex == 3) { // only active code can be mutated\n            if (isMutable(code1, code2)) return mixCodesMutable(code1, code2, traitIndex);\n            else return mixCodesNormal(code1, code2);\n        }\n        else return mixCodesNormal(code1, code2);\n    }\n\n    uint256 public mutateSeed_ = uint256(keccak256(\"MUTATE\"));\n    uint256 public mutationChance = 25; // percent\n\n    function setMutationChance(uint256 percent) public onlyCEO {\n        require(percent <= 100, \"mutationChance value should be less than or equal to 100\");\n        mutationChance = percent;\n    }\n\n    function mixCodesMutable(uint256 code1, uint256 code2, uint256 traitIndex) public returns (uint256) {\n        uint256 result;\n        uint256 mutProbability = 0;\n\n        if (code1 <= 13 || code2 <= 13) { // mutation probability will be 0.25 -> total 14%\n            mutProbability = mutationChance;\n        }\n        else if (code1 > 13 || code2 > 13) { // mutation probability will be 0.25 * 0.75 -> total 10.5%\n            mutProbability = (mutationChance * 3) / 4;\n        }\n        else if (code1 > 23 || code2 > 23) { // mutation probability will be 0.25 * 0.50 -> total 7%\n            mutProbability = mutationChance / 2;\n        }\n        \n        if (mutProbability > 0) {\n            if (kydyUtil_.getRand(mutateSeed_) % 100 < mutProbability) {\n                if (code1 % 2 == 1) result = (code1 >> 1) + 0x10;\n                else result = (code2 >> 1) + 0x10;\n\n                if (geneRelease_.isCodeReleased(traitIndex, result)) return result;\n                else return mixCodesNormal(code1, code2);\n            } else {\n                return mixCodesNormal(code1, code2);\n            }\n        }\n    }\n\n    uint256 public normalSeed_ = uint256(keccak256(\"NORMAL\"));\n\n    function mixCodesNormal(uint256 code1, uint256 code2) public returns (uint256) {\n        if (kydyUtil_.getRand(normalSeed_) % 100 < 50) return code1;\n        else return code2;\n    }\n}\n",
  "sourcePath": "/Users/Keki/Vrexlab/kydy-solidity/contracts/GeneScience.sol",
  "compiler": {
    "name": "solc",
    "version": "0.4.24+commit.e67f0147.Emscripten.clang"
  },
  "schemaVersion": "2.0.1",
  "updatedAt": "2018-11-12T08:05:19.258Z"
}