{
  "contractName": "GeneRelease",
  "abi": [
    {
      "constant": true,
      "inputs": [],
      "name": "cfoAddress",
      "outputs": [
        {
          "name": "",
          "type": "address"
        }
      ],
      "payable": false,
      "stateMutability": "view",
      "type": "function"
    },
    {
      "constant": true,
      "inputs": [],
      "name": "ceoAddress",
      "outputs": [
        {
          "name": "",
          "type": "address"
        }
      ],
      "payable": false,
      "stateMutability": "view",
      "type": "function"
    },
    {
      "constant": false,
      "inputs": [
        {
          "name": "_newCEO",
          "type": "address"
        }
      ],
      "name": "setCEO",
      "outputs": [],
      "payable": false,
      "stateMutability": "nonpayable",
      "type": "function"
    },
    {
      "constant": false,
      "inputs": [
        {
          "name": "_newCOO",
          "type": "address"
        }
      ],
      "name": "setCOO",
      "outputs": [],
      "payable": false,
      "stateMutability": "nonpayable",
      "type": "function"
    },
    {
      "constant": false,
      "inputs": [],
      "name": "unpause",
      "outputs": [],
      "payable": false,
      "stateMutability": "nonpayable",
      "type": "function"
    },
    {
      "constant": false,
      "inputs": [
        {
          "name": "_newCFO",
          "type": "address"
        }
      ],
      "name": "setCFO",
      "outputs": [],
      "payable": false,
      "stateMutability": "nonpayable",
      "type": "function"
    },
    {
      "constant": true,
      "inputs": [],
      "name": "paused",
      "outputs": [
        {
          "name": "",
          "type": "bool"
        }
      ],
      "payable": false,
      "stateMutability": "view",
      "type": "function"
    },
    {
      "constant": false,
      "inputs": [],
      "name": "pause",
      "outputs": [],
      "payable": false,
      "stateMutability": "nonpayable",
      "type": "function"
    },
    {
      "constant": true,
      "inputs": [],
      "name": "cooAddress",
      "outputs": [
        {
          "name": "",
          "type": "address"
        }
      ],
      "payable": false,
      "stateMutability": "view",
      "type": "function"
    },
    {
      "constant": true,
      "inputs": [],
      "name": "isGeneRelease",
      "outputs": [
        {
          "name": "",
          "type": "bool"
        }
      ],
      "payable": false,
      "stateMutability": "view",
      "type": "function"
    },
    {
      "inputs": [],
      "payable": false,
      "stateMutability": "nonpayable",
      "type": "constructor"
    },
    {
      "anonymous": false,
      "inputs": [
        {
          "indexed": false,
          "name": "newContract",
          "type": "address"
        }
      ],
      "name": "ContractUpgrade",
      "type": "event"
    },
    {
      "constant": true,
      "inputs": [
        {
          "name": "traitIndex",
          "type": "uint256"
        },
        {
          "name": "code",
          "type": "uint256"
        }
      ],
      "name": "isCodeReleased",
      "outputs": [
        {
          "name": "",
          "type": "bool"
        }
      ],
      "payable": false,
      "stateMutability": "view",
      "type": "function"
    },
    {
      "constant": false,
      "inputs": [
        {
          "name": "traitIndex",
          "type": "uint256"
        },
        {
          "name": "code",
          "type": "uint256"
        }
      ],
      "name": "releaseCode",
      "outputs": [],
      "payable": false,
      "stateMutability": "nonpayable",
      "type": "function"
    },
    {
      "constant": false,
      "inputs": [
        {
          "name": "traitIndex",
          "type": "uint256"
        },
        {
          "name": "code",
          "type": "uint256"
        }
      ],
      "name": "blockCode",
      "outputs": [],
      "payable": false,
      "stateMutability": "nonpayable",
      "type": "function"
    },
    {
      "constant": true,
      "inputs": [],
      "name": "getReleaseStatus",
      "outputs": [
        {
          "name": "",
          "type": "uint256[384]"
        }
      ],
      "payable": false,
      "stateMutability": "view",
      "type": "function"
    }
  ],
  "bytecode": "0x60806040526002805460a060020a61ffff021916750100000000000000000000000000000000000000000017905534801561003957600080fd5b506000805433600160a060020a0319918216811783556002805483168217905560018054909216178155604080516130008101825282815260208101849052908101839052606081018390526080810183905260a0810183905260c0810183905260e0810183905261010081018390526101208101839052610140810183905261016081018390526101808082018490526101a082018490526101c082018490526101e08201849052610200820184905261022082018490526102408201849052610260820184905261028082018490526102a082018490526102c082018490526102e08201849052610300820184905261032082018490526103408201849052610360820184905261038082018490526103a082018490526103c082018490526103e08201849052610400820183905261042082018490526104408201849052610460820184905261048082018490526104a082018490526104c082018490526104e08201849052610500820184905261052082018490526105408201849052610560820184905261058082018490526105a082018490526105c082018490526105e08201849052610600820184905261062082018490526106408201849052610660820184905261068082018490526106a082018490526106c082018490526106e08201849052610700820184905261072082018490526107408201849052610760820184905261078082018490526107a082018490526107c082018490526107e08201849052610800820183905261082082018490526108408201839052610860820184905261088082018390526108a082018490526108c082018390526108e08201839052610900820184905261092082018490526109408201849052610960820184905261098082018490526109a082018490526109c082018490526109e08201849052610a008201849052610a208201849052610a408201849052610a608201839052610a808201849052610aa08201849052610ac08201849052610ae08201849052610b008201849052610b208201849052610b408201849052610b608201849052610b808201849052610ba08201849052610bc08201849052610be08201849052610c008201839052610c208201849052610c408201839052610c608201849052610c808201839052610ca08201849052610cc08201839052610ce08201849052610d008201839052610d208201849052610d408201849052610d608201849052610d808201849052610da08201849052610dc08201849052610de08201849052610e008201849052610e208201849052610e408201849052610e608201849052610e808201849052610ea08201849052610ec08201849052610ee08201849052610f008201849052610f208201849052610f408201849052610f608201849052610f808201849052610fa08201849052610fc08201849052610fe08201849052611000820183905261102082018490526110408201839052611060820184905261108082018390526110a082018490526110c082018390526110e08201849052611100820183905261112082018490526111408201849052611160820184905261118082018490526111a082018490526111c082018490526111e08201849052611200820184905261122082018490526112408201849052611260820184905261128082018490526112a082018490526112c082018490526112e08201849052611300820184905261132082018490526113408201849052611360820184905261138082018490526113a082018490526113c082018490526113e08201849052611400820183905261142082018490526114408201839052611460820184905261148082018390526114a082018490526114c082018390526114e08201849052611500820183905261152082018490526115408201849052611560820184905261158082018490526115a082018490526115c082018490526115e08201849052611600820184905261162082018490526116408201849052611660820184905261168082018490526116a082018490526116c082018490526116e08201849052611700820184905261172082018490526117408201849052611760820184905261178082018490526117a082018490526117c082018490526117e08201849052611800820183905261182082018490526118408201839052611860820184905261188082018390526118a082018490526118c082018390526118e08201849052611900820183905261192082018490526119408201839052611960820184905261198082018490526119a082018490526119c082018490526119e08201849052611a008201849052611a208201849052611a408201849052611a608201849052611a808201849052611aa08201849052611ac08201849052611ae08201849052611b008201849052611b208201849052611b408201849052611b608201849052611b808201849052611ba08201849052611bc08201849052611be08201849052611c008201839052611c208201849052611c408201839052611c608201849052611c808201839052611ca08201849052611cc08201839052611ce08201849052611d008201839052611d208201849052611d408201849052611d608201849052611d808201849052611da08201849052611dc08201849052611de08201849052611e008201849052611e208201849052611e408201849052611e608201849052611e808201849052611ea08201849052611ec08201849052611ee08201849052611f008201849052611f208201849052611f408201849052611f608201849052611f808201849052611fa08201849052611fc08201849052611fe08201849052612000820183905261202082018490526120408201839052612060820184905261208082018390526120a082018490526120c082018390526120e08201849052612100820184905261212082018490526121408201849052612160820184905261218082018490526121a082018490526121c082018490526121e08201849052612200820184905261222082018490526122408201849052612260820184905261228082018490526122a082018490526122c082018490526122e08201849052612300820184905261232082018490526123408201849052612360820184905261238082018490526123a082018490526123c082018490526123e08201849052612400820183905261242082018490526124408201839052612460820184905261248082018390526124a082018490526124c082018390526124e08201849052612500820183905261252082018490526125408201849052612560820184905261258082018490526125a082018490526125c082018490526125e08201849052612600820184905261262082018490526126408201849052612660820184905261268082018490526126a082018490526126c082018490526126e08201849052612700820184905261272082018490526127408201849052612760820184905261278082018490526127a082018490526127c082018490526127e08201849052612800820183905261282082018490526128408201839052612860820184905261288082018390526128a082018490526128c082018390526128e08201849052612900820183905261292082018490526129408201849052612960820184905261298082018490526129a082018490526129c082018490526129e08201849052612a008201849052612a208201849052612a408201849052612a608201849052612a808201849052612aa08201849052612ac08201849052612ae08201849052612b008201849052612b208201849052612b408201849052612b608201849052612b808201849052612ba08201849052612bc08201849052612be08201849052612c008201839052612c208201849052612c408201839052612c608201849052612c808201839052612ca08201849052612cc08201839052612ce08201849052612d00820192909252612d208101839052612d408101839052612d608101839052612d808101839052612da08101839052612dc08101839052612de08101839052612e008101839052612e208101839052612e408101839052612e608101839052612e808101839052612ea08101839052612ec08101839052612ee08101839052612f008101839052612f208101839052612f408101839052612f608101839052612f808101839052612fa08101839052612fc08101839052612fe0810192909252610c7091600391610c76565b50610cd7565b826101808101928215610caa579160200282015b82811115610caa578251829060ff16905591602001919060010190610c8a565b50610cb6929150610cba565b5090565b610cd491905b80821115610cb65760008155600101610cc0565b90565b61072e80610ce66000396000f3006080604052600436106100cf5763ffffffff7c01000000000000000000000000000000000000000000000000000000006000350416630519ce7981146100d45780630a0f81681461010557806327d7874c1461011a5780632ba73c151461013d5780633f4ba83a1461015e5780634361a2ce146101735780634abfce7e146101a25780634e0a3379146101bd5780635c975abb146101de5780637782153a146101f35780638456cb591461020e578063a5fede1d14610223578063b047fb5014610271578063e6edbb9e14610286575b600080fd5b3480156100e057600080fd5b506100e961029b565b60408051600160a060020a039092168252519081900360200190f35b34801561011157600080fd5b506100e96102aa565b34801561012657600080fd5b5061013b600160a060020a03600435166102b9565b005b34801561014957600080fd5b5061013b600160a060020a0360043516610314565b34801561016a57600080fd5b5061013b61036f565b34801561017f57600080fd5b5061018e6004356024356103cf565b604080519115158252519081900360200190f35b3480156101ae57600080fd5b5061013b6004356024356103f0565b3480156101c957600080fd5b5061013b600160a060020a036004351661049c565b3480156101ea57600080fd5b5061018e6104f7565b3480156101ff57600080fd5b5061013b600435602435610518565b34801561021a57600080fd5b5061013b6105ba565b34801561022f57600080fd5b5061023861065c565b604051808261300080838360005b8381101561025e578181015183820152602001610246565b5050505090500191505060405180910390f35b34801561027d57600080fd5b506100e96106b0565b34801561029257600080fd5b5061018e6106bf565b600154600160a060020a031681565b600054600160a060020a031681565b600054600160a060020a031633146102d057600080fd5b600160a060020a03811615156102e557600080fd5b6000805473ffffffffffffffffffffffffffffffffffffffff1916600160a060020a0392909216919091179055565b600054600160a060020a0316331461032b57600080fd5b600160a060020a038116151561034057600080fd5b6002805473ffffffffffffffffffffffffffffffffffffffff1916600160a060020a0392909216919091179055565b600054600160a060020a0316331461038657600080fd5b60025474010000000000000000000000000000000000000000900460ff1615156103af57600080fd5b6002805474ff000000000000000000000000000000000000000019169055565b6000600360208402830161018081106103e457fe5b01546001149392505050565b600054600160a060020a0316331461040757600080fd5b61041182826103cf565b151560011461048157604080517f08c379a000000000000000000000000000000000000000000000000000000000815260206004820152600c60248201527f4e6f742072656c65617365640000000000000000000000000000000000000000604482015290519081900360640190fd5b60006003602084028301610180811061049657fe5b01555050565b600054600160a060020a031633146104b357600080fd5b600160a060020a03811615156104c857600080fd5b6001805473ffffffffffffffffffffffffffffffffffffffff1916600160a060020a0392909216919091179055565b60025474010000000000000000000000000000000000000000900460ff1681565b600054600160a060020a0316331461052f57600080fd5b61053982826103cf565b156105a557604080517f08c379a000000000000000000000000000000000000000000000000000000000815260206004820152601060248201527f416c72656164792072656c656173656400000000000000000000000000000000604482015290519081900360640190fd5b60016003602084028301610180811061049657fe5b600254600160a060020a03163314806105dd5750600054600160a060020a031633145b806105f25750600154600160a060020a031633145b15156105fd57600080fd5b60025474010000000000000000000000000000000000000000900460ff161561062557600080fd5b6002805474ff0000000000000000000000000000000000000000191674010000000000000000000000000000000000000000179055565b6106646106e1565b600054600160a060020a0316331461067b57600080fd5b60408051613000810191829052906003906101809082845b815481526020019060010190808311610693575050505050905090565b600254600160a060020a031681565b6002547501000000000000000000000000000000000000000000900460ff1681565b613000604051908101604052806101809060208202803883395091929150505600a165627a7a723058202ce006ccf7312c65c1772104ac9784c5c35248a69702477508ccb641fb1bfa380029",
  "source": "pragma solidity ^0.4.24;\n\nimport \"./KydyAccessControl.sol\";\n\ncontract GeneRelease is KydyAccessControl {\n\n    bool public isGeneRelease = true;\n    uint256[12 * 32] private releaseStatus;\n\n    // This should be fixed in production\n    constructor() public {\n        ceoAddress = msg.sender;\n        cooAddress = msg.sender;\n        cfoAddress = msg.sender;\n        releaseStatus = [\n            //reserved\n            1, 0, 0, 0, 0, 0, 0, 0, 0, 0, 0, 0, 0, 0, 0, 0, 0, 0, 0, 0, 0, 0, 0, 0, 0, 0, 0, 0, 0, 0, 0, 0,\n            //reserved\n            1, 0, 0, 0, 0, 0, 0, 0, 0, 0, 0, 0, 0, 0, 0, 0, 0, 0, 0, 0, 0, 0, 0, 0, 0, 0, 0, 0, 0, 0, 0, 0,\n            //personality\n            1, 0, 1, 0, 1, 0, 1, 1, 0, 0, 0, 0, 0, 0, 0, 0, 0, 0, 0, 1, 0, 0, 0, 0, 0, 0, 0, 0, 0, 0, 0, 0,\n            //wing type\n            1, 0, 1, 0, 1, 0, 1, 0, 1, 0, 0, 0, 0, 0, 0, 0, 0, 0, 0, 0, 0, 0, 0, 0, 0, 0, 0, 0, 0, 0, 0, 0,\n            //horn type\n            1, 0, 1, 0, 1, 0, 1, 0, 1, 0, 0, 0, 0, 0, 0, 0, 0, 0, 0, 0, 0, 0, 0, 0, 0, 0, 0, 0, 0, 0, 0, 0,\n            //eye color\n            1, 0, 1, 0, 1, 0, 1, 0, 1, 0, 0, 0, 0, 0, 0, 0, 0, 0, 0, 0, 0, 0, 0, 0, 0, 0, 0, 0, 0, 0, 0, 0,\n            //eye type\n            1, 0, 1, 0, 1, 0, 1, 0, 1, 0, 1, 0, 0, 0, 0, 0, 0, 0, 0, 0, 0, 0, 0, 0, 0, 0, 0, 0, 0, 0, 0, 0,\n            //pattern color\n            1, 0, 1, 0, 1, 0, 1, 0, 1, 0, 0, 0, 0, 0, 0, 0, 0, 0, 0, 0, 0, 0, 0, 0, 0, 0, 0, 0, 0, 0, 0, 0,\n            //pattern type\n            1, 0, 1, 0, 1, 0, 1, 0, 0, 0, 0, 0, 0, 0, 0, 0, 0, 0, 0, 0, 0, 0, 0, 0, 0, 0, 0, 0, 0, 0, 0, 0,\n            //wing & horn color\n            1, 0, 1, 0, 1, 0, 1, 0, 1, 0, 0, 0, 0, 0, 0, 0, 0, 0, 0, 0, 0, 0, 0, 0, 0, 0, 0, 0, 0, 0, 0, 0,\n            //body color\n            1, 0, 1, 0, 1, 0, 1, 0, 1, 0, 0, 0, 0, 0, 0, 0, 0, 0, 0, 0, 0, 0, 0, 0, 0, 0, 0, 0, 0, 0, 0, 0,\n            //body type\n            1, 0, 1, 0, 1, 0, 1, 0, 1, 0, 0, 0, 0, 0, 0, 0, 0, 0, 0, 0, 0, 0, 0, 0, 0, 0, 0, 0, 0, 0, 0, 0\n        ];\n    }\n\n    function isCodeReleased(uint256 traitIndex, uint256 code) public view returns (bool) {\n        return releaseStatus[traitIndex * 32 + code] == 1;\n    }\n\n    function releaseCode(uint256 traitIndex, uint256 code) public onlyCEO {\n        require(isCodeReleased(traitIndex, code) == false, \"Already released\");\n        releaseStatus[traitIndex * 32 + code] = 1;\n    }\n\n    function blockCode(uint256 traitIndex, uint256 code) public onlyCEO {\n        require(isCodeReleased(traitIndex, code) == true, \"Not released\");\n        releaseStatus[traitIndex * 32 + code] = 0;\n    }\n\n    function getReleaseStatus() public view onlyCEO returns(uint256[12 * 32]) {\n        return releaseStatus;\n    }\n}\n",
  "sourcePath": "/Users/Keki/Vrexlab/kydy-solidity/contracts/GeneRelease.sol",
  "compiler": {
    "name": "solc",
    "version": "0.4.24+commit.e67f0147.Emscripten.clang"
  },
  "schemaVersion": "2.0.1",
  "updatedAt": "2018-12-17T03:59:09.757Z"
}