{
  "contractName": "KydyCoreTest",
  "abi": [
    {
      "constant": true,
      "inputs": [
        {
          "name": "interfaceId",
          "type": "bytes4"
        }
      ],
      "name": "supportsInterface",
      "outputs": [
        {
          "name": "",
          "type": "bool"
        }
      ],
      "payable": false,
      "stateMutability": "view",
      "type": "function"
    },
    {
      "constant": true,
      "inputs": [],
      "name": "cfoAddress",
      "outputs": [
        {
          "name": "",
          "type": "address"
        }
      ],
      "payable": false,
      "stateMutability": "view",
      "type": "function"
    },
    {
      "constant": true,
      "inputs": [],
      "name": "promoCreatedCount",
      "outputs": [
        {
          "name": "",
          "type": "uint256"
        }
      ],
      "payable": false,
      "stateMutability": "view",
      "type": "function"
    },
    {
      "constant": true,
      "inputs": [],
      "name": "name",
      "outputs": [
        {
          "name": "",
          "type": "string"
        }
      ],
      "payable": false,
      "stateMutability": "view",
      "type": "function"
    },
    {
      "constant": true,
      "inputs": [
        {
          "name": "tokenId",
          "type": "uint256"
        }
      ],
      "name": "getApproved",
      "outputs": [
        {
          "name": "",
          "type": "address"
        }
      ],
      "payable": false,
      "stateMutability": "view",
      "type": "function"
    },
    {
      "constant": false,
      "inputs": [
        {
          "name": "to",
          "type": "address"
        },
        {
          "name": "tokenId",
          "type": "uint256"
        }
      ],
      "name": "approve",
      "outputs": [],
      "payable": false,
      "stateMutability": "nonpayable",
      "type": "function"
    },
    {
      "constant": true,
      "inputs": [],
      "name": "ceoAddress",
      "outputs": [
        {
          "name": "",
          "type": "address"
        }
      ],
      "payable": false,
      "stateMutability": "view",
      "type": "function"
    },
    {
      "constant": false,
      "inputs": [
        {
          "name": "_address",
          "type": "address"
        }
      ],
      "name": "setGeneSynthesisAddress",
      "outputs": [],
      "payable": false,
      "stateMutability": "nonpayable",
      "type": "function"
    },
    {
      "constant": true,
      "inputs": [],
      "name": "totalSupply",
      "outputs": [
        {
          "name": "",
          "type": "uint256"
        }
      ],
      "payable": false,
      "stateMutability": "view",
      "type": "function"
    },
    {
      "constant": true,
      "inputs": [],
      "name": "synthesizingAuction",
      "outputs": [
        {
          "name": "",
          "type": "address"
        }
      ],
      "payable": false,
      "stateMutability": "view",
      "type": "function"
    },
    {
      "constant": false,
      "inputs": [
        {
          "name": "_kydyId",
          "type": "uint256"
        },
        {
          "name": "_price",
          "type": "uint256"
        }
      ],
      "name": "createSaleAuction",
      "outputs": [],
      "payable": false,
      "stateMutability": "nonpayable",
      "type": "function"
    },
    {
      "constant": false,
      "inputs": [
        {
          "name": "from",
          "type": "address"
        },
        {
          "name": "to",
          "type": "address"
        },
        {
          "name": "tokenId",
          "type": "uint256"
        }
      ],
      "name": "transferFrom",
      "outputs": [],
      "payable": false,
      "stateMutability": "nonpayable",
      "type": "function"
    },
    {
      "constant": true,
      "inputs": [
        {
          "name": "_id",
          "type": "uint256"
        }
      ],
      "name": "getKydy",
      "outputs": [
        {
          "name": "isGestating",
          "type": "bool"
        },
        {
          "name": "isReady",
          "type": "bool"
        },
        {
          "name": "cooldownIndex",
          "type": "uint256"
        },
        {
          "name": "nextActionAt",
          "type": "uint256"
        },
        {
          "name": "synthesizingWithId",
          "type": "uint256"
        },
        {
          "name": "birthTime",
          "type": "uint256"
        },
        {
          "name": "yinId",
          "type": "uint256"
        },
        {
          "name": "yangId",
          "type": "uint256"
        },
        {
          "name": "generation",
          "type": "uint256"
        },
        {
          "name": "genes",
          "type": "uint256"
        }
      ],
      "payable": false,
      "stateMutability": "view",
      "type": "function"
    },
    {
      "constant": false,
      "inputs": [
        {
          "name": "_addr",
          "type": "address"
        },
        {
          "name": "_yangId",
          "type": "uint256"
        }
      ],
      "name": "approveSynthesizing",
      "outputs": [],
      "payable": false,
      "stateMutability": "nonpayable",
      "type": "function"
    },
    {
      "constant": false,
      "inputs": [
        {
          "name": "_newCEO",
          "type": "address"
        }
      ],
      "name": "setCEO",
      "outputs": [],
      "payable": false,
      "stateMutability": "nonpayable",
      "type": "function"
    },
    {
      "constant": false,
      "inputs": [
        {
          "name": "_newCOO",
          "type": "address"
        }
      ],
      "name": "setCOO",
      "outputs": [],
      "payable": false,
      "stateMutability": "nonpayable",
      "type": "function"
    },
    {
      "constant": false,
      "inputs": [
        {
          "name": "_yangId",
          "type": "uint256"
        },
        {
          "name": "_yinId",
          "type": "uint256"
        }
      ],
      "name": "bidOnSynthesizingAuction",
      "outputs": [],
      "payable": true,
      "stateMutability": "payable",
      "type": "function"
    },
    {
      "constant": false,
      "inputs": [],
      "name": "unpause",
      "outputs": [],
      "payable": false,
      "stateMutability": "nonpayable",
      "type": "function"
    },
    {
      "constant": false,
      "inputs": [
        {
          "name": "_newTravelCore",
          "type": "address"
        }
      ],
      "name": "setTravelCore",
      "outputs": [],
      "payable": false,
      "stateMutability": "nonpayable",
      "type": "function"
    },
    {
      "constant": true,
      "inputs": [],
      "name": "gen0CreationLimit",
      "outputs": [
        {
          "name": "",
          "type": "uint256"
        }
      ],
      "payable": false,
      "stateMutability": "view",
      "type": "function"
    },
    {
      "constant": false,
      "inputs": [
        {
          "name": "from",
          "type": "address"
        },
        {
          "name": "to",
          "type": "address"
        },
        {
          "name": "tokenId",
          "type": "uint256"
        }
      ],
      "name": "safeTransferFrom",
      "outputs": [],
      "payable": false,
      "stateMutability": "nonpayable",
      "type": "function"
    },
    {
      "constant": false,
      "inputs": [
        {
          "name": "_yinId",
          "type": "uint256"
        },
        {
          "name": "_yangId",
          "type": "uint256"
        }
      ],
      "name": "synthesizeWithAuto",
      "outputs": [],
      "payable": true,
      "stateMutability": "payable",
      "type": "function"
    },
    {
      "constant": false,
      "inputs": [
        {
          "name": "val",
          "type": "uint256"
        }
      ],
      "name": "setAutoBirthFee",
      "outputs": [],
      "payable": false,
      "stateMutability": "nonpayable",
      "type": "function"
    },
    {
      "constant": false,
      "inputs": [
        {
          "name": "_newCFO",
          "type": "address"
        }
      ],
      "name": "setCFO",
      "outputs": [],
      "payable": false,
      "stateMutability": "nonpayable",
      "type": "function"
    },
    {
      "constant": true,
      "inputs": [
        {
          "name": "",
          "type": "uint256"
        }
      ],
      "name": "kydyIndexToOwner",
      "outputs": [
        {
          "name": "",
          "type": "address"
        }
      ],
      "payable": false,
      "stateMutability": "view",
      "type": "function"
    },
    {
      "constant": false,
      "inputs": [
        {
          "name": "secs",
          "type": "uint256"
        }
      ],
      "name": "setSecondsPerBlock",
      "outputs": [],
      "payable": false,
      "stateMutability": "nonpayable",
      "type": "function"
    },
    {
      "constant": true,
      "inputs": [],
      "name": "paused",
      "outputs": [
        {
          "name": "",
          "type": "bool"
        }
      ],
      "payable": false,
      "stateMutability": "view",
      "type": "function"
    },
    {
      "constant": false,
      "inputs": [],
      "name": "withdrawBalance",
      "outputs": [],
      "payable": false,
      "stateMutability": "nonpayable",
      "type": "function"
    },
    {
      "constant": true,
      "inputs": [],
      "name": "geneSynthesis",
      "outputs": [
        {
          "name": "",
          "type": "address"
        }
      ],
      "payable": false,
      "stateMutability": "view",
      "type": "function"
    },
    {
      "constant": true,
      "inputs": [
        {
          "name": "_tokenId",
          "type": "uint256"
        }
      ],
      "name": "ownerOf",
      "outputs": [
        {
          "name": "",
          "type": "address"
        }
      ],
      "payable": false,
      "stateMutability": "view",
      "type": "function"
    },
    {
      "constant": true,
      "inputs": [],
      "name": "newContractAddress",
      "outputs": [
        {
          "name": "",
          "type": "address"
        }
      ],
      "payable": false,
      "stateMutability": "view",
      "type": "function"
    },
    {
      "constant": false,
      "inputs": [
        {
          "name": "_address",
          "type": "address"
        }
      ],
      "name": "setSaleAuctionAddress",
      "outputs": [],
      "payable": false,
      "stateMutability": "nonpayable",
      "type": "function"
    },
    {
      "constant": true,
      "inputs": [
        {
          "name": "_owner",
          "type": "address"
        }
      ],
      "name": "balanceOf",
      "outputs": [
        {
          "name": "",
          "type": "uint256"
        }
      ],
      "payable": false,
      "stateMutability": "view",
      "type": "function"
    },
    {
      "constant": false,
      "inputs": [
        {
          "name": "_v2Address",
          "type": "address"
        }
      ],
      "name": "setNewAddress",
      "outputs": [],
      "payable": false,
      "stateMutability": "nonpayable",
      "type": "function"
    },
    {
      "constant": true,
      "inputs": [],
      "name": "secondsPerBlock",
      "outputs": [
        {
          "name": "",
          "type": "uint256"
        }
      ],
      "payable": false,
      "stateMutability": "view",
      "type": "function"
    },
    {
      "constant": true,
      "inputs": [
        {
          "name": "",
          "type": "uint256"
        }
      ],
      "name": "kydyIndexToApproved",
      "outputs": [
        {
          "name": "",
          "type": "address"
        }
      ],
      "payable": false,
      "stateMutability": "view",
      "type": "function"
    },
    {
      "constant": false,
      "inputs": [],
      "name": "pause",
      "outputs": [],
      "payable": false,
      "stateMutability": "nonpayable",
      "type": "function"
    },
    {
      "constant": true,
      "inputs": [
        {
          "name": "_owner",
          "type": "address"
        }
      ],
      "name": "tokensOfOwner",
      "outputs": [
        {
          "name": "ownerTokens",
          "type": "uint256[]"
        }
      ],
      "payable": false,
      "stateMutability": "view",
      "type": "function"
    },
    {
      "constant": false,
      "inputs": [
        {
          "name": "_yinId",
          "type": "uint256"
        }
      ],
      "name": "giveBirth",
      "outputs": [
        {
          "name": "",
          "type": "uint256"
        }
      ],
      "payable": false,
      "stateMutability": "nonpayable",
      "type": "function"
    },
    {
      "constant": true,
      "inputs": [
        {
          "name": "",
          "type": "uint256"
        }
      ],
      "name": "synthesizeAllowedToAddress",
      "outputs": [
        {
          "name": "",
          "type": "address"
        }
      ],
      "payable": false,
      "stateMutability": "view",
      "type": "function"
    },
    {
      "constant": false,
      "inputs": [],
      "name": "withdrawAuctionBalances",
      "outputs": [],
      "payable": false,
      "stateMutability": "nonpayable",
      "type": "function"
    },
    {
      "constant": false,
      "inputs": [
        {
          "name": "_address",
          "type": "address"
        }
      ],
      "name": "setSynthesizingAuctionAddress",
      "outputs": [],
      "payable": false,
      "stateMutability": "nonpayable",
      "type": "function"
    },
    {
      "constant": true,
      "inputs": [],
      "name": "symbol",
      "outputs": [
        {
          "name": "",
          "type": "string"
        }
      ],
      "payable": false,
      "stateMutability": "view",
      "type": "function"
    },
    {
      "constant": false,
      "inputs": [
        {
          "name": "_genes",
          "type": "uint256"
        },
        {
          "name": "_owner",
          "type": "address"
        }
      ],
      "name": "createPromoKydy",
      "outputs": [],
      "payable": false,
      "stateMutability": "nonpayable",
      "type": "function"
    },
    {
      "constant": true,
      "inputs": [
        {
          "name": "_yinId",
          "type": "uint256"
        },
        {
          "name": "_yangId",
          "type": "uint256"
        }
      ],
      "name": "canSynthesizeWith",
      "outputs": [
        {
          "name": "",
          "type": "bool"
        }
      ],
      "payable": false,
      "stateMutability": "view",
      "type": "function"
    },
    {
      "constant": false,
      "inputs": [
        {
          "name": "_kydyId",
          "type": "uint256"
        },
        {
          "name": "_price",
          "type": "uint256"
        }
      ],
      "name": "createSynthesizingAuction",
      "outputs": [],
      "payable": false,
      "stateMutability": "nonpayable",
      "type": "function"
    },
    {
      "constant": true,
      "inputs": [
        {
          "name": "",
          "type": "uint256"
        }
      ],
      "name": "cooldowns",
      "outputs": [
        {
          "name": "",
          "type": "uint32"
        }
      ],
      "payable": false,
      "stateMutability": "view",
      "type": "function"
    },
    {
      "constant": true,
      "inputs": [],
      "name": "pregnantKydys",
      "outputs": [
        {
          "name": "",
          "type": "uint256"
        }
      ],
      "payable": false,
      "stateMutability": "view",
      "type": "function"
    },
    {
      "constant": false,
      "inputs": [
        {
          "name": "to",
          "type": "address"
        },
        {
          "name": "approved",
          "type": "bool"
        }
      ],
      "name": "setApprovalForAll",
      "outputs": [],
      "payable": false,
      "stateMutability": "nonpayable",
      "type": "function"
    },
    {
      "constant": true,
      "inputs": [],
      "name": "gen0StartingPrice",
      "outputs": [
        {
          "name": "",
          "type": "uint256"
        }
      ],
      "payable": false,
      "stateMutability": "view",
      "type": "function"
    },
    {
      "constant": true,
      "inputs": [],
      "name": "cooAddress",
      "outputs": [
        {
          "name": "",
          "type": "address"
        }
      ],
      "payable": false,
      "stateMutability": "view",
      "type": "function"
    },
    {
      "constant": true,
      "inputs": [],
      "name": "autoBirthFee",
      "outputs": [
        {
          "name": "",
          "type": "uint256"
        }
      ],
      "payable": false,
      "stateMutability": "view",
      "type": "function"
    },
    {
      "constant": true,
      "inputs": [],
      "name": "promoCreationLimit",
      "outputs": [
        {
          "name": "",
          "type": "uint256"
        }
      ],
      "payable": false,
      "stateMutability": "view",
      "type": "function"
    },
    {
      "constant": false,
      "inputs": [
        {
          "name": "from",
          "type": "address"
        },
        {
          "name": "to",
          "type": "address"
        },
        {
          "name": "tokenId",
          "type": "uint256"
        },
        {
          "name": "_data",
          "type": "bytes"
        }
      ],
      "name": "safeTransferFrom",
      "outputs": [],
      "payable": false,
      "stateMutability": "nonpayable",
      "type": "function"
    },
    {
      "constant": false,
      "inputs": [
        {
          "name": "_kydyId",
          "type": "uint256"
        }
      ],
      "name": "cancelSaleAuction",
      "outputs": [],
      "payable": false,
      "stateMutability": "nonpayable",
      "type": "function"
    },
    {
      "constant": false,
      "inputs": [
        {
          "name": "_genes",
          "type": "uint256"
        }
      ],
      "name": "createGen0Auction",
      "outputs": [],
      "payable": false,
      "stateMutability": "nonpayable",
      "type": "function"
    },
    {
      "constant": true,
      "inputs": [
        {
          "name": "tokenId",
          "type": "uint256"
        }
      ],
      "name": "tokenURI",
      "outputs": [
        {
          "name": "",
          "type": "string"
        }
      ],
      "payable": false,
      "stateMutability": "view",
      "type": "function"
    },
    {
      "constant": false,
      "inputs": [
        {
          "name": "_kydyId",
          "type": "uint256"
        },
        {
          "name": "_recipient",
          "type": "address"
        }
      ],
      "name": "rescueLostKydy",
      "outputs": [],
      "payable": false,
      "stateMutability": "nonpayable",
      "type": "function"
    },
    {
      "constant": false,
      "inputs": [
        {
          "name": "_kydyId",
          "type": "uint256"
        }
      ],
      "name": "cancelSynthesizingAuction",
      "outputs": [],
      "payable": false,
      "stateMutability": "nonpayable",
      "type": "function"
    },
    {
      "constant": true,
      "inputs": [],
      "name": "travelCore",
      "outputs": [
        {
          "name": "",
          "type": "address"
        }
      ],
      "payable": false,
      "stateMutability": "view",
      "type": "function"
    },
    {
      "constant": true,
      "inputs": [],
      "name": "saleAuction",
      "outputs": [
        {
          "name": "",
          "type": "address"
        }
      ],
      "payable": false,
      "stateMutability": "view",
      "type": "function"
    },
    {
      "constant": true,
      "inputs": [
        {
          "name": "owner",
          "type": "address"
        },
        {
          "name": "operator",
          "type": "address"
        }
      ],
      "name": "isApprovedForAll",
      "outputs": [
        {
          "name": "",
          "type": "bool"
        }
      ],
      "payable": false,
      "stateMutability": "view",
      "type": "function"
    },
    {
      "constant": true,
      "inputs": [],
      "name": "gen0CreatedCount",
      "outputs": [
        {
          "name": "",
          "type": "uint256"
        }
      ],
      "payable": false,
      "stateMutability": "view",
      "type": "function"
    },
    {
      "constant": true,
      "inputs": [
        {
          "name": "_kydyId",
          "type": "uint256"
        }
      ],
      "name": "isReadyToSynthesize",
      "outputs": [
        {
          "name": "",
          "type": "bool"
        }
      ],
      "payable": false,
      "stateMutability": "view",
      "type": "function"
    },
    {
      "inputs": [],
      "payable": false,
      "stateMutability": "nonpayable",
      "type": "constructor"
    },
    {
      "payable": true,
      "stateMutability": "payable",
      "type": "fallback"
    },
    {
      "anonymous": false,
      "inputs": [
        {
          "indexed": false,
          "name": "owner",
          "type": "address"
        },
        {
          "indexed": false,
          "name": "yinId",
          "type": "uint256"
        },
        {
          "indexed": false,
          "name": "yangId",
          "type": "uint256"
        },
        {
          "indexed": false,
          "name": "cooldownEndBlock",
          "type": "uint256"
        }
      ],
      "name": "Pregnant",
      "type": "event"
    },
    {
      "anonymous": false,
      "inputs": [
        {
          "indexed": true,
          "name": "owner",
          "type": "address"
        },
        {
          "indexed": false,
          "name": "kydyId",
          "type": "uint256"
        },
        {
          "indexed": false,
          "name": "yinId",
          "type": "uint256"
        },
        {
          "indexed": false,
          "name": "yangId",
          "type": "uint256"
        },
        {
          "indexed": false,
          "name": "genes",
          "type": "uint256"
        }
      ],
      "name": "Birth",
      "type": "event"
    },
    {
      "anonymous": false,
      "inputs": [
        {
          "indexed": true,
          "name": "_from",
          "type": "address"
        },
        {
          "indexed": true,
          "name": "_to",
          "type": "address"
        },
        {
          "indexed": true,
          "name": "_tokenId",
          "type": "uint256"
        }
      ],
      "name": "Transfer",
      "type": "event"
    },
    {
      "anonymous": false,
      "inputs": [
        {
          "indexed": true,
          "name": "_owner",
          "type": "address"
        },
        {
          "indexed": true,
          "name": "_approved",
          "type": "address"
        },
        {
          "indexed": true,
          "name": "_tokenId",
          "type": "uint256"
        }
      ],
      "name": "Approval",
      "type": "event"
    },
    {
      "anonymous": false,
      "inputs": [
        {
          "indexed": true,
          "name": "_owner",
          "type": "address"
        },
        {
          "indexed": true,
          "name": "_operator",
          "type": "address"
        },
        {
          "indexed": false,
          "name": "_approved",
          "type": "bool"
        }
      ],
      "name": "ApprovalForAll",
      "type": "event"
    },
    {
      "anonymous": false,
      "inputs": [
        {
          "indexed": false,
          "name": "newContract",
          "type": "address"
        }
      ],
      "name": "ContractUpgrade",
      "type": "event"
    },
    {
      "constant": false,
      "inputs": [
        {
          "name": "_genes",
          "type": "uint256"
        },
        {
          "name": "_cloneCount",
          "type": "uint32"
        }
      ],
      "name": "mintKydys",
      "outputs": [],
      "payable": false,
      "stateMutability": "nonpayable",
      "type": "function"
    },
    {
      "constant": false,
      "inputs": [],
      "name": "fundMe",
      "outputs": [
        {
          "name": "",
          "type": "bool"
        }
      ],
      "payable": true,
      "stateMutability": "payable",
      "type": "function"
    },
    {
      "constant": true,
      "inputs": [],
      "name": "timeNow",
      "outputs": [
        {
          "name": "",
          "type": "uint256"
        }
      ],
      "payable": false,
      "stateMutability": "view",
      "type": "function"
    }
  ],
  "bytecode": "0x6002805460a060020a60ff0219169055610240604052603c6080908152607860a05261012c60c05261025860e05261070861010052610e1061012052611c2061014052613840610160526170806101805261e1006101a052620151806101c0526202a3006101e052620546006102005262093a80610220526200008790600490600e62000720565b50600f6006556040805180820190915260078082527f44797665727365000000000000000000000000000000000000000000000000006020909201918252620000d391600d91620007c3565b506040805180820190915260048082527f4b5944590000000000000000000000000000000000000000000000000000000060209092019182526200011a91600e91620007c3565b506040805160608101825260298082527f687474703a2f2f746573746170692e64797665722e73652f6170692f4b796479602083019081527f4d657461646174612f000000000000000000000000000000000000000000000092909301919091526200018991600f91620007c3565b5066071afd498d00006010556103786015556122b8601655662386f26fc10000601755348015620001b957600080fd5b50620001ee7f01ffc9a700000000000000000000000000000000000000000000000000000000640100000000620002c5810204565b620002227f80ac58cd00000000000000000000000000000000000000000000000000000000640100000000620002c5810204565b620002567f5b5e139f00000000000000000000000000000000000000000000000000000000640100000000620002c5810204565b6002805460008054600160a060020a03199081163390811783556001805483168217905560a060020a60ff0219909316740100000000000000000000000000000000000000001716909117909155620002be9080806000198164010000000062000332810204565b50620008cc565b7fffffffff000000000000000000000000000000000000000000000000000000008082161415620002f557600080fd5b7fffffffff00000000000000000000000000000000000000000000000000000000166000908152600360205260409020805460ff19166001179055565b6000806200033f62000844565b600063ffffffff891689146200035457600080fd5b63ffffffff881688146200036757600080fd5b61ffff871687146200037857600080fd5b600287049250600d8361ffff1611156200039157600d92505b505060408051610100810182528581524267ffffffffffffffff90811660208301908152600093830184815263ffffffff8c8116606086019081528c82166080870190815260a0870188815261ffff8a811660c08a019081528f821660e08b01908152600780546001810182559c528a517fa66cc928b5edb82af9bd49922954155ab7b0942694bea4ce44661d9a8736c68860028e029081019190915598517fa66cc928b5edb82af9bd49922954155ab7b0942694bea4ce44661d9a8736c689909901805498519651955194519251915167ffffffffffffffff19909916998b1699909917604060020a608060020a0319166801000000000000000096909a169590950298909817608060020a63ffffffff021916700100000000000000000000000000000000938616939093029290921760a060020a63ffffffff02191674010000000000000000000000000000000000000000918516919091021760c060020a63ffffffff0219167801000000000000000000000000000000000000000000000000968416969096029590951760e060020a61ffff0219167c01000000000000000000000000000000000000000000000000000000009186169190910217600160f060020a03167e010000000000000000000000000000000000000000000000000000000000009290941691909102929092179055909190811681146200059957600080fd5b60608281015160808085015185516040805187815263ffffffff95861660208201529490921684830152938301939093529151600160a060020a038816927f0a5311bd2a6608f08a180df2ee7c5946819a649b204b554bb8e39825b2c50ad5928290030190a262000614858264010000000062000620810204565b98975050505050505050565b62000635828264010000000062000671810204565b6040518190600160a060020a038416906000907fddf252ad1be2c89b69c2b068fc378daa952ba7f163c4a11628f55a4df523b3ef908290a45050565b600081815260086020526040902054600160a060020a0316156200069457600080fd5b60008181526008602090815260408083208054600160a060020a031916600160a060020a03871690811790915583526009909152902054620006e6906001640100000000620007068102620035531704565b600160a060020a0390921660009081526009602052604090209190915550565b6000828201838110156200071957600080fd5b9392505050565b600283019183908215620007b15791602002820160005b838211156200077d57835183826101000a81548163ffffffff021916908363ffffffff160217905550926020019260040160208160030104928301926001030262000737565b8015620007af5782816101000a81549063ffffffff02191690556004016020816003010492830192600103026200077d565b505b50620007bf92915062000888565b5090565b828054600181600116156101000203166002900490600052602060002090601f016020900481019282601f106200080657805160ff191683800117855562000836565b8280016001018555821562000836579182015b828111156200083657825182559160200191906001019062000819565b50620007bf929150620008af565b6040805161010081018252600080825260208201819052918101829052606081018290526080810182905260a0810182905260c0810182905260e081019190915290565b620008ac91905b80821115620007bf57805463ffffffff191681556001016200088f565b90565b620008ac91905b80821115620007bf5760008155600101620008b6565b61396d80620008dc6000396000f3006080604052600436106102fd5763ffffffff60e060020a60003504166301ffc9a7811461032d5780630519ce791461037857806305e45546146103a957806306fdde03146103d0578063081812fc1461045a578063095ea7b3146104725780630a0f8168146104965780630f401cbc146104ab57806318160ddd146104cc578063192ec99d146104e157806319d70e0b146104f657806323b872dd1461051157806324dc793f1461053b578063254b1ddf146105a557806327d7874c146105c95780632ba73c15146105ea57806339e395e21461060b5780633f4ba83a146106195780633fe0522c1461062e578063404d0e3e1461064f57806342842e0e1461066457806348e68e301461068e5780634a7e3c4a1461069c5780634b85fd55146106bd5780634e0a3379146106d55780635627cdcb146106f65780635663896e1461070e5780635c975abb146107265780635fd8c7101461073b57806361a4b168146107505780636352211e146107655780636af04a571461077d5780636fbde40d1461079257806370a08231146107b357806371587988146107d45780637a7d4937146107f5578063816f17711461080a5780638456cb59146108225780638462151c1461083757806388c2a0bf146108a85780638f9f49b6146108c057806391876e57146108d85780639307cdf4146108ed57806395d89b411461090e578063978f89341461092357806398ba2453146109475780639bacf1ed146109625780639d6fac6f1461097d5780639e5aa5a9146109ae578063a22cb465146109c3578063ae4d0ff7146109e9578063b047fb50146109fe578063b0c35c0514610a13578063b531933514610a28578063b6a324e014610a3d578063b88d4fde14610a45578063c31f586d14610ab4578063c3bea9af14610acc578063c87b56dd14610ae4578063cd47f39014610afc578063d5f48e7614610b20578063d95660be14610b38578063e07974e614610b4d578063e6cbe35114610b62578063e985e9c514610b77578063f1ca941014610b9e578063fa061d4814610bb3575b601354600160a060020a03163314806103205750601454600160a060020a031633145b151561032b57600080fd5b005b34801561033957600080fd5b506103647bffffffffffffffffffffffffffffffffffffffffffffffffffffffff1960043516610bcb565b604080519115158252519081900360200190f35b34801561038457600080fd5b5061038d610bff565b60408051600160a060020a039092168252519081900360200190f35b3480156103b557600080fd5b506103be610c0e565b60408051918252519081900360200190f35b3480156103dc57600080fd5b506103e5610c14565b6040805160208082528351818301528351919283929083019185019080838360005b8381101561041f578181015183820152602001610407565b50505050905090810190601f16801561044c5780820380516001836020036101000a031916815260200191505b509250505060405180910390f35b34801561046657600080fd5b5061038d600435610caa565b34801561047e57600080fd5b5061032b600160a060020a0360043516602435610cdc565b3480156104a257600080fd5b5061038d610d79565b3480156104b757600080fd5b5061032b600160a060020a0360043516610d88565b3480156104d857600080fd5b506103be610e3b565b3480156104ed57600080fd5b5061038d610e45565b34801561050257600080fd5b5061032b600435602435610e54565b34801561051d57600080fd5b5061032b600160a060020a0360043581169060243516604435610f25565b34801561054757600080fd5b50610553600435610fdf565b604080519a15158b5298151560208b0152898901979097526060890195909552608088019390935260a087019190915260c086015260e085015261010084015261012083015251908190036101400190f35b3480156105b157600080fd5b5061032b600160a060020a0360043516602435611140565b3480156105d557600080fd5b5061032b600160a060020a036004351661119a565b3480156105f657600080fd5b5061032b600160a060020a03600435166111e8565b61032b600435602435611236565b34801561062557600080fd5b5061032b6113d5565b34801561063a57600080fd5b5061032b600160a060020a0360043516611469565b34801561065b57600080fd5b506103be6114ba565b34801561067057600080fd5b5061032b600160a060020a03600435811690602435166044356114c0565b61032b6004356024356114dc565b3480156106a857600080fd5b5061032b60043563ffffffff602435166116e0565b3480156106c957600080fd5b5061032b60043561174e565b3480156106e157600080fd5b5061032b600160a060020a036004351661176a565b34801561070257600080fd5b5061038d6004356117b8565b34801561071a57600080fd5b5061032b6004356117d3565b34801561073257600080fd5b5061036461182f565b34801561074757600080fd5b5061032b61183f565b34801561075c57600080fd5b5061038d6118b3565b34801561077157600080fd5b5061038d6004356118c2565b34801561078957600080fd5b5061038d6118ec565b34801561079e57600080fd5b5061032b600160a060020a03600435166118fb565b3480156107bf57600080fd5b506103be600160a060020a03600435166119ae565b3480156107e057600080fd5b5061032b600160a060020a03600435166119e1565b34801561080157600080fd5b506103be611a64565b34801561081657600080fd5b5061038d600435611a6a565b34801561082e57600080fd5b5061032b611a85565b34801561084357600080fd5b50610858600160a060020a0360043516611b05565b60408051602080825283518183015283519192839290830191858101910280838360005b8381101561089457818101518382015260200161087c565b505050509050019250505060405180910390f35b3480156108b457600080fd5b506103be600435611bd7565b3480156108cc57600080fd5b5061038d600435611e9d565b3480156108e457600080fd5b5061032b611eb8565b3480156108f957600080fd5b5061032b600160a060020a0360043516611fa1565b34801561091a57600080fd5b506103e5612054565b34801561092f57600080fd5b5061032b600435600160a060020a03602435166120b5565b34801561095357600080fd5b5061036460043560243561212d565b34801561096e57600080fd5b5061032b6004356024356121ad565b34801561098957600080fd5b50610995600435612276565b6040805163ffffffff9092168252519081900360200190f35b3480156109ba57600080fd5b506103be6122a3565b3480156109cf57600080fd5b5061032b600160a060020a036004351660243515156122a9565b3480156109f557600080fd5b506103be61232d565b348015610a0a57600080fd5b5061038d612333565b348015610a1f57600080fd5b506103be612342565b348015610a3457600080fd5b506103be612348565b61036461234e565b348015610a5157600080fd5b50604080516020601f60643560048181013592830184900484028501840190955281845261032b94600160a060020a0381358116956024803590921695604435953695608494019181908401838280828437509497506123539650505050505050565b348015610ac057600080fd5b5061032b600435612375565b348015610ad857600080fd5b5061032b60043561242a565b348015610af057600080fd5b506103e5600435612516565b348015610b0857600080fd5b5061032b600435600160a060020a03602435166125cc565b348015610b2c57600080fd5b5061032b60043561261a565b348015610b4457600080fd5b506103be6126cf565b348015610b5957600080fd5b5061038d6126d3565b348015610b6e57600080fd5b5061038d6126e2565b348015610b8357600080fd5b50610364600160a060020a03600435811690602435166126f1565b348015610baa57600080fd5b506103be61271f565b348015610bbf57600080fd5b50610364600435612725565b7bffffffffffffffffffffffffffffffffffffffffffffffffffffffff191660009081526003602052604090205460ff1690565b600154600160a060020a031681565b60185481565b600d8054604080516020601f6002600019610100600188161502019095169490940493840181900481028201810190925282815260609390929091830182828015610ca05780601f10610c7557610100808354040283529160200191610ca0565b820191906000526020600020905b815481529060010190602001808311610c8357829003601f168201915b5050505050905090565b6000610cb5826127f4565b1515610cc057600080fd5b506000908152600a6020526040902054600160a060020a031690565b6000610ce7826118c2565b9050600160a060020a038381169082161415610d0257600080fd5b33600160a060020a0382161480610d1e5750610d1e81336126f1565b1515610d2957600080fd5b610d338284612811565b8183600160a060020a031682600160a060020a03167f8c5be1e5ebec7d5bd14f71427d1e84f3dd0314c0f7b2291e5b200ac8c7c3b92560405160405180910390a4505050565b600054600160a060020a031681565b60008054600160a060020a03163314610da057600080fd5b81905080600160a060020a0316632e39ff846040518163ffffffff1660e060020a028152600401602060405180830381600087803b158015610de157600080fd5b505af1158015610df5573d6000803e3d6000fd5b505050506040513d6020811015610e0b57600080fd5b50511515610e1857600080fd5b60128054600160a060020a031916600160a060020a039290921691909117905550565b6007546000190190565b601454600160a060020a031681565b60025460a060020a900460ff1615610e6b57600080fd5b610e75338361283f565b1515610e8057600080fd5b601354610e9690600160a060020a031683610cdc565b601354604080517f54279bdd00000000000000000000000000000000000000000000000000000000815260048101859052602481018490523360448201529051600160a060020a03909216916354279bdd9160648082019260009290919082900301818387803b158015610f0957600080fd5b505af1158015610f1d573d6000803e3d6000fd5b505050505050565b610f2f338261285f565b1515610f3a57600080fd5b600160a060020a0382161515610f4f57600080fd5b610f5983826128be565b600160a060020a03831615610f85576000818152600b602052604090208054600160a060020a03191690555b610f8f8382612920565b610f9982826129a9565b8082600160a060020a031684600160a060020a03167fddf252ad1be2c89b69c2b068fc378daa952ba7f163c4a11628f55a4df523b3ef60405160405180910390a4505050565b600080600080600080600080600080600060078c815481101515610fff57fe5b906000526020600020906002020190508060010160189054906101000a900463ffffffff1663ffffffff16600014159a50438160010160089054906101000a900467ffffffffffffffff1667ffffffffffffffff161115995080600101601c9054906101000a900461ffff1661ffff1698508060010160089054906101000a900467ffffffffffffffff1667ffffffffffffffff1697508060010160189054906101000a900463ffffffff1663ffffffff1696508060010160009054906101000a900467ffffffffffffffff1667ffffffffffffffff1695508060010160109054906101000a900463ffffffff1663ffffffff1694508060010160149054906101000a900463ffffffff1663ffffffff16935080600101601e9054906101000a900461ffff1661ffff16925080600001549150509193959799509193959799565b60025460a060020a900460ff161561115757600080fd5b611161338261283f565b151561116c57600080fd5b6000908152600b602052604090208054600160a060020a031916600160a060020a0392909216919091179055565b600054600160a060020a031633146111b157600080fd5b600160a060020a03811615156111c657600080fd5b60008054600160a060020a031916600160a060020a0392909216919091179055565b600054600160a060020a031633146111ff57600080fd5b600160a060020a038116151561121457600080fd5b60028054600160a060020a031916600160a060020a0392909216919091179055565b60025460009060a060020a900460ff161561125057600080fd5b61125a338361283f565b151561126557600080fd5b61126e82612725565b151561127957600080fd5b6112838284612a2d565b151561128e57600080fd5b601454604080517fc55d0f56000000000000000000000000000000000000000000000000000000008152600481018690529051600160a060020a039092169163c55d0f56916024808201926020929091908290030181600087803b1580156112f557600080fd5b505af1158015611309573d6000803e3d6000fd5b505050506040513d602081101561131f57600080fd5b5051601054909150810134101561133557600080fd5b601454601054604080517f454a2ab3000000000000000000000000000000000000000000000000000000008152600481018790529051600160a060020a039093169263454a2ab39234039160248082019260009290919082900301818588803b1580156113a157600080fd5b505af11580156113b5573d6000803e3d6000fd5b50505050506113d08263ffffffff168463ffffffff16612a7c565b505050565b600054600160a060020a031633146113ec57600080fd5b60025460a060020a900460ff16151561140457600080fd5b601354600160a060020a0316151561141b57600080fd5b601454600160a060020a0316151561143257600080fd5b601254600160a060020a0316151561144957600080fd5b601a54600160a060020a03161561145f57600080fd5b611467612bba565b565b600054600160a060020a0316331461148057600080fd5b60025460a060020a900460ff16151561149857600080fd5b601b8054600160a060020a031916600160a060020a0392909216919091179055565b60165481565b6113d08383836020604051908101604052806000815250612353565b600254600090819060a060020a900460ff16156114f857600080fd5b60105434101561150757600080fd5b611511338561283f565b151561151c57600080fd5b6115268385612c09565b151561153157600080fd5b600780548590811061153f57fe5b60009182526020918290206040805161010081018252600290930290910180548352600181015467ffffffffffffffff808216958501959095526801000000000000000081049094169183019190915263ffffffff608060020a84048116606084015260a060020a84048116608084015260c060020a84041660a083015261ffff60e060020a8404811660c084015260f060020a90930490921660e08201529092506115ea90612c5e565b15156115f557600080fd5b600780548490811061160357fe5b60009182526020918290206040805161010081018252600290930290910180548352600181015467ffffffffffffffff808216958501959095526801000000000000000081049094169183019190915263ffffffff608060020a84048116606084015260a060020a84048116608084015260c060020a84041660a083015261ffff60e060020a8404811660c084015260f060020a90930490921660e08201529091506116ae90612c5e565b15156116b957600080fd5b6116c582858386612c8d565b15156116d057600080fd5b6116da8484612a7c565b50505050565b600254600090600160a060020a031633146116fa57600080fd5b60025460a060020a900460ff161561171157600080fd5b600063ffffffff83161161172457600080fd5b5060005b8163ffffffff168110156113d05761174560008060008633612e0c565b50600101611728565b600254600160a060020a0316331461176557600080fd5b601055565b600054600160a060020a0316331461178157600080fd5b600160a060020a038116151561179657600080fd5b60018054600160a060020a031916600160a060020a0392909216919091179055565b600860205260009081526040902054600160a060020a031681565b600254600160a060020a03163314806117f65750600054600160a060020a031633145b8061180b5750600154600160a060020a031633145b151561181657600080fd5b60045463ffffffff16811061182a57600080fd5b600655565b60025460a060020a900460ff1681565b6001546000908190600160a060020a0316331461185b57600080fd5b5050601054601154303191600190910102808211156118af57600154604051600160a060020a039091169082840380156108fc02916000818181858888f193505050501580156113d0573d6000803e3d6000fd5b5050565b601254600160a060020a031681565b600081815260086020526040812054600160a060020a03168015156118e657600080fd5b92915050565b601a54600160a060020a031681565b60008054600160a060020a0316331461191357600080fd5b81905080600160a060020a03166385b861886040518163ffffffff1660e060020a028152600401602060405180830381600087803b15801561195457600080fd5b505af1158015611968573d6000803e3d6000fd5b505050506040513d602081101561197e57600080fd5b5051151561198b57600080fd5b60138054600160a060020a031916600160a060020a039290921691909117905550565b6000600160a060020a03821615156119c557600080fd5b50600160a060020a031660009081526009602052604090205490565b600054600160a060020a031633146119f857600080fd5b60025460a060020a900460ff161515611a1057600080fd5b601a8054600160a060020a038316600160a060020a0319909116811790915560408051918252517f450db8da6efbe9c22f2347f7c2021231df1fc58d3ae9a2fa75d39fa4461993059181900360200190a150565b60065481565b600a60205260009081526040902054600160a060020a031681565b600254600160a060020a0316331480611aa85750600054600160a060020a031633145b80611abd5750600154600160a060020a031633145b1515611ac857600080fd5b60025460a060020a900460ff1615611adf57600080fd5b6002805474ff0000000000000000000000000000000000000000191660a060020a179055565b6060600060606000806000611b19876119ae565b9450841515611b38576040805160008152602081019091529550611bcd565b84604051908082528060200260200182016040528015611b62578160200160208202803883390190505b509350611b6d610e3b565b925060009150600190505b828111611bc957600081815260086020526040902054600160a060020a0388811691161415611bc157808483815181101515611bb057fe5b602090810290910101526001909101905b600101611b78565b8395505b5050505050919050565b600080600080600080600080600260149054906101000a900460ff16151515611bff57600080fd5b600780548a908110611c0d57fe5b60009182526020909120600290910201600181015490975067ffffffffffffffff161515611c3a57600080fd5b604080516101008101825288548152600189015467ffffffffffffffff8082166020840152680100000000000000008204169282019290925263ffffffff608060020a83048116606083015260a060020a83048116608083015260c060020a83041660a082015261ffff60e060020a8304811660c083015260f060020a90920490911660e0820152611ccb906130df565b1515611cd657600080fd5b60018701546007805460c060020a90920463ffffffff1697509087908110611cfa57fe5b600091825260209091206001808a015460029093029091019081015490965061ffff60f060020a928390048116965091900416841015611d4757600185015460f060020a900461ffff1693505b60125487548654604080517f960fa70f0000000000000000000000000000000000000000000000000000000081526004810193909352602483019190915251600160a060020a039092169163960fa70f916044808201926020929091908290030181600087803b158015611dba57600080fd5b505af1158015611dce573d6000803e3d6000fd5b505050506040513d6020811015611de457600080fd5b505160008a815260086020526040902054600189810154929550600160a060020a039091169350611e2d918b9160c060020a90910463ffffffff1690870161ffff168686612e0c565b6001880180547bffffffff0000000000000000000000000000000000000000000000001916905560118054600019019055601054604051919250339181156108fc0291906000818181858888f19350505050158015611e90573d6000803e3d6000fd5b5098975050505050505050565b600b60205260009081526040902054600160a060020a031681565b600254600160a060020a03163314611ecf57600080fd5b601360009054906101000a9004600160a060020a0316600160a060020a0316635fd8c7106040518163ffffffff1660e060020a028152600401600060405180830381600087803b158015611f2257600080fd5b505af1158015611f36573d6000803e3d6000fd5b50505050601460009054906101000a9004600160a060020a0316600160a060020a0316635fd8c7106040518163ffffffff1660e060020a028152600401600060405180830381600087803b158015611f8d57600080fd5b505af11580156116da573d6000803e3d6000fd5b60008054600160a060020a03163314611fb957600080fd5b81905080600160a060020a031663ffadaae56040518163ffffffff1660e060020a028152600401602060405180830381600087803b158015611ffa57600080fd5b505af115801561200e573d6000803e3d6000fd5b505050506040513d602081101561202457600080fd5b5051151561203157600080fd5b60148054600160a060020a031916600160a060020a039290921691909117905550565b600e8054604080516020601f6002600019610100600188161502019095169490940493840181900481028201810190925282815260609390929091830182828015610ca05780601f10610c7557610100808354040283529160200191610ca0565b600254600160a060020a031633146120cc57600080fd5b600160a060020a03811615156120ea5750600254600160a060020a03165b601554601854106120fa57600080fd5b6016546019541061210a57600080fd5b6018805460019081019091556019805490910190556113d0600080808585612e0c565b6000808080851161213d57600080fd5b6000841161214a57600080fd5b600780548690811061215857fe5b9060005260206000209060020201915060078481548110151561217757fe5b9060005260206000209060020201905061219382868387612c8d565b80156121a457506121a48486612c09565b95945050505050565b60025460a060020a900460ff16156121c457600080fd5b6121ce338361283f565b15156121d957600080fd5b6121e282612725565b15156121ed57600080fd5b60145461220390600160a060020a031683610cdc565b601454604080517f54279bdd00000000000000000000000000000000000000000000000000000000815260048101859052602481018490523360448201529051600160a060020a03909216916354279bdd9160648082019260009290919082900301818387803b158015610f0957600080fd5b600481600e811061228357fe5b60089182820401919006600402915054906101000a900463ffffffff1681565b60115481565b600160a060020a0382163314156122bf57600080fd5b336000818152600c60209081526040808320600160a060020a03871680855290835292819020805460ff1916861515908117909155815190815290519293927f17307eab39ab6107e8899845ad3d59bd9653f200f220920489ca2b5937696c31929181900390910190a35050565b60175481565b600254600160a060020a031681565b60105481565b60155481565b600190565b61235e848484610f25565b61236a8484848461310f565b15156116da57600080fd5b60025460009060a060020a900460ff161561238f57600080fd5b6013546123a590600160a060020a03168361283f565b15156123b057600080fd5b50336123bc8282612811565b601354604080517f4e8eaa1300000000000000000000000000000000000000000000000000000000815260048101859052600160a060020a03848116602483015291519190921691634e8eaa1391604480830192600092919082900301818387803b158015610f0957600080fd5b600254600090600160a060020a0316331461244457600080fd5b6016546019541061245457600080fd5b61246360008060008530612e0c565b60135490915061247d908290600160a060020a0316612811565b601354600160a060020a03166354279bdd82612497613291565b306040518463ffffffff1660e060020a0281526004018084815260200183815260200182600160a060020a0316600160a060020a031681526020019350505050600060405180830381600087803b1580156124f157600080fd5b505af1158015612505573d6000803e3d6000fd5b505060198054600101905550505050565b6060612521826127f4565b151561252c57600080fd5b600f8054604080516020601f600260001961010060018816150201909516949094049384018190048102820181019092528281526118e693909290918301828280156125b95780601f1061258e576101008083540402835291602001916125b9565b820191906000526020600020905b81548152906001019060200180831161259c57829003601f168201915b50505050506125c784613351565b613444565b600254600160a060020a031633146125e357600080fd5b60025460a060020a900460ff16156125fa57600080fd5b612604308361283f565b151561260f57600080fd5b6118af308284613479565b60025460009060a060020a900460ff161561263457600080fd5b60145461264a90600160a060020a03168361283f565b151561265557600080fd5b50336126618282612811565b601454604080517f4e8eaa1300000000000000000000000000000000000000000000000000000000815260048101859052600160a060020a03848116602483015291519190921691634e8eaa1391604480830192600092919082900301818387803b158015610f0957600080fd5b4290565b601b54600160a060020a031681565b601354600160a060020a031681565b600160a060020a039182166000908152600c6020908152604080832093909416825291909152205460ff1690565b60195481565b60008080831161273457600080fd5b600780548490811061274257fe5b60009182526020918290206040805161010081018252600290930290910180548352600181015467ffffffffffffffff808216958501959095526801000000000000000081049094169183019190915263ffffffff608060020a84048116606084015260a060020a84048116608084015260c060020a84041660a083015261ffff60e060020a8404811660c084015260f060020a90930490921660e08201529091506127ed90612c5e565b9392505050565b600090815260086020526040902054600160a060020a0316151590565b6000918252600a60205260409091208054600160a060020a031916600160a060020a03909216919091179055565b600090815260086020526040902054600160a060020a0391821691161490565b60008061286b836118c2565b905080600160a060020a031684600160a060020a031614806128a6575083600160a060020a031661289b84610caa565b600160a060020a0316145b806128b657506128b681856126f1565b949350505050565b81600160a060020a03166128d1826118c2565b600160a060020a0316146128e457600080fd5b6000818152600a6020526040902054600160a060020a0316156118af576000908152600a602052604090208054600160a060020a031916905550565b81600160a060020a0316612933826118c2565b600160a060020a03161461294657600080fd5b600160a060020a03821660009081526009602052604090205461297090600163ffffffff61353c16565b600160a060020a039092166000908152600960209081526040808320949094559181526008909152208054600160a060020a0319169055565b600081815260086020526040902054600160a060020a0316156129cb57600080fd5b60008181526008602090815260408083208054600160a060020a031916600160a060020a03871690811790915583526009909152902054612a0d906001613553565b600160a060020a0390921660009081526009602052604090209190915550565b6000806000600785815481101515612a4157fe5b90600052602060002090600202019150600784815481101515612a6057fe5b906000526020600020906002020190506121a482868387612c8d565b600080600783815481101515612a8e57fe5b90600052602060002090600202019150600784815481101515612aad57fe5b600091825260209091206002909102016001810180547bffffffff000000000000000000000000000000000000000000000000191660c060020a63ffffffff8716021790559050612afd82613565565b612b0681613565565b6000848152600b602090815260408083208054600160a060020a031990811690915586845281842080549091169055601180546001908101909155878452600883529281902054928401548151600160a060020a0390941684529183018790528281018690526801000000000000000090910467ffffffffffffffff166060830152517f241ea03ca20251805084d27d4440371c34a0b85ff108f6bb5611248f73818b80916080908290030190a150505050565b600054600160a060020a03163314612bd157600080fd5b60025460a060020a900460ff161515612be957600080fd5b6002805474ff000000000000000000000000000000000000000019169055565b6000818152600860205260408082205484835290822054600160a060020a039182169116808214806121a457506000858152600b6020526040902054600160a060020a03908116908316149250505092915050565b60008160a0015163ffffffff1660001480156118e65750506040015167ffffffffffffffff4381169116111590565b600081841415612c9f575060006128b6565b6001850154608060020a900463ffffffff16821480612cce5750600185015460a060020a900463ffffffff1682145b15612cdb575060006128b6565b6001830154608060020a900463ffffffff16841480612d0a5750600183015460a060020a900463ffffffff1684145b15612d17575060006128b6565b6001830154608060020a900463ffffffff161580612d4457506001850154608060020a900463ffffffff16155b15612d51575060016128b6565b60018581015490840154608060020a9182900463ffffffff90811692909104161480612d9c575060018086015490840154608060020a900463ffffffff90811660a060020a90920416145b15612da9575060006128b6565b6001808601549084015460a060020a900463ffffffff908116608060020a909204161480612df457506001858101549084015460a060020a9182900463ffffffff9081169290910416145b15612e01575060006128b6565b506001949350505050565b600080612e176138fd565b600063ffffffff89168914612e2b57600080fd5b63ffffffff88168814612e3d57600080fd5b61ffff87168714612e4d57600080fd5b600287049250600d8361ffff161115612e6557600d92505b505060408051610100810182528581524267ffffffffffffffff90811660208301908152600093830184815263ffffffff8c8116606086019081528c82166080870190815260a0870188815261ffff8a811660c08a019081528f821660e08b01908152600780546001810182559c528a517fa66cc928b5edb82af9bd49922954155ab7b0942694bea4ce44661d9a8736c68860028e029081019190915598517fa66cc928b5edb82af9bd49922954155ab7b0942694bea4ce44661d9a8736c689909901805498519651955194519251915167ffffffffffffffff19909916998b16999099176fffffffffffffffff000000000000000019166801000000000000000096909a16959095029890981773ffffffff000000000000000000000000000000001916608060020a938616939093029290921777ffffffff0000000000000000000000000000000000000000191660a060020a91851691909102177bffffffff000000000000000000000000000000000000000000000000191660c060020a96841696909602959095177fffff0000ffffffffffffffffffffffffffffffffffffffffffffffffffffffff1660e060020a91861691909102177dffffffffffffffffffffffffffffffffffffffffffffffffffffffffffff1660f060020a92909416919091029290921790559091908116811461306357600080fd5b60608281015160808085015185516040805187815263ffffffff95861660208201529490921684830152938301939093529151600160a060020a038816927f0a5311bd2a6608f08a180df2ee7c5946819a649b204b554bb8e39825b2c50ad5928290030190a26130d3858261364e565b98975050505050505050565b60008160a0015163ffffffff166000141580156118e65750506040015167ffffffffffffffff4381169116111590565b60008061312485600160a060020a0316613694565b15156131335760019150613288565b6040517f150b7a020000000000000000000000000000000000000000000000000000000081523360048201818152600160a060020a03898116602485015260448401889052608060648501908152875160848601528751918a169463150b7a0294938c938b938b93909160a490910190602085019080838360005b838110156131c65781810151838201526020016131ae565b50505050905090810190601f1680156131f35780820380516001836020036101000a031916815260200191505b5095505050505050602060405180830381600087803b15801561321557600080fd5b505af1158015613229573d6000803e3d6000fd5b505050506040513d602081101561323f57600080fd5b50517bffffffffffffffffffffffffffffffffffffffffffffffffffffffff1981167f150b7a020000000000000000000000000000000000000000000000000000000014925090505b50949350505050565b6000806000601360009054906101000a9004600160a060020a0316600160a060020a031663eac9d94c6040518163ffffffff1660e060020a028152600401602060405180830381600087803b1580156132e957600080fd5b505af11580156132fd573d6000803e3d6000fd5b505050506040513d602081101561331357600080fd5b505191506fffffffffffffffffffffffffffffffff8216821461333557600080fd5b60028204820190506017548110156118e6575060175492915050565b6060600080828185151561339a5760408051808201909152600181527f30000000000000000000000000000000000000000000000000000000000000006020820152945061343b565b8593505b83156133b557600190920191600a8404935061339e565b826040519080825280601f01601f1916602001820160405280156133e3578160200160208202803883390190505b5091505060001982015b851561343757815160001982019160f860020a6030600a8a06010291849190811061341457fe5b906020010190600160f860020a031916908160001a905350600a860495506133ed565b8194505b50505050919050565b6040805160208181018352600080835283518083018552818152845192830190945281526060926127ed92869286929061369c565b600160a060020a03808316600081815260096020908152604080832080546001019055858352600890915290208054600160a060020a0319169091179055831615610f9957600160a060020a0383811660008181526009602090815260408083208054600019019055858352600b82528083208054600160a060020a0319908116909155600a9092528083208054909216909155518493861692917fddf252ad1be2c89b69c2b068fc378daa952ba7f163c4a11628f55a4df523b3ef91a4505050565b6000808383111561354c57600080fd5b5050900390565b6000828201838110156127ed57600080fd5b600654600182015443919060049060e060020a900461ffff16600e811061358857fe5b600891828204019190066004029054906101000a900463ffffffff1663ffffffff168115156135b357fe5b6001840180546fffffffffffffffff0000000000000000191668010000000000000000939092049390930167ffffffffffffffff16919091021790819055600d60e060020a90910461ffff16101561364b576001818101805461ffff60e060020a8083048216909401169092027fffff0000ffffffffffffffffffffffffffffffffffffffffffffffffffffffff9092169190911790555b50565b61365882826129a9565b6040518190600160a060020a038416906000907fddf252ad1be2c89b69c2b068fc378daa952ba7f163c4a11628f55a4df523b3ef908290a45050565b6000903b1190565b6060806060806060806060806000808e98508d97508c96508b95508a94508451865188518a518c51010101016040519080825280601f01601f1916602001820160405280156136f5578160200160208202803883390190505b50935083925060009150600090505b885181101561376257888181518110151561371b57fe5b90602001015160f860020a900460f860020a02838380600101945081518110151561374257fe5b906020010190600160f860020a031916908160001a905350600101613704565b5060005b87518110156137c457878181518110151561377d57fe5b90602001015160f860020a900460f860020a0283838060010194508151811015156137a457fe5b906020010190600160f860020a031916908160001a905350600101613766565b5060005b86518110156138265786818151811015156137df57fe5b90602001015160f860020a900460f860020a02838380600101945081518110151561380657fe5b906020010190600160f860020a031916908160001a9053506001016137c8565b5060005b855181101561388857858181518110151561384157fe5b90602001015160f860020a900460f860020a02838380600101945081518110151561386857fe5b906020010190600160f860020a031916908160001a90535060010161382a565b5060005b84518110156138ea5784818151811015156138a357fe5b90602001015160f860020a900460f860020a0283838060010194508151811015156138ca57fe5b906020010190600160f860020a031916908160001a90535060010161388c565b50909d9c50505050505050505050505050565b6040805161010081018252600080825260208201819052918101829052606081018290526080810182905260a0810182905260c0810182905260e0810191909152905600a165627a7a723058206687a499abd051c32d93bcbc257f1f9c75d7f7b4e5902877ba009741c863cdb90029",
  "source": "pragma solidity ^0.4.24;\n\nimport './KydyCore.sol';\n\n\n/// @title Kydy core with extra test fn and overrides\ncontract KydyCoreTest is KydyCore {\n    // https://ethereum.stackexchange.com/questions/16318/inherited-constructors\n    constructor() public {\n    }\n\n    /*** ALL TEST FUNCTIONS GO HERE: ***/\n\n    /// @dev Contract owner can create kydys at will (test-only)\n    /// @param _genes the actual genetic load of kydys\n    /// @param _cloneCount how many are being created\n    function mintKydys(uint256 _genes, uint32 _cloneCount) public onlyCOO whenNotPaused {\n        // NOTE: this method should be removed after ETHWaterloo\n        // require(_genes > 0);\n        require(_cloneCount > 0);\n\n        for (uint256 i = 0; i < _cloneCount; i++) {\n            _createKydy(0, 0, 0, _genes, msg.sender);\n        }\n    }\n\n    /// @dev for tests we can easily fund the contract\n    function fundMe() public payable returns (bool) {\n        return true;\n    }\n\n    function timeNow() public constant returns (uint256) {\n        return now;\n    }\n}\n",
  "sourcePath": "/Users/Keki/Vrexlab/kydy-solidity/contracts/KydyCoreTest.sol",
  "compiler": {
    "name": "solc",
    "version": "0.4.24+commit.e67f0147.Emscripten.clang"
  },
  "schemaVersion": "2.0.1",
  "updatedAt": "2018-12-17T03:59:06.931Z"
}