{
  "contractName": "KydyCore",
  "abi": [
    {
      "constant": true,
      "inputs": [
        {
          "name": "interfaceId",
          "type": "bytes4"
        }
      ],
      "name": "supportsInterface",
      "outputs": [
        {
          "name": "",
          "type": "bool"
        }
      ],
      "payable": false,
      "stateMutability": "view",
      "type": "function"
    },
    {
      "constant": true,
      "inputs": [],
      "name": "cfoAddress",
      "outputs": [
        {
          "name": "",
          "type": "address"
        }
      ],
      "payable": false,
      "stateMutability": "view",
      "type": "function"
    },
    {
      "constant": true,
      "inputs": [],
      "name": "promoCreatedCount",
      "outputs": [
        {
          "name": "",
          "type": "uint256"
        }
      ],
      "payable": false,
      "stateMutability": "view",
      "type": "function"
    },
    {
      "constant": true,
      "inputs": [],
      "name": "name",
      "outputs": [
        {
          "name": "",
          "type": "string"
        }
      ],
      "payable": false,
      "stateMutability": "view",
      "type": "function"
    },
    {
      "constant": true,
      "inputs": [
        {
          "name": "tokenId",
          "type": "uint256"
        }
      ],
      "name": "getApproved",
      "outputs": [
        {
          "name": "",
          "type": "address"
        }
      ],
      "payable": false,
      "stateMutability": "view",
      "type": "function"
    },
    {
      "constant": false,
      "inputs": [
        {
          "name": "to",
          "type": "address"
        },
        {
          "name": "tokenId",
          "type": "uint256"
        }
      ],
      "name": "approve",
      "outputs": [],
      "payable": false,
      "stateMutability": "nonpayable",
      "type": "function"
    },
    {
      "constant": true,
      "inputs": [],
      "name": "ceoAddress",
      "outputs": [
        {
          "name": "",
          "type": "address"
        }
      ],
      "payable": false,
      "stateMutability": "view",
      "type": "function"
    },
    {
      "constant": false,
      "inputs": [
        {
          "name": "_address",
          "type": "address"
        }
      ],
      "name": "setGeneSynthesisAddress",
      "outputs": [],
      "payable": false,
      "stateMutability": "nonpayable",
      "type": "function"
    },
    {
      "constant": true,
      "inputs": [],
      "name": "totalSupply",
      "outputs": [
        {
          "name": "",
          "type": "uint256"
        }
      ],
      "payable": false,
      "stateMutability": "view",
      "type": "function"
    },
    {
      "constant": true,
      "inputs": [],
      "name": "synthesizingAuction",
      "outputs": [
        {
          "name": "",
          "type": "address"
        }
      ],
      "payable": false,
      "stateMutability": "view",
      "type": "function"
    },
    {
      "constant": false,
      "inputs": [
        {
          "name": "_kydyId",
          "type": "uint256"
        },
        {
          "name": "_price",
          "type": "uint256"
        }
      ],
      "name": "createSaleAuction",
      "outputs": [],
      "payable": false,
      "stateMutability": "nonpayable",
      "type": "function"
    },
    {
      "constant": false,
      "inputs": [
        {
          "name": "from",
          "type": "address"
        },
        {
          "name": "to",
          "type": "address"
        },
        {
          "name": "tokenId",
          "type": "uint256"
        }
      ],
      "name": "transferFrom",
      "outputs": [],
      "payable": false,
      "stateMutability": "nonpayable",
      "type": "function"
    },
    {
      "constant": false,
      "inputs": [
        {
          "name": "_addr",
          "type": "address"
        },
        {
          "name": "_yangId",
          "type": "uint256"
        }
      ],
      "name": "approveSynthesizing",
      "outputs": [],
      "payable": false,
      "stateMutability": "nonpayable",
      "type": "function"
    },
    {
      "constant": false,
      "inputs": [
        {
          "name": "_newCEO",
          "type": "address"
        }
      ],
      "name": "setCEO",
      "outputs": [],
      "payable": false,
      "stateMutability": "nonpayable",
      "type": "function"
    },
    {
      "constant": false,
      "inputs": [
        {
          "name": "_newCOO",
          "type": "address"
        }
      ],
      "name": "setCOO",
      "outputs": [],
      "payable": false,
      "stateMutability": "nonpayable",
      "type": "function"
    },
    {
      "constant": false,
      "inputs": [
        {
          "name": "_yangId",
          "type": "uint256"
        },
        {
          "name": "_yinId",
          "type": "uint256"
        }
      ],
      "name": "bidOnSynthesizingAuction",
      "outputs": [],
      "payable": true,
      "stateMutability": "payable",
      "type": "function"
    },
    {
      "constant": true,
      "inputs": [],
      "name": "gen0CreationLimit",
      "outputs": [
        {
          "name": "",
          "type": "uint256"
        }
      ],
      "payable": false,
      "stateMutability": "view",
      "type": "function"
    },
    {
      "constant": false,
      "inputs": [
        {
          "name": "from",
          "type": "address"
        },
        {
          "name": "to",
          "type": "address"
        },
        {
          "name": "tokenId",
          "type": "uint256"
        }
      ],
      "name": "safeTransferFrom",
      "outputs": [],
      "payable": false,
      "stateMutability": "nonpayable",
      "type": "function"
    },
    {
      "constant": false,
      "inputs": [
        {
          "name": "_yinId",
          "type": "uint256"
        },
        {
          "name": "_yangId",
          "type": "uint256"
        }
      ],
      "name": "synthesizeWithAuto",
      "outputs": [],
      "payable": true,
      "stateMutability": "payable",
      "type": "function"
    },
    {
      "constant": false,
      "inputs": [
        {
          "name": "val",
          "type": "uint256"
        }
      ],
      "name": "setAutoBirthFee",
      "outputs": [],
      "payable": false,
      "stateMutability": "nonpayable",
      "type": "function"
    },
    {
      "constant": false,
      "inputs": [
        {
          "name": "_newCFO",
          "type": "address"
        }
      ],
      "name": "setCFO",
      "outputs": [],
      "payable": false,
      "stateMutability": "nonpayable",
      "type": "function"
    },
    {
      "constant": true,
      "inputs": [
        {
          "name": "",
          "type": "uint256"
        }
      ],
      "name": "kydyIndexToOwner",
      "outputs": [
        {
          "name": "",
          "type": "address"
        }
      ],
      "payable": false,
      "stateMutability": "view",
      "type": "function"
    },
    {
      "constant": false,
      "inputs": [
        {
          "name": "secs",
          "type": "uint256"
        }
      ],
      "name": "setSecondsPerBlock",
      "outputs": [],
      "payable": false,
      "stateMutability": "nonpayable",
      "type": "function"
    },
    {
      "constant": true,
      "inputs": [],
      "name": "paused",
      "outputs": [
        {
          "name": "",
          "type": "bool"
        }
      ],
      "payable": false,
      "stateMutability": "view",
      "type": "function"
    },
    {
      "constant": true,
      "inputs": [],
      "name": "geneSynthesis",
      "outputs": [
        {
          "name": "",
          "type": "address"
        }
      ],
      "payable": false,
      "stateMutability": "view",
      "type": "function"
    },
    {
      "constant": true,
      "inputs": [
        {
          "name": "_tokenId",
          "type": "uint256"
        }
      ],
      "name": "ownerOf",
      "outputs": [
        {
          "name": "",
          "type": "address"
        }
      ],
      "payable": false,
      "stateMutability": "view",
      "type": "function"
    },
    {
      "constant": true,
      "inputs": [],
      "name": "newContractAddress",
      "outputs": [
        {
          "name": "",
          "type": "address"
        }
      ],
      "payable": false,
      "stateMutability": "view",
      "type": "function"
    },
    {
      "constant": false,
      "inputs": [
        {
          "name": "_address",
          "type": "address"
        }
      ],
      "name": "setSaleAuctionAddress",
      "outputs": [],
      "payable": false,
      "stateMutability": "nonpayable",
      "type": "function"
    },
    {
      "constant": true,
      "inputs": [
        {
          "name": "_owner",
          "type": "address"
        }
      ],
      "name": "balanceOf",
      "outputs": [
        {
          "name": "",
          "type": "uint256"
        }
      ],
      "payable": false,
      "stateMutability": "view",
      "type": "function"
    },
    {
      "constant": true,
      "inputs": [],
      "name": "secondsPerBlock",
      "outputs": [
        {
          "name": "",
          "type": "uint256"
        }
      ],
      "payable": false,
      "stateMutability": "view",
      "type": "function"
    },
    {
      "constant": true,
      "inputs": [
        {
          "name": "",
          "type": "uint256"
        }
      ],
      "name": "kydyIndexToApproved",
      "outputs": [
        {
          "name": "",
          "type": "address"
        }
      ],
      "payable": false,
      "stateMutability": "view",
      "type": "function"
    },
    {
      "constant": false,
      "inputs": [],
      "name": "pause",
      "outputs": [],
      "payable": false,
      "stateMutability": "nonpayable",
      "type": "function"
    },
    {
      "constant": true,
      "inputs": [
        {
          "name": "_owner",
          "type": "address"
        }
      ],
      "name": "tokensOfOwner",
      "outputs": [
        {
          "name": "ownerTokens",
          "type": "uint256[]"
        }
      ],
      "payable": false,
      "stateMutability": "view",
      "type": "function"
    },
    {
      "constant": false,
      "inputs": [
        {
          "name": "_yinId",
          "type": "uint256"
        }
      ],
      "name": "giveBirth",
      "outputs": [
        {
          "name": "",
          "type": "uint256"
        }
      ],
      "payable": false,
      "stateMutability": "nonpayable",
      "type": "function"
    },
    {
      "constant": true,
      "inputs": [
        {
          "name": "",
          "type": "uint256"
        }
      ],
      "name": "synthesizeAllowedToAddress",
      "outputs": [
        {
          "name": "",
          "type": "address"
        }
      ],
      "payable": false,
      "stateMutability": "view",
      "type": "function"
    },
    {
      "constant": false,
      "inputs": [],
      "name": "withdrawAuctionBalances",
      "outputs": [],
      "payable": false,
      "stateMutability": "nonpayable",
      "type": "function"
    },
    {
      "constant": false,
      "inputs": [
        {
          "name": "_address",
          "type": "address"
        }
      ],
      "name": "setSynthesizingAuctionAddress",
      "outputs": [],
      "payable": false,
      "stateMutability": "nonpayable",
      "type": "function"
    },
    {
      "constant": true,
      "inputs": [],
      "name": "symbol",
      "outputs": [
        {
          "name": "",
          "type": "string"
        }
      ],
      "payable": false,
      "stateMutability": "view",
      "type": "function"
    },
    {
      "constant": false,
      "inputs": [
        {
          "name": "_genes",
          "type": "uint256"
        },
        {
          "name": "_owner",
          "type": "address"
        }
      ],
      "name": "createPromoKydy",
      "outputs": [],
      "payable": false,
      "stateMutability": "nonpayable",
      "type": "function"
    },
    {
      "constant": true,
      "inputs": [
        {
          "name": "_yinId",
          "type": "uint256"
        },
        {
          "name": "_yangId",
          "type": "uint256"
        }
      ],
      "name": "canSynthesizeWith",
      "outputs": [
        {
          "name": "",
          "type": "bool"
        }
      ],
      "payable": false,
      "stateMutability": "view",
      "type": "function"
    },
    {
      "constant": false,
      "inputs": [
        {
          "name": "_kydyId",
          "type": "uint256"
        },
        {
          "name": "_price",
          "type": "uint256"
        }
      ],
      "name": "createSynthesizingAuction",
      "outputs": [],
      "payable": false,
      "stateMutability": "nonpayable",
      "type": "function"
    },
    {
      "constant": true,
      "inputs": [
        {
          "name": "",
          "type": "uint256"
        }
      ],
      "name": "cooldowns",
      "outputs": [
        {
          "name": "",
          "type": "uint32"
        }
      ],
      "payable": false,
      "stateMutability": "view",
      "type": "function"
    },
    {
      "constant": true,
      "inputs": [],
      "name": "pregnantKydys",
      "outputs": [
        {
          "name": "",
          "type": "uint256"
        }
      ],
      "payable": false,
      "stateMutability": "view",
      "type": "function"
    },
    {
      "constant": false,
      "inputs": [
        {
          "name": "to",
          "type": "address"
        },
        {
          "name": "approved",
          "type": "bool"
        }
      ],
      "name": "setApprovalForAll",
      "outputs": [],
      "payable": false,
      "stateMutability": "nonpayable",
      "type": "function"
    },
    {
      "constant": true,
      "inputs": [],
      "name": "gen0StartingPrice",
      "outputs": [
        {
          "name": "",
          "type": "uint256"
        }
      ],
      "payable": false,
      "stateMutability": "view",
      "type": "function"
    },
    {
      "constant": true,
      "inputs": [],
      "name": "cooAddress",
      "outputs": [
        {
          "name": "",
          "type": "address"
        }
      ],
      "payable": false,
      "stateMutability": "view",
      "type": "function"
    },
    {
      "constant": true,
      "inputs": [],
      "name": "autoBirthFee",
      "outputs": [
        {
          "name": "",
          "type": "uint256"
        }
      ],
      "payable": false,
      "stateMutability": "view",
      "type": "function"
    },
    {
      "constant": true,
      "inputs": [],
      "name": "promoCreationLimit",
      "outputs": [
        {
          "name": "",
          "type": "uint256"
        }
      ],
      "payable": false,
      "stateMutability": "view",
      "type": "function"
    },
    {
      "constant": false,
      "inputs": [
        {
          "name": "from",
          "type": "address"
        },
        {
          "name": "to",
          "type": "address"
        },
        {
          "name": "tokenId",
          "type": "uint256"
        },
        {
          "name": "_data",
          "type": "bytes"
        }
      ],
      "name": "safeTransferFrom",
      "outputs": [],
      "payable": false,
      "stateMutability": "nonpayable",
      "type": "function"
    },
    {
      "constant": false,
      "inputs": [
        {
          "name": "_kydyId",
          "type": "uint256"
        }
      ],
      "name": "cancelSaleAuction",
      "outputs": [],
      "payable": false,
      "stateMutability": "nonpayable",
      "type": "function"
    },
    {
      "constant": false,
      "inputs": [
        {
          "name": "_genes",
          "type": "uint256"
        }
      ],
      "name": "createGen0Auction",
      "outputs": [],
      "payable": false,
      "stateMutability": "nonpayable",
      "type": "function"
    },
    {
      "constant": true,
      "inputs": [
        {
          "name": "tokenId",
          "type": "uint256"
        }
      ],
      "name": "tokenURI",
      "outputs": [
        {
          "name": "",
          "type": "string"
        }
      ],
      "payable": false,
      "stateMutability": "view",
      "type": "function"
    },
    {
      "constant": false,
      "inputs": [
        {
          "name": "_kydyId",
          "type": "uint256"
        },
        {
          "name": "_recipient",
          "type": "address"
        }
      ],
      "name": "rescueLostKydy",
      "outputs": [],
      "payable": false,
      "stateMutability": "nonpayable",
      "type": "function"
    },
    {
      "constant": false,
      "inputs": [
        {
          "name": "_kydyId",
          "type": "uint256"
        }
      ],
      "name": "cancelSynthesizingAuction",
      "outputs": [],
      "payable": false,
      "stateMutability": "nonpayable",
      "type": "function"
    },
    {
      "constant": true,
      "inputs": [],
      "name": "travelCore",
      "outputs": [
        {
          "name": "",
          "type": "address"
        }
      ],
      "payable": false,
      "stateMutability": "view",
      "type": "function"
    },
    {
      "constant": true,
      "inputs": [],
      "name": "saleAuction",
      "outputs": [
        {
          "name": "",
          "type": "address"
        }
      ],
      "payable": false,
      "stateMutability": "view",
      "type": "function"
    },
    {
      "constant": true,
      "inputs": [
        {
          "name": "owner",
          "type": "address"
        },
        {
          "name": "operator",
          "type": "address"
        }
      ],
      "name": "isApprovedForAll",
      "outputs": [
        {
          "name": "",
          "type": "bool"
        }
      ],
      "payable": false,
      "stateMutability": "view",
      "type": "function"
    },
    {
      "constant": true,
      "inputs": [],
      "name": "gen0CreatedCount",
      "outputs": [
        {
          "name": "",
          "type": "uint256"
        }
      ],
      "payable": false,
      "stateMutability": "view",
      "type": "function"
    },
    {
      "constant": true,
      "inputs": [
        {
          "name": "_kydyId",
          "type": "uint256"
        }
      ],
      "name": "isReadyToSynthesize",
      "outputs": [
        {
          "name": "",
          "type": "bool"
        }
      ],
      "payable": false,
      "stateMutability": "view",
      "type": "function"
    },
    {
      "inputs": [],
      "payable": false,
      "stateMutability": "nonpayable",
      "type": "constructor"
    },
    {
      "payable": true,
      "stateMutability": "payable",
      "type": "fallback"
    },
    {
      "anonymous": false,
      "inputs": [
        {
          "indexed": false,
          "name": "owner",
          "type": "address"
        },
        {
          "indexed": false,
          "name": "yinId",
          "type": "uint256"
        },
        {
          "indexed": false,
          "name": "yangId",
          "type": "uint256"
        },
        {
          "indexed": false,
          "name": "cooldownEndBlock",
          "type": "uint256"
        }
      ],
      "name": "Pregnant",
      "type": "event"
    },
    {
      "anonymous": false,
      "inputs": [
        {
          "indexed": true,
          "name": "owner",
          "type": "address"
        },
        {
          "indexed": false,
          "name": "kydyId",
          "type": "uint256"
        },
        {
          "indexed": false,
          "name": "yinId",
          "type": "uint256"
        },
        {
          "indexed": false,
          "name": "yangId",
          "type": "uint256"
        },
        {
          "indexed": false,
          "name": "genes",
          "type": "uint256"
        }
      ],
      "name": "Birth",
      "type": "event"
    },
    {
      "anonymous": false,
      "inputs": [
        {
          "indexed": true,
          "name": "_from",
          "type": "address"
        },
        {
          "indexed": true,
          "name": "_to",
          "type": "address"
        },
        {
          "indexed": true,
          "name": "_tokenId",
          "type": "uint256"
        }
      ],
      "name": "Transfer",
      "type": "event"
    },
    {
      "anonymous": false,
      "inputs": [
        {
          "indexed": true,
          "name": "_owner",
          "type": "address"
        },
        {
          "indexed": true,
          "name": "_approved",
          "type": "address"
        },
        {
          "indexed": true,
          "name": "_tokenId",
          "type": "uint256"
        }
      ],
      "name": "Approval",
      "type": "event"
    },
    {
      "anonymous": false,
      "inputs": [
        {
          "indexed": true,
          "name": "_owner",
          "type": "address"
        },
        {
          "indexed": true,
          "name": "_operator",
          "type": "address"
        },
        {
          "indexed": false,
          "name": "_approved",
          "type": "bool"
        }
      ],
      "name": "ApprovalForAll",
      "type": "event"
    },
    {
      "anonymous": false,
      "inputs": [
        {
          "indexed": false,
          "name": "newContract",
          "type": "address"
        }
      ],
      "name": "ContractUpgrade",
      "type": "event"
    },
    {
      "constant": false,
      "inputs": [
        {
          "name": "_v2Address",
          "type": "address"
        }
      ],
      "name": "setNewAddress",
      "outputs": [],
      "payable": false,
      "stateMutability": "nonpayable",
      "type": "function"
    },
    {
      "constant": true,
      "inputs": [
        {
          "name": "_id",
          "type": "uint256"
        }
      ],
      "name": "getKydy",
      "outputs": [
        {
          "name": "isGestating",
          "type": "bool"
        },
        {
          "name": "isReady",
          "type": "bool"
        },
        {
          "name": "cooldownIndex",
          "type": "uint256"
        },
        {
          "name": "nextActionAt",
          "type": "uint256"
        },
        {
          "name": "synthesizingWithId",
          "type": "uint256"
        },
        {
          "name": "birthTime",
          "type": "uint256"
        },
        {
          "name": "yinId",
          "type": "uint256"
        },
        {
          "name": "yangId",
          "type": "uint256"
        },
        {
          "name": "generation",
          "type": "uint256"
        },
        {
          "name": "genes",
          "type": "uint256"
        }
      ],
      "payable": false,
      "stateMutability": "view",
      "type": "function"
    },
    {
      "constant": false,
      "inputs": [],
      "name": "unpause",
      "outputs": [],
      "payable": false,
      "stateMutability": "nonpayable",
      "type": "function"
    },
    {
      "constant": false,
      "inputs": [],
      "name": "withdrawBalance",
      "outputs": [],
      "payable": false,
      "stateMutability": "nonpayable",
      "type": "function"
    },
    {
      "constant": false,
      "inputs": [
        {
          "name": "_newTravelCore",
          "type": "address"
        }
      ],
      "name": "setTravelCore",
      "outputs": [],
      "payable": false,
      "stateMutability": "nonpayable",
      "type": "function"
    }
  ],
  "bytecode": "0x6002805460a060020a60ff0219169055610240604052603c6080908152607860a05261012c60c05261025860e05261070861010052610e1061012052611c2061014052613840610160526170806101805261e1006101a052620151806101c0526202a3006101e052620546006102005262093a80610220526200008790600490600e62000720565b50600f6006556040805180820190915260078082527f44797665727365000000000000000000000000000000000000000000000000006020909201918252620000d391600d91620007c3565b506040805180820190915260048082527f4b5944590000000000000000000000000000000000000000000000000000000060209092019182526200011a91600e91620007c3565b506040805160608101825260298082527f687474703a2f2f746573746170692e64797665722e73652f6170692f4b796479602083019081527f4d657461646174612f000000000000000000000000000000000000000000000092909301919091526200018991600f91620007c3565b5066071afd498d00006010556103786015556122b8601655662386f26fc10000601755348015620001b957600080fd5b50620001ee7f01ffc9a700000000000000000000000000000000000000000000000000000000640100000000620002c5810204565b620002227f80ac58cd00000000000000000000000000000000000000000000000000000000640100000000620002c5810204565b620002567f5b5e139f00000000000000000000000000000000000000000000000000000000640100000000620002c5810204565b6002805460008054600160a060020a03199081163390811783556001805483168217905560a060020a60ff0219909316740100000000000000000000000000000000000000001716909117909155620002be9080806000198164010000000062000332810204565b50620008cc565b7fffffffff000000000000000000000000000000000000000000000000000000008082161415620002f557600080fd5b7fffffffff00000000000000000000000000000000000000000000000000000000166000908152600360205260409020805460ff19166001179055565b6000806200033f62000844565b600063ffffffff891689146200035457600080fd5b63ffffffff881688146200036757600080fd5b61ffff871687146200037857600080fd5b600287049250600d8361ffff1611156200039157600d92505b505060408051610100810182528581524267ffffffffffffffff90811660208301908152600093830184815263ffffffff8c8116606086019081528c82166080870190815260a0870188815261ffff8a811660c08a019081528f821660e08b01908152600780546001810182559c528a517fa66cc928b5edb82af9bd49922954155ab7b0942694bea4ce44661d9a8736c68860028e029081019190915598517fa66cc928b5edb82af9bd49922954155ab7b0942694bea4ce44661d9a8736c689909901805498519651955194519251915167ffffffffffffffff19909916998b1699909917604060020a608060020a0319166801000000000000000096909a169590950298909817608060020a63ffffffff021916700100000000000000000000000000000000938616939093029290921760a060020a63ffffffff02191674010000000000000000000000000000000000000000918516919091021760c060020a63ffffffff0219167801000000000000000000000000000000000000000000000000968416969096029590951760e060020a61ffff0219167c01000000000000000000000000000000000000000000000000000000009186169190910217600160f060020a03167e010000000000000000000000000000000000000000000000000000000000009290941691909102929092179055909190811681146200059957600080fd5b60608281015160808085015185516040805187815263ffffffff95861660208201529490921684830152938301939093529151600160a060020a038816927f0a5311bd2a6608f08a180df2ee7c5946819a649b204b554bb8e39825b2c50ad5928290030190a262000614858264010000000062000620810204565b98975050505050505050565b62000635828264010000000062000671810204565b6040518190600160a060020a038416906000907fddf252ad1be2c89b69c2b068fc378daa952ba7f163c4a11628f55a4df523b3ef908290a45050565b600081815260086020526040902054600160a060020a0316156200069457600080fd5b60008181526008602090815260408083208054600160a060020a031916600160a060020a03871690811790915583526009909152902054620006e69060016401000000006200070681026200347d1704565b600160a060020a0390921660009081526009602052604090209190915550565b6000828201838110156200071957600080fd5b9392505050565b600283019183908215620007b15791602002820160005b838211156200077d57835183826101000a81548163ffffffff021916908363ffffffff160217905550926020019260040160208160030104928301926001030262000737565b8015620007af5782816101000a81549063ffffffff02191690556004016020816003010492830192600103026200077d565b505b50620007bf92915062000888565b5090565b828054600181600116156101000203166002900490600052602060002090601f016020900481019282601f106200080657805160ff191683800117855562000836565b8280016001018555821562000836579182015b828111156200083657825182559160200191906001019062000819565b50620007bf929150620008af565b6040805161010081018252600080825260208201819052918101829052606081018290526080810182905260a0810182905260c0810182905260e081019190915290565b620008ac91905b80821115620007bf57805463ffffffff191681556001016200088f565b90565b620008ac91905b80821115620007bf5760008155600101620008b6565b61389780620008dc6000396000f3006080604052600436106102dc5763ffffffff60e060020a60003504166301ffc9a7811461030c5780630519ce791461035757806305e455461461038857806306fdde03146103af578063081812fc14610439578063095ea7b3146104515780630a0f8168146104755780630f401cbc1461048a57806318160ddd146104ab578063192ec99d146104c057806319d70e0b146104d557806323b872dd146104f057806324dc793f1461051a578063254b1ddf1461058457806327d7874c146105a85780632ba73c15146105c957806339e395e2146105ea5780633f4ba83a146105f85780633fe0522c1461060d578063404d0e3e1461062e57806342842e0e1461064357806348e68e301461066d5780634b85fd551461067b5780634e0a3379146106935780635627cdcb146106b45780635663896e146106cc5780635c975abb146106e45780635fd8c710146106f957806361a4b1681461070e5780636352211e146107235780636af04a571461073b5780636fbde40d1461075057806370a082311461077157806371587988146107925780637a7d4937146107b3578063816f1771146107c85780638456cb59146107e05780638462151c146107f557806388c2a0bf146108665780638f9f49b61461087e57806391876e57146108965780639307cdf4146108ab57806395d89b41146108cc578063978f8934146108e157806398ba2453146109055780639bacf1ed146109205780639d6fac6f1461093b5780639e5aa5a91461096c578063a22cb46514610981578063ae4d0ff7146109a7578063b047fb50146109bc578063b0c35c05146109d1578063b5319335146109e6578063b88d4fde146109fb578063c31f586d14610a6a578063c3bea9af14610a82578063c87b56dd14610a9a578063cd47f39014610ab2578063d5f48e7614610ad6578063e07974e614610aee578063e6cbe35114610b03578063e985e9c514610b18578063f1ca941014610b3f578063fa061d4814610b54575b601354600160a060020a03163314806102ff5750601454600160a060020a031633145b151561030a57600080fd5b005b34801561031857600080fd5b506103437bffffffffffffffffffffffffffffffffffffffffffffffffffffffff1960043516610b6c565b604080519115158252519081900360200190f35b34801561036357600080fd5b5061036c610ba0565b60408051600160a060020a039092168252519081900360200190f35b34801561039457600080fd5b5061039d610baf565b60408051918252519081900360200190f35b3480156103bb57600080fd5b506103c4610bb5565b6040805160208082528351818301528351919283929083019185019080838360005b838110156103fe5781810151838201526020016103e6565b50505050905090810190601f16801561042b5780820380516001836020036101000a031916815260200191505b509250505060405180910390f35b34801561044557600080fd5b5061036c600435610c4b565b34801561045d57600080fd5b5061030a600160a060020a0360043516602435610c7d565b34801561048157600080fd5b5061036c610d1a565b34801561049657600080fd5b5061030a600160a060020a0360043516610d29565b3480156104b757600080fd5b5061039d610ddc565b3480156104cc57600080fd5b5061036c610de6565b3480156104e157600080fd5b5061030a600435602435610df5565b3480156104fc57600080fd5b5061030a600160a060020a0360043581169060243516604435610ec6565b34801561052657600080fd5b50610532600435610f80565b604080519a15158b5298151560208b0152898901979097526060890195909552608088019390935260a087019190915260c086015260e085015261010084015261012083015251908190036101400190f35b34801561059057600080fd5b5061030a600160a060020a03600435166024356110e1565b3480156105b457600080fd5b5061030a600160a060020a036004351661113b565b3480156105d557600080fd5b5061030a600160a060020a0360043516611189565b61030a6004356024356111d7565b34801561060457600080fd5b5061030a611376565b34801561061957600080fd5b5061030a600160a060020a036004351661140a565b34801561063a57600080fd5b5061039d61145b565b34801561064f57600080fd5b5061030a600160a060020a0360043581169060243516604435611461565b61030a60043560243561147d565b34801561068757600080fd5b5061030a600435611681565b34801561069f57600080fd5b5061030a600160a060020a036004351661169d565b3480156106c057600080fd5b5061036c6004356116eb565b3480156106d857600080fd5b5061030a600435611706565b3480156106f057600080fd5b50610343611762565b34801561070557600080fd5b5061030a611772565b34801561071a57600080fd5b5061036c6117e6565b34801561072f57600080fd5b5061036c6004356117f5565b34801561074757600080fd5b5061036c61181f565b34801561075c57600080fd5b5061030a600160a060020a036004351661182e565b34801561077d57600080fd5b5061039d600160a060020a03600435166118e1565b34801561079e57600080fd5b5061030a600160a060020a0360043516611914565b3480156107bf57600080fd5b5061039d611997565b3480156107d457600080fd5b5061036c60043561199d565b3480156107ec57600080fd5b5061030a6119b8565b34801561080157600080fd5b50610816600160a060020a0360043516611a38565b60408051602080825283518183015283519192839290830191858101910280838360005b8381101561085257818101518382015260200161083a565b505050509050019250505060405180910390f35b34801561087257600080fd5b5061039d600435611b0a565b34801561088a57600080fd5b5061036c600435611dd0565b3480156108a257600080fd5b5061030a611deb565b3480156108b757600080fd5b5061030a600160a060020a0360043516611ed4565b3480156108d857600080fd5b506103c4611f87565b3480156108ed57600080fd5b5061030a600435600160a060020a0360243516611fe8565b34801561091157600080fd5b50610343600435602435612060565b34801561092c57600080fd5b5061030a6004356024356120e0565b34801561094757600080fd5b506109536004356121a9565b6040805163ffffffff9092168252519081900360200190f35b34801561097857600080fd5b5061039d6121d6565b34801561098d57600080fd5b5061030a600160a060020a036004351660243515156121dc565b3480156109b357600080fd5b5061039d612260565b3480156109c857600080fd5b5061036c612266565b3480156109dd57600080fd5b5061039d612275565b3480156109f257600080fd5b5061039d61227b565b348015610a0757600080fd5b50604080516020601f60643560048181013592830184900484028501840190955281845261030a94600160a060020a0381358116956024803590921695604435953695608494019181908401838280828437509497506122819650505050505050565b348015610a7657600080fd5b5061030a6004356122a3565b348015610a8e57600080fd5b5061030a600435612358565b348015610aa657600080fd5b506103c4600435612444565b348015610abe57600080fd5b5061030a600435600160a060020a03602435166124fa565b348015610ae257600080fd5b5061030a600435612548565b348015610afa57600080fd5b5061036c6125fd565b348015610b0f57600080fd5b5061036c61260c565b348015610b2457600080fd5b50610343600160a060020a036004358116906024351661261b565b348015610b4b57600080fd5b5061039d612649565b348015610b6057600080fd5b5061034360043561264f565b7bffffffffffffffffffffffffffffffffffffffffffffffffffffffff191660009081526003602052604090205460ff1690565b600154600160a060020a031681565b60185481565b600d8054604080516020601f6002600019610100600188161502019095169490940493840181900481028201810190925282815260609390929091830182828015610c415780601f10610c1657610100808354040283529160200191610c41565b820191906000526020600020905b815481529060010190602001808311610c2457829003601f168201915b5050505050905090565b6000610c568261271e565b1515610c6157600080fd5b506000908152600a6020526040902054600160a060020a031690565b6000610c88826117f5565b9050600160a060020a038381169082161415610ca357600080fd5b33600160a060020a0382161480610cbf5750610cbf813361261b565b1515610cca57600080fd5b610cd4828461273b565b8183600160a060020a031682600160a060020a03167f8c5be1e5ebec7d5bd14f71427d1e84f3dd0314c0f7b2291e5b200ac8c7c3b92560405160405180910390a4505050565b600054600160a060020a031681565b60008054600160a060020a03163314610d4157600080fd5b81905080600160a060020a0316632e39ff846040518163ffffffff1660e060020a028152600401602060405180830381600087803b158015610d8257600080fd5b505af1158015610d96573d6000803e3d6000fd5b505050506040513d6020811015610dac57600080fd5b50511515610db957600080fd5b60128054600160a060020a031916600160a060020a039290921691909117905550565b6007546000190190565b601454600160a060020a031681565b60025460a060020a900460ff1615610e0c57600080fd5b610e163383612769565b1515610e2157600080fd5b601354610e3790600160a060020a031683610c7d565b601354604080517f54279bdd00000000000000000000000000000000000000000000000000000000815260048101859052602481018490523360448201529051600160a060020a03909216916354279bdd9160648082019260009290919082900301818387803b158015610eaa57600080fd5b505af1158015610ebe573d6000803e3d6000fd5b505050505050565b610ed03382612789565b1515610edb57600080fd5b600160a060020a0382161515610ef057600080fd5b610efa83826127e8565b600160a060020a03831615610f26576000818152600b602052604090208054600160a060020a03191690555b610f30838261284a565b610f3a82826128d3565b8082600160a060020a031684600160a060020a03167fddf252ad1be2c89b69c2b068fc378daa952ba7f163c4a11628f55a4df523b3ef60405160405180910390a4505050565b600080600080600080600080600080600060078c815481101515610fa057fe5b906000526020600020906002020190508060010160189054906101000a900463ffffffff1663ffffffff16600014159a50438160010160089054906101000a900467ffffffffffffffff1667ffffffffffffffff161115995080600101601c9054906101000a900461ffff1661ffff1698508060010160089054906101000a900467ffffffffffffffff1667ffffffffffffffff1697508060010160189054906101000a900463ffffffff1663ffffffff1696508060010160009054906101000a900467ffffffffffffffff1667ffffffffffffffff1695508060010160109054906101000a900463ffffffff1663ffffffff1694508060010160149054906101000a900463ffffffff1663ffffffff16935080600101601e9054906101000a900461ffff1661ffff16925080600001549150509193959799509193959799565b60025460a060020a900460ff16156110f857600080fd5b6111023382612769565b151561110d57600080fd5b6000908152600b602052604090208054600160a060020a031916600160a060020a0392909216919091179055565b600054600160a060020a0316331461115257600080fd5b600160a060020a038116151561116757600080fd5b60008054600160a060020a031916600160a060020a0392909216919091179055565b600054600160a060020a031633146111a057600080fd5b600160a060020a03811615156111b557600080fd5b60028054600160a060020a031916600160a060020a0392909216919091179055565b60025460009060a060020a900460ff16156111f157600080fd5b6111fb3383612769565b151561120657600080fd5b61120f8261264f565b151561121a57600080fd5b6112248284612957565b151561122f57600080fd5b601454604080517fc55d0f56000000000000000000000000000000000000000000000000000000008152600481018690529051600160a060020a039092169163c55d0f56916024808201926020929091908290030181600087803b15801561129657600080fd5b505af11580156112aa573d6000803e3d6000fd5b505050506040513d60208110156112c057600080fd5b505160105490915081013410156112d657600080fd5b601454601054604080517f454a2ab3000000000000000000000000000000000000000000000000000000008152600481018790529051600160a060020a039093169263454a2ab39234039160248082019260009290919082900301818588803b15801561134257600080fd5b505af1158015611356573d6000803e3d6000fd5b50505050506113718263ffffffff168463ffffffff166129a6565b505050565b600054600160a060020a0316331461138d57600080fd5b60025460a060020a900460ff1615156113a557600080fd5b601354600160a060020a031615156113bc57600080fd5b601454600160a060020a031615156113d357600080fd5b601254600160a060020a031615156113ea57600080fd5b601a54600160a060020a03161561140057600080fd5b611408612ae4565b565b600054600160a060020a0316331461142157600080fd5b60025460a060020a900460ff16151561143957600080fd5b601b8054600160a060020a031916600160a060020a0392909216919091179055565b60165481565b6113718383836020604051908101604052806000815250612281565b600254600090819060a060020a900460ff161561149957600080fd5b6010543410156114a857600080fd5b6114b23385612769565b15156114bd57600080fd5b6114c78385612b33565b15156114d257600080fd5b60078054859081106114e057fe5b60009182526020918290206040805161010081018252600290930290910180548352600181015467ffffffffffffffff808216958501959095526801000000000000000081049094169183019190915263ffffffff608060020a84048116606084015260a060020a84048116608084015260c060020a84041660a083015261ffff60e060020a8404811660c084015260f060020a90930490921660e082015290925061158b90612b88565b151561159657600080fd5b60078054849081106115a457fe5b60009182526020918290206040805161010081018252600290930290910180548352600181015467ffffffffffffffff808216958501959095526801000000000000000081049094169183019190915263ffffffff608060020a84048116606084015260a060020a84048116608084015260c060020a84041660a083015261ffff60e060020a8404811660c084015260f060020a90930490921660e082015290915061164f90612b88565b151561165a57600080fd5b61166682858386612bb7565b151561167157600080fd5b61167b84846129a6565b50505050565b600254600160a060020a0316331461169857600080fd5b601055565b600054600160a060020a031633146116b457600080fd5b600160a060020a03811615156116c957600080fd5b60018054600160a060020a031916600160a060020a0392909216919091179055565b600860205260009081526040902054600160a060020a031681565b600254600160a060020a03163314806117295750600054600160a060020a031633145b8061173e5750600154600160a060020a031633145b151561174957600080fd5b60045463ffffffff16811061175d57600080fd5b600655565b60025460a060020a900460ff1681565b6001546000908190600160a060020a0316331461178e57600080fd5b5050601054601154303191600190910102808211156117e257600154604051600160a060020a039091169082840380156108fc02916000818181858888f19350505050158015611371573d6000803e3d6000fd5b5050565b601254600160a060020a031681565b600081815260086020526040812054600160a060020a031680151561181957600080fd5b92915050565b601a54600160a060020a031681565b60008054600160a060020a0316331461184657600080fd5b81905080600160a060020a03166385b861886040518163ffffffff1660e060020a028152600401602060405180830381600087803b15801561188757600080fd5b505af115801561189b573d6000803e3d6000fd5b505050506040513d60208110156118b157600080fd5b505115156118be57600080fd5b60138054600160a060020a031916600160a060020a039290921691909117905550565b6000600160a060020a03821615156118f857600080fd5b50600160a060020a031660009081526009602052604090205490565b600054600160a060020a0316331461192b57600080fd5b60025460a060020a900460ff16151561194357600080fd5b601a8054600160a060020a038316600160a060020a0319909116811790915560408051918252517f450db8da6efbe9c22f2347f7c2021231df1fc58d3ae9a2fa75d39fa4461993059181900360200190a150565b60065481565b600a60205260009081526040902054600160a060020a031681565b600254600160a060020a03163314806119db5750600054600160a060020a031633145b806119f05750600154600160a060020a031633145b15156119fb57600080fd5b60025460a060020a900460ff1615611a1257600080fd5b6002805474ff0000000000000000000000000000000000000000191660a060020a179055565b6060600060606000806000611a4c876118e1565b9450841515611a6b576040805160008152602081019091529550611b00565b84604051908082528060200260200182016040528015611a95578160200160208202803883390190505b509350611aa0610ddc565b925060009150600190505b828111611afc57600081815260086020526040902054600160a060020a0388811691161415611af457808483815181101515611ae357fe5b602090810290910101526001909101905b600101611aab565b8395505b5050505050919050565b600080600080600080600080600260149054906101000a900460ff16151515611b3257600080fd5b600780548a908110611b4057fe5b60009182526020909120600290910201600181015490975067ffffffffffffffff161515611b6d57600080fd5b604080516101008101825288548152600189015467ffffffffffffffff8082166020840152680100000000000000008204169282019290925263ffffffff608060020a83048116606083015260a060020a83048116608083015260c060020a83041660a082015261ffff60e060020a8304811660c083015260f060020a90920490911660e0820152611bfe90612d36565b1515611c0957600080fd5b60018701546007805460c060020a90920463ffffffff1697509087908110611c2d57fe5b600091825260209091206001808a015460029093029091019081015490965061ffff60f060020a928390048116965091900416841015611c7a57600185015460f060020a900461ffff1693505b60125487548654604080517f960fa70f0000000000000000000000000000000000000000000000000000000081526004810193909352602483019190915251600160a060020a039092169163960fa70f916044808201926020929091908290030181600087803b158015611ced57600080fd5b505af1158015611d01573d6000803e3d6000fd5b505050506040513d6020811015611d1757600080fd5b505160008a815260086020526040902054600189810154929550600160a060020a039091169350611d60918b9160c060020a90910463ffffffff1690870161ffff168686612d66565b6001880180547bffffffff0000000000000000000000000000000000000000000000001916905560118054600019019055601054604051919250339181156108fc0291906000818181858888f19350505050158015611dc3573d6000803e3d6000fd5b5098975050505050505050565b600b60205260009081526040902054600160a060020a031681565b600254600160a060020a03163314611e0257600080fd5b601360009054906101000a9004600160a060020a0316600160a060020a0316635fd8c7106040518163ffffffff1660e060020a028152600401600060405180830381600087803b158015611e5557600080fd5b505af1158015611e69573d6000803e3d6000fd5b50505050601460009054906101000a9004600160a060020a0316600160a060020a0316635fd8c7106040518163ffffffff1660e060020a028152600401600060405180830381600087803b158015611ec057600080fd5b505af115801561167b573d6000803e3d6000fd5b60008054600160a060020a03163314611eec57600080fd5b81905080600160a060020a031663ffadaae56040518163ffffffff1660e060020a028152600401602060405180830381600087803b158015611f2d57600080fd5b505af1158015611f41573d6000803e3d6000fd5b505050506040513d6020811015611f5757600080fd5b50511515611f6457600080fd5b60148054600160a060020a031916600160a060020a039290921691909117905550565b600e8054604080516020601f6002600019610100600188161502019095169490940493840181900481028201810190925282815260609390929091830182828015610c415780601f10610c1657610100808354040283529160200191610c41565b600254600160a060020a03163314611fff57600080fd5b600160a060020a038116151561201d5750600254600160a060020a03165b6015546018541061202d57600080fd5b6016546019541061203d57600080fd5b601880546001908101909155601980549091019055611371600080808585612d66565b6000808080851161207057600080fd5b6000841161207d57600080fd5b600780548690811061208b57fe5b906000526020600020906002020191506007848154811015156120aa57fe5b906000526020600020906002020190506120c682868387612bb7565b80156120d757506120d78486612b33565b95945050505050565b60025460a060020a900460ff16156120f757600080fd5b6121013383612769565b151561210c57600080fd5b6121158261264f565b151561212057600080fd5b60145461213690600160a060020a031683610c7d565b601454604080517f54279bdd00000000000000000000000000000000000000000000000000000000815260048101859052602481018490523360448201529051600160a060020a03909216916354279bdd9160648082019260009290919082900301818387803b158015610eaa57600080fd5b600481600e81106121b657fe5b60089182820401919006600402915054906101000a900463ffffffff1681565b60115481565b600160a060020a0382163314156121f257600080fd5b336000818152600c60209081526040808320600160a060020a03871680855290835292819020805460ff1916861515908117909155815190815290519293927f17307eab39ab6107e8899845ad3d59bd9653f200f220920489ca2b5937696c31929181900390910190a35050565b60175481565b600254600160a060020a031681565b60105481565b60155481565b61228c848484610ec6565b61229884848484613039565b151561167b57600080fd5b60025460009060a060020a900460ff16156122bd57600080fd5b6013546122d390600160a060020a031683612769565b15156122de57600080fd5b50336122ea828261273b565b601354604080517f4e8eaa1300000000000000000000000000000000000000000000000000000000815260048101859052600160a060020a03848116602483015291519190921691634e8eaa1391604480830192600092919082900301818387803b158015610eaa57600080fd5b600254600090600160a060020a0316331461237257600080fd5b6016546019541061238257600080fd5b61239160008060008530612d66565b6013549091506123ab908290600160a060020a031661273b565b601354600160a060020a03166354279bdd826123c56131bb565b306040518463ffffffff1660e060020a0281526004018084815260200183815260200182600160a060020a0316600160a060020a031681526020019350505050600060405180830381600087803b15801561241f57600080fd5b505af1158015612433573d6000803e3d6000fd5b505060198054600101905550505050565b606061244f8261271e565b151561245a57600080fd5b600f8054604080516020601f6002600019610100600188161502019095169490940493840181900481028201810190925282815261181993909290918301828280156124e75780601f106124bc576101008083540402835291602001916124e7565b820191906000526020600020905b8154815290600101906020018083116124ca57829003601f168201915b50505050506124f58461327b565b61336e565b600254600160a060020a0316331461251157600080fd5b60025460a060020a900460ff161561252857600080fd5b6125323083612769565b151561253d57600080fd5b6117e23082846133a3565b60025460009060a060020a900460ff161561256257600080fd5b60145461257890600160a060020a031683612769565b151561258357600080fd5b503361258f828261273b565b601454604080517f4e8eaa1300000000000000000000000000000000000000000000000000000000815260048101859052600160a060020a03848116602483015291519190921691634e8eaa1391604480830192600092919082900301818387803b158015610eaa57600080fd5b601b54600160a060020a031681565b601354600160a060020a031681565b600160a060020a039182166000908152600c6020908152604080832093909416825291909152205460ff1690565b60195481565b60008080831161265e57600080fd5b600780548490811061266c57fe5b60009182526020918290206040805161010081018252600290930290910180548352600181015467ffffffffffffffff808216958501959095526801000000000000000081049094169183019190915263ffffffff608060020a84048116606084015260a060020a84048116608084015260c060020a84041660a083015261ffff60e060020a8404811660c084015260f060020a90930490921660e082015290915061271790612b88565b9392505050565b600090815260086020526040902054600160a060020a0316151590565b6000918252600a60205260409091208054600160a060020a031916600160a060020a03909216919091179055565b600090815260086020526040902054600160a060020a0391821691161490565b600080612795836117f5565b905080600160a060020a031684600160a060020a031614806127d0575083600160a060020a03166127c584610c4b565b600160a060020a0316145b806127e057506127e0818561261b565b949350505050565b81600160a060020a03166127fb826117f5565b600160a060020a03161461280e57600080fd5b6000818152600a6020526040902054600160a060020a0316156117e2576000908152600a602052604090208054600160a060020a031916905550565b81600160a060020a031661285d826117f5565b600160a060020a03161461287057600080fd5b600160a060020a03821660009081526009602052604090205461289a90600163ffffffff61346616565b600160a060020a039092166000908152600960209081526040808320949094559181526008909152208054600160a060020a0319169055565b600081815260086020526040902054600160a060020a0316156128f557600080fd5b60008181526008602090815260408083208054600160a060020a031916600160a060020a0387169081179091558352600990915290205461293790600161347d565b600160a060020a0390921660009081526009602052604090209190915550565b600080600060078581548110151561296b57fe5b9060005260206000209060020201915060078481548110151561298a57fe5b906000526020600020906002020190506120d782868387612bb7565b6000806007838154811015156129b857fe5b906000526020600020906002020191506007848154811015156129d757fe5b600091825260209091206002909102016001810180547bffffffff000000000000000000000000000000000000000000000000191660c060020a63ffffffff8716021790559050612a278261348f565b612a308161348f565b6000848152600b602090815260408083208054600160a060020a031990811690915586845281842080549091169055601180546001908101909155878452600883529281902054928401548151600160a060020a0390941684529183018790528281018690526801000000000000000090910467ffffffffffffffff166060830152517f241ea03ca20251805084d27d4440371c34a0b85ff108f6bb5611248f73818b80916080908290030190a150505050565b600054600160a060020a03163314612afb57600080fd5b60025460a060020a900460ff161515612b1357600080fd5b6002805474ff000000000000000000000000000000000000000019169055565b6000818152600860205260408082205484835290822054600160a060020a039182169116808214806120d757506000858152600b6020526040902054600160a060020a03908116908316149250505092915050565b60008160a0015163ffffffff1660001480156118195750506040015167ffffffffffffffff4381169116111590565b600081841415612bc9575060006127e0565b6001850154608060020a900463ffffffff16821480612bf85750600185015460a060020a900463ffffffff1682145b15612c05575060006127e0565b6001830154608060020a900463ffffffff16841480612c345750600183015460a060020a900463ffffffff1684145b15612c41575060006127e0565b6001830154608060020a900463ffffffff161580612c6e57506001850154608060020a900463ffffffff16155b15612c7b575060016127e0565b60018581015490840154608060020a9182900463ffffffff90811692909104161480612cc6575060018086015490840154608060020a900463ffffffff90811660a060020a90920416145b15612cd3575060006127e0565b6001808601549084015460a060020a900463ffffffff908116608060020a909204161480612d1e57506001858101549084015460a060020a9182900463ffffffff9081169290910416145b15612d2b575060006127e0565b506001949350505050565b60008160a0015163ffffffff166000141580156118195750506040015167ffffffffffffffff4381169116111590565b600080612d71613827565b600063ffffffff89168914612d8557600080fd5b63ffffffff88168814612d9757600080fd5b61ffff87168714612da757600080fd5b600287049250600d8361ffff161115612dbf57600d92505b505060408051610100810182528581524267ffffffffffffffff90811660208301908152600093830184815263ffffffff8c8116606086019081528c82166080870190815260a0870188815261ffff8a811660c08a019081528f821660e08b01908152600780546001810182559c528a517fa66cc928b5edb82af9bd49922954155ab7b0942694bea4ce44661d9a8736c68860028e029081019190915598517fa66cc928b5edb82af9bd49922954155ab7b0942694bea4ce44661d9a8736c689909901805498519651955194519251915167ffffffffffffffff19909916998b16999099176fffffffffffffffff000000000000000019166801000000000000000096909a16959095029890981773ffffffff000000000000000000000000000000001916608060020a938616939093029290921777ffffffff0000000000000000000000000000000000000000191660a060020a91851691909102177bffffffff000000000000000000000000000000000000000000000000191660c060020a96841696909602959095177fffff0000ffffffffffffffffffffffffffffffffffffffffffffffffffffffff1660e060020a91861691909102177dffffffffffffffffffffffffffffffffffffffffffffffffffffffffffff1660f060020a929094169190910292909217905590919081168114612fbd57600080fd5b60608281015160808085015185516040805187815263ffffffff95861660208201529490921684830152938301939093529151600160a060020a038816927f0a5311bd2a6608f08a180df2ee7c5946819a649b204b554bb8e39825b2c50ad5928290030190a261302d8582613578565b98975050505050505050565b60008061304e85600160a060020a03166135be565b151561305d57600191506131b2565b6040517f150b7a020000000000000000000000000000000000000000000000000000000081523360048201818152600160a060020a03898116602485015260448401889052608060648501908152875160848601528751918a169463150b7a0294938c938b938b93909160a490910190602085019080838360005b838110156130f05781810151838201526020016130d8565b50505050905090810190601f16801561311d5780820380516001836020036101000a031916815260200191505b5095505050505050602060405180830381600087803b15801561313f57600080fd5b505af1158015613153573d6000803e3d6000fd5b505050506040513d602081101561316957600080fd5b50517bffffffffffffffffffffffffffffffffffffffffffffffffffffffff1981167f150b7a020000000000000000000000000000000000000000000000000000000014925090505b50949350505050565b6000806000601360009054906101000a9004600160a060020a0316600160a060020a031663eac9d94c6040518163ffffffff1660e060020a028152600401602060405180830381600087803b15801561321357600080fd5b505af1158015613227573d6000803e3d6000fd5b505050506040513d602081101561323d57600080fd5b505191506fffffffffffffffffffffffffffffffff8216821461325f57600080fd5b6002820482019050601754811015611819575060175492915050565b606060008082818515156132c45760408051808201909152600181527f300000000000000000000000000000000000000000000000000000000000000060208201529450613365565b8593505b83156132df57600190920191600a840493506132c8565b826040519080825280601f01601f19166020018201604052801561330d578160200160208202803883390190505b5091505060001982015b851561336157815160001982019160f860020a6030600a8a06010291849190811061333e57fe5b906020010190600160f860020a031916908160001a905350600a86049550613317565b8194505b50505050919050565b6040805160208181018352600080835283518083018552818152845192830190945281526060926127179286928692906135c6565b600160a060020a03808316600081815260096020908152604080832080546001019055858352600890915290208054600160a060020a0319169091179055831615610f3a57600160a060020a0383811660008181526009602090815260408083208054600019019055858352600b82528083208054600160a060020a0319908116909155600a9092528083208054909216909155518493861692917fddf252ad1be2c89b69c2b068fc378daa952ba7f163c4a11628f55a4df523b3ef91a4505050565b6000808383111561347657600080fd5b5050900390565b60008282018381101561271757600080fd5b600654600182015443919060049060e060020a900461ffff16600e81106134b257fe5b600891828204019190066004029054906101000a900463ffffffff1663ffffffff168115156134dd57fe5b6001840180546fffffffffffffffff0000000000000000191668010000000000000000939092049390930167ffffffffffffffff16919091021790819055600d60e060020a90910461ffff161015613575576001818101805461ffff60e060020a8083048216909401169092027fffff0000ffffffffffffffffffffffffffffffffffffffffffffffffffffffff9092169190911790555b50565b61358282826128d3565b6040518190600160a060020a038416906000907fddf252ad1be2c89b69c2b068fc378daa952ba7f163c4a11628f55a4df523b3ef908290a45050565b6000903b1190565b6060806060806060806060806000808e98508d97508c96508b95508a94508451865188518a518c51010101016040519080825280601f01601f19166020018201604052801561361f578160200160208202803883390190505b50935083925060009150600090505b885181101561368c57888181518110151561364557fe5b90602001015160f860020a900460f860020a02838380600101945081518110151561366c57fe5b906020010190600160f860020a031916908160001a90535060010161362e565b5060005b87518110156136ee5787818151811015156136a757fe5b90602001015160f860020a900460f860020a0283838060010194508151811015156136ce57fe5b906020010190600160f860020a031916908160001a905350600101613690565b5060005b865181101561375057868181518110151561370957fe5b90602001015160f860020a900460f860020a02838380600101945081518110151561373057fe5b906020010190600160f860020a031916908160001a9053506001016136f2565b5060005b85518110156137b257858181518110151561376b57fe5b90602001015160f860020a900460f860020a02838380600101945081518110151561379257fe5b906020010190600160f860020a031916908160001a905350600101613754565b5060005b84518110156138145784818151811015156137cd57fe5b90602001015160f860020a900460f860020a0283838060010194508151811015156137f457fe5b906020010190600160f860020a031916908160001a9053506001016137b6565b50909d9c50505050505050505050505050565b6040805161010081018252600080825260208201819052918101829052606081018290526080810182905260a0810182905260c0810182905260e0810191909152905600a165627a7a72305820dd6a92154a1015b0b52124cd6d8e11734e12d3122a0dec1355d1a3e30aaeb50d0029",
  "source": "pragma solidity ^0.4.24;\n\nimport \"./KydyMinting.sol\";\nimport \"./Travel/KydyTravelInterface.sol\";\n\ncontract KydyCore is KydyMinting {\n\n    address public newContractAddress;\n\n    constructor() public {\n        paused = true;\n\n        ceoAddress = msg.sender;\n\n        cfoAddress = msg.sender;\n\n        cooAddress = msg.sender;\n\n        _createKydy(0, 0, 0, uint256(-1), address(0));\n    }\n\n    function setNewAddress(address _v2Address) public onlyCEO whenPaused {\n        newContractAddress = _v2Address;\n        emit ContractUpgrade(_v2Address);\n    }\n\n    function() external payable {\n        require(\n            msg.sender == address(saleAuction) ||\n            msg.sender == address(synthesizingAuction)\n        );\n    }\n\n    function getKydy(uint256 _id)\n        public\n        view\n        returns (\n        bool isGestating,\n        bool isReady,\n        uint256 cooldownIndex,\n        uint256 nextActionAt,\n        uint256 synthesizingWithId,\n        uint256 birthTime,\n        uint256 yinId,\n        uint256 yangId,\n        uint256 generation,\n        uint256 genes\n    ) {\n        Kydy storage kyd = kydys[_id];\n\n        isGestating = (kyd.synthesizingWithId != 0);\n        isReady = (kyd.cooldownEndBlock <= block.number);\n        cooldownIndex = uint256(kyd.cooldownIndex);\n        nextActionAt = uint256(kyd.cooldownEndBlock);\n        synthesizingWithId = uint256(kyd.synthesizingWithId);\n        birthTime = uint256(kyd.birthTime);\n        yinId = uint256(kyd.yinId);\n        yangId = uint256(kyd.yangId);\n        generation = uint256(kyd.generation);\n        genes = kyd.genes;\n    }\n\n    function unpause() public onlyCEO whenPaused {\n        require(saleAuction != address(0));\n        require(synthesizingAuction != address(0));\n        require(geneSynthesis != address(0));\n        require(newContractAddress == address(0));\n\n        super.unpause();\n    }\n\n    function withdrawBalance() external onlyCFO {\n        uint256 balance = address(this).balance;\n\n        uint256 subtractFees = (pregnantKydys + 1) * autoBirthFee;\n\n        if (balance > subtractFees) {\n            cfoAddress.transfer(balance - subtractFees);\n        }\n    }\n\n    // Kydy Travel Plugin part\n    // Can be separated when needed\n    KydyTravelInterface public travelCore;\n\n    function setTravelCore(address _newTravelCore) public onlyCEO whenPaused {\n        travelCore = KydyTravelInterface(_newTravelCore);\n    }\n}\n",
  "sourcePath": "/Users/Keki/Vrexlab/kydy-solidity/contracts/KydyCore.sol",
  "compiler": {
    "name": "solc",
    "version": "0.4.24+commit.e67f0147.Emscripten.clang"
  },
  "schemaVersion": "2.0.1",
  "updatedAt": "2018-12-17T03:59:09.742Z"
}