{
  "contractName": "KydyBase",
  "abi": [
    {
      "constant": true,
      "inputs": [],
      "name": "cfoAddress",
      "outputs": [
        {
          "name": "",
          "type": "address"
        }
      ],
      "payable": false,
      "stateMutability": "view",
      "type": "function"
    },
    {
      "constant": true,
      "inputs": [],
      "name": "ceoAddress",
      "outputs": [
        {
          "name": "",
          "type": "address"
        }
      ],
      "payable": false,
      "stateMutability": "view",
      "type": "function"
    },
    {
      "constant": false,
      "inputs": [
        {
          "name": "_newCEO",
          "type": "address"
        }
      ],
      "name": "setCEO",
      "outputs": [],
      "payable": false,
      "stateMutability": "nonpayable",
      "type": "function"
    },
    {
      "constant": false,
      "inputs": [
        {
          "name": "_newCOO",
          "type": "address"
        }
      ],
      "name": "setCOO",
      "outputs": [],
      "payable": false,
      "stateMutability": "nonpayable",
      "type": "function"
    },
    {
      "constant": false,
      "inputs": [],
      "name": "unpause",
      "outputs": [],
      "payable": false,
      "stateMutability": "nonpayable",
      "type": "function"
    },
    {
      "constant": false,
      "inputs": [
        {
          "name": "_newCFO",
          "type": "address"
        }
      ],
      "name": "setCFO",
      "outputs": [],
      "payable": false,
      "stateMutability": "nonpayable",
      "type": "function"
    },
    {
      "constant": true,
      "inputs": [
        {
          "name": "",
          "type": "uint256"
        }
      ],
      "name": "kydyIndexToOwner",
      "outputs": [
        {
          "name": "",
          "type": "address"
        }
      ],
      "payable": false,
      "stateMutability": "view",
      "type": "function"
    },
    {
      "constant": true,
      "inputs": [],
      "name": "paused",
      "outputs": [
        {
          "name": "",
          "type": "bool"
        }
      ],
      "payable": false,
      "stateMutability": "view",
      "type": "function"
    },
    {
      "constant": true,
      "inputs": [],
      "name": "secondsPerBlock",
      "outputs": [
        {
          "name": "",
          "type": "uint256"
        }
      ],
      "payable": false,
      "stateMutability": "view",
      "type": "function"
    },
    {
      "constant": true,
      "inputs": [
        {
          "name": "",
          "type": "uint256"
        }
      ],
      "name": "kydyIndexToApproved",
      "outputs": [
        {
          "name": "",
          "type": "address"
        }
      ],
      "payable": false,
      "stateMutability": "view",
      "type": "function"
    },
    {
      "constant": false,
      "inputs": [],
      "name": "pause",
      "outputs": [],
      "payable": false,
      "stateMutability": "nonpayable",
      "type": "function"
    },
    {
      "constant": true,
      "inputs": [
        {
          "name": "",
          "type": "uint256"
        }
      ],
      "name": "synthesizeAllowedToAddress",
      "outputs": [
        {
          "name": "",
          "type": "address"
        }
      ],
      "payable": false,
      "stateMutability": "view",
      "type": "function"
    },
    {
      "constant": true,
      "inputs": [
        {
          "name": "",
          "type": "uint256"
        }
      ],
      "name": "cooldowns",
      "outputs": [
        {
          "name": "",
          "type": "uint32"
        }
      ],
      "payable": false,
      "stateMutability": "view",
      "type": "function"
    },
    {
      "constant": true,
      "inputs": [],
      "name": "cooAddress",
      "outputs": [
        {
          "name": "",
          "type": "address"
        }
      ],
      "payable": false,
      "stateMutability": "view",
      "type": "function"
    },
    {
      "anonymous": false,
      "inputs": [
        {
          "indexed": true,
          "name": "owner",
          "type": "address"
        },
        {
          "indexed": false,
          "name": "kydyId",
          "type": "uint256"
        },
        {
          "indexed": false,
          "name": "yinId",
          "type": "uint256"
        },
        {
          "indexed": false,
          "name": "yangId",
          "type": "uint256"
        },
        {
          "indexed": false,
          "name": "genes",
          "type": "uint256"
        }
      ],
      "name": "Birth",
      "type": "event"
    },
    {
      "anonymous": false,
      "inputs": [
        {
          "indexed": true,
          "name": "from",
          "type": "address"
        },
        {
          "indexed": true,
          "name": "to",
          "type": "address"
        },
        {
          "indexed": true,
          "name": "tokenId",
          "type": "uint256"
        }
      ],
      "name": "Transfer",
      "type": "event"
    },
    {
      "anonymous": false,
      "inputs": [
        {
          "indexed": false,
          "name": "newContract",
          "type": "address"
        }
      ],
      "name": "ContractUpgrade",
      "type": "event"
    },
    {
      "constant": false,
      "inputs": [
        {
          "name": "secs",
          "type": "uint256"
        }
      ],
      "name": "setSecondsPerBlock",
      "outputs": [],
      "payable": false,
      "stateMutability": "nonpayable",
      "type": "function"
    }
  ],
  "bytecode": "0x60806040526000600260146101000a81548160ff0219169083151502179055506101c060405190810160405280603c63ffffffff1663ffffffff168152602001607863ffffffff1663ffffffff16815260200161012c63ffffffff1663ffffffff16815260200161025863ffffffff1663ffffffff16815260200161070863ffffffff1663ffffffff168152602001610e1063ffffffff1663ffffffff168152602001611c2063ffffffff1663ffffffff16815260200161384063ffffffff1663ffffffff16815260200161708063ffffffff1663ffffffff16815260200161e10063ffffffff1663ffffffff1681526020016201518063ffffffff1663ffffffff1681526020016202a30063ffffffff1663ffffffff1681526020016205460063ffffffff1663ffffffff16815260200162093a8063ffffffff1663ffffffff16815250600390600e61015492919061016c565b50600f60055534801561016657600080fd5b50610242565b82600e6007016008900481019282156101fe5791602002820160005b838211156101cc57835183826101000a81548163ffffffff021916908363ffffffff1602179055509260200192600401602081600301049283019260010302610188565b80156101fc5782816101000a81549063ffffffff02191690556004016020816003010492830192600103026101cc565b505b50905061020b919061020f565b5090565b61023f91905b8082111561023b57600081816101000a81549063ffffffff021916905550600101610215565b5090565b90565b610c30806102516000396000f3006080604052600436106100db576000357c0100000000000000000000000000000000000000000000000000000000900463ffffffff1680630519ce79146100e05780630a0f81681461013757806327d7874c1461018e5780632ba73c15146101d15780633f4ba83a146102145780634e0a33791461022b5780635627cdcb1461026e5780635663896e146102db5780635c975abb146103085780637a7d493714610337578063816f1771146103625780638456cb59146103cf5780638f9f49b6146103e65780639d6fac6f14610453578063b047fb50146104a0575b600080fd5b3480156100ec57600080fd5b506100f56104f7565b604051808273ffffffffffffffffffffffffffffffffffffffff1673ffffffffffffffffffffffffffffffffffffffff16815260200191505060405180910390f35b34801561014357600080fd5b5061014c61051d565b604051808273ffffffffffffffffffffffffffffffffffffffff1673ffffffffffffffffffffffffffffffffffffffff16815260200191505060405180910390f35b34801561019a57600080fd5b506101cf600480360381019080803573ffffffffffffffffffffffffffffffffffffffff169060200190929190505050610542565b005b3480156101dd57600080fd5b50610212600480360381019080803573ffffffffffffffffffffffffffffffffffffffff16906020019092919050505061061c565b005b34801561022057600080fd5b506102296106f7565b005b34801561023757600080fd5b5061026c600480360381019080803573ffffffffffffffffffffffffffffffffffffffff16906020019092919050505061078a565b005b34801561027a57600080fd5b5061029960048036038101908080359060200190929190505050610865565b604051808273ffffffffffffffffffffffffffffffffffffffff1673ffffffffffffffffffffffffffffffffffffffff16815260200191505060405180910390f35b3480156102e757600080fd5b5061030660048036038101908080359060200190929190505050610898565b005b34801561031457600080fd5b5061031d6109ec565b604051808215151515815260200191505060405180910390f35b34801561034357600080fd5b5061034c6109ff565b6040518082815260200191505060405180910390f35b34801561036e57600080fd5b5061038d60048036038101908080359060200190929190505050610a05565b604051808273ffffffffffffffffffffffffffffffffffffffff1673ffffffffffffffffffffffffffffffffffffffff16815260200191505060405180910390f35b3480156103db57600080fd5b506103e4610a38565b005b3480156103f257600080fd5b5061041160048036038101908080359060200190929190505050610b7c565b604051808273ffffffffffffffffffffffffffffffffffffffff1673ffffffffffffffffffffffffffffffffffffffff16815260200191505060405180910390f35b34801561045f57600080fd5b5061047e60048036038101908080359060200190929190505050610baf565b604051808263ffffffff1663ffffffff16815260200191505060405180910390f35b3480156104ac57600080fd5b506104b5610bde565b604051808273ffffffffffffffffffffffffffffffffffffffff1673ffffffffffffffffffffffffffffffffffffffff16815260200191505060405180910390f35b600160009054906101000a900473ffffffffffffffffffffffffffffffffffffffff1681565b6000809054906101000a900473ffffffffffffffffffffffffffffffffffffffff1681565b6000809054906101000a900473ffffffffffffffffffffffffffffffffffffffff1673ffffffffffffffffffffffffffffffffffffffff163373ffffffffffffffffffffffffffffffffffffffff1614151561059d57600080fd5b600073ffffffffffffffffffffffffffffffffffffffff168173ffffffffffffffffffffffffffffffffffffffff16141515156105d957600080fd5b806000806101000a81548173ffffffffffffffffffffffffffffffffffffffff021916908373ffffffffffffffffffffffffffffffffffffffff16021790555050565b6000809054906101000a900473ffffffffffffffffffffffffffffffffffffffff1673ffffffffffffffffffffffffffffffffffffffff163373ffffffffffffffffffffffffffffffffffffffff1614151561067757600080fd5b600073ffffffffffffffffffffffffffffffffffffffff168173ffffffffffffffffffffffffffffffffffffffff16141515156106b357600080fd5b80600260006101000a81548173ffffffffffffffffffffffffffffffffffffffff021916908373ffffffffffffffffffffffffffffffffffffffff16021790555050565b6000809054906101000a900473ffffffffffffffffffffffffffffffffffffffff1673ffffffffffffffffffffffffffffffffffffffff163373ffffffffffffffffffffffffffffffffffffffff1614151561075257600080fd5b600260149054906101000a900460ff16151561076d57600080fd5b6000600260146101000a81548160ff021916908315150217905550565b6000809054906101000a900473ffffffffffffffffffffffffffffffffffffffff1673ffffffffffffffffffffffffffffffffffffffff163373ffffffffffffffffffffffffffffffffffffffff161415156107e557600080fd5b600073ffffffffffffffffffffffffffffffffffffffff168173ffffffffffffffffffffffffffffffffffffffff161415151561082157600080fd5b80600160006101000a81548173ffffffffffffffffffffffffffffffffffffffff021916908373ffffffffffffffffffffffffffffffffffffffff16021790555050565b60076020528060005260406000206000915054906101000a900473ffffffffffffffffffffffffffffffffffffffff1681565b600260009054906101000a900473ffffffffffffffffffffffffffffffffffffffff1673ffffffffffffffffffffffffffffffffffffffff163373ffffffffffffffffffffffffffffffffffffffff16148061094057506000809054906101000a900473ffffffffffffffffffffffffffffffffffffffff1673ffffffffffffffffffffffffffffffffffffffff163373ffffffffffffffffffffffffffffffffffffffff16145b806109985750600160009054906101000a900473ffffffffffffffffffffffffffffffffffffffff1673ffffffffffffffffffffffffffffffffffffffff163373ffffffffffffffffffffffffffffffffffffffff16145b15156109a357600080fd5b60036000600e811015156109b357fe5b600891828204019190066004029054906101000a900463ffffffff1663ffffffff16811015156109e257600080fd5b8060058190555050565b600260149054906101000a900460ff1681565b60055481565b60096020528060005260406000206000915054906101000a900473ffffffffffffffffffffffffffffffffffffffff1681565b600260009054906101000a900473ffffffffffffffffffffffffffffffffffffffff1673ffffffffffffffffffffffffffffffffffffffff163373ffffffffffffffffffffffffffffffffffffffff161480610ae057506000809054906101000a900473ffffffffffffffffffffffffffffffffffffffff1673ffffffffffffffffffffffffffffffffffffffff163373ffffffffffffffffffffffffffffffffffffffff16145b80610b385750600160009054906101000a900473ffffffffffffffffffffffffffffffffffffffff1673ffffffffffffffffffffffffffffffffffffffff163373ffffffffffffffffffffffffffffffffffffffff16145b1515610b4357600080fd5b600260149054906101000a900460ff16151515610b5f57600080fd5b6001600260146101000a81548160ff021916908315150217905550565b600a6020528060005260406000206000915054906101000a900473ffffffffffffffffffffffffffffffffffffffff1681565b600381600e81101515610bbe57fe5b60089182820401919006600402915054906101000a900463ffffffff1681565b600260009054906101000a900473ffffffffffffffffffffffffffffffffffffffff16815600a165627a7a723058201d1166cf97a85a4542a1c12682067d226ea504a6e00ca4724f9a840a2efeada80029",
  "source": "pragma solidity ^0.4.24;\n\nimport \"./KydyAccessControl.sol\";\n\n\ncontract KydyBase is KydyAccessControl {\n    event Birth(address indexed owner, uint256 kydyId, uint256 yinId, uint256 yangId, uint256 genes);\n\n    event Transfer(address indexed from, address indexed to, uint256 indexed tokenId);\n\n    struct Kydy {\n        uint256 genes;\n\n        uint64 birthTime;\n\n        uint64 cooldownEndBlock;\n\n        uint32 yinId;\n        uint32 yangId;\n\n        uint32 synthesizingWithId;\n\n        uint16 cooldownIndex;\n\n        uint16 generation;\n    }\n\n    uint32[14] public cooldowns = [\n        uint32(1 minutes),\n        uint32(2 minutes),\n        uint32(5 minutes),\n        uint32(10 minutes),\n        uint32(30 minutes),\n        uint32(1 hours),\n        uint32(2 hours),\n        uint32(4 hours),\n        uint32(8 hours),\n        uint32(16 hours),\n        uint32(1 days),\n        uint32(2 days),\n        uint32(4 days),\n        uint32(7 days)\n    ];\n\n    uint256 public secondsPerBlock = 15;\n\n    Kydy[] kydys;\n\n    mapping (uint256 => address) public kydyIndexToOwner;\n\n    mapping (address => uint256) ownershipTokenCount;\n\n    mapping (uint256 => address) public kydyIndexToApproved;\n\n    mapping (uint256 => address) public synthesizeAllowedToAddress;\n\n    function _transfer(address _from, address _to, uint256 _tokenId) internal {\n        ownershipTokenCount[_to]++;\n        kydyIndexToOwner[_tokenId] = _to;\n        if (_from != address(0)) {\n            ownershipTokenCount[_from]--;\n            delete synthesizeAllowedToAddress[_tokenId];\n            delete kydyIndexToApproved[_tokenId];\n        }\n        emit Transfer(_from, _to, _tokenId);\n    }\n\n    function _createKydy(\n        uint256 _yinId,\n        uint256 _yangId,\n        uint256 _generation,\n        uint256 _genes,\n        address _owner\n    )\n        internal\n        returns (uint)\n    {\n        require(_yinId == uint256(uint32(_yinId)));\n        require(_yangId == uint256(uint32(_yangId)));\n        require(_generation == uint256(uint16(_generation)));\n\n        uint16 cooldownIndex = uint16(_generation / 2);\n        if (cooldownIndex > 13) {\n            cooldownIndex = 13;\n        }\n\n        Kydy memory _kyd = Kydy({\n            genes: _genes,\n            birthTime: uint64(now),\n            cooldownEndBlock: 0,\n            yinId: uint32(_yinId),\n            yangId: uint32(_yangId),\n            synthesizingWithId: 0,\n            cooldownIndex: cooldownIndex,\n            generation: uint16(_generation)\n        });\n        uint256 newbabykydyId = kydys.push(_kyd) - 1;\n\n        require(newbabykydyId == uint256(uint32(newbabykydyId)));\n\n        emit Birth(\n            _owner,\n            newbabykydyId,\n            uint256(_kyd.yinId),\n            uint256(_kyd.yangId),\n            _kyd.genes\n        );\n\n        _transfer(0, _owner, newbabykydyId);\n\n        return newbabykydyId;\n    }\n\n    function setSecondsPerBlock(uint256 secs) external onlyCLevel {\n        require(secs < cooldowns[0]);\n        secondsPerBlock = secs;\n    }\n}\n",
  "sourcePath": "/Users/Keki/Vrexlab/kydy-solidity/contracts/KydyBase.sol",
  "compiler": {
    "name": "solc",
    "version": "0.4.24+commit.e67f0147.Emscripten.clang"
  },
  "schemaVersion": "2.0.1",
  "updatedAt": "2018-11-12T07:02:22.708Z"
}