{
  "contractName": "KydyMinting",
  "abi": [
    {
      "constant": true,
      "inputs": [
        {
          "name": "interfaceId",
          "type": "bytes4"
        }
      ],
      "name": "supportsInterface",
      "outputs": [
        {
          "name": "",
          "type": "bool"
        }
      ],
      "payable": false,
      "stateMutability": "view",
      "type": "function"
    },
    {
      "constant": true,
      "inputs": [],
      "name": "cfoAddress",
      "outputs": [
        {
          "name": "",
          "type": "address"
        }
      ],
      "payable": false,
      "stateMutability": "view",
      "type": "function"
    },
    {
      "constant": true,
      "inputs": [],
      "name": "promoCreatedCount",
      "outputs": [
        {
          "name": "",
          "type": "uint256"
        }
      ],
      "payable": false,
      "stateMutability": "view",
      "type": "function"
    },
    {
      "constant": true,
      "inputs": [],
      "name": "name",
      "outputs": [
        {
          "name": "",
          "type": "string"
        }
      ],
      "payable": false,
      "stateMutability": "view",
      "type": "function"
    },
    {
      "constant": true,
      "inputs": [
        {
          "name": "tokenId",
          "type": "uint256"
        }
      ],
      "name": "getApproved",
      "outputs": [
        {
          "name": "",
          "type": "address"
        }
      ],
      "payable": false,
      "stateMutability": "view",
      "type": "function"
    },
    {
      "constant": false,
      "inputs": [
        {
          "name": "to",
          "type": "address"
        },
        {
          "name": "tokenId",
          "type": "uint256"
        }
      ],
      "name": "approve",
      "outputs": [],
      "payable": false,
      "stateMutability": "nonpayable",
      "type": "function"
    },
    {
      "constant": true,
      "inputs": [],
      "name": "ceoAddress",
      "outputs": [
        {
          "name": "",
          "type": "address"
        }
      ],
      "payable": false,
      "stateMutability": "view",
      "type": "function"
    },
    {
      "constant": false,
      "inputs": [
        {
          "name": "_address",
          "type": "address"
        }
      ],
      "name": "setGeneSynthesisAddress",
      "outputs": [],
      "payable": false,
      "stateMutability": "nonpayable",
      "type": "function"
    },
    {
      "constant": true,
      "inputs": [],
      "name": "totalSupply",
      "outputs": [
        {
          "name": "",
          "type": "uint256"
        }
      ],
      "payable": false,
      "stateMutability": "view",
      "type": "function"
    },
    {
      "constant": true,
      "inputs": [],
      "name": "synthesizingAuction",
      "outputs": [
        {
          "name": "",
          "type": "address"
        }
      ],
      "payable": false,
      "stateMutability": "view",
      "type": "function"
    },
    {
      "constant": false,
      "inputs": [
        {
          "name": "_kydyId",
          "type": "uint256"
        },
        {
          "name": "_price",
          "type": "uint256"
        }
      ],
      "name": "createSaleAuction",
      "outputs": [],
      "payable": false,
      "stateMutability": "nonpayable",
      "type": "function"
    },
    {
      "constant": false,
      "inputs": [
        {
          "name": "from",
          "type": "address"
        },
        {
          "name": "to",
          "type": "address"
        },
        {
          "name": "tokenId",
          "type": "uint256"
        }
      ],
      "name": "transferFrom",
      "outputs": [],
      "payable": false,
      "stateMutability": "nonpayable",
      "type": "function"
    },
    {
      "constant": false,
      "inputs": [
        {
          "name": "_addr",
          "type": "address"
        },
        {
          "name": "_yangId",
          "type": "uint256"
        }
      ],
      "name": "approveSynthesizing",
      "outputs": [],
      "payable": false,
      "stateMutability": "nonpayable",
      "type": "function"
    },
    {
      "constant": false,
      "inputs": [
        {
          "name": "_newCEO",
          "type": "address"
        }
      ],
      "name": "setCEO",
      "outputs": [],
      "payable": false,
      "stateMutability": "nonpayable",
      "type": "function"
    },
    {
      "constant": false,
      "inputs": [
        {
          "name": "_newCOO",
          "type": "address"
        }
      ],
      "name": "setCOO",
      "outputs": [],
      "payable": false,
      "stateMutability": "nonpayable",
      "type": "function"
    },
    {
      "constant": false,
      "inputs": [
        {
          "name": "_yangId",
          "type": "uint256"
        },
        {
          "name": "_yinId",
          "type": "uint256"
        }
      ],
      "name": "bidOnSynthesizingAuction",
      "outputs": [],
      "payable": true,
      "stateMutability": "payable",
      "type": "function"
    },
    {
      "constant": false,
      "inputs": [],
      "name": "unpause",
      "outputs": [],
      "payable": false,
      "stateMutability": "nonpayable",
      "type": "function"
    },
    {
      "constant": true,
      "inputs": [],
      "name": "gen0CreationLimit",
      "outputs": [
        {
          "name": "",
          "type": "uint256"
        }
      ],
      "payable": false,
      "stateMutability": "view",
      "type": "function"
    },
    {
      "constant": false,
      "inputs": [
        {
          "name": "from",
          "type": "address"
        },
        {
          "name": "to",
          "type": "address"
        },
        {
          "name": "tokenId",
          "type": "uint256"
        }
      ],
      "name": "safeTransferFrom",
      "outputs": [],
      "payable": false,
      "stateMutability": "nonpayable",
      "type": "function"
    },
    {
      "constant": false,
      "inputs": [
        {
          "name": "_yinId",
          "type": "uint256"
        },
        {
          "name": "_yangId",
          "type": "uint256"
        }
      ],
      "name": "synthesizeWithAuto",
      "outputs": [],
      "payable": true,
      "stateMutability": "payable",
      "type": "function"
    },
    {
      "constant": false,
      "inputs": [
        {
          "name": "val",
          "type": "uint256"
        }
      ],
      "name": "setAutoBirthFee",
      "outputs": [],
      "payable": false,
      "stateMutability": "nonpayable",
      "type": "function"
    },
    {
      "constant": false,
      "inputs": [
        {
          "name": "_newCFO",
          "type": "address"
        }
      ],
      "name": "setCFO",
      "outputs": [],
      "payable": false,
      "stateMutability": "nonpayable",
      "type": "function"
    },
    {
      "constant": true,
      "inputs": [
        {
          "name": "",
          "type": "uint256"
        }
      ],
      "name": "kydyIndexToOwner",
      "outputs": [
        {
          "name": "",
          "type": "address"
        }
      ],
      "payable": false,
      "stateMutability": "view",
      "type": "function"
    },
    {
      "constant": false,
      "inputs": [
        {
          "name": "secs",
          "type": "uint256"
        }
      ],
      "name": "setSecondsPerBlock",
      "outputs": [],
      "payable": false,
      "stateMutability": "nonpayable",
      "type": "function"
    },
    {
      "constant": true,
      "inputs": [],
      "name": "paused",
      "outputs": [
        {
          "name": "",
          "type": "bool"
        }
      ],
      "payable": false,
      "stateMutability": "view",
      "type": "function"
    },
    {
      "constant": true,
      "inputs": [],
      "name": "geneSynthesis",
      "outputs": [
        {
          "name": "",
          "type": "address"
        }
      ],
      "payable": false,
      "stateMutability": "view",
      "type": "function"
    },
    {
      "constant": true,
      "inputs": [
        {
          "name": "_tokenId",
          "type": "uint256"
        }
      ],
      "name": "ownerOf",
      "outputs": [
        {
          "name": "",
          "type": "address"
        }
      ],
      "payable": false,
      "stateMutability": "view",
      "type": "function"
    },
    {
      "constant": false,
      "inputs": [
        {
          "name": "_address",
          "type": "address"
        }
      ],
      "name": "setSaleAuctionAddress",
      "outputs": [],
      "payable": false,
      "stateMutability": "nonpayable",
      "type": "function"
    },
    {
      "constant": true,
      "inputs": [
        {
          "name": "_owner",
          "type": "address"
        }
      ],
      "name": "balanceOf",
      "outputs": [
        {
          "name": "",
          "type": "uint256"
        }
      ],
      "payable": false,
      "stateMutability": "view",
      "type": "function"
    },
    {
      "constant": true,
      "inputs": [],
      "name": "secondsPerBlock",
      "outputs": [
        {
          "name": "",
          "type": "uint256"
        }
      ],
      "payable": false,
      "stateMutability": "view",
      "type": "function"
    },
    {
      "constant": true,
      "inputs": [
        {
          "name": "",
          "type": "uint256"
        }
      ],
      "name": "kydyIndexToApproved",
      "outputs": [
        {
          "name": "",
          "type": "address"
        }
      ],
      "payable": false,
      "stateMutability": "view",
      "type": "function"
    },
    {
      "constant": false,
      "inputs": [],
      "name": "pause",
      "outputs": [],
      "payable": false,
      "stateMutability": "nonpayable",
      "type": "function"
    },
    {
      "constant": true,
      "inputs": [
        {
          "name": "_owner",
          "type": "address"
        }
      ],
      "name": "tokensOfOwner",
      "outputs": [
        {
          "name": "ownerTokens",
          "type": "uint256[]"
        }
      ],
      "payable": false,
      "stateMutability": "view",
      "type": "function"
    },
    {
      "constant": false,
      "inputs": [
        {
          "name": "_yinId",
          "type": "uint256"
        }
      ],
      "name": "giveBirth",
      "outputs": [
        {
          "name": "",
          "type": "uint256"
        }
      ],
      "payable": false,
      "stateMutability": "nonpayable",
      "type": "function"
    },
    {
      "constant": true,
      "inputs": [
        {
          "name": "",
          "type": "uint256"
        }
      ],
      "name": "synthesizeAllowedToAddress",
      "outputs": [
        {
          "name": "",
          "type": "address"
        }
      ],
      "payable": false,
      "stateMutability": "view",
      "type": "function"
    },
    {
      "constant": false,
      "inputs": [],
      "name": "withdrawAuctionBalances",
      "outputs": [],
      "payable": false,
      "stateMutability": "nonpayable",
      "type": "function"
    },
    {
      "constant": false,
      "inputs": [
        {
          "name": "_address",
          "type": "address"
        }
      ],
      "name": "setSynthesizingAuctionAddress",
      "outputs": [],
      "payable": false,
      "stateMutability": "nonpayable",
      "type": "function"
    },
    {
      "constant": true,
      "inputs": [],
      "name": "symbol",
      "outputs": [
        {
          "name": "",
          "type": "string"
        }
      ],
      "payable": false,
      "stateMutability": "view",
      "type": "function"
    },
    {
      "constant": true,
      "inputs": [
        {
          "name": "_yinId",
          "type": "uint256"
        },
        {
          "name": "_yangId",
          "type": "uint256"
        }
      ],
      "name": "canSynthesizeWith",
      "outputs": [
        {
          "name": "",
          "type": "bool"
        }
      ],
      "payable": false,
      "stateMutability": "view",
      "type": "function"
    },
    {
      "constant": false,
      "inputs": [
        {
          "name": "_kydyId",
          "type": "uint256"
        },
        {
          "name": "_price",
          "type": "uint256"
        }
      ],
      "name": "createSynthesizingAuction",
      "outputs": [],
      "payable": false,
      "stateMutability": "nonpayable",
      "type": "function"
    },
    {
      "constant": true,
      "inputs": [
        {
          "name": "",
          "type": "uint256"
        }
      ],
      "name": "cooldowns",
      "outputs": [
        {
          "name": "",
          "type": "uint32"
        }
      ],
      "payable": false,
      "stateMutability": "view",
      "type": "function"
    },
    {
      "constant": true,
      "inputs": [],
      "name": "pregnantKydys",
      "outputs": [
        {
          "name": "",
          "type": "uint256"
        }
      ],
      "payable": false,
      "stateMutability": "view",
      "type": "function"
    },
    {
      "constant": false,
      "inputs": [
        {
          "name": "to",
          "type": "address"
        },
        {
          "name": "approved",
          "type": "bool"
        }
      ],
      "name": "setApprovalForAll",
      "outputs": [],
      "payable": false,
      "stateMutability": "nonpayable",
      "type": "function"
    },
    {
      "constant": true,
      "inputs": [],
      "name": "gen0StartingPrice",
      "outputs": [
        {
          "name": "",
          "type": "uint256"
        }
      ],
      "payable": false,
      "stateMutability": "view",
      "type": "function"
    },
    {
      "constant": true,
      "inputs": [],
      "name": "cooAddress",
      "outputs": [
        {
          "name": "",
          "type": "address"
        }
      ],
      "payable": false,
      "stateMutability": "view",
      "type": "function"
    },
    {
      "constant": true,
      "inputs": [],
      "name": "autoBirthFee",
      "outputs": [
        {
          "name": "",
          "type": "uint256"
        }
      ],
      "payable": false,
      "stateMutability": "view",
      "type": "function"
    },
    {
      "constant": true,
      "inputs": [],
      "name": "promoCreationLimit",
      "outputs": [
        {
          "name": "",
          "type": "uint256"
        }
      ],
      "payable": false,
      "stateMutability": "view",
      "type": "function"
    },
    {
      "constant": false,
      "inputs": [
        {
          "name": "from",
          "type": "address"
        },
        {
          "name": "to",
          "type": "address"
        },
        {
          "name": "tokenId",
          "type": "uint256"
        },
        {
          "name": "_data",
          "type": "bytes"
        }
      ],
      "name": "safeTransferFrom",
      "outputs": [],
      "payable": false,
      "stateMutability": "nonpayable",
      "type": "function"
    },
    {
      "constant": false,
      "inputs": [
        {
          "name": "_kydyId",
          "type": "uint256"
        }
      ],
      "name": "cancelSaleAuction",
      "outputs": [],
      "payable": false,
      "stateMutability": "nonpayable",
      "type": "function"
    },
    {
      "constant": true,
      "inputs": [
        {
          "name": "tokenId",
          "type": "uint256"
        }
      ],
      "name": "tokenURI",
      "outputs": [
        {
          "name": "",
          "type": "string"
        }
      ],
      "payable": false,
      "stateMutability": "view",
      "type": "function"
    },
    {
      "constant": false,
      "inputs": [
        {
          "name": "_kydyId",
          "type": "uint256"
        },
        {
          "name": "_recipient",
          "type": "address"
        }
      ],
      "name": "rescueLostKydy",
      "outputs": [],
      "payable": false,
      "stateMutability": "nonpayable",
      "type": "function"
    },
    {
      "constant": false,
      "inputs": [
        {
          "name": "_kydyId",
          "type": "uint256"
        }
      ],
      "name": "cancelSynthesizingAuction",
      "outputs": [],
      "payable": false,
      "stateMutability": "nonpayable",
      "type": "function"
    },
    {
      "constant": true,
      "inputs": [],
      "name": "saleAuction",
      "outputs": [
        {
          "name": "",
          "type": "address"
        }
      ],
      "payable": false,
      "stateMutability": "view",
      "type": "function"
    },
    {
      "constant": true,
      "inputs": [
        {
          "name": "owner",
          "type": "address"
        },
        {
          "name": "operator",
          "type": "address"
        }
      ],
      "name": "isApprovedForAll",
      "outputs": [
        {
          "name": "",
          "type": "bool"
        }
      ],
      "payable": false,
      "stateMutability": "view",
      "type": "function"
    },
    {
      "constant": true,
      "inputs": [],
      "name": "gen0CreatedCount",
      "outputs": [
        {
          "name": "",
          "type": "uint256"
        }
      ],
      "payable": false,
      "stateMutability": "view",
      "type": "function"
    },
    {
      "constant": true,
      "inputs": [
        {
          "name": "_kydyId",
          "type": "uint256"
        }
      ],
      "name": "isReadyToSynthesize",
      "outputs": [
        {
          "name": "",
          "type": "bool"
        }
      ],
      "payable": false,
      "stateMutability": "view",
      "type": "function"
    },
    {
      "anonymous": false,
      "inputs": [
        {
          "indexed": false,
          "name": "owner",
          "type": "address"
        },
        {
          "indexed": false,
          "name": "yinId",
          "type": "uint256"
        },
        {
          "indexed": false,
          "name": "yangId",
          "type": "uint256"
        },
        {
          "indexed": false,
          "name": "cooldownEndBlock",
          "type": "uint256"
        }
      ],
      "name": "Pregnant",
      "type": "event"
    },
    {
      "anonymous": false,
      "inputs": [
        {
          "indexed": true,
          "name": "owner",
          "type": "address"
        },
        {
          "indexed": false,
          "name": "kydyId",
          "type": "uint256"
        },
        {
          "indexed": false,
          "name": "yinId",
          "type": "uint256"
        },
        {
          "indexed": false,
          "name": "yangId",
          "type": "uint256"
        },
        {
          "indexed": false,
          "name": "genes",
          "type": "uint256"
        }
      ],
      "name": "Birth",
      "type": "event"
    },
    {
      "anonymous": false,
      "inputs": [
        {
          "indexed": true,
          "name": "_from",
          "type": "address"
        },
        {
          "indexed": true,
          "name": "_to",
          "type": "address"
        },
        {
          "indexed": true,
          "name": "_tokenId",
          "type": "uint256"
        }
      ],
      "name": "Transfer",
      "type": "event"
    },
    {
      "anonymous": false,
      "inputs": [
        {
          "indexed": true,
          "name": "_owner",
          "type": "address"
        },
        {
          "indexed": true,
          "name": "_approved",
          "type": "address"
        },
        {
          "indexed": true,
          "name": "_tokenId",
          "type": "uint256"
        }
      ],
      "name": "Approval",
      "type": "event"
    },
    {
      "anonymous": false,
      "inputs": [
        {
          "indexed": true,
          "name": "_owner",
          "type": "address"
        },
        {
          "indexed": true,
          "name": "_operator",
          "type": "address"
        },
        {
          "indexed": false,
          "name": "_approved",
          "type": "bool"
        }
      ],
      "name": "ApprovalForAll",
      "type": "event"
    },
    {
      "anonymous": false,
      "inputs": [
        {
          "indexed": false,
          "name": "newContract",
          "type": "address"
        }
      ],
      "name": "ContractUpgrade",
      "type": "event"
    },
    {
      "constant": false,
      "inputs": [
        {
          "name": "_genes",
          "type": "uint256"
        },
        {
          "name": "_owner",
          "type": "address"
        }
      ],
      "name": "createPromoKydy",
      "outputs": [],
      "payable": false,
      "stateMutability": "nonpayable",
      "type": "function"
    },
    {
      "constant": false,
      "inputs": [
        {
          "name": "_genes",
          "type": "uint256"
        }
      ],
      "name": "createGen0Auction",
      "outputs": [],
      "payable": false,
      "stateMutability": "nonpayable",
      "type": "function"
    }
  ],
  "bytecode": "0x6002805460a060020a60ff0219169055610240604052603c6080908152607860a05261012c60c05261025860e05261070861010052610e1061012052611c2061014052613840610160526170806101805261e1006101a052620151806101c0526202a3006101e052620546006102005262093a80610220526200008790600490600e620002bb565b50600f6006556040805180820190915260078082527f44797665727365000000000000000000000000000000000000000000000000006020909201918252620000d391600d916200035e565b506040805180820190915260048082527f4b5944590000000000000000000000000000000000000000000000000000000060209092019182526200011a91600e916200035e565b506040805160608101825260298082527f687474703a2f2f746573746170692e64797665722e73652f6170692f4b796479602083019081527f4d657461646174612f000000000000000000000000000000000000000000000092909301919091526200018991600f916200035e565b5066071afd498d00006010556103786015556122b8601655662386f26fc10000601755620001e07f01ffc9a7000000000000000000000000000000000000000000000000000000006401000000006200024e810204565b620002147f80ac58cd000000000000000000000000000000000000000000000000000000006401000000006200024e810204565b620002487f5b5e139f000000000000000000000000000000000000000000000000000000006401000000006200024e810204565b62000423565b7fffffffff0000000000000000000000000000000000000000000000000000000080821614156200027e57600080fd5b7fffffffff00000000000000000000000000000000000000000000000000000000166000908152600360205260409020805460ff19166001179055565b6002830191839082156200034c5791602002820160005b838211156200031857835183826101000a81548163ffffffff021916908363ffffffff1602179055509260200192600401602081600301049283019260010302620002d2565b80156200034a5782816101000a81549063ffffffff021916905560040160208160030104928301926001030262000318565b505b506200035a929150620003df565b5090565b828054600181600116156101000203166002900490600052602060002090601f016020900481019282601f10620003a157805160ff1916838001178555620003d1565b82800160010185558215620003d1579182015b82811115620003d1578251825591602001919060010190620003b4565b506200035a92915062000406565b6200040391905b808211156200035a57805463ffffffff19168155600101620003e6565b90565b6200040391905b808211156200035a57600081556001016200040d565b6133ea80620004336000396000f30060806040526004361061029a5763ffffffff60e060020a60003504166301ffc9a7811461029f5780630519ce79146102ea57806305e455461461031b57806306fdde0314610342578063081812fc146103cc578063095ea7b3146103e45780630a0f81681461040a5780630f401cbc1461041f57806318160ddd14610440578063192ec99d1461045557806319d70e0b1461046a57806323b872dd14610485578063254b1ddf146104af57806327d7874c146104d35780632ba73c15146104f457806339e395e2146105155780633f4ba83a14610523578063404d0e3e1461053857806342842e0e1461054d57806348e68e30146105775780634b85fd55146105855780634e0a33791461059d5780635627cdcb146105be5780635663896e146105d65780635c975abb146105ee57806361a4b168146106035780636352211e146106185780636fbde40d1461063057806370a08231146106515780637a7d493714610672578063816f1771146106875780638456cb591461069f5780638462151c146106b457806388c2a0bf146107255780638f9f49b61461073d57806391876e57146107555780639307cdf41461076a57806395d89b411461078b578063978f8934146107a057806398ba2453146107c45780639bacf1ed146107df5780639d6fac6f146107fa5780639e5aa5a91461082b578063a22cb46514610840578063ae4d0ff714610866578063b047fb501461087b578063b0c35c0514610890578063b5319335146108a5578063b88d4fde146108ba578063c31f586d14610929578063c3bea9af14610941578063c87b56dd14610959578063cd47f39014610971578063d5f48e7614610995578063e6cbe351146109ad578063e985e9c5146109c2578063f1ca9410146109e9578063fa061d48146109fe575b600080fd5b3480156102ab57600080fd5b506102d67bffffffffffffffffffffffffffffffffffffffffffffffffffffffff1960043516610a16565b604080519115158252519081900360200190f35b3480156102f657600080fd5b506102ff610a4a565b60408051600160a060020a039092168252519081900360200190f35b34801561032757600080fd5b50610330610a59565b60408051918252519081900360200190f35b34801561034e57600080fd5b50610357610a5f565b6040805160208082528351818301528351919283929083019185019080838360005b83811015610391578181015183820152602001610379565b50505050905090810190601f1680156103be5780820380516001836020036101000a031916815260200191505b509250505060405180910390f35b3480156103d857600080fd5b506102ff600435610af5565b3480156103f057600080fd5b50610408600160a060020a0360043516602435610b27565b005b34801561041657600080fd5b506102ff610bc4565b34801561042b57600080fd5b50610408600160a060020a0360043516610bd3565b34801561044c57600080fd5b50610330610c86565b34801561046157600080fd5b506102ff610c90565b34801561047657600080fd5b50610408600435602435610c9f565b34801561049157600080fd5b50610408600160a060020a0360043581169060243516604435610d70565b3480156104bb57600080fd5b50610408600160a060020a0360043516602435610e2a565b3480156104df57600080fd5b50610408600160a060020a0360043516610e84565b34801561050057600080fd5b50610408600160a060020a0360043516610ed2565b610408600435602435610f20565b34801561052f57600080fd5b506104086110bf565b34801561054457600080fd5b5061033061110e565b34801561055957600080fd5b50610408600160a060020a0360043581169060243516604435611114565b610408600435602435611130565b34801561059157600080fd5b50610408600435611334565b3480156105a957600080fd5b50610408600160a060020a0360043516611350565b3480156105ca57600080fd5b506102ff60043561139e565b3480156105e257600080fd5b506104086004356113b9565b3480156105fa57600080fd5b506102d6611415565b34801561060f57600080fd5b506102ff611425565b34801561062457600080fd5b506102ff600435611434565b34801561063c57600080fd5b50610408600160a060020a036004351661145e565b34801561065d57600080fd5b50610330600160a060020a0360043516611511565b34801561067e57600080fd5b50610330611544565b34801561069357600080fd5b506102ff60043561154a565b3480156106ab57600080fd5b50610408611565565b3480156106c057600080fd5b506106d5600160a060020a03600435166115e5565b60408051602080825283518183015283519192839290830191858101910280838360005b838110156107115781810151838201526020016106f9565b505050509050019250505060405180910390f35b34801561073157600080fd5b506103306004356116b7565b34801561074957600080fd5b506102ff60043561197d565b34801561076157600080fd5b50610408611998565b34801561077657600080fd5b50610408600160a060020a0360043516611a81565b34801561079757600080fd5b50610357611b34565b3480156107ac57600080fd5b50610408600435600160a060020a0360243516611b95565b3480156107d057600080fd5b506102d6600435602435611c0d565b3480156107eb57600080fd5b50610408600435602435611c8d565b34801561080657600080fd5b50610812600435611d56565b6040805163ffffffff9092168252519081900360200190f35b34801561083757600080fd5b50610330611d83565b34801561084c57600080fd5b50610408600160a060020a03600435166024351515611d89565b34801561087257600080fd5b50610330611e0d565b34801561088757600080fd5b506102ff611e13565b34801561089c57600080fd5b50610330611e22565b3480156108b157600080fd5b50610330611e28565b3480156108c657600080fd5b50604080516020601f60643560048181013592830184900484028501840190955281845261040894600160a060020a038135811695602480359092169560443595369560849401918190840183828082843750949750611e2e9650505050505050565b34801561093557600080fd5b50610408600435611e50565b34801561094d57600080fd5b50610408600435611f05565b34801561096557600080fd5b50610357600435611ff1565b34801561097d57600080fd5b50610408600435600160a060020a03602435166120a7565b3480156109a157600080fd5b506104086004356120f9565b3480156109b957600080fd5b506102ff6121ae565b3480156109ce57600080fd5b506102d6600160a060020a03600435811690602435166121bd565b3480156109f557600080fd5b506103306121eb565b348015610a0a57600080fd5b506102d66004356121f1565b7bffffffffffffffffffffffffffffffffffffffffffffffffffffffff191660009081526003602052604090205460ff1690565b600154600160a060020a031681565b60185481565b600d8054604080516020601f6002600019610100600188161502019095169490940493840181900481028201810190925282815260609390929091830182828015610aeb5780601f10610ac057610100808354040283529160200191610aeb565b820191906000526020600020905b815481529060010190602001808311610ace57829003601f168201915b5050505050905090565b6000610b00826122c0565b1515610b0b57600080fd5b506000908152600a6020526040902054600160a060020a031690565b6000610b3282611434565b9050600160a060020a038381169082161415610b4d57600080fd5b33600160a060020a0382161480610b695750610b6981336121bd565b1515610b7457600080fd5b610b7e82846122dd565b8183600160a060020a031682600160a060020a03167f8c5be1e5ebec7d5bd14f71427d1e84f3dd0314c0f7b2291e5b200ac8c7c3b92560405160405180910390a4505050565b600054600160a060020a031681565b60008054600160a060020a03163314610beb57600080fd5b81905080600160a060020a0316632e39ff846040518163ffffffff1660e060020a028152600401602060405180830381600087803b158015610c2c57600080fd5b505af1158015610c40573d6000803e3d6000fd5b505050506040513d6020811015610c5657600080fd5b50511515610c6357600080fd5b60128054600160a060020a031916600160a060020a039290921691909117905550565b6007546000190190565b601454600160a060020a031681565b60025460a060020a900460ff1615610cb657600080fd5b610cc0338361230b565b1515610ccb57600080fd5b601354610ce190600160a060020a031683610b27565b601354604080517f54279bdd00000000000000000000000000000000000000000000000000000000815260048101859052602481018490523360448201529051600160a060020a03909216916354279bdd9160648082019260009290919082900301818387803b158015610d5457600080fd5b505af1158015610d68573d6000803e3d6000fd5b505050505050565b610d7a338261232b565b1515610d8557600080fd5b600160a060020a0382161515610d9a57600080fd5b610da4838261238a565b600160a060020a03831615610dd0576000818152600b602052604090208054600160a060020a03191690555b610dda83826123ec565b610de48282612475565b8082600160a060020a031684600160a060020a03167fddf252ad1be2c89b69c2b068fc378daa952ba7f163c4a11628f55a4df523b3ef60405160405180910390a4505050565b60025460a060020a900460ff1615610e4157600080fd5b610e4b338261230b565b1515610e5657600080fd5b6000908152600b602052604090208054600160a060020a031916600160a060020a0392909216919091179055565b600054600160a060020a03163314610e9b57600080fd5b600160a060020a0381161515610eb057600080fd5b60008054600160a060020a031916600160a060020a0392909216919091179055565b600054600160a060020a03163314610ee957600080fd5b600160a060020a0381161515610efe57600080fd5b60028054600160a060020a031916600160a060020a0392909216919091179055565b60025460009060a060020a900460ff1615610f3a57600080fd5b610f44338361230b565b1515610f4f57600080fd5b610f58826121f1565b1515610f6357600080fd5b610f6d82846124f9565b1515610f7857600080fd5b601454604080517fc55d0f56000000000000000000000000000000000000000000000000000000008152600481018690529051600160a060020a039092169163c55d0f56916024808201926020929091908290030181600087803b158015610fdf57600080fd5b505af1158015610ff3573d6000803e3d6000fd5b505050506040513d602081101561100957600080fd5b5051601054909150810134101561101f57600080fd5b601454601054604080517f454a2ab3000000000000000000000000000000000000000000000000000000008152600481018790529051600160a060020a039093169263454a2ab39234039160248082019260009290919082900301818588803b15801561108b57600080fd5b505af115801561109f573d6000803e3d6000fd5b50505050506110ba8263ffffffff168463ffffffff16612548565b505050565b600054600160a060020a031633146110d657600080fd5b60025460a060020a900460ff1615156110ee57600080fd5b6002805474ff000000000000000000000000000000000000000019169055565b60165481565b6110ba8383836020604051908101604052806000815250611e2e565b600254600090819060a060020a900460ff161561114c57600080fd5b60105434101561115b57600080fd5b611165338561230b565b151561117057600080fd5b61117a8385612686565b151561118557600080fd5b600780548590811061119357fe5b60009182526020918290206040805161010081018252600290930290910180548352600181015467ffffffffffffffff808216958501959095526801000000000000000081049094169183019190915263ffffffff608060020a84048116606084015260a060020a84048116608084015260c060020a84041660a083015261ffff60e060020a8404811660c084015260f060020a90930490921660e082015290925061123e906126db565b151561124957600080fd5b600780548490811061125757fe5b60009182526020918290206040805161010081018252600290930290910180548352600181015467ffffffffffffffff808216958501959095526801000000000000000081049094169183019190915263ffffffff608060020a84048116606084015260a060020a84048116608084015260c060020a84041660a083015261ffff60e060020a8404811660c084015260f060020a90930490921660e0820152909150611302906126db565b151561130d57600080fd5b6113198285838661270a565b151561132457600080fd5b61132e8484612548565b50505050565b600254600160a060020a0316331461134b57600080fd5b601055565b600054600160a060020a0316331461136757600080fd5b600160a060020a038116151561137c57600080fd5b60018054600160a060020a031916600160a060020a0392909216919091179055565b600860205260009081526040902054600160a060020a031681565b600254600160a060020a03163314806113dc5750600054600160a060020a031633145b806113f15750600154600160a060020a031633145b15156113fc57600080fd5b60045463ffffffff16811061141057600080fd5b600655565b60025460a060020a900460ff1681565b601254600160a060020a031681565b600081815260086020526040812054600160a060020a031680151561145857600080fd5b92915050565b60008054600160a060020a0316331461147657600080fd5b81905080600160a060020a03166385b861886040518163ffffffff1660e060020a028152600401602060405180830381600087803b1580156114b757600080fd5b505af11580156114cb573d6000803e3d6000fd5b505050506040513d60208110156114e157600080fd5b505115156114ee57600080fd5b60138054600160a060020a031916600160a060020a039290921691909117905550565b6000600160a060020a038216151561152857600080fd5b50600160a060020a031660009081526009602052604090205490565b60065481565b600a60205260009081526040902054600160a060020a031681565b600254600160a060020a03163314806115885750600054600160a060020a031633145b8061159d5750600154600160a060020a031633145b15156115a857600080fd5b60025460a060020a900460ff16156115bf57600080fd5b6002805474ff0000000000000000000000000000000000000000191660a060020a179055565b60606000606060008060006115f987611511565b94508415156116185760408051600081526020810190915295506116ad565b84604051908082528060200260200182016040528015611642578160200160208202803883390190505b50935061164d610c86565b925060009150600190505b8281116116a957600081815260086020526040902054600160a060020a03888116911614156116a15780848381518110151561169057fe5b602090810290910101526001909101905b600101611658565b8395505b5050505050919050565b600080600080600080600080600260149054906101000a900460ff161515156116df57600080fd5b600780548a9081106116ed57fe5b60009182526020909120600290910201600181015490975067ffffffffffffffff16151561171a57600080fd5b604080516101008101825288548152600189015467ffffffffffffffff8082166020840152680100000000000000008204169282019290925263ffffffff608060020a83048116606083015260a060020a83048116608083015260c060020a83041660a082015261ffff60e060020a8304811660c083015260f060020a90920490911660e08201526117ab90612889565b15156117b657600080fd5b60018701546007805460c060020a90920463ffffffff16975090879081106117da57fe5b600091825260209091206001808a015460029093029091019081015490965061ffff60f060020a92839004811696509190041684101561182757600185015460f060020a900461ffff1693505b60125487548654604080517f960fa70f0000000000000000000000000000000000000000000000000000000081526004810193909352602483019190915251600160a060020a039092169163960fa70f916044808201926020929091908290030181600087803b15801561189a57600080fd5b505af11580156118ae573d6000803e3d6000fd5b505050506040513d60208110156118c457600080fd5b505160008a815260086020526040902054600189810154929550600160a060020a03909116935061190d918b9160c060020a90910463ffffffff1690870161ffff1686866128b9565b6001880180547bffffffff0000000000000000000000000000000000000000000000001916905560118054600019019055601054604051919250339181156108fc0291906000818181858888f19350505050158015611970573d6000803e3d6000fd5b5098975050505050505050565b600b60205260009081526040902054600160a060020a031681565b600254600160a060020a031633146119af57600080fd5b601360009054906101000a9004600160a060020a0316600160a060020a0316635fd8c7106040518163ffffffff1660e060020a028152600401600060405180830381600087803b158015611a0257600080fd5b505af1158015611a16573d6000803e3d6000fd5b50505050601460009054906101000a9004600160a060020a0316600160a060020a0316635fd8c7106040518163ffffffff1660e060020a028152600401600060405180830381600087803b158015611a6d57600080fd5b505af115801561132e573d6000803e3d6000fd5b60008054600160a060020a03163314611a9957600080fd5b81905080600160a060020a031663ffadaae56040518163ffffffff1660e060020a028152600401602060405180830381600087803b158015611ada57600080fd5b505af1158015611aee573d6000803e3d6000fd5b505050506040513d6020811015611b0457600080fd5b50511515611b1157600080fd5b60148054600160a060020a031916600160a060020a039290921691909117905550565b600e8054604080516020601f6002600019610100600188161502019095169490940493840181900481028201810190925282815260609390929091830182828015610aeb5780601f10610ac057610100808354040283529160200191610aeb565b600254600160a060020a03163314611bac57600080fd5b600160a060020a0381161515611bca5750600254600160a060020a03165b60155460185410611bda57600080fd5b60165460195410611bea57600080fd5b6018805460019081019091556019805490910190556110ba6000808085856128b9565b60008080808511611c1d57600080fd5b60008411611c2a57600080fd5b6007805486908110611c3857fe5b90600052602060002090600202019150600784815481101515611c5757fe5b90600052602060002090600202019050611c738286838761270a565b8015611c845750611c848486612686565b95945050505050565b60025460a060020a900460ff1615611ca457600080fd5b611cae338361230b565b1515611cb957600080fd5b611cc2826121f1565b1515611ccd57600080fd5b601454611ce390600160a060020a031683610b27565b601454604080517f54279bdd00000000000000000000000000000000000000000000000000000000815260048101859052602481018490523360448201529051600160a060020a03909216916354279bdd9160648082019260009290919082900301818387803b158015610d5457600080fd5b600481600e8110611d6357fe5b60089182820401919006600402915054906101000a900463ffffffff1681565b60115481565b600160a060020a038216331415611d9f57600080fd5b336000818152600c60209081526040808320600160a060020a03871680855290835292819020805460ff1916861515908117909155815190815290519293927f17307eab39ab6107e8899845ad3d59bd9653f200f220920489ca2b5937696c31929181900390910190a35050565b60175481565b600254600160a060020a031681565b60105481565b60155481565b611e39848484610d70565b611e4584848484612b8c565b151561132e57600080fd5b60025460009060a060020a900460ff1615611e6a57600080fd5b601354611e8090600160a060020a03168361230b565b1515611e8b57600080fd5b5033611e9782826122dd565b601354604080517f4e8eaa1300000000000000000000000000000000000000000000000000000000815260048101859052600160a060020a03848116602483015291519190921691634e8eaa1391604480830192600092919082900301818387803b158015610d5457600080fd5b600254600090600160a060020a03163314611f1f57600080fd5b60165460195410611f2f57600080fd5b611f3e600080600085306128b9565b601354909150611f58908290600160a060020a03166122dd565b601354600160a060020a03166354279bdd82611f72612d0e565b306040518463ffffffff1660e060020a0281526004018084815260200183815260200182600160a060020a0316600160a060020a031681526020019350505050600060405180830381600087803b158015611fcc57600080fd5b505af1158015611fe0573d6000803e3d6000fd5b505060198054600101905550505050565b6060611ffc826122c0565b151561200757600080fd5b600f8054604080516020601f6002600019610100600188161502019095169490940493840181900481028201810190925282815261145893909290918301828280156120945780601f1061206957610100808354040283529160200191612094565b820191906000526020600020905b81548152906001019060200180831161207757829003601f168201915b50505050506120a284612dce565b612ec1565b600254600160a060020a031633146120be57600080fd5b60025460a060020a900460ff16156120d557600080fd5b6120df308361230b565b15156120ea57600080fd5b6120f5308284612ef6565b5050565b60025460009060a060020a900460ff161561211357600080fd5b60145461212990600160a060020a03168361230b565b151561213457600080fd5b503361214082826122dd565b601454604080517f4e8eaa1300000000000000000000000000000000000000000000000000000000815260048101859052600160a060020a03848116602483015291519190921691634e8eaa1391604480830192600092919082900301818387803b158015610d5457600080fd5b601354600160a060020a031681565b600160a060020a039182166000908152600c6020908152604080832093909416825291909152205460ff1690565b60195481565b60008080831161220057600080fd5b600780548490811061220e57fe5b60009182526020918290206040805161010081018252600290930290910180548352600181015467ffffffffffffffff808216958501959095526801000000000000000081049094169183019190915263ffffffff608060020a84048116606084015260a060020a84048116608084015260c060020a84041660a083015261ffff60e060020a8404811660c084015260f060020a90930490921660e08201529091506122b9906126db565b9392505050565b600090815260086020526040902054600160a060020a0316151590565b6000918252600a60205260409091208054600160a060020a031916600160a060020a03909216919091179055565b600090815260086020526040902054600160a060020a0391821691161490565b60008061233783611434565b905080600160a060020a031684600160a060020a03161480612372575083600160a060020a031661236784610af5565b600160a060020a0316145b80612382575061238281856121bd565b949350505050565b81600160a060020a031661239d82611434565b600160a060020a0316146123b057600080fd5b6000818152600a6020526040902054600160a060020a0316156120f5576000908152600a602052604090208054600160a060020a031916905550565b81600160a060020a03166123ff82611434565b600160a060020a03161461241257600080fd5b600160a060020a03821660009081526009602052604090205461243c90600163ffffffff612fb916565b600160a060020a039092166000908152600960209081526040808320949094559181526008909152208054600160a060020a0319169055565b600081815260086020526040902054600160a060020a03161561249757600080fd5b60008181526008602090815260408083208054600160a060020a031916600160a060020a038716908117909155835260099091529020546124d9906001612fd0565b600160a060020a0390921660009081526009602052604090209190915550565b600080600060078581548110151561250d57fe5b9060005260206000209060020201915060078481548110151561252c57fe5b90600052602060002090600202019050611c848286838761270a565b60008060078381548110151561255a57fe5b9060005260206000209060020201915060078481548110151561257957fe5b600091825260209091206002909102016001810180547bffffffff000000000000000000000000000000000000000000000000191660c060020a63ffffffff87160217905590506125c982612fe2565b6125d281612fe2565b6000848152600b602090815260408083208054600160a060020a031990811690915586845281842080549091169055601180546001908101909155878452600883529281902054928401548151600160a060020a0390941684529183018790528281018690526801000000000000000090910467ffffffffffffffff166060830152517f241ea03ca20251805084d27d4440371c34a0b85ff108f6bb5611248f73818b80916080908290030190a150505050565b6000818152600860205260408082205484835290822054600160a060020a03918216911680821480611c8457506000858152600b6020526040902054600160a060020a03908116908316149250505092915050565b60008160a0015163ffffffff1660001480156114585750506040015167ffffffffffffffff4381169116111590565b60008184141561271c57506000612382565b6001850154608060020a900463ffffffff1682148061274b5750600185015460a060020a900463ffffffff1682145b1561275857506000612382565b6001830154608060020a900463ffffffff168414806127875750600183015460a060020a900463ffffffff1684145b1561279457506000612382565b6001830154608060020a900463ffffffff1615806127c157506001850154608060020a900463ffffffff16155b156127ce57506001612382565b60018581015490840154608060020a9182900463ffffffff90811692909104161480612819575060018086015490840154608060020a900463ffffffff90811660a060020a90920416145b1561282657506000612382565b6001808601549084015460a060020a900463ffffffff908116608060020a90920416148061287157506001858101549084015460a060020a9182900463ffffffff9081169290910416145b1561287e57506000612382565b506001949350505050565b60008160a0015163ffffffff166000141580156114585750506040015167ffffffffffffffff4381169116111590565b6000806128c461337a565b600063ffffffff891689146128d857600080fd5b63ffffffff881688146128ea57600080fd5b61ffff871687146128fa57600080fd5b600287049250600d8361ffff16111561291257600d92505b505060408051610100810182528581524267ffffffffffffffff90811660208301908152600093830184815263ffffffff8c8116606086019081528c82166080870190815260a0870188815261ffff8a811660c08a019081528f821660e08b01908152600780546001810182559c528a517fa66cc928b5edb82af9bd49922954155ab7b0942694bea4ce44661d9a8736c68860028e029081019190915598517fa66cc928b5edb82af9bd49922954155ab7b0942694bea4ce44661d9a8736c689909901805498519651955194519251915167ffffffffffffffff19909916998b16999099176fffffffffffffffff000000000000000019166801000000000000000096909a16959095029890981773ffffffff000000000000000000000000000000001916608060020a938616939093029290921777ffffffff0000000000000000000000000000000000000000191660a060020a91851691909102177bffffffff000000000000000000000000000000000000000000000000191660c060020a96841696909602959095177fffff0000ffffffffffffffffffffffffffffffffffffffffffffffffffffffff1660e060020a91861691909102177dffffffffffffffffffffffffffffffffffffffffffffffffffffffffffff1660f060020a929094169190910292909217905590919081168114612b1057600080fd5b60608281015160808085015185516040805187815263ffffffff95861660208201529490921684830152938301939093529151600160a060020a038816927f0a5311bd2a6608f08a180df2ee7c5946819a649b204b554bb8e39825b2c50ad5928290030190a2612b8085826130cb565b98975050505050505050565b600080612ba185600160a060020a0316613111565b1515612bb05760019150612d05565b6040517f150b7a020000000000000000000000000000000000000000000000000000000081523360048201818152600160a060020a03898116602485015260448401889052608060648501908152875160848601528751918a169463150b7a0294938c938b938b93909160a490910190602085019080838360005b83811015612c43578181015183820152602001612c2b565b50505050905090810190601f168015612c705780820380516001836020036101000a031916815260200191505b5095505050505050602060405180830381600087803b158015612c9257600080fd5b505af1158015612ca6573d6000803e3d6000fd5b505050506040513d6020811015612cbc57600080fd5b50517bffffffffffffffffffffffffffffffffffffffffffffffffffffffff1981167f150b7a020000000000000000000000000000000000000000000000000000000014925090505b50949350505050565b6000806000601360009054906101000a9004600160a060020a0316600160a060020a031663eac9d94c6040518163ffffffff1660e060020a028152600401602060405180830381600087803b158015612d6657600080fd5b505af1158015612d7a573d6000803e3d6000fd5b505050506040513d6020811015612d9057600080fd5b505191506fffffffffffffffffffffffffffffffff82168214612db257600080fd5b6002820482019050601754811015611458575060175492915050565b60606000808281851515612e175760408051808201909152600181527f300000000000000000000000000000000000000000000000000000000000000060208201529450612eb8565b8593505b8315612e3257600190920191600a84049350612e1b565b826040519080825280601f01601f191660200182016040528015612e60578160200160208202803883390190505b5091505060001982015b8515612eb457815160001982019160f860020a6030600a8a060102918491908110612e9157fe5b906020010190600160f860020a031916908160001a905350600a86049550612e6a565b8194505b50505050919050565b6040805160208181018352600080835283518083018552818152845192830190945281526060926122b9928692869290613119565b600160a060020a03808316600081815260096020908152604080832080546001019055858352600890915290208054600160a060020a0319169091179055831615610de457600160a060020a0383811660008181526009602090815260408083208054600019019055858352600b82528083208054600160a060020a0319908116909155600a9092528083208054909216909155518493861692917fddf252ad1be2c89b69c2b068fc378daa952ba7f163c4a11628f55a4df523b3ef91a4505050565b60008083831115612fc957600080fd5b5050900390565b6000828201838110156122b957600080fd5b600654600182015443919060049060e060020a900461ffff16600e811061300557fe5b600891828204019190066004029054906101000a900463ffffffff1663ffffffff1681151561303057fe5b6001840180546fffffffffffffffff0000000000000000191668010000000000000000939092049390930167ffffffffffffffff16919091021790819055600d60e060020a90910461ffff1610156130c8576001818101805461ffff60e060020a8083048216909401169092027fffff0000ffffffffffffffffffffffffffffffffffffffffffffffffffffffff9092169190911790555b50565b6130d58282612475565b6040518190600160a060020a038416906000907fddf252ad1be2c89b69c2b068fc378daa952ba7f163c4a11628f55a4df523b3ef908290a45050565b6000903b1190565b6060806060806060806060806000808e98508d97508c96508b95508a94508451865188518a518c51010101016040519080825280601f01601f191660200182016040528015613172578160200160208202803883390190505b50935083925060009150600090505b88518110156131df57888181518110151561319857fe5b90602001015160f860020a900460f860020a0283838060010194508151811015156131bf57fe5b906020010190600160f860020a031916908160001a905350600101613181565b5060005b87518110156132415787818151811015156131fa57fe5b90602001015160f860020a900460f860020a02838380600101945081518110151561322157fe5b906020010190600160f860020a031916908160001a9053506001016131e3565b5060005b86518110156132a357868181518110151561325c57fe5b90602001015160f860020a900460f860020a02838380600101945081518110151561328357fe5b906020010190600160f860020a031916908160001a905350600101613245565b5060005b85518110156133055785818151811015156132be57fe5b90602001015160f860020a900460f860020a0283838060010194508151811015156132e557fe5b906020010190600160f860020a031916908160001a9053506001016132a7565b5060005b845181101561336757848181518110151561332057fe5b90602001015160f860020a900460f860020a02838380600101945081518110151561334757fe5b906020010190600160f860020a031916908160001a905350600101613309565b50909d9c50505050505050505050505050565b6040805161010081018252600080825260208201819052918101829052606081018290526080810182905260a0810182905260c0810182905260e0810191909152905600a165627a7a723058208c9885e6d5434dfa9bd32dffddbfbca73a5281f95ff14dfd76a8d1bff96a6b6b0029",
  "source": "pragma solidity ^0.4.24;\n\nimport \"./KydyAuction.sol\";\n\ncontract KydyMinting is KydyAuction {\n\n    uint256 public promoCreationLimit = 888;\n    uint256 public gen0CreationLimit = 8888;\n\n    uint256 public gen0StartingPrice = 10 finney;\n\n    uint256 public promoCreatedCount;\n    uint256 public gen0CreatedCount;\n\n    function createPromoKydy(uint256 _genes, address _owner) public onlyCOO {\n        if (_owner == address(0)) {\n             _owner = cooAddress;\n        }\n        require(promoCreatedCount < promoCreationLimit);\n        require(gen0CreatedCount < gen0CreationLimit);\n\n        promoCreatedCount++;\n        gen0CreatedCount++;\n        _createKydy(0, 0, 0, _genes, _owner);\n    }\n\n    function createGen0Auction(uint256 _genes) public onlyCOO {\n        require(gen0CreatedCount < gen0CreationLimit);\n\n        uint256 kydyId = _createKydy(0, 0, 0, _genes, address(this));\n        _approve(kydyId, saleAuction);\n\n        saleAuction.createAuction(\n            kydyId,\n            _computeNextGen0Price(),\n            address(this)\n        );\n\n        gen0CreatedCount++;\n    }\n\n    function _computeNextGen0Price() internal view returns (uint256) {\n        uint256 avePrice = saleAuction.averageGen0SalePrice();\n\n        // Sanity check to ensure we don't overflow arithmetic\n        require(avePrice == uint256(uint128(avePrice)));\n\n        uint256 nextPrice = avePrice + (avePrice / 2);\n\n        if (nextPrice < gen0StartingPrice) {\n            nextPrice = gen0StartingPrice;\n        }\n\n        return nextPrice;\n    }\n}\n",
  "sourcePath": "/Users/Keki/Vrexlab/kydy-solidity/contracts/KydyMinting.sol",
  "compiler": {
    "name": "solc",
    "version": "0.4.24+commit.e67f0147.Emscripten.clang"
  },
  "schemaVersion": "2.0.1",
  "updatedAt": "2018-12-17T03:59:06.944Z"
}