{
  "contractName": "KydyAccessControl",
  "abi": [
    {
      "constant": true,
      "inputs": [],
      "name": "cfoAddress",
      "outputs": [
        {
          "name": "",
          "type": "address"
        }
      ],
      "payable": false,
      "stateMutability": "view",
      "type": "function"
    },
    {
      "constant": true,
      "inputs": [],
      "name": "ceoAddress",
      "outputs": [
        {
          "name": "",
          "type": "address"
        }
      ],
      "payable": false,
      "stateMutability": "view",
      "type": "function"
    },
    {
      "constant": true,
      "inputs": [],
      "name": "paused",
      "outputs": [
        {
          "name": "",
          "type": "bool"
        }
      ],
      "payable": false,
      "stateMutability": "view",
      "type": "function"
    },
    {
      "constant": true,
      "inputs": [],
      "name": "cooAddress",
      "outputs": [
        {
          "name": "",
          "type": "address"
        }
      ],
      "payable": false,
      "stateMutability": "view",
      "type": "function"
    },
    {
      "anonymous": false,
      "inputs": [
        {
          "indexed": false,
          "name": "newContract",
          "type": "address"
        }
      ],
      "name": "ContractUpgrade",
      "type": "event"
    },
    {
      "constant": false,
      "inputs": [
        {
          "name": "_newCEO",
          "type": "address"
        }
      ],
      "name": "setCEO",
      "outputs": [],
      "payable": false,
      "stateMutability": "nonpayable",
      "type": "function"
    },
    {
      "constant": false,
      "inputs": [
        {
          "name": "_newCFO",
          "type": "address"
        }
      ],
      "name": "setCFO",
      "outputs": [],
      "payable": false,
      "stateMutability": "nonpayable",
      "type": "function"
    },
    {
      "constant": false,
      "inputs": [
        {
          "name": "_newCOO",
          "type": "address"
        }
      ],
      "name": "setCOO",
      "outputs": [],
      "payable": false,
      "stateMutability": "nonpayable",
      "type": "function"
    },
    {
      "constant": false,
      "inputs": [],
      "name": "pause",
      "outputs": [],
      "payable": false,
      "stateMutability": "nonpayable",
      "type": "function"
    },
    {
      "constant": false,
      "inputs": [],
      "name": "unpause",
      "outputs": [],
      "payable": false,
      "stateMutability": "nonpayable",
      "type": "function"
    }
  ],
  "bytecode": "0x60806040526002805460a060020a60ff021916905534801561002057600080fd5b5061043d806100306000396000f3006080604052600436106100985763ffffffff7c01000000000000000000000000000000000000000000000000000000006000350416630519ce79811461009d5780630a0f8168146100ce57806327d7874c146100e35780632ba73c15146101065780633f4ba83a146101275780634e0a33791461013c5780635c975abb1461015d5780638456cb5914610186578063b047fb501461019b575b600080fd5b3480156100a957600080fd5b506100b26101b0565b60408051600160a060020a039092168252519081900360200190f35b3480156100da57600080fd5b506100b26101bf565b3480156100ef57600080fd5b50610104600160a060020a03600435166101ce565b005b34801561011257600080fd5b50610104600160a060020a0360043516610229565b34801561013357600080fd5b50610104610284565b34801561014857600080fd5b50610104600160a060020a03600435166102e4565b34801561016957600080fd5b5061017261033f565b604080519115158252519081900360200190f35b34801561019257600080fd5b50610104610360565b3480156101a757600080fd5b506100b2610402565b600154600160a060020a031681565b600054600160a060020a031681565b600054600160a060020a031633146101e557600080fd5b600160a060020a03811615156101fa57600080fd5b6000805473ffffffffffffffffffffffffffffffffffffffff1916600160a060020a0392909216919091179055565b600054600160a060020a0316331461024057600080fd5b600160a060020a038116151561025557600080fd5b6002805473ffffffffffffffffffffffffffffffffffffffff1916600160a060020a0392909216919091179055565b600054600160a060020a0316331461029b57600080fd5b60025474010000000000000000000000000000000000000000900460ff1615156102c457600080fd5b6002805474ff000000000000000000000000000000000000000019169055565b600054600160a060020a031633146102fb57600080fd5b600160a060020a038116151561031057600080fd5b6001805473ffffffffffffffffffffffffffffffffffffffff1916600160a060020a0392909216919091179055565b60025474010000000000000000000000000000000000000000900460ff1681565b600254600160a060020a03163314806103835750600054600160a060020a031633145b806103985750600154600160a060020a031633145b15156103a357600080fd5b60025474010000000000000000000000000000000000000000900460ff16156103cb57600080fd5b6002805474ff0000000000000000000000000000000000000000191674010000000000000000000000000000000000000000179055565b600254600160a060020a0316815600a165627a7a72305820a6fd78101ae107ab05172d94b254b3c23dcda019084ac79c4a263e7767478d980029",
  "source": "pragma solidity ^0.4.24;\n\ncontract KydyAccessControl {\n    event ContractUpgrade(address newContract);\n\n    address public ceoAddress;\n    address public cfoAddress;\n    address public cooAddress;\n\n    bool public paused = false;\n\n    modifier onlyCEO() {\n        require(msg.sender == ceoAddress);\n        _;\n    }\n\n    modifier onlyCFO() {\n        require(msg.sender == cfoAddress);\n        _;\n    }\n\n    modifier onlyCOO() {\n        require(msg.sender == cooAddress);\n        _;\n    }\n\n    modifier onlyCLevel() {\n        require(\n            msg.sender == cooAddress ||\n            msg.sender == ceoAddress ||\n            msg.sender == cfoAddress\n        );\n        _;\n    }\n\n    function setCEO(address _newCEO) public onlyCEO {\n        require(_newCEO != address(0));\n\n        ceoAddress = _newCEO;\n    }\n\n    function setCFO(address _newCFO) public onlyCEO {\n        require(_newCFO != address(0));\n\n        cfoAddress = _newCFO;\n    }\n\n    function setCOO(address _newCOO) public onlyCEO {\n        require(_newCOO != address(0));\n\n        cooAddress = _newCOO;\n    }\n\n    modifier whenNotPaused() {\n        require(!paused);\n        _;\n    }\n\n    modifier whenPaused {\n        require(paused);\n        _;\n    }\n\n    function pause() public onlyCLevel whenNotPaused {\n        paused = true;\n    }\n\n    function unpause() public onlyCEO whenPaused {\n        paused = false;\n    }\n\n}\n",
  "sourcePath": "/Users/Keki/Vrexlab/kydy-solidity/contracts/KydyAccessControl.sol",
  "compiler": {
    "name": "solc",
    "version": "0.4.24+commit.e67f0147.Emscripten.clang"
  },
  "schemaVersion": "2.0.1",
  "updatedAt": "2018-12-17T03:59:06.914Z"
}