{
  "contractName": "KydyUtil",
  "abi": [
    {
      "constant": true,
      "inputs": [],
      "name": "isKydyUtil",
      "outputs": [
        {
          "name": "",
          "type": "bool"
        }
      ],
      "payable": false,
      "stateMutability": "pure",
      "type": "function"
    },
    {
      "constant": false,
      "inputs": [
        {
          "name": "tempSeed",
          "type": "uint256"
        }
      ],
      "name": "getRand",
      "outputs": [
        {
          "name": "",
          "type": "uint256"
        }
      ],
      "payable": false,
      "stateMutability": "nonpayable",
      "type": "function"
    }
  ],
  "bytecode": "0x60806040526000805534801561001457600080fd5b50610144806100246000396000f30060806040526004361061004c576000357c0100000000000000000000000000000000000000000000000000000000900463ffffffff1680635e5201b714610051578063c733ef4a14610092575b600080fd5b34801561005d57600080fd5b5061007c600480360381019080803590602001909291905050506100c1565b6040518082815260200191505060405180910390f35b34801561009e57600080fd5b506100a761010f565b604051808215151515815260200191505060405180910390f35b60008082600102604051808260001916600019168152602001915050604051809103902090508060019004600080828254019250508190555060014303406001900460005401915050919050565b600060019050905600a165627a7a72305820d4f9b07163deb8265b770d3a5b22e2711f717dfb0203e99a5543de64322a85450029",
  "source": "pragma solidity ^0.4.24;\n\ncontract KydyUtil {\n    uint256 private randomSeed_ = 0;\n\n    function isKydyUtil() public pure returns (bool) {\n        return true;\n    }\n\n    function getRand(uint256 tempSeed) public returns (uint256) {\n        bytes32 seedHash = keccak256(bytes32(tempSeed));\n        randomSeed_ += uint256(seedHash);\n\n        return randomSeed_ + uint256(blockhash(block.number - 1));\n    }\n}\n",
  "sourcePath": "/Users/Keki/Vrexlab/kydy-solidity/contracts/KydyUtil.sol",
  "compiler": {
    "name": "solc",
    "version": "0.4.24+commit.e67f0147.Emscripten.clang"
  },
  "schemaVersion": "2.0.1",
  "updatedAt": "2018-11-12T08:05:19.245Z"
}