{
  "contractName": "KydySynthesizing",
  "abi": [
    {
      "constant": true,
      "inputs": [
        {
          "name": "interfaceId",
          "type": "bytes4"
        }
      ],
      "name": "supportsInterface",
      "outputs": [
        {
          "name": "",
          "type": "bool"
        }
      ],
      "payable": false,
      "stateMutability": "view",
      "type": "function"
    },
    {
      "constant": true,
      "inputs": [],
      "name": "cfoAddress",
      "outputs": [
        {
          "name": "",
          "type": "address"
        }
      ],
      "payable": false,
      "stateMutability": "view",
      "type": "function"
    },
    {
      "constant": true,
      "inputs": [],
      "name": "name",
      "outputs": [
        {
          "name": "",
          "type": "string"
        }
      ],
      "payable": false,
      "stateMutability": "view",
      "type": "function"
    },
    {
      "constant": true,
      "inputs": [
        {
          "name": "tokenId",
          "type": "uint256"
        }
      ],
      "name": "getApproved",
      "outputs": [
        {
          "name": "",
          "type": "address"
        }
      ],
      "payable": false,
      "stateMutability": "view",
      "type": "function"
    },
    {
      "constant": false,
      "inputs": [
        {
          "name": "to",
          "type": "address"
        },
        {
          "name": "tokenId",
          "type": "uint256"
        }
      ],
      "name": "approve",
      "outputs": [],
      "payable": false,
      "stateMutability": "nonpayable",
      "type": "function"
    },
    {
      "constant": true,
      "inputs": [],
      "name": "ceoAddress",
      "outputs": [
        {
          "name": "",
          "type": "address"
        }
      ],
      "payable": false,
      "stateMutability": "view",
      "type": "function"
    },
    {
      "constant": true,
      "inputs": [],
      "name": "totalSupply",
      "outputs": [
        {
          "name": "",
          "type": "uint256"
        }
      ],
      "payable": false,
      "stateMutability": "view",
      "type": "function"
    },
    {
      "constant": false,
      "inputs": [
        {
          "name": "from",
          "type": "address"
        },
        {
          "name": "to",
          "type": "address"
        },
        {
          "name": "tokenId",
          "type": "uint256"
        }
      ],
      "name": "transferFrom",
      "outputs": [],
      "payable": false,
      "stateMutability": "nonpayable",
      "type": "function"
    },
    {
      "constant": false,
      "inputs": [
        {
          "name": "_newCEO",
          "type": "address"
        }
      ],
      "name": "setCEO",
      "outputs": [],
      "payable": false,
      "stateMutability": "nonpayable",
      "type": "function"
    },
    {
      "constant": false,
      "inputs": [
        {
          "name": "_newCOO",
          "type": "address"
        }
      ],
      "name": "setCOO",
      "outputs": [],
      "payable": false,
      "stateMutability": "nonpayable",
      "type": "function"
    },
    {
      "constant": false,
      "inputs": [],
      "name": "unpause",
      "outputs": [],
      "payable": false,
      "stateMutability": "nonpayable",
      "type": "function"
    },
    {
      "constant": false,
      "inputs": [
        {
          "name": "from",
          "type": "address"
        },
        {
          "name": "to",
          "type": "address"
        },
        {
          "name": "tokenId",
          "type": "uint256"
        }
      ],
      "name": "safeTransferFrom",
      "outputs": [],
      "payable": false,
      "stateMutability": "nonpayable",
      "type": "function"
    },
    {
      "constant": false,
      "inputs": [
        {
          "name": "_newCFO",
          "type": "address"
        }
      ],
      "name": "setCFO",
      "outputs": [],
      "payable": false,
      "stateMutability": "nonpayable",
      "type": "function"
    },
    {
      "constant": true,
      "inputs": [
        {
          "name": "",
          "type": "uint256"
        }
      ],
      "name": "kydyIndexToOwner",
      "outputs": [
        {
          "name": "",
          "type": "address"
        }
      ],
      "payable": false,
      "stateMutability": "view",
      "type": "function"
    },
    {
      "constant": false,
      "inputs": [
        {
          "name": "secs",
          "type": "uint256"
        }
      ],
      "name": "setSecondsPerBlock",
      "outputs": [],
      "payable": false,
      "stateMutability": "nonpayable",
      "type": "function"
    },
    {
      "constant": true,
      "inputs": [],
      "name": "paused",
      "outputs": [
        {
          "name": "",
          "type": "bool"
        }
      ],
      "payable": false,
      "stateMutability": "view",
      "type": "function"
    },
    {
      "constant": true,
      "inputs": [],
      "name": "geneSynthesis",
      "outputs": [
        {
          "name": "",
          "type": "address"
        }
      ],
      "payable": false,
      "stateMutability": "view",
      "type": "function"
    },
    {
      "constant": true,
      "inputs": [
        {
          "name": "_tokenId",
          "type": "uint256"
        }
      ],
      "name": "ownerOf",
      "outputs": [
        {
          "name": "",
          "type": "address"
        }
      ],
      "payable": false,
      "stateMutability": "view",
      "type": "function"
    },
    {
      "constant": true,
      "inputs": [
        {
          "name": "_owner",
          "type": "address"
        }
      ],
      "name": "balanceOf",
      "outputs": [
        {
          "name": "",
          "type": "uint256"
        }
      ],
      "payable": false,
      "stateMutability": "view",
      "type": "function"
    },
    {
      "constant": true,
      "inputs": [],
      "name": "secondsPerBlock",
      "outputs": [
        {
          "name": "",
          "type": "uint256"
        }
      ],
      "payable": false,
      "stateMutability": "view",
      "type": "function"
    },
    {
      "constant": true,
      "inputs": [
        {
          "name": "",
          "type": "uint256"
        }
      ],
      "name": "kydyIndexToApproved",
      "outputs": [
        {
          "name": "",
          "type": "address"
        }
      ],
      "payable": false,
      "stateMutability": "view",
      "type": "function"
    },
    {
      "constant": false,
      "inputs": [],
      "name": "pause",
      "outputs": [],
      "payable": false,
      "stateMutability": "nonpayable",
      "type": "function"
    },
    {
      "constant": true,
      "inputs": [
        {
          "name": "_owner",
          "type": "address"
        }
      ],
      "name": "tokensOfOwner",
      "outputs": [
        {
          "name": "ownerTokens",
          "type": "uint256[]"
        }
      ],
      "payable": false,
      "stateMutability": "view",
      "type": "function"
    },
    {
      "constant": true,
      "inputs": [
        {
          "name": "",
          "type": "uint256"
        }
      ],
      "name": "synthesizeAllowedToAddress",
      "outputs": [
        {
          "name": "",
          "type": "address"
        }
      ],
      "payable": false,
      "stateMutability": "view",
      "type": "function"
    },
    {
      "constant": true,
      "inputs": [],
      "name": "symbol",
      "outputs": [
        {
          "name": "",
          "type": "string"
        }
      ],
      "payable": false,
      "stateMutability": "view",
      "type": "function"
    },
    {
      "constant": true,
      "inputs": [
        {
          "name": "",
          "type": "uint256"
        }
      ],
      "name": "cooldowns",
      "outputs": [
        {
          "name": "",
          "type": "uint32"
        }
      ],
      "payable": false,
      "stateMutability": "view",
      "type": "function"
    },
    {
      "constant": true,
      "inputs": [],
      "name": "pregnantKydys",
      "outputs": [
        {
          "name": "",
          "type": "uint256"
        }
      ],
      "payable": false,
      "stateMutability": "view",
      "type": "function"
    },
    {
      "constant": false,
      "inputs": [
        {
          "name": "to",
          "type": "address"
        },
        {
          "name": "approved",
          "type": "bool"
        }
      ],
      "name": "setApprovalForAll",
      "outputs": [],
      "payable": false,
      "stateMutability": "nonpayable",
      "type": "function"
    },
    {
      "constant": true,
      "inputs": [],
      "name": "cooAddress",
      "outputs": [
        {
          "name": "",
          "type": "address"
        }
      ],
      "payable": false,
      "stateMutability": "view",
      "type": "function"
    },
    {
      "constant": true,
      "inputs": [],
      "name": "autoBirthFee",
      "outputs": [
        {
          "name": "",
          "type": "uint256"
        }
      ],
      "payable": false,
      "stateMutability": "view",
      "type": "function"
    },
    {
      "constant": false,
      "inputs": [
        {
          "name": "from",
          "type": "address"
        },
        {
          "name": "to",
          "type": "address"
        },
        {
          "name": "tokenId",
          "type": "uint256"
        },
        {
          "name": "_data",
          "type": "bytes"
        }
      ],
      "name": "safeTransferFrom",
      "outputs": [],
      "payable": false,
      "stateMutability": "nonpayable",
      "type": "function"
    },
    {
      "constant": true,
      "inputs": [
        {
          "name": "tokenId",
          "type": "uint256"
        }
      ],
      "name": "tokenURI",
      "outputs": [
        {
          "name": "",
          "type": "string"
        }
      ],
      "payable": false,
      "stateMutability": "view",
      "type": "function"
    },
    {
      "constant": false,
      "inputs": [
        {
          "name": "_kydyId",
          "type": "uint256"
        },
        {
          "name": "_recipient",
          "type": "address"
        }
      ],
      "name": "rescueLostKydy",
      "outputs": [],
      "payable": false,
      "stateMutability": "nonpayable",
      "type": "function"
    },
    {
      "constant": true,
      "inputs": [
        {
          "name": "owner",
          "type": "address"
        },
        {
          "name": "operator",
          "type": "address"
        }
      ],
      "name": "isApprovedForAll",
      "outputs": [
        {
          "name": "",
          "type": "bool"
        }
      ],
      "payable": false,
      "stateMutability": "view",
      "type": "function"
    },
    {
      "anonymous": false,
      "inputs": [
        {
          "indexed": false,
          "name": "owner",
          "type": "address"
        },
        {
          "indexed": false,
          "name": "yinId",
          "type": "uint256"
        },
        {
          "indexed": false,
          "name": "yangId",
          "type": "uint256"
        },
        {
          "indexed": false,
          "name": "cooldownEndBlock",
          "type": "uint256"
        }
      ],
      "name": "Pregnant",
      "type": "event"
    },
    {
      "anonymous": false,
      "inputs": [
        {
          "indexed": true,
          "name": "owner",
          "type": "address"
        },
        {
          "indexed": false,
          "name": "kydyId",
          "type": "uint256"
        },
        {
          "indexed": false,
          "name": "yinId",
          "type": "uint256"
        },
        {
          "indexed": false,
          "name": "yangId",
          "type": "uint256"
        },
        {
          "indexed": false,
          "name": "genes",
          "type": "uint256"
        }
      ],
      "name": "Birth",
      "type": "event"
    },
    {
      "anonymous": false,
      "inputs": [
        {
          "indexed": true,
          "name": "_from",
          "type": "address"
        },
        {
          "indexed": true,
          "name": "_to",
          "type": "address"
        },
        {
          "indexed": true,
          "name": "_tokenId",
          "type": "uint256"
        }
      ],
      "name": "Transfer",
      "type": "event"
    },
    {
      "anonymous": false,
      "inputs": [
        {
          "indexed": true,
          "name": "_owner",
          "type": "address"
        },
        {
          "indexed": true,
          "name": "_approved",
          "type": "address"
        },
        {
          "indexed": true,
          "name": "_tokenId",
          "type": "uint256"
        }
      ],
      "name": "Approval",
      "type": "event"
    },
    {
      "anonymous": false,
      "inputs": [
        {
          "indexed": true,
          "name": "_owner",
          "type": "address"
        },
        {
          "indexed": true,
          "name": "_operator",
          "type": "address"
        },
        {
          "indexed": false,
          "name": "_approved",
          "type": "bool"
        }
      ],
      "name": "ApprovalForAll",
      "type": "event"
    },
    {
      "anonymous": false,
      "inputs": [
        {
          "indexed": false,
          "name": "newContract",
          "type": "address"
        }
      ],
      "name": "ContractUpgrade",
      "type": "event"
    },
    {
      "constant": false,
      "inputs": [
        {
          "name": "_address",
          "type": "address"
        }
      ],
      "name": "setGeneSynthesisAddress",
      "outputs": [],
      "payable": false,
      "stateMutability": "nonpayable",
      "type": "function"
    },
    {
      "constant": false,
      "inputs": [
        {
          "name": "_addr",
          "type": "address"
        },
        {
          "name": "_yangId",
          "type": "uint256"
        }
      ],
      "name": "approveSynthesizing",
      "outputs": [],
      "payable": false,
      "stateMutability": "nonpayable",
      "type": "function"
    },
    {
      "constant": false,
      "inputs": [
        {
          "name": "val",
          "type": "uint256"
        }
      ],
      "name": "setAutoBirthFee",
      "outputs": [],
      "payable": false,
      "stateMutability": "nonpayable",
      "type": "function"
    },
    {
      "constant": true,
      "inputs": [
        {
          "name": "_kydyId",
          "type": "uint256"
        }
      ],
      "name": "isReadyToSynthesize",
      "outputs": [
        {
          "name": "",
          "type": "bool"
        }
      ],
      "payable": false,
      "stateMutability": "view",
      "type": "function"
    },
    {
      "constant": true,
      "inputs": [
        {
          "name": "_yinId",
          "type": "uint256"
        },
        {
          "name": "_yangId",
          "type": "uint256"
        }
      ],
      "name": "canSynthesizeWith",
      "outputs": [
        {
          "name": "",
          "type": "bool"
        }
      ],
      "payable": false,
      "stateMutability": "view",
      "type": "function"
    },
    {
      "constant": false,
      "inputs": [
        {
          "name": "_yinId",
          "type": "uint256"
        },
        {
          "name": "_yangId",
          "type": "uint256"
        }
      ],
      "name": "synthesizeWithAuto",
      "outputs": [],
      "payable": true,
      "stateMutability": "payable",
      "type": "function"
    },
    {
      "constant": false,
      "inputs": [
        {
          "name": "_yinId",
          "type": "uint256"
        }
      ],
      "name": "giveBirth",
      "outputs": [
        {
          "name": "",
          "type": "uint256"
        }
      ],
      "payable": false,
      "stateMutability": "nonpayable",
      "type": "function"
    }
  ],
  "bytecode": "0x6002805460a060020a60ff0219169055610240604052603c6080908152607860a05261012c60c05261025860e05261070861010052610e1061012052611c2061014052613840610160526170806101805261e1006101a052620151806101c0526202a3006101e052620546006102005262093a80610220526200008790600490600e620002a4565b50600f6006556040805180820190915260078082527f44797665727365000000000000000000000000000000000000000000000000006020909201918252620000d391600d9162000347565b506040805180820190915260048082527f4b5944590000000000000000000000000000000000000000000000000000000060209092019182526200011a91600e9162000347565b506040805160608101825260298082527f687474703a2f2f746573746170692e64797665722e73652f6170692f4b796479602083019081527f4d657461646174612f000000000000000000000000000000000000000000000092909301919091526200018991600f9162000347565b5066071afd498d0000601055620001c97f01ffc9a70000000000000000000000000000000000000000000000000000000064010000000062000237810204565b620001fd7f80ac58cd0000000000000000000000000000000000000000000000000000000064010000000062000237810204565b620002317f5b5e139f0000000000000000000000000000000000000000000000000000000064010000000062000237810204565b6200040c565b7fffffffff0000000000000000000000000000000000000000000000000000000080821614156200026757600080fd5b7fffffffff00000000000000000000000000000000000000000000000000000000166000908152600360205260409020805460ff19166001179055565b600283019183908215620003355791602002820160005b838211156200030157835183826101000a81548163ffffffff021916908363ffffffff1602179055509260200192600401602081600301049283019260010302620002bb565b8015620003335782816101000a81549063ffffffff021916905560040160208160030104928301926001030262000301565b505b5062000343929150620003c8565b5090565b828054600181600116156101000203166002900490600052602060002090601f016020900481019282601f106200038a57805160ff1916838001178555620003ba565b82800160010185558215620003ba579182015b82811115620003ba5782518255916020019190600101906200039d565b5062000343929150620003ef565b620003ec91905b808211156200034357805463ffffffff19168155600101620003cf565b90565b620003ec91905b80821115620003435760008155600101620003f6565b6127f9806200041c6000396000f3006080604052600436106101df5763ffffffff60e060020a60003504166301ffc9a781146101e45780630519ce791461022f57806306fdde0314610260578063081812fc146102ea578063095ea7b3146103025780630a0f8168146103285780630f401cbc1461033d57806318160ddd1461035e57806323b872dd14610385578063254b1ddf146103af57806327d7874c146103d35780632ba73c15146103f45780633f4ba83a1461041557806342842e0e1461042a57806348e68e30146104545780634b85fd55146104625780634e0a33791461047a5780635627cdcb1461049b5780635663896e146104b35780635c975abb146104cb57806361a4b168146104e05780636352211e146104f557806370a082311461050d5780637a7d49371461052e578063816f1771146105435780638456cb591461055b5780638462151c1461057057806388c2a0bf146105e15780638f9f49b6146105f957806395d89b411461061157806398ba2453146106265780639d6fac6f146106415780639e5aa5a914610672578063a22cb46514610687578063b047fb50146106ad578063b0c35c05146106c2578063b88d4fde146106d7578063c87b56dd14610746578063cd47f3901461075e578063e985e9c514610782578063fa061d48146107a9575b600080fd5b3480156101f057600080fd5b5061021b7bffffffffffffffffffffffffffffffffffffffffffffffffffffffff19600435166107c1565b604080519115158252519081900360200190f35b34801561023b57600080fd5b506102446107f5565b60408051600160a060020a039092168252519081900360200190f35b34801561026c57600080fd5b50610275610804565b6040805160208082528351818301528351919283929083019185019080838360005b838110156102af578181015183820152602001610297565b50505050905090810190601f1680156102dc5780820380516001836020036101000a031916815260200191505b509250505060405180910390f35b3480156102f657600080fd5b5061024460043561089a565b34801561030e57600080fd5b50610326600160a060020a03600435166024356108cc565b005b34801561033457600080fd5b50610244610969565b34801561034957600080fd5b50610326600160a060020a0360043516610978565b34801561036a57600080fd5b50610373610a2b565b60408051918252519081900360200190f35b34801561039157600080fd5b50610326600160a060020a0360043581169060243516604435610a35565b3480156103bb57600080fd5b50610326600160a060020a0360043516602435610aef565b3480156103df57600080fd5b50610326600160a060020a0360043516610b49565b34801561040057600080fd5b50610326600160a060020a0360043516610b97565b34801561042157600080fd5b50610326610be5565b34801561043657600080fd5b50610326600160a060020a0360043581169060243516604435610c34565b610326600435602435610c55565b34801561046e57600080fd5b50610326600435610e59565b34801561048657600080fd5b50610326600160a060020a0360043516610e75565b3480156104a757600080fd5b50610244600435610ec3565b3480156104bf57600080fd5b50610326600435610ede565b3480156104d757600080fd5b5061021b610f3a565b3480156104ec57600080fd5b50610244610f4a565b34801561050157600080fd5b50610244600435610f59565b34801561051957600080fd5b50610373600160a060020a0360043516610f83565b34801561053a57600080fd5b50610373610fb6565b34801561054f57600080fd5b50610244600435610fbc565b34801561056757600080fd5b50610326610fd7565b34801561057c57600080fd5b50610591600160a060020a0360043516611057565b60408051602080825283518183015283519192839290830191858101910280838360005b838110156105cd5781810151838201526020016105b5565b505050509050019250505060405180910390f35b3480156105ed57600080fd5b50610373600435611129565b34801561060557600080fd5b506102446004356113ef565b34801561061d57600080fd5b5061027561140a565b34801561063257600080fd5b5061021b60043560243561146b565b34801561064d57600080fd5b506106596004356114eb565b6040805163ffffffff9092168252519081900360200190f35b34801561067e57600080fd5b50610373611518565b34801561069357600080fd5b50610326600160a060020a0360043516602435151561151e565b3480156106b957600080fd5b506102446115a2565b3480156106ce57600080fd5b506103736115b1565b3480156106e357600080fd5b50604080516020601f60643560048181013592830184900484028501840190955281845261032694600160a060020a0381358116956024803590921695604435953695608494019181908401838280828437509497506115b79650505050505050565b34801561075257600080fd5b506102756004356115d9565b34801561076a57600080fd5b50610326600435600160a060020a036024351661168f565b34801561078e57600080fd5b5061021b600160a060020a03600435811690602435166116e1565b3480156107b557600080fd5b5061021b60043561170f565b7bffffffffffffffffffffffffffffffffffffffffffffffffffffffff191660009081526003602052604090205460ff1690565b600154600160a060020a031681565b600d8054604080516020601f60026000196101006001881615020190951694909404938401819004810282018101909252828152606093909290918301828280156108905780601f1061086557610100808354040283529160200191610890565b820191906000526020600020905b81548152906001019060200180831161087357829003601f168201915b5050505050905090565b60006108a5826117de565b15156108b057600080fd5b506000908152600a6020526040902054600160a060020a031690565b60006108d782610f59565b9050600160a060020a0383811690821614156108f257600080fd5b33600160a060020a038216148061090e575061090e81336116e1565b151561091957600080fd5b61092382846117fb565b8183600160a060020a031682600160a060020a03167f8c5be1e5ebec7d5bd14f71427d1e84f3dd0314c0f7b2291e5b200ac8c7c3b92560405160405180910390a4505050565b600054600160a060020a031681565b60008054600160a060020a0316331461099057600080fd5b81905080600160a060020a0316632e39ff846040518163ffffffff1660e060020a028152600401602060405180830381600087803b1580156109d157600080fd5b505af11580156109e5573d6000803e3d6000fd5b505050506040513d60208110156109fb57600080fd5b50511515610a0857600080fd5b60128054600160a060020a031916600160a060020a039290921691909117905550565b6007546000190190565b610a3f3382611829565b1515610a4a57600080fd5b600160a060020a0382161515610a5f57600080fd5b610a698382611888565b600160a060020a03831615610a95576000818152600b602052604090208054600160a060020a03191690555b610a9f83826118ea565b610aa98282611973565b8082600160a060020a031684600160a060020a03167fddf252ad1be2c89b69c2b068fc378daa952ba7f163c4a11628f55a4df523b3ef60405160405180910390a4505050565b60025460a060020a900460ff1615610b0657600080fd5b610b1033826119f7565b1515610b1b57600080fd5b6000908152600b602052604090208054600160a060020a031916600160a060020a0392909216919091179055565b600054600160a060020a03163314610b6057600080fd5b600160a060020a0381161515610b7557600080fd5b60008054600160a060020a031916600160a060020a0392909216919091179055565b600054600160a060020a03163314610bae57600080fd5b600160a060020a0381161515610bc357600080fd5b60028054600160a060020a031916600160a060020a0392909216919091179055565b600054600160a060020a03163314610bfc57600080fd5b60025460a060020a900460ff161515610c1457600080fd5b6002805474ff000000000000000000000000000000000000000019169055565b610c5083838360206040519081016040528060008152506115b7565b505050565b600254600090819060a060020a900460ff1615610c7157600080fd5b601054341015610c8057600080fd5b610c8a33856119f7565b1515610c9557600080fd5b610c9f8385611a17565b1515610caa57600080fd5b6007805485908110610cb857fe5b60009182526020918290206040805161010081018252600290930290910180548352600181015467ffffffffffffffff808216958501959095526801000000000000000081049094169183019190915263ffffffff608060020a84048116606084015260a060020a84048116608084015260c060020a84041660a083015261ffff60e060020a8404811660c084015260f060020a90930490921660e0820152909250610d6390611a6c565b1515610d6e57600080fd5b6007805484908110610d7c57fe5b60009182526020918290206040805161010081018252600290930290910180548352600181015467ffffffffffffffff808216958501959095526801000000000000000081049094169183019190915263ffffffff608060020a84048116606084015260a060020a84048116608084015260c060020a84041660a083015261ffff60e060020a8404811660c084015260f060020a90930490921660e0820152909150610e2790611a6c565b1515610e3257600080fd5b610e3e82858386611a9b565b1515610e4957600080fd5b610e538484611c1a565b50505050565b600254600160a060020a03163314610e7057600080fd5b601055565b600054600160a060020a03163314610e8c57600080fd5b600160a060020a0381161515610ea157600080fd5b60018054600160a060020a031916600160a060020a0392909216919091179055565b600860205260009081526040902054600160a060020a031681565b600254600160a060020a0316331480610f015750600054600160a060020a031633145b80610f165750600154600160a060020a031633145b1515610f2157600080fd5b60045463ffffffff168110610f3557600080fd5b600655565b60025460a060020a900460ff1681565b601254600160a060020a031681565b600081815260086020526040812054600160a060020a0316801515610f7d57600080fd5b92915050565b6000600160a060020a0382161515610f9a57600080fd5b50600160a060020a031660009081526009602052604090205490565b60065481565b600a60205260009081526040902054600160a060020a031681565b600254600160a060020a0316331480610ffa5750600054600160a060020a031633145b8061100f5750600154600160a060020a031633145b151561101a57600080fd5b60025460a060020a900460ff161561103157600080fd5b6002805474ff0000000000000000000000000000000000000000191660a060020a179055565b606060006060600080600061106b87610f83565b945084151561108a57604080516000815260208101909152955061111f565b846040519080825280602002602001820160405280156110b4578160200160208202803883390190505b5093506110bf610a2b565b925060009150600190505b82811161111b57600081815260086020526040902054600160a060020a03888116911614156111135780848381518110151561110257fe5b602090810290910101526001909101905b6001016110ca565b8395505b5050505050919050565b600080600080600080600080600260149054906101000a900460ff1615151561115157600080fd5b600780548a90811061115f57fe5b60009182526020909120600290910201600181015490975067ffffffffffffffff16151561118c57600080fd5b604080516101008101825288548152600189015467ffffffffffffffff8082166020840152680100000000000000008204169282019290925263ffffffff608060020a83048116606083015260a060020a83048116608083015260c060020a83041660a082015261ffff60e060020a8304811660c083015260f060020a90920490911660e082015261121d90611d58565b151561122857600080fd5b60018701546007805460c060020a90920463ffffffff169750908790811061124c57fe5b600091825260209091206001808a015460029093029091019081015490965061ffff60f060020a92839004811696509190041684101561129957600185015460f060020a900461ffff1693505b60125487548654604080517f960fa70f0000000000000000000000000000000000000000000000000000000081526004810193909352602483019190915251600160a060020a039092169163960fa70f916044808201926020929091908290030181600087803b15801561130c57600080fd5b505af1158015611320573d6000803e3d6000fd5b505050506040513d602081101561133657600080fd5b505160008a815260086020526040902054600189810154929550600160a060020a03909116935061137f918b9160c060020a90910463ffffffff1690870161ffff168686611d88565b6001880180547bffffffff0000000000000000000000000000000000000000000000001916905560118054600019019055601054604051919250339181156108fc0291906000818181858888f193505050501580156113e2573d6000803e3d6000fd5b5098975050505050505050565b600b60205260009081526040902054600160a060020a031681565b600e8054604080516020601f60026000196101006001881615020190951694909404938401819004810282018101909252828152606093909290918301828280156108905780601f1061086557610100808354040283529160200191610890565b6000808080851161147b57600080fd5b6000841161148857600080fd5b600780548690811061149657fe5b906000526020600020906002020191506007848154811015156114b557fe5b906000526020600020906002020190506114d182868387611a9b565b80156114e257506114e28486611a17565b95945050505050565b600481600e81106114f857fe5b60089182820401919006600402915054906101000a900463ffffffff1681565b60115481565b600160a060020a03821633141561153457600080fd5b336000818152600c60209081526040808320600160a060020a03871680855290835292819020805460ff1916861515908117909155815190815290519293927f17307eab39ab6107e8899845ad3d59bd9653f200f220920489ca2b5937696c31929181900390910190a35050565b600254600160a060020a031681565b60105481565b6115c2848484610a35565b6115ce8484848461205b565b1515610e5357600080fd5b60606115e4826117de565b15156115ef57600080fd5b600f8054604080516020601f60026000196101006001881615020190951694909404938401819004810282018101909252828152610f7d939092909183018282801561167c5780601f106116515761010080835404028352916020019161167c565b820191906000526020600020905b81548152906001019060200180831161165f57829003601f168201915b505050505061168a846121dd565b6122d0565b600254600160a060020a031633146116a657600080fd5b60025460a060020a900460ff16156116bd57600080fd5b6116c730836119f7565b15156116d257600080fd5b6116dd308284612305565b5050565b600160a060020a039182166000908152600c6020908152604080832093909416825291909152205460ff1690565b60008080831161171e57600080fd5b600780548490811061172c57fe5b60009182526020918290206040805161010081018252600290930290910180548352600181015467ffffffffffffffff808216958501959095526801000000000000000081049094169183019190915263ffffffff608060020a84048116606084015260a060020a84048116608084015260c060020a84041660a083015261ffff60e060020a8404811660c084015260f060020a90930490921660e08201529091506117d790611a6c565b9392505050565b600090815260086020526040902054600160a060020a0316151590565b6000918252600a60205260409091208054600160a060020a031916600160a060020a03909216919091179055565b60008061183583610f59565b905080600160a060020a031684600160a060020a03161480611870575083600160a060020a03166118658461089a565b600160a060020a0316145b80611880575061188081856116e1565b949350505050565b81600160a060020a031661189b82610f59565b600160a060020a0316146118ae57600080fd5b6000818152600a6020526040902054600160a060020a0316156116dd576000908152600a602052604090208054600160a060020a031916905550565b81600160a060020a03166118fd82610f59565b600160a060020a03161461191057600080fd5b600160a060020a03821660009081526009602052604090205461193a90600163ffffffff6123c816565b600160a060020a039092166000908152600960209081526040808320949094559181526008909152208054600160a060020a0319169055565b600081815260086020526040902054600160a060020a03161561199557600080fd5b60008181526008602090815260408083208054600160a060020a031916600160a060020a038716908117909155835260099091529020546119d79060016123df565b600160a060020a0390921660009081526009602052604090209190915550565b600090815260086020526040902054600160a060020a0391821691161490565b6000818152600860205260408082205484835290822054600160a060020a039182169116808214806114e257506000858152600b6020526040902054600160a060020a03908116908316149250505092915050565b60008160a0015163ffffffff166000148015610f7d5750506040015167ffffffffffffffff4381169116111590565b600081841415611aad57506000611880565b6001850154608060020a900463ffffffff16821480611adc5750600185015460a060020a900463ffffffff1682145b15611ae957506000611880565b6001830154608060020a900463ffffffff16841480611b185750600183015460a060020a900463ffffffff1684145b15611b2557506000611880565b6001830154608060020a900463ffffffff161580611b5257506001850154608060020a900463ffffffff16155b15611b5f57506001611880565b60018581015490840154608060020a9182900463ffffffff90811692909104161480611baa575060018086015490840154608060020a900463ffffffff90811660a060020a90920416145b15611bb757506000611880565b6001808601549084015460a060020a900463ffffffff908116608060020a909204161480611c0257506001858101549084015460a060020a9182900463ffffffff9081169290910416145b15611c0f57506000611880565b506001949350505050565b600080600783815481101515611c2c57fe5b90600052602060002090600202019150600784815481101515611c4b57fe5b600091825260209091206002909102016001810180547bffffffff000000000000000000000000000000000000000000000000191660c060020a63ffffffff8716021790559050611c9b826123f1565b611ca4816123f1565b6000848152600b602090815260408083208054600160a060020a031990811690915586845281842080549091169055601180546001908101909155878452600883529281902054928401548151600160a060020a0390941684529183018790528281018690526801000000000000000090910467ffffffffffffffff166060830152517f241ea03ca20251805084d27d4440371c34a0b85ff108f6bb5611248f73818b80916080908290030190a150505050565b60008160a0015163ffffffff16600014158015610f7d5750506040015167ffffffffffffffff4381169116111590565b600080611d93612789565b600063ffffffff89168914611da757600080fd5b63ffffffff88168814611db957600080fd5b61ffff87168714611dc957600080fd5b600287049250600d8361ffff161115611de157600d92505b505060408051610100810182528581524267ffffffffffffffff90811660208301908152600093830184815263ffffffff8c8116606086019081528c82166080870190815260a0870188815261ffff8a811660c08a019081528f821660e08b01908152600780546001810182559c528a517fa66cc928b5edb82af9bd49922954155ab7b0942694bea4ce44661d9a8736c68860028e029081019190915598517fa66cc928b5edb82af9bd49922954155ab7b0942694bea4ce44661d9a8736c689909901805498519651955194519251915167ffffffffffffffff19909916998b16999099176fffffffffffffffff000000000000000019166801000000000000000096909a16959095029890981773ffffffff000000000000000000000000000000001916608060020a938616939093029290921777ffffffff0000000000000000000000000000000000000000191660a060020a91851691909102177bffffffff000000000000000000000000000000000000000000000000191660c060020a96841696909602959095177fffff0000ffffffffffffffffffffffffffffffffffffffffffffffffffffffff1660e060020a91861691909102177dffffffffffffffffffffffffffffffffffffffffffffffffffffffffffff1660f060020a929094169190910292909217905590919081168114611fdf57600080fd5b60608281015160808085015185516040805187815263ffffffff95861660208201529490921684830152938301939093529151600160a060020a038816927f0a5311bd2a6608f08a180df2ee7c5946819a649b204b554bb8e39825b2c50ad5928290030190a261204f85826124da565b98975050505050505050565b60008061207085600160a060020a0316612520565b151561207f57600191506121d4565b6040517f150b7a020000000000000000000000000000000000000000000000000000000081523360048201818152600160a060020a03898116602485015260448401889052608060648501908152875160848601528751918a169463150b7a0294938c938b938b93909160a490910190602085019080838360005b838110156121125781810151838201526020016120fa565b50505050905090810190601f16801561213f5780820380516001836020036101000a031916815260200191505b5095505050505050602060405180830381600087803b15801561216157600080fd5b505af1158015612175573d6000803e3d6000fd5b505050506040513d602081101561218b57600080fd5b50517bffffffffffffffffffffffffffffffffffffffffffffffffffffffff1981167f150b7a020000000000000000000000000000000000000000000000000000000014925090505b50949350505050565b606060008082818515156122265760408051808201909152600181527f3000000000000000000000000000000000000000000000000000000000000000602082015294506122c7565b8593505b831561224157600190920191600a8404935061222a565b826040519080825280601f01601f19166020018201604052801561226f578160200160208202803883390190505b5091505060001982015b85156122c357815160001982019160f860020a6030600a8a0601029184919081106122a057fe5b906020010190600160f860020a031916908160001a905350600a86049550612279565b8194505b50505050919050565b6040805160208181018352600080835283518083018552818152845192830190945281526060926117d7928692869290612528565b600160a060020a03808316600081815260096020908152604080832080546001019055858352600890915290208054600160a060020a0319169091179055831615610aa957600160a060020a0383811660008181526009602090815260408083208054600019019055858352600b82528083208054600160a060020a0319908116909155600a9092528083208054909216909155518493861692917fddf252ad1be2c89b69c2b068fc378daa952ba7f163c4a11628f55a4df523b3ef91a4505050565b600080838311156123d857600080fd5b5050900390565b6000828201838110156117d757600080fd5b600654600182015443919060049060e060020a900461ffff16600e811061241457fe5b600891828204019190066004029054906101000a900463ffffffff1663ffffffff1681151561243f57fe5b6001840180546fffffffffffffffff0000000000000000191668010000000000000000939092049390930167ffffffffffffffff16919091021790819055600d60e060020a90910461ffff1610156124d7576001818101805461ffff60e060020a8083048216909401169092027fffff0000ffffffffffffffffffffffffffffffffffffffffffffffffffffffff9092169190911790555b50565b6124e48282611973565b6040518190600160a060020a038416906000907fddf252ad1be2c89b69c2b068fc378daa952ba7f163c4a11628f55a4df523b3ef908290a45050565b6000903b1190565b6060806060806060806060806000808e98508d97508c96508b95508a94508451865188518a518c51010101016040519080825280601f01601f191660200182016040528015612581578160200160208202803883390190505b50935083925060009150600090505b88518110156125ee5788818151811015156125a757fe5b90602001015160f860020a900460f860020a0283838060010194508151811015156125ce57fe5b906020010190600160f860020a031916908160001a905350600101612590565b5060005b875181101561265057878181518110151561260957fe5b90602001015160f860020a900460f860020a02838380600101945081518110151561263057fe5b906020010190600160f860020a031916908160001a9053506001016125f2565b5060005b86518110156126b257868181518110151561266b57fe5b90602001015160f860020a900460f860020a02838380600101945081518110151561269257fe5b906020010190600160f860020a031916908160001a905350600101612654565b5060005b85518110156127145785818151811015156126cd57fe5b90602001015160f860020a900460f860020a0283838060010194508151811015156126f457fe5b906020010190600160f860020a031916908160001a9053506001016126b6565b5060005b845181101561277657848181518110151561272f57fe5b90602001015160f860020a900460f860020a02838380600101945081518110151561275657fe5b906020010190600160f860020a031916908160001a905350600101612718565b50909d9c50505050505050505050505050565b6040805161010081018252600080825260208201819052918101829052606081018290526080810182905260a0810182905260c0810182905260e0810191909152905600a165627a7a7230582028fd197f3d67b66f63a21562b46aa82a9c05a5394988ea94268313f53b4d44460029",
  "source": "pragma solidity ^0.4.24;\n\nimport \"./ExternalInterfaces/GeneSynthesisInterface.sol\";\nimport \"./KydyOwnership.sol\";\n\ncontract KydySynthesizing is KydyOwnership {\n\n    event Pregnant(address owner, uint256 yinId, uint256 yangId, uint256 cooldownEndBlock);\n\n    uint256 public autoBirthFee = 2 finney;\n\n    uint256 public pregnantKydys;\n\n    GeneSynthesisInterface public geneSynthesis;\n\n    function setGeneSynthesisAddress(address _address) public onlyCEO {\n        GeneSynthesisInterface candidateContract = GeneSynthesisInterface(_address);\n\n        require(candidateContract.isGeneSynthesis());\n\n        geneSynthesis = candidateContract;\n    }\n\n    function _isReadyToSynthesize(Kydy _kyd) internal view returns (bool) {\n        return (_kyd.synthesizingWithId == 0) && (_kyd.cooldownEndBlock <= uint64(block.number));\n    }\n\n    function _isSynthesizingPermitted(uint256 _yangId, uint256 _yinId) internal view returns (bool) {\n        address yinOwner = kydyIndexToOwner[_yinId];\n        address yangOwner = kydyIndexToOwner[_yangId];\n\n        return (yinOwner == yangOwner || synthesizeAllowedToAddress[_yangId] == yinOwner);\n    }\n\n    function _triggerCooldown(Kydy storage _kyd) internal {\n        _kyd.cooldownEndBlock = uint64((cooldowns[_kyd.cooldownIndex] / secondsPerBlock) + block.number);\n\n        if (_kyd.cooldownIndex < 13) {\n            _kyd.cooldownIndex += 1;\n        }\n    }\n\n    function approveSynthesizing(address _addr, uint256 _yangId)\n        public\n        whenNotPaused\n    {\n        require(_owns(msg.sender, _yangId));\n        synthesizeAllowedToAddress[_yangId] = _addr;\n    }\n\n    function setAutoBirthFee(uint256 val) public onlyCOO {\n        autoBirthFee = val;\n    }\n\n    function _isReadyToGiveBirth(Kydy _yin) private view returns (bool) {\n        return (_yin.synthesizingWithId != 0) && (_yin.cooldownEndBlock <= uint64(block.number));\n    }\n\n    function isReadyToSynthesize(uint256 _kydyId)\n        public\n        view\n        returns (bool)\n    {\n        require(_kydyId > 0);\n        Kydy storage kyd = kydys[_kydyId];\n        return _isReadyToSynthesize(kyd);\n    }\n\n    function _isValidMatingPair(\n        Kydy storage _yin,\n        uint256 _yinId,\n        Kydy storage _yang,\n        uint256 _yangId\n    )\n        private\n        view\n        returns(bool)\n    {\n        if (_yinId == _yangId) {\n            return false;\n        }\n\n        if (_yin.yinId == _yangId || _yin.yangId == _yangId) {\n            return false;\n        }\n        if (_yang.yinId == _yinId || _yang.yangId == _yinId) {\n            return false;\n        }\n\n        if (_yang.yinId == 0 || _yin.yinId == 0) {\n            return true;\n        }\n\n        if (_yang.yinId == _yin.yinId || _yang.yinId == _yin.yangId) {\n            return false;\n        }\n        if (_yang.yangId == _yin.yinId || _yang.yangId == _yin.yangId) {\n            return false;\n        }\n\n        return true;\n    }\n\n    function _canSynthesizeWithViaAuction(uint256 _yinId, uint256 _yangId)\n        internal\n        view\n        returns (bool)\n    {\n        Kydy storage yin = kydys[_yinId];\n        Kydy storage yang = kydys[_yangId];\n        return _isValidMatingPair(yin, _yinId, yang, _yangId);\n    }\n\n    function canSynthesizeWith(uint256 _yinId, uint256 _yangId)\n        public\n        view\n        returns(bool)\n    {\n        require(_yinId > 0);\n        require(_yangId > 0);\n        Kydy storage yin = kydys[_yinId];\n        Kydy storage yang = kydys[_yangId];\n        return _isValidMatingPair(yin, _yinId, yang, _yangId) &&\n            _isSynthesizingPermitted(_yangId, _yinId);\n    }\n\n    function _synthesizeWith(uint256 _yinId, uint256 _yangId) internal {\n        Kydy storage yang = kydys[_yangId];\n        Kydy storage yin = kydys[_yinId];\n\n        yin.synthesizingWithId = uint32(_yangId);\n\n        _triggerCooldown(yang);\n        _triggerCooldown(yin);\n\n        delete synthesizeAllowedToAddress[_yinId];\n        delete synthesizeAllowedToAddress[_yangId];\n\n        pregnantKydys++;\n\n        emit Pregnant(kydyIndexToOwner[_yinId], _yinId, _yangId, yin.cooldownEndBlock);\n    }\n\n    function synthesizeWithAuto(uint256 _yinId, uint256 _yangId)\n        public\n        payable\n        whenNotPaused\n    {\n        require(msg.value >= autoBirthFee);\n\n        require(_owns(msg.sender, _yinId));\n\n        require(_isSynthesizingPermitted(_yangId, _yinId));\n\n        Kydy storage yin = kydys[_yinId];\n\n        require(_isReadyToSynthesize(yin));\n\n        Kydy storage yang = kydys[_yangId];\n\n        require(_isReadyToSynthesize(yang));\n\n        require(_isValidMatingPair(\n            yin,\n            _yinId,\n            yang,\n            _yangId\n        ));\n\n        _synthesizeWith(_yinId, _yangId);\n\n    }\n\n    function giveBirth(uint256 _yinId)\n        public\n        whenNotPaused\n        returns(uint256)\n    {\n        Kydy storage yin = kydys[_yinId];\n\n        require(yin.birthTime != 0);\n\n        require(_isReadyToGiveBirth(yin));\n\n        uint256 yangId = yin.synthesizingWithId;\n        Kydy storage yang = kydys[yangId];\n\n        uint16 parentGen = yin.generation;\n        if (yang.generation > yin.generation) {\n            parentGen = yang.generation;\n        }\n\n        uint256 childGenes = geneSynthesis.synthGenes(yin.genes, yang.genes);\n\n        address owner = kydyIndexToOwner[_yinId];\n        uint256 kydyId = _createKydy(_yinId, yin.synthesizingWithId, parentGen + 1, childGenes, owner);\n\n        delete yin.synthesizingWithId;\n\n        pregnantKydys--;\n\n        // Send the balance fee to the person who made birth happen.\n        msg.sender.transfer(autoBirthFee);\n\n        return kydyId;\n    }\n}\n",
  "sourcePath": "/Users/Keki/Vrexlab/kydy-solidity/contracts/KydySynthesizing.sol",
  "compiler": {
    "name": "solc",
    "version": "0.4.24+commit.e67f0147.Emscripten.clang"
  },
  "schemaVersion": "2.0.1",
  "updatedAt": "2018-12-17T03:59:06.950Z"
}