{
  "contractName": "KydyTravelToken",
  "abi": [
    {
      "constant": true,
      "inputs": [],
      "name": "name",
      "outputs": [
        {
          "name": "",
          "type": "string"
        }
      ],
      "payable": false,
      "stateMutability": "view",
      "type": "function"
    },
    {
      "constant": false,
      "inputs": [
        {
          "name": "spender",
          "type": "address"
        },
        {
          "name": "value",
          "type": "uint256"
        }
      ],
      "name": "approve",
      "outputs": [
        {
          "name": "",
          "type": "bool"
        }
      ],
      "payable": false,
      "stateMutability": "nonpayable",
      "type": "function"
    },
    {
      "constant": true,
      "inputs": [],
      "name": "totalSupply",
      "outputs": [
        {
          "name": "",
          "type": "uint256"
        }
      ],
      "payable": false,
      "stateMutability": "view",
      "type": "function"
    },
    {
      "constant": false,
      "inputs": [
        {
          "name": "from",
          "type": "address"
        },
        {
          "name": "to",
          "type": "address"
        },
        {
          "name": "value",
          "type": "uint256"
        }
      ],
      "name": "transferFrom",
      "outputs": [
        {
          "name": "",
          "type": "bool"
        }
      ],
      "payable": false,
      "stateMutability": "nonpayable",
      "type": "function"
    },
    {
      "constant": true,
      "inputs": [],
      "name": "INITIAL_SUPPLY",
      "outputs": [
        {
          "name": "",
          "type": "uint256"
        }
      ],
      "payable": false,
      "stateMutability": "view",
      "type": "function"
    },
    {
      "constant": true,
      "inputs": [],
      "name": "decimals",
      "outputs": [
        {
          "name": "",
          "type": "uint8"
        }
      ],
      "payable": false,
      "stateMutability": "view",
      "type": "function"
    },
    {
      "constant": false,
      "inputs": [
        {
          "name": "spender",
          "type": "address"
        },
        {
          "name": "addedValue",
          "type": "uint256"
        }
      ],
      "name": "increaseAllowance",
      "outputs": [
        {
          "name": "success",
          "type": "bool"
        }
      ],
      "payable": false,
      "stateMutability": "nonpayable",
      "type": "function"
    },
    {
      "constant": false,
      "inputs": [],
      "name": "unpause",
      "outputs": [],
      "payable": false,
      "stateMutability": "nonpayable",
      "type": "function"
    },
    {
      "constant": false,
      "inputs": [
        {
          "name": "to",
          "type": "address"
        },
        {
          "name": "value",
          "type": "uint256"
        }
      ],
      "name": "mint",
      "outputs": [
        {
          "name": "",
          "type": "bool"
        }
      ],
      "payable": false,
      "stateMutability": "nonpayable",
      "type": "function"
    },
    {
      "constant": true,
      "inputs": [
        {
          "name": "account",
          "type": "address"
        }
      ],
      "name": "isPauser",
      "outputs": [
        {
          "name": "",
          "type": "bool"
        }
      ],
      "payable": false,
      "stateMutability": "view",
      "type": "function"
    },
    {
      "constant": true,
      "inputs": [],
      "name": "paused",
      "outputs": [
        {
          "name": "",
          "type": "bool"
        }
      ],
      "payable": false,
      "stateMutability": "view",
      "type": "function"
    },
    {
      "constant": false,
      "inputs": [],
      "name": "renouncePauser",
      "outputs": [],
      "payable": false,
      "stateMutability": "nonpayable",
      "type": "function"
    },
    {
      "constant": true,
      "inputs": [
        {
          "name": "owner",
          "type": "address"
        }
      ],
      "name": "balanceOf",
      "outputs": [
        {
          "name": "",
          "type": "uint256"
        }
      ],
      "payable": false,
      "stateMutability": "view",
      "type": "function"
    },
    {
      "constant": false,
      "inputs": [],
      "name": "renounceOwnership",
      "outputs": [],
      "payable": false,
      "stateMutability": "nonpayable",
      "type": "function"
    },
    {
      "constant": false,
      "inputs": [
        {
          "name": "account",
          "type": "address"
        }
      ],
      "name": "addPauser",
      "outputs": [],
      "payable": false,
      "stateMutability": "nonpayable",
      "type": "function"
    },
    {
      "constant": false,
      "inputs": [],
      "name": "pause",
      "outputs": [],
      "payable": false,
      "stateMutability": "nonpayable",
      "type": "function"
    },
    {
      "constant": true,
      "inputs": [],
      "name": "owner",
      "outputs": [
        {
          "name": "",
          "type": "address"
        }
      ],
      "payable": false,
      "stateMutability": "view",
      "type": "function"
    },
    {
      "constant": true,
      "inputs": [],
      "name": "isOwner",
      "outputs": [
        {
          "name": "",
          "type": "bool"
        }
      ],
      "payable": false,
      "stateMutability": "view",
      "type": "function"
    },
    {
      "constant": true,
      "inputs": [],
      "name": "symbol",
      "outputs": [
        {
          "name": "",
          "type": "string"
        }
      ],
      "payable": false,
      "stateMutability": "view",
      "type": "function"
    },
    {
      "constant": false,
      "inputs": [
        {
          "name": "account",
          "type": "address"
        }
      ],
      "name": "addMinter",
      "outputs": [],
      "payable": false,
      "stateMutability": "nonpayable",
      "type": "function"
    },
    {
      "constant": false,
      "inputs": [],
      "name": "renounceMinter",
      "outputs": [],
      "payable": false,
      "stateMutability": "nonpayable",
      "type": "function"
    },
    {
      "constant": false,
      "inputs": [
        {
          "name": "spender",
          "type": "address"
        },
        {
          "name": "subtractedValue",
          "type": "uint256"
        }
      ],
      "name": "decreaseAllowance",
      "outputs": [
        {
          "name": "success",
          "type": "bool"
        }
      ],
      "payable": false,
      "stateMutability": "nonpayable",
      "type": "function"
    },
    {
      "constant": false,
      "inputs": [
        {
          "name": "to",
          "type": "address"
        },
        {
          "name": "value",
          "type": "uint256"
        }
      ],
      "name": "transfer",
      "outputs": [
        {
          "name": "",
          "type": "bool"
        }
      ],
      "payable": false,
      "stateMutability": "nonpayable",
      "type": "function"
    },
    {
      "constant": true,
      "inputs": [
        {
          "name": "account",
          "type": "address"
        }
      ],
      "name": "isMinter",
      "outputs": [
        {
          "name": "",
          "type": "bool"
        }
      ],
      "payable": false,
      "stateMutability": "view",
      "type": "function"
    },
    {
      "constant": true,
      "inputs": [
        {
          "name": "owner",
          "type": "address"
        },
        {
          "name": "spender",
          "type": "address"
        }
      ],
      "name": "allowance",
      "outputs": [
        {
          "name": "",
          "type": "uint256"
        }
      ],
      "payable": false,
      "stateMutability": "view",
      "type": "function"
    },
    {
      "constant": false,
      "inputs": [
        {
          "name": "newOwner",
          "type": "address"
        }
      ],
      "name": "transferOwnership",
      "outputs": [],
      "payable": false,
      "stateMutability": "nonpayable",
      "type": "function"
    },
    {
      "inputs": [],
      "payable": false,
      "stateMutability": "nonpayable",
      "type": "constructor"
    },
    {
      "anonymous": false,
      "inputs": [
        {
          "indexed": true,
          "name": "previousOwner",
          "type": "address"
        },
        {
          "indexed": true,
          "name": "newOwner",
          "type": "address"
        }
      ],
      "name": "OwnershipTransferred",
      "type": "event"
    },
    {
      "anonymous": false,
      "inputs": [
        {
          "indexed": false,
          "name": "account",
          "type": "address"
        }
      ],
      "name": "Paused",
      "type": "event"
    },
    {
      "anonymous": false,
      "inputs": [
        {
          "indexed": false,
          "name": "account",
          "type": "address"
        }
      ],
      "name": "Unpaused",
      "type": "event"
    },
    {
      "anonymous": false,
      "inputs": [
        {
          "indexed": true,
          "name": "account",
          "type": "address"
        }
      ],
      "name": "PauserAdded",
      "type": "event"
    },
    {
      "anonymous": false,
      "inputs": [
        {
          "indexed": true,
          "name": "account",
          "type": "address"
        }
      ],
      "name": "PauserRemoved",
      "type": "event"
    },
    {
      "anonymous": false,
      "inputs": [
        {
          "indexed": true,
          "name": "account",
          "type": "address"
        }
      ],
      "name": "MinterAdded",
      "type": "event"
    },
    {
      "anonymous": false,
      "inputs": [
        {
          "indexed": true,
          "name": "account",
          "type": "address"
        }
      ],
      "name": "MinterRemoved",
      "type": "event"
    },
    {
      "anonymous": false,
      "inputs": [
        {
          "indexed": true,
          "name": "from",
          "type": "address"
        },
        {
          "indexed": true,
          "name": "to",
          "type": "address"
        },
        {
          "indexed": false,
          "name": "value",
          "type": "uint256"
        }
      ],
      "name": "Transfer",
      "type": "event"
    },
    {
      "anonymous": false,
      "inputs": [
        {
          "indexed": true,
          "name": "owner",
          "type": "address"
        },
        {
          "indexed": true,
          "name": "spender",
          "type": "address"
        },
        {
          "indexed": false,
          "name": "value",
          "type": "uint256"
        }
      ],
      "name": "Approval",
      "type": "event"
    },
    {
      "constant": true,
      "inputs": [],
      "name": "isKydyTravelToken",
      "outputs": [
        {
          "name": "",
          "type": "bool"
        }
      ],
      "payable": false,
      "stateMutability": "pure",
      "type": "function"
    }
  ],
  "bytecode": "0x60c0604052601160808190527f4b7964792054726176656c20546f6b656e00000000000000000000000000000060a090815262000040916006919062000308565b506040805180820190915260068082527f4b594459545400000000000000000000000000000000000000000000000000006020909201918252620000879160079162000308565b506008805460ff191690556000600955348015620000a457600080fd5b50620000b9336401000000006200013b810204565b620000cd336401000000006200018d810204565b60058054600160a860020a0319166101003381029190911791829055604051600160a060020a039190920416906000907f8be0079c531659141344cd1fd0a4f28419497f9722a3daafe3b4186f6b6457e0908290a362000135640100000000620001df810204565b620003ad565b6200015660038264010000000062000f506200025282021704565b604051600160a060020a038216907f6ae172837ea30b801fbfcdd4108aa1d5bf8ff775444fd70256b44e6bf3dfc3f690600090a250565b620001a860048264010000000062000f506200025282021704565b604051600160a060020a038216907f6719d08c1888103bea251a4ed56406bd0c3e69723c8a1686e017e7bbe159b6f890600090a250565b620001f333640100000000620002ad810204565b1515620001ff57600080fd5b60055460ff16156200021057600080fd5b6005805460ff191660011790556040805133815290517f62e78cea01bee320cd4e420270b5ea74000d11b0c9f74754ebdbfc544b05a2589181900360200190a1565b600160a060020a03811615156200026857600080fd5b6200027d8282640100000000620002d0810204565b156200028857600080fd5b600160a060020a0316600090815260209190915260409020805460ff19166001179055565b6000620002ca60048364010000000062000bb1620002d082021704565b92915050565b6000600160a060020a0382161515620002e857600080fd5b50600160a060020a03166000908152602091909152604090205460ff1690565b828054600181600116156101000203166002900490600052602060002090601f016020900481019282601f106200034b57805160ff19168380011785556200037b565b828001600101855582156200037b579182015b828111156200037b5782518255916020019190600101906200035e565b50620003899291506200038d565b5090565b620003aa91905b8082111562000389576000815560010162000394565b90565b610fca80620003bd6000396000f30060806040526004361061015e5763ffffffff7c010000000000000000000000000000000000000000000000000000000060003504166306fdde038114610163578063095ea7b3146101ed57806318160ddd1461022557806323b872dd1461024c5780632ff2e9dc14610276578063313ce5671461028b57806339509351146102b65780633f4ba83a146102da57806340c10f19146102f157806346fbf68e146103155780635adc5ee7146103365780635c975abb1461034b5780636ef8d66d1461036057806370a0823114610375578063715018a61461039657806382dc1ec4146103ab5780638456cb59146103cc5780638da5cb5b146103e15780638f32d59b1461041257806395d89b4114610427578063983b2d561461043c578063986502751461045d578063a457c2d714610472578063a9059cbb14610496578063aa271e1a146104ba578063dd62ed3e146104db578063f2fde38b14610502575b600080fd5b34801561016f57600080fd5b50610178610523565b6040805160208082528351818301528351919283929083019185019080838360005b838110156101b257818101518382015260200161019a565b50505050905090810190601f1680156101df5780820380516001836020036101000a031916815260200191505b509250505060405180910390f35b3480156101f957600080fd5b50610211600160a060020a03600435166024356105b1565b604080519115158252519081900360200190f35b34801561023157600080fd5b5061023a6105d5565b60408051918252519081900360200190f35b34801561025857600080fd5b50610211600160a060020a03600435811690602435166044356105db565b34801561028257600080fd5b5061023a610601565b34801561029757600080fd5b506102a0610607565b6040805160ff9092168252519081900360200190f35b3480156102c257600080fd5b50610211600160a060020a0360043516602435610610565b3480156102e657600080fd5b506102ef61062d565b005b3480156102fd57600080fd5b50610211600160a060020a0360043516602435610691565b34801561032157600080fd5b50610211600160a060020a03600435166106ba565b34801561034257600080fd5b506102116106d3565b34801561035757600080fd5b506102116106d8565b34801561036c57600080fd5b506102ef6106e1565b34801561038157600080fd5b5061023a600160a060020a03600435166106ec565b3480156103a257600080fd5b506102ef610707565b3480156103b757600080fd5b506102ef600160a060020a0360043516610777565b3480156103d857600080fd5b506102ef610797565b3480156103ed57600080fd5b506103f66107fd565b60408051600160a060020a039092168252519081900360200190f35b34801561041e57600080fd5b50610211610811565b34801561043357600080fd5b50610178610827565b34801561044857600080fd5b506102ef600160a060020a0360043516610882565b34801561046957600080fd5b506102ef61089f565b34801561047e57600080fd5b50610211600160a060020a03600435166024356108a8565b3480156104a257600080fd5b50610211600160a060020a03600435166024356108c5565b3480156104c657600080fd5b50610211600160a060020a03600435166108e2565b3480156104e757600080fd5b5061023a600160a060020a03600435811690602435166108f5565b34801561050e57600080fd5b506102ef600160a060020a0360043516610920565b6006805460408051602060026001851615610100026000190190941693909304601f810184900484028201840190925281815292918301828280156105a95780601f1061057e576101008083540402835291602001916105a9565b820191906000526020600020905b81548152906001019060200180831161058c57829003601f168201915b505050505081565b60055460009060ff16156105c457600080fd5b6105ce838361093c565b9392505050565b60025490565b60055460009060ff16156105ee57600080fd5b6105f98484846109ba565b949350505050565b60095481565b60085460ff1681565b60055460009060ff161561062357600080fd5b6105ce8383610a57565b610636336106ba565b151561064157600080fd5b60055460ff16151561065257600080fd5b6005805460ff191690556040805133815290517f5db9ee0a495bf2e6ff9c91a7834c1ba4fdd244a5e8aa4e537bd38aeae4b073aa9181900360200190a1565b600061069c336108e2565b15156106a757600080fd5b6106b18383610b07565b50600192915050565b60006106cd60048363ffffffff610bb116565b92915050565b600190565b60055460ff1690565b6106ea33610be8565b565b600160a060020a031660009081526020819052604090205490565b61070f610811565b151561071a57600080fd5b6005546040516000916101009004600160a060020a0316907f8be0079c531659141344cd1fd0a4f28419497f9722a3daafe3b4186f6b6457e0908390a36005805474ffffffffffffffffffffffffffffffffffffffff0019169055565b610780336106ba565b151561078b57600080fd5b61079481610c30565b50565b6107a0336106ba565b15156107ab57600080fd5b60055460ff16156107bb57600080fd5b6005805460ff191660011790556040805133815290517f62e78cea01bee320cd4e420270b5ea74000d11b0c9f74754ebdbfc544b05a2589181900360200190a1565b6005546101009004600160a060020a031690565b6005546101009004600160a060020a0316331490565b6007805460408051602060026001851615610100026000190190941693909304601f810184900484028201840190925281815292918301828280156105a95780601f1061057e576101008083540402835291602001916105a9565b61088b336108e2565b151561089657600080fd5b61079481610c78565b6106ea33610cc0565b60055460009060ff16156108bb57600080fd5b6105ce8383610d08565b60055460009060ff16156108d857600080fd5b6105ce8383610d53565b60006106cd60038363ffffffff610bb116565b600160a060020a03918216600090815260016020908152604080832093909416825291909152205490565b610928610811565b151561093357600080fd5b61079481610d60565b6000600160a060020a038316151561095357600080fd5b336000818152600160209081526040808320600160a060020a03881680855290835292819020869055805186815290519293927f8c5be1e5ebec7d5bd14f71427d1e84f3dd0314c0f7b2291e5b200ac8c7c3b925929181900390910190a350600192915050565b600160a060020a03831660009081526001602090815260408083203384529091528120548211156109ea57600080fd5b600160a060020a0384166000908152600160209081526040808320338452909152902054610a1e908363ffffffff610de916565b600160a060020a0385166000908152600160209081526040808320338452909152902055610a4d848484610e00565b5060019392505050565b6000600160a060020a0383161515610a6e57600080fd5b336000908152600160209081526040808320600160a060020a0387168452909152902054610aa2908363ffffffff610ef216565b336000818152600160209081526040808320600160a060020a0389168085529083529281902085905580519485525191937f8c5be1e5ebec7d5bd14f71427d1e84f3dd0314c0f7b2291e5b200ac8c7c3b925929081900390910190a350600192915050565b600160a060020a0382161515610b1c57600080fd5b600254610b2f908263ffffffff610ef216565b600255600160a060020a038216600090815260208190526040902054610b5b908263ffffffff610ef216565b600160a060020a0383166000818152602081815260408083209490945583518581529351929391927fddf252ad1be2c89b69c2b068fc378daa952ba7f163c4a11628f55a4df523b3ef9281900390910190a35050565b6000600160a060020a0382161515610bc857600080fd5b50600160a060020a03166000908152602091909152604090205460ff1690565b610bf960048263ffffffff610f0416565b604051600160a060020a038216907fcd265ebaf09df2871cc7bd4133404a235ba12eff2041bb89d9c714a2621c7c7e90600090a250565b610c4160048263ffffffff610f5016565b604051600160a060020a038216907f6719d08c1888103bea251a4ed56406bd0c3e69723c8a1686e017e7bbe159b6f890600090a250565b610c8960038263ffffffff610f5016565b604051600160a060020a038216907f6ae172837ea30b801fbfcdd4108aa1d5bf8ff775444fd70256b44e6bf3dfc3f690600090a250565b610cd160038263ffffffff610f0416565b604051600160a060020a038216907fe94479a9f7e1952cc78f2d6baab678adc1b772d936c6583def489e524cb6669290600090a250565b6000600160a060020a0383161515610d1f57600080fd5b336000908152600160209081526040808320600160a060020a0387168452909152902054610aa2908363ffffffff610de916565b60006106b1338484610e00565b600160a060020a0381161515610d7557600080fd5b600554604051600160a060020a0380841692610100900416907f8be0079c531659141344cd1fd0a4f28419497f9722a3daafe3b4186f6b6457e090600090a360058054600160a060020a039092166101000274ffffffffffffffffffffffffffffffffffffffff0019909216919091179055565b60008083831115610df957600080fd5b5050900390565b600160a060020a038316600090815260208190526040902054811115610e2557600080fd5b600160a060020a0382161515610e3a57600080fd5b600160a060020a038316600090815260208190526040902054610e63908263ffffffff610de916565b600160a060020a038085166000908152602081905260408082209390935590841681522054610e98908263ffffffff610ef216565b600160a060020a038084166000818152602081815260409182902094909455805185815290519193928716927fddf252ad1be2c89b69c2b068fc378daa952ba7f163c4a11628f55a4df523b3ef92918290030190a3505050565b6000828201838110156105ce57600080fd5b600160a060020a0381161515610f1957600080fd5b610f238282610bb1565b1515610f2e57600080fd5b600160a060020a0316600090815260209190915260409020805460ff19169055565b600160a060020a0381161515610f6557600080fd5b610f6f8282610bb1565b15610f7957600080fd5b600160a060020a0316600090815260209190915260409020805460ff191660011790555600a165627a7a7230582073e53625924310d3cef2e1dde85bd9e74da302097867e9aadb42696eba69d5c40029",
  "source": "pragma solidity 0.4.24;\n\n// import \"openzeppelin-solidity/contracts/token/ERC20/MintableToken.sol\";\n// import \"openzeppelin-solidity/contracts/token/ERC20/PausableToken.sol\";\nimport \"openzeppelin-solidity/contracts/token/ERC20/ERC20Mintable.sol\";\nimport \"openzeppelin-solidity/contracts/token/ERC20/ERC20Pausable.sol\";\nimport \"openzeppelin-solidity/contracts/ownership/Ownable.sol\";\n\n// contract KydyTravelToken is MintableToken, PausableToken {\ncontract KydyTravelToken is ERC20Mintable, ERC20Pausable, Ownable {\n\n    string public name = \"Kydy Travel Token\";\n    string public symbol = \"KYDYTT\";\n    uint8 public decimals = 0;\n    uint public INITIAL_SUPPLY = 0;\n\n    constructor() public {\n        pause();\n    }\n\n    function isKydyTravelToken() public pure returns (bool) {\n        return true;\n    }\n}",
  "sourcePath": "/Users/Keki/Vrexlab/kydy-solidity/contracts/Travel/KydyTravelToken.sol",
  "compiler": {
    "name": "solc",
    "version": "0.4.24+commit.e67f0147.Emscripten.clang"
  },
  "schemaVersion": "2.0.1",
  "updatedAt": "2018-12-13T10:21:24.762Z"
}