{
  "contractName": "KydyAuction",
  "abi": [
    {
      "constant": true,
      "inputs": [
        {
          "name": "interfaceId",
          "type": "bytes4"
        }
      ],
      "name": "supportsInterface",
      "outputs": [
        {
          "name": "",
          "type": "bool"
        }
      ],
      "payable": false,
      "stateMutability": "view",
      "type": "function"
    },
    {
      "constant": true,
      "inputs": [],
      "name": "cfoAddress",
      "outputs": [
        {
          "name": "",
          "type": "address"
        }
      ],
      "payable": false,
      "stateMutability": "view",
      "type": "function"
    },
    {
      "constant": true,
      "inputs": [],
      "name": "name",
      "outputs": [
        {
          "name": "",
          "type": "string"
        }
      ],
      "payable": false,
      "stateMutability": "view",
      "type": "function"
    },
    {
      "constant": true,
      "inputs": [
        {
          "name": "tokenId",
          "type": "uint256"
        }
      ],
      "name": "getApproved",
      "outputs": [
        {
          "name": "",
          "type": "address"
        }
      ],
      "payable": false,
      "stateMutability": "view",
      "type": "function"
    },
    {
      "constant": false,
      "inputs": [
        {
          "name": "to",
          "type": "address"
        },
        {
          "name": "tokenId",
          "type": "uint256"
        }
      ],
      "name": "approve",
      "outputs": [],
      "payable": false,
      "stateMutability": "nonpayable",
      "type": "function"
    },
    {
      "constant": true,
      "inputs": [],
      "name": "ceoAddress",
      "outputs": [
        {
          "name": "",
          "type": "address"
        }
      ],
      "payable": false,
      "stateMutability": "view",
      "type": "function"
    },
    {
      "constant": false,
      "inputs": [
        {
          "name": "_address",
          "type": "address"
        }
      ],
      "name": "setGeneSynthesisAddress",
      "outputs": [],
      "payable": false,
      "stateMutability": "nonpayable",
      "type": "function"
    },
    {
      "constant": true,
      "inputs": [],
      "name": "totalSupply",
      "outputs": [
        {
          "name": "",
          "type": "uint256"
        }
      ],
      "payable": false,
      "stateMutability": "view",
      "type": "function"
    },
    {
      "constant": true,
      "inputs": [],
      "name": "synthesizingAuction",
      "outputs": [
        {
          "name": "",
          "type": "address"
        }
      ],
      "payable": false,
      "stateMutability": "view",
      "type": "function"
    },
    {
      "constant": false,
      "inputs": [
        {
          "name": "from",
          "type": "address"
        },
        {
          "name": "to",
          "type": "address"
        },
        {
          "name": "tokenId",
          "type": "uint256"
        }
      ],
      "name": "transferFrom",
      "outputs": [],
      "payable": false,
      "stateMutability": "nonpayable",
      "type": "function"
    },
    {
      "constant": false,
      "inputs": [
        {
          "name": "_addr",
          "type": "address"
        },
        {
          "name": "_yangId",
          "type": "uint256"
        }
      ],
      "name": "approveSynthesizing",
      "outputs": [],
      "payable": false,
      "stateMutability": "nonpayable",
      "type": "function"
    },
    {
      "constant": false,
      "inputs": [
        {
          "name": "_newCEO",
          "type": "address"
        }
      ],
      "name": "setCEO",
      "outputs": [],
      "payable": false,
      "stateMutability": "nonpayable",
      "type": "function"
    },
    {
      "constant": false,
      "inputs": [
        {
          "name": "_newCOO",
          "type": "address"
        }
      ],
      "name": "setCOO",
      "outputs": [],
      "payable": false,
      "stateMutability": "nonpayable",
      "type": "function"
    },
    {
      "constant": false,
      "inputs": [],
      "name": "unpause",
      "outputs": [],
      "payable": false,
      "stateMutability": "nonpayable",
      "type": "function"
    },
    {
      "constant": false,
      "inputs": [
        {
          "name": "from",
          "type": "address"
        },
        {
          "name": "to",
          "type": "address"
        },
        {
          "name": "tokenId",
          "type": "uint256"
        }
      ],
      "name": "safeTransferFrom",
      "outputs": [],
      "payable": false,
      "stateMutability": "nonpayable",
      "type": "function"
    },
    {
      "constant": false,
      "inputs": [
        {
          "name": "_yinId",
          "type": "uint256"
        },
        {
          "name": "_yangId",
          "type": "uint256"
        }
      ],
      "name": "synthesizeWithAuto",
      "outputs": [],
      "payable": true,
      "stateMutability": "payable",
      "type": "function"
    },
    {
      "constant": false,
      "inputs": [
        {
          "name": "val",
          "type": "uint256"
        }
      ],
      "name": "setAutoBirthFee",
      "outputs": [],
      "payable": false,
      "stateMutability": "nonpayable",
      "type": "function"
    },
    {
      "constant": false,
      "inputs": [
        {
          "name": "_newCFO",
          "type": "address"
        }
      ],
      "name": "setCFO",
      "outputs": [],
      "payable": false,
      "stateMutability": "nonpayable",
      "type": "function"
    },
    {
      "constant": true,
      "inputs": [
        {
          "name": "",
          "type": "uint256"
        }
      ],
      "name": "kydyIndexToOwner",
      "outputs": [
        {
          "name": "",
          "type": "address"
        }
      ],
      "payable": false,
      "stateMutability": "view",
      "type": "function"
    },
    {
      "constant": false,
      "inputs": [
        {
          "name": "secs",
          "type": "uint256"
        }
      ],
      "name": "setSecondsPerBlock",
      "outputs": [],
      "payable": false,
      "stateMutability": "nonpayable",
      "type": "function"
    },
    {
      "constant": true,
      "inputs": [],
      "name": "paused",
      "outputs": [
        {
          "name": "",
          "type": "bool"
        }
      ],
      "payable": false,
      "stateMutability": "view",
      "type": "function"
    },
    {
      "constant": true,
      "inputs": [],
      "name": "geneSynthesis",
      "outputs": [
        {
          "name": "",
          "type": "address"
        }
      ],
      "payable": false,
      "stateMutability": "view",
      "type": "function"
    },
    {
      "constant": true,
      "inputs": [
        {
          "name": "_tokenId",
          "type": "uint256"
        }
      ],
      "name": "ownerOf",
      "outputs": [
        {
          "name": "",
          "type": "address"
        }
      ],
      "payable": false,
      "stateMutability": "view",
      "type": "function"
    },
    {
      "constant": true,
      "inputs": [
        {
          "name": "_owner",
          "type": "address"
        }
      ],
      "name": "balanceOf",
      "outputs": [
        {
          "name": "",
          "type": "uint256"
        }
      ],
      "payable": false,
      "stateMutability": "view",
      "type": "function"
    },
    {
      "constant": true,
      "inputs": [],
      "name": "secondsPerBlock",
      "outputs": [
        {
          "name": "",
          "type": "uint256"
        }
      ],
      "payable": false,
      "stateMutability": "view",
      "type": "function"
    },
    {
      "constant": true,
      "inputs": [
        {
          "name": "",
          "type": "uint256"
        }
      ],
      "name": "kydyIndexToApproved",
      "outputs": [
        {
          "name": "",
          "type": "address"
        }
      ],
      "payable": false,
      "stateMutability": "view",
      "type": "function"
    },
    {
      "constant": false,
      "inputs": [],
      "name": "pause",
      "outputs": [],
      "payable": false,
      "stateMutability": "nonpayable",
      "type": "function"
    },
    {
      "constant": true,
      "inputs": [
        {
          "name": "_owner",
          "type": "address"
        }
      ],
      "name": "tokensOfOwner",
      "outputs": [
        {
          "name": "ownerTokens",
          "type": "uint256[]"
        }
      ],
      "payable": false,
      "stateMutability": "view",
      "type": "function"
    },
    {
      "constant": false,
      "inputs": [
        {
          "name": "_yinId",
          "type": "uint256"
        }
      ],
      "name": "giveBirth",
      "outputs": [
        {
          "name": "",
          "type": "uint256"
        }
      ],
      "payable": false,
      "stateMutability": "nonpayable",
      "type": "function"
    },
    {
      "constant": true,
      "inputs": [
        {
          "name": "",
          "type": "uint256"
        }
      ],
      "name": "synthesizeAllowedToAddress",
      "outputs": [
        {
          "name": "",
          "type": "address"
        }
      ],
      "payable": false,
      "stateMutability": "view",
      "type": "function"
    },
    {
      "constant": true,
      "inputs": [],
      "name": "symbol",
      "outputs": [
        {
          "name": "",
          "type": "string"
        }
      ],
      "payable": false,
      "stateMutability": "view",
      "type": "function"
    },
    {
      "constant": true,
      "inputs": [
        {
          "name": "_yinId",
          "type": "uint256"
        },
        {
          "name": "_yangId",
          "type": "uint256"
        }
      ],
      "name": "canSynthesizeWith",
      "outputs": [
        {
          "name": "",
          "type": "bool"
        }
      ],
      "payable": false,
      "stateMutability": "view",
      "type": "function"
    },
    {
      "constant": true,
      "inputs": [
        {
          "name": "",
          "type": "uint256"
        }
      ],
      "name": "cooldowns",
      "outputs": [
        {
          "name": "",
          "type": "uint32"
        }
      ],
      "payable": false,
      "stateMutability": "view",
      "type": "function"
    },
    {
      "constant": true,
      "inputs": [],
      "name": "pregnantKydys",
      "outputs": [
        {
          "name": "",
          "type": "uint256"
        }
      ],
      "payable": false,
      "stateMutability": "view",
      "type": "function"
    },
    {
      "constant": false,
      "inputs": [
        {
          "name": "to",
          "type": "address"
        },
        {
          "name": "approved",
          "type": "bool"
        }
      ],
      "name": "setApprovalForAll",
      "outputs": [],
      "payable": false,
      "stateMutability": "nonpayable",
      "type": "function"
    },
    {
      "constant": true,
      "inputs": [],
      "name": "cooAddress",
      "outputs": [
        {
          "name": "",
          "type": "address"
        }
      ],
      "payable": false,
      "stateMutability": "view",
      "type": "function"
    },
    {
      "constant": true,
      "inputs": [],
      "name": "autoBirthFee",
      "outputs": [
        {
          "name": "",
          "type": "uint256"
        }
      ],
      "payable": false,
      "stateMutability": "view",
      "type": "function"
    },
    {
      "constant": false,
      "inputs": [
        {
          "name": "from",
          "type": "address"
        },
        {
          "name": "to",
          "type": "address"
        },
        {
          "name": "tokenId",
          "type": "uint256"
        },
        {
          "name": "_data",
          "type": "bytes"
        }
      ],
      "name": "safeTransferFrom",
      "outputs": [],
      "payable": false,
      "stateMutability": "nonpayable",
      "type": "function"
    },
    {
      "constant": true,
      "inputs": [
        {
          "name": "tokenId",
          "type": "uint256"
        }
      ],
      "name": "tokenURI",
      "outputs": [
        {
          "name": "",
          "type": "string"
        }
      ],
      "payable": false,
      "stateMutability": "view",
      "type": "function"
    },
    {
      "constant": false,
      "inputs": [
        {
          "name": "_kydyId",
          "type": "uint256"
        },
        {
          "name": "_recipient",
          "type": "address"
        }
      ],
      "name": "rescueLostKydy",
      "outputs": [],
      "payable": false,
      "stateMutability": "nonpayable",
      "type": "function"
    },
    {
      "constant": true,
      "inputs": [],
      "name": "saleAuction",
      "outputs": [
        {
          "name": "",
          "type": "address"
        }
      ],
      "payable": false,
      "stateMutability": "view",
      "type": "function"
    },
    {
      "constant": true,
      "inputs": [
        {
          "name": "owner",
          "type": "address"
        },
        {
          "name": "operator",
          "type": "address"
        }
      ],
      "name": "isApprovedForAll",
      "outputs": [
        {
          "name": "",
          "type": "bool"
        }
      ],
      "payable": false,
      "stateMutability": "view",
      "type": "function"
    },
    {
      "constant": true,
      "inputs": [
        {
          "name": "_kydyId",
          "type": "uint256"
        }
      ],
      "name": "isReadyToSynthesize",
      "outputs": [
        {
          "name": "",
          "type": "bool"
        }
      ],
      "payable": false,
      "stateMutability": "view",
      "type": "function"
    },
    {
      "anonymous": false,
      "inputs": [
        {
          "indexed": false,
          "name": "owner",
          "type": "address"
        },
        {
          "indexed": false,
          "name": "yinId",
          "type": "uint256"
        },
        {
          "indexed": false,
          "name": "yangId",
          "type": "uint256"
        },
        {
          "indexed": false,
          "name": "cooldownEndBlock",
          "type": "uint256"
        }
      ],
      "name": "Pregnant",
      "type": "event"
    },
    {
      "anonymous": false,
      "inputs": [
        {
          "indexed": true,
          "name": "owner",
          "type": "address"
        },
        {
          "indexed": false,
          "name": "kydyId",
          "type": "uint256"
        },
        {
          "indexed": false,
          "name": "yinId",
          "type": "uint256"
        },
        {
          "indexed": false,
          "name": "yangId",
          "type": "uint256"
        },
        {
          "indexed": false,
          "name": "genes",
          "type": "uint256"
        }
      ],
      "name": "Birth",
      "type": "event"
    },
    {
      "anonymous": false,
      "inputs": [
        {
          "indexed": true,
          "name": "_from",
          "type": "address"
        },
        {
          "indexed": true,
          "name": "_to",
          "type": "address"
        },
        {
          "indexed": true,
          "name": "_tokenId",
          "type": "uint256"
        }
      ],
      "name": "Transfer",
      "type": "event"
    },
    {
      "anonymous": false,
      "inputs": [
        {
          "indexed": true,
          "name": "_owner",
          "type": "address"
        },
        {
          "indexed": true,
          "name": "_approved",
          "type": "address"
        },
        {
          "indexed": true,
          "name": "_tokenId",
          "type": "uint256"
        }
      ],
      "name": "Approval",
      "type": "event"
    },
    {
      "anonymous": false,
      "inputs": [
        {
          "indexed": true,
          "name": "_owner",
          "type": "address"
        },
        {
          "indexed": true,
          "name": "_operator",
          "type": "address"
        },
        {
          "indexed": false,
          "name": "_approved",
          "type": "bool"
        }
      ],
      "name": "ApprovalForAll",
      "type": "event"
    },
    {
      "anonymous": false,
      "inputs": [
        {
          "indexed": false,
          "name": "newContract",
          "type": "address"
        }
      ],
      "name": "ContractUpgrade",
      "type": "event"
    },
    {
      "constant": false,
      "inputs": [
        {
          "name": "_address",
          "type": "address"
        }
      ],
      "name": "setSaleAuctionAddress",
      "outputs": [],
      "payable": false,
      "stateMutability": "nonpayable",
      "type": "function"
    },
    {
      "constant": false,
      "inputs": [
        {
          "name": "_address",
          "type": "address"
        }
      ],
      "name": "setSynthesizingAuctionAddress",
      "outputs": [],
      "payable": false,
      "stateMutability": "nonpayable",
      "type": "function"
    },
    {
      "constant": false,
      "inputs": [
        {
          "name": "_kydyId",
          "type": "uint256"
        },
        {
          "name": "_price",
          "type": "uint256"
        }
      ],
      "name": "createSaleAuction",
      "outputs": [],
      "payable": false,
      "stateMutability": "nonpayable",
      "type": "function"
    },
    {
      "constant": false,
      "inputs": [
        {
          "name": "_kydyId",
          "type": "uint256"
        },
        {
          "name": "_price",
          "type": "uint256"
        }
      ],
      "name": "createSynthesizingAuction",
      "outputs": [],
      "payable": false,
      "stateMutability": "nonpayable",
      "type": "function"
    },
    {
      "constant": false,
      "inputs": [
        {
          "name": "_yangId",
          "type": "uint256"
        },
        {
          "name": "_yinId",
          "type": "uint256"
        }
      ],
      "name": "bidOnSynthesizingAuction",
      "outputs": [],
      "payable": true,
      "stateMutability": "payable",
      "type": "function"
    },
    {
      "constant": false,
      "inputs": [],
      "name": "withdrawAuctionBalances",
      "outputs": [],
      "payable": false,
      "stateMutability": "nonpayable",
      "type": "function"
    },
    {
      "constant": false,
      "inputs": [
        {
          "name": "_kydyId",
          "type": "uint256"
        }
      ],
      "name": "cancelSaleAuction",
      "outputs": [],
      "payable": false,
      "stateMutability": "nonpayable",
      "type": "function"
    },
    {
      "constant": false,
      "inputs": [
        {
          "name": "_kydyId",
          "type": "uint256"
        }
      ],
      "name": "cancelSynthesizingAuction",
      "outputs": [],
      "payable": false,
      "stateMutability": "nonpayable",
      "type": "function"
    }
  ],
  "bytecode": "0x6002805460a060020a60ff0219169055610240604052603c6080908152607860a05261012c60c05261025860e05261070861010052610e1061012052611c2061014052613840610160526170806101805261e1006101a052620151806101c0526202a3006101e052620546006102005262093a80610220526200008790600490600e620002a4565b50600f6006556040805180820190915260078082527f44797665727365000000000000000000000000000000000000000000000000006020909201918252620000d391600d9162000347565b506040805180820190915260048082527f4b5944590000000000000000000000000000000000000000000000000000000060209092019182526200011a91600e9162000347565b506040805160608101825260298082527f687474703a2f2f746573746170692e64797665722e73652f6170692f4b796479602083019081527f4d657461646174612f000000000000000000000000000000000000000000000092909301919091526200018991600f9162000347565b5066071afd498d0000601055620001c97f01ffc9a70000000000000000000000000000000000000000000000000000000064010000000062000237810204565b620001fd7f80ac58cd0000000000000000000000000000000000000000000000000000000064010000000062000237810204565b620002317f5b5e139f0000000000000000000000000000000000000000000000000000000064010000000062000237810204565b6200040c565b7fffffffff0000000000000000000000000000000000000000000000000000000080821614156200026757600080fd5b7fffffffff00000000000000000000000000000000000000000000000000000000166000908152600360205260409020805460ff19166001179055565b600283019183908215620003355791602002820160005b838211156200030157835183826101000a81548163ffffffff021916908363ffffffff1602179055509260200192600401602081600301049283019260010302620002bb565b8015620003335782816101000a81549063ffffffff021916905560040160208160030104928301926001030262000301565b505b5062000343929150620003c8565b5090565b828054600181600116156101000203166002900490600052602060002090601f016020900481019282601f106200038a57805160ff1916838001178555620003ba565b82800160010185558215620003ba579182015b82811115620003ba5782518255916020019190600101906200039d565b5062000343929150620003ef565b620003ec91905b808211156200034357805463ffffffff19168155600101620003cf565b90565b620003ec91905b80821115620003435760008155600101620003f6565b6130b6806200041c6000396000f30060806040526004361061024d5763ffffffff60e060020a60003504166301ffc9a781146102525780630519ce791461029d57806306fdde03146102ce578063081812fc14610358578063095ea7b3146103705780630a0f8168146103965780630f401cbc146103ab57806318160ddd146103cc578063192ec99d146103f357806319d70e0b1461040857806323b872dd14610423578063254b1ddf1461044d57806327d7874c146104715780632ba73c151461049257806339e395e2146104b35780633f4ba83a146104c157806342842e0e146104d657806348e68e30146105005780634b85fd551461050e5780634e0a3379146105265780635627cdcb146105475780635663896e1461055f5780635c975abb1461057757806361a4b1681461058c5780636352211e146105a15780636fbde40d146105b957806370a08231146105da5780637a7d4937146105fb578063816f1771146106105780638456cb59146106285780638462151c1461063d57806388c2a0bf146106ae5780638f9f49b6146106c657806391876e57146106de5780639307cdf4146106f357806395d89b411461071457806398ba2453146107295780639bacf1ed146107445780639d6fac6f1461075f5780639e5aa5a914610790578063a22cb465146107a5578063b047fb50146107cb578063b0c35c05146107e0578063b88d4fde146107f5578063c31f586d14610864578063c87b56dd1461087c578063cd47f39014610894578063d5f48e76146108b8578063e6cbe351146108d0578063e985e9c5146108e5578063fa061d481461090c575b600080fd5b34801561025e57600080fd5b506102897bffffffffffffffffffffffffffffffffffffffffffffffffffffffff1960043516610924565b604080519115158252519081900360200190f35b3480156102a957600080fd5b506102b2610958565b60408051600160a060020a039092168252519081900360200190f35b3480156102da57600080fd5b506102e3610967565b6040805160208082528351818301528351919283929083019185019080838360005b8381101561031d578181015183820152602001610305565b50505050905090810190601f16801561034a5780820380516001836020036101000a031916815260200191505b509250505060405180910390f35b34801561036457600080fd5b506102b26004356109fd565b34801561037c57600080fd5b50610394600160a060020a0360043516602435610a2f565b005b3480156103a257600080fd5b506102b2610acc565b3480156103b757600080fd5b50610394600160a060020a0360043516610adb565b3480156103d857600080fd5b506103e1610b8e565b60408051918252519081900360200190f35b3480156103ff57600080fd5b506102b2610b98565b34801561041457600080fd5b50610394600435602435610ba7565b34801561042f57600080fd5b50610394600160a060020a0360043581169060243516604435610c78565b34801561045957600080fd5b50610394600160a060020a0360043516602435610d32565b34801561047d57600080fd5b50610394600160a060020a0360043516610d8c565b34801561049e57600080fd5b50610394600160a060020a0360043516610dda565b610394600435602435610e28565b3480156104cd57600080fd5b50610394610fc7565b3480156104e257600080fd5b50610394600160a060020a0360043581169060243516604435611016565b610394600435602435611032565b34801561051a57600080fd5b50610394600435611236565b34801561053257600080fd5b50610394600160a060020a0360043516611252565b34801561055357600080fd5b506102b26004356112a0565b34801561056b57600080fd5b506103946004356112bb565b34801561058357600080fd5b50610289611317565b34801561059857600080fd5b506102b2611327565b3480156105ad57600080fd5b506102b2600435611336565b3480156105c557600080fd5b50610394600160a060020a0360043516611360565b3480156105e657600080fd5b506103e1600160a060020a0360043516611413565b34801561060757600080fd5b506103e1611446565b34801561061c57600080fd5b506102b260043561144c565b34801561063457600080fd5b50610394611467565b34801561064957600080fd5b5061065e600160a060020a03600435166114e7565b60408051602080825283518183015283519192839290830191858101910280838360005b8381101561069a578181015183820152602001610682565b505050509050019250505060405180910390f35b3480156106ba57600080fd5b506103e16004356115b9565b3480156106d257600080fd5b506102b260043561187f565b3480156106ea57600080fd5b5061039461189a565b3480156106ff57600080fd5b50610394600160a060020a0360043516611983565b34801561072057600080fd5b506102e3611a36565b34801561073557600080fd5b50610289600435602435611a97565b34801561075057600080fd5b50610394600435602435611b17565b34801561076b57600080fd5b50610777600435611be0565b6040805163ffffffff9092168252519081900360200190f35b34801561079c57600080fd5b506103e1611c0d565b3480156107b157600080fd5b50610394600160a060020a03600435166024351515611c13565b3480156107d757600080fd5b506102b2611c97565b3480156107ec57600080fd5b506103e1611ca6565b34801561080157600080fd5b50604080516020601f60643560048181013592830184900484028501840190955281845261039494600160a060020a038135811695602480359092169560443595369560849401918190840183828082843750949750611cac9650505050505050565b34801561087057600080fd5b50610394600435611cce565b34801561088857600080fd5b506102e3600435611d83565b3480156108a057600080fd5b50610394600435600160a060020a0360243516611e39565b3480156108c457600080fd5b50610394600435611e8b565b3480156108dc57600080fd5b506102b2611f40565b3480156108f157600080fd5b50610289600160a060020a0360043581169060243516611f4f565b34801561091857600080fd5b50610289600435611f7d565b7bffffffffffffffffffffffffffffffffffffffffffffffffffffffff191660009081526003602052604090205460ff1690565b600154600160a060020a031681565b600d8054604080516020601f60026000196101006001881615020190951694909404938401819004810282018101909252828152606093909290918301828280156109f35780601f106109c8576101008083540402835291602001916109f3565b820191906000526020600020905b8154815290600101906020018083116109d657829003601f168201915b5050505050905090565b6000610a088261204c565b1515610a1357600080fd5b506000908152600a6020526040902054600160a060020a031690565b6000610a3a82611336565b9050600160a060020a038381169082161415610a5557600080fd5b33600160a060020a0382161480610a715750610a718133611f4f565b1515610a7c57600080fd5b610a868284612069565b8183600160a060020a031682600160a060020a03167f8c5be1e5ebec7d5bd14f71427d1e84f3dd0314c0f7b2291e5b200ac8c7c3b92560405160405180910390a4505050565b600054600160a060020a031681565b60008054600160a060020a03163314610af357600080fd5b81905080600160a060020a0316632e39ff846040518163ffffffff1660e060020a028152600401602060405180830381600087803b158015610b3457600080fd5b505af1158015610b48573d6000803e3d6000fd5b505050506040513d6020811015610b5e57600080fd5b50511515610b6b57600080fd5b60128054600160a060020a031916600160a060020a039290921691909117905550565b6007546000190190565b601454600160a060020a031681565b60025460a060020a900460ff1615610bbe57600080fd5b610bc83383612097565b1515610bd357600080fd5b601354610be990600160a060020a031683610a2f565b601354604080517f54279bdd00000000000000000000000000000000000000000000000000000000815260048101859052602481018490523360448201529051600160a060020a03909216916354279bdd9160648082019260009290919082900301818387803b158015610c5c57600080fd5b505af1158015610c70573d6000803e3d6000fd5b505050505050565b610c8233826120b7565b1515610c8d57600080fd5b600160a060020a0382161515610ca257600080fd5b610cac8382612116565b600160a060020a03831615610cd8576000818152600b602052604090208054600160a060020a03191690555b610ce28382612178565b610cec8282612201565b8082600160a060020a031684600160a060020a03167fddf252ad1be2c89b69c2b068fc378daa952ba7f163c4a11628f55a4df523b3ef60405160405180910390a4505050565b60025460a060020a900460ff1615610d4957600080fd5b610d533382612097565b1515610d5e57600080fd5b6000908152600b602052604090208054600160a060020a031916600160a060020a0392909216919091179055565b600054600160a060020a03163314610da357600080fd5b600160a060020a0381161515610db857600080fd5b60008054600160a060020a031916600160a060020a0392909216919091179055565b600054600160a060020a03163314610df157600080fd5b600160a060020a0381161515610e0657600080fd5b60028054600160a060020a031916600160a060020a0392909216919091179055565b60025460009060a060020a900460ff1615610e4257600080fd5b610e4c3383612097565b1515610e5757600080fd5b610e6082611f7d565b1515610e6b57600080fd5b610e758284612285565b1515610e8057600080fd5b601454604080517fc55d0f56000000000000000000000000000000000000000000000000000000008152600481018690529051600160a060020a039092169163c55d0f56916024808201926020929091908290030181600087803b158015610ee757600080fd5b505af1158015610efb573d6000803e3d6000fd5b505050506040513d6020811015610f1157600080fd5b50516010549091508101341015610f2757600080fd5b601454601054604080517f454a2ab3000000000000000000000000000000000000000000000000000000008152600481018790529051600160a060020a039093169263454a2ab39234039160248082019260009290919082900301818588803b158015610f9357600080fd5b505af1158015610fa7573d6000803e3d6000fd5b5050505050610fc28263ffffffff168463ffffffff166122d4565b505050565b600054600160a060020a03163314610fde57600080fd5b60025460a060020a900460ff161515610ff657600080fd5b6002805474ff000000000000000000000000000000000000000019169055565b610fc28383836020604051908101604052806000815250611cac565b600254600090819060a060020a900460ff161561104e57600080fd5b60105434101561105d57600080fd5b6110673385612097565b151561107257600080fd5b61107c8385612412565b151561108757600080fd5b600780548590811061109557fe5b60009182526020918290206040805161010081018252600290930290910180548352600181015467ffffffffffffffff808216958501959095526801000000000000000081049094169183019190915263ffffffff608060020a84048116606084015260a060020a84048116608084015260c060020a84041660a083015261ffff60e060020a8404811660c084015260f060020a90930490921660e082015290925061114090612467565b151561114b57600080fd5b600780548490811061115957fe5b60009182526020918290206040805161010081018252600290930290910180548352600181015467ffffffffffffffff808216958501959095526801000000000000000081049094169183019190915263ffffffff608060020a84048116606084015260a060020a84048116608084015260c060020a84041660a083015261ffff60e060020a8404811660c084015260f060020a90930490921660e082015290915061120490612467565b151561120f57600080fd5b61121b82858386612496565b151561122657600080fd5b61123084846122d4565b50505050565b600254600160a060020a0316331461124d57600080fd5b601055565b600054600160a060020a0316331461126957600080fd5b600160a060020a038116151561127e57600080fd5b60018054600160a060020a031916600160a060020a0392909216919091179055565b600860205260009081526040902054600160a060020a031681565b600254600160a060020a03163314806112de5750600054600160a060020a031633145b806112f35750600154600160a060020a031633145b15156112fe57600080fd5b60045463ffffffff16811061131257600080fd5b600655565b60025460a060020a900460ff1681565b601254600160a060020a031681565b600081815260086020526040812054600160a060020a031680151561135a57600080fd5b92915050565b60008054600160a060020a0316331461137857600080fd5b81905080600160a060020a03166385b861886040518163ffffffff1660e060020a028152600401602060405180830381600087803b1580156113b957600080fd5b505af11580156113cd573d6000803e3d6000fd5b505050506040513d60208110156113e357600080fd5b505115156113f057600080fd5b60138054600160a060020a031916600160a060020a039290921691909117905550565b6000600160a060020a038216151561142a57600080fd5b50600160a060020a031660009081526009602052604090205490565b60065481565b600a60205260009081526040902054600160a060020a031681565b600254600160a060020a031633148061148a5750600054600160a060020a031633145b8061149f5750600154600160a060020a031633145b15156114aa57600080fd5b60025460a060020a900460ff16156114c157600080fd5b6002805474ff0000000000000000000000000000000000000000191660a060020a179055565b60606000606060008060006114fb87611413565b945084151561151a5760408051600081526020810190915295506115af565b84604051908082528060200260200182016040528015611544578160200160208202803883390190505b50935061154f610b8e565b925060009150600190505b8281116115ab57600081815260086020526040902054600160a060020a03888116911614156115a35780848381518110151561159257fe5b602090810290910101526001909101905b60010161155a565b8395505b5050505050919050565b600080600080600080600080600260149054906101000a900460ff161515156115e157600080fd5b600780548a9081106115ef57fe5b60009182526020909120600290910201600181015490975067ffffffffffffffff16151561161c57600080fd5b604080516101008101825288548152600189015467ffffffffffffffff8082166020840152680100000000000000008204169282019290925263ffffffff608060020a83048116606083015260a060020a83048116608083015260c060020a83041660a082015261ffff60e060020a8304811660c083015260f060020a90920490911660e08201526116ad90612615565b15156116b857600080fd5b60018701546007805460c060020a90920463ffffffff16975090879081106116dc57fe5b600091825260209091206001808a015460029093029091019081015490965061ffff60f060020a92839004811696509190041684101561172957600185015460f060020a900461ffff1693505b60125487548654604080517f960fa70f0000000000000000000000000000000000000000000000000000000081526004810193909352602483019190915251600160a060020a039092169163960fa70f916044808201926020929091908290030181600087803b15801561179c57600080fd5b505af11580156117b0573d6000803e3d6000fd5b505050506040513d60208110156117c657600080fd5b505160008a815260086020526040902054600189810154929550600160a060020a03909116935061180f918b9160c060020a90910463ffffffff1690870161ffff168686612645565b6001880180547bffffffff0000000000000000000000000000000000000000000000001916905560118054600019019055601054604051919250339181156108fc0291906000818181858888f19350505050158015611872573d6000803e3d6000fd5b5098975050505050505050565b600b60205260009081526040902054600160a060020a031681565b600254600160a060020a031633146118b157600080fd5b601360009054906101000a9004600160a060020a0316600160a060020a0316635fd8c7106040518163ffffffff1660e060020a028152600401600060405180830381600087803b15801561190457600080fd5b505af1158015611918573d6000803e3d6000fd5b50505050601460009054906101000a9004600160a060020a0316600160a060020a0316635fd8c7106040518163ffffffff1660e060020a028152600401600060405180830381600087803b15801561196f57600080fd5b505af1158015611230573d6000803e3d6000fd5b60008054600160a060020a0316331461199b57600080fd5b81905080600160a060020a031663ffadaae56040518163ffffffff1660e060020a028152600401602060405180830381600087803b1580156119dc57600080fd5b505af11580156119f0573d6000803e3d6000fd5b505050506040513d6020811015611a0657600080fd5b50511515611a1357600080fd5b60148054600160a060020a031916600160a060020a039290921691909117905550565b600e8054604080516020601f60026000196101006001881615020190951694909404938401819004810282018101909252828152606093909290918301828280156109f35780601f106109c8576101008083540402835291602001916109f3565b60008080808511611aa757600080fd5b60008411611ab457600080fd5b6007805486908110611ac257fe5b90600052602060002090600202019150600784815481101515611ae157fe5b90600052602060002090600202019050611afd82868387612496565b8015611b0e5750611b0e8486612412565b95945050505050565b60025460a060020a900460ff1615611b2e57600080fd5b611b383383612097565b1515611b4357600080fd5b611b4c82611f7d565b1515611b5757600080fd5b601454611b6d90600160a060020a031683610a2f565b601454604080517f54279bdd00000000000000000000000000000000000000000000000000000000815260048101859052602481018490523360448201529051600160a060020a03909216916354279bdd9160648082019260009290919082900301818387803b158015610c5c57600080fd5b600481600e8110611bed57fe5b60089182820401919006600402915054906101000a900463ffffffff1681565b60115481565b600160a060020a038216331415611c2957600080fd5b336000818152600c60209081526040808320600160a060020a03871680855290835292819020805460ff1916861515908117909155815190815290519293927f17307eab39ab6107e8899845ad3d59bd9653f200f220920489ca2b5937696c31929181900390910190a35050565b600254600160a060020a031681565b60105481565b611cb7848484610c78565b611cc384848484612918565b151561123057600080fd5b60025460009060a060020a900460ff1615611ce857600080fd5b601354611cfe90600160a060020a031683612097565b1515611d0957600080fd5b5033611d158282612069565b601354604080517f4e8eaa1300000000000000000000000000000000000000000000000000000000815260048101859052600160a060020a03848116602483015291519190921691634e8eaa1391604480830192600092919082900301818387803b158015610c5c57600080fd5b6060611d8e8261204c565b1515611d9957600080fd5b600f8054604080516020601f6002600019610100600188161502019095169490940493840181900481028201810190925282815261135a9390929091830182828015611e265780601f10611dfb57610100808354040283529160200191611e26565b820191906000526020600020905b815481529060010190602001808311611e0957829003601f168201915b5050505050611e3484612a9a565b612b8d565b600254600160a060020a03163314611e5057600080fd5b60025460a060020a900460ff1615611e6757600080fd5b611e713083612097565b1515611e7c57600080fd5b611e87308284612bc2565b5050565b60025460009060a060020a900460ff1615611ea557600080fd5b601454611ebb90600160a060020a031683612097565b1515611ec657600080fd5b5033611ed28282612069565b601454604080517f4e8eaa1300000000000000000000000000000000000000000000000000000000815260048101859052600160a060020a03848116602483015291519190921691634e8eaa1391604480830192600092919082900301818387803b158015610c5c57600080fd5b601354600160a060020a031681565b600160a060020a039182166000908152600c6020908152604080832093909416825291909152205460ff1690565b600080808311611f8c57600080fd5b6007805484908110611f9a57fe5b60009182526020918290206040805161010081018252600290930290910180548352600181015467ffffffffffffffff808216958501959095526801000000000000000081049094169183019190915263ffffffff608060020a84048116606084015260a060020a84048116608084015260c060020a84041660a083015261ffff60e060020a8404811660c084015260f060020a90930490921660e082015290915061204590612467565b9392505050565b600090815260086020526040902054600160a060020a0316151590565b6000918252600a60205260409091208054600160a060020a031916600160a060020a03909216919091179055565b600090815260086020526040902054600160a060020a0391821691161490565b6000806120c383611336565b905080600160a060020a031684600160a060020a031614806120fe575083600160a060020a03166120f3846109fd565b600160a060020a0316145b8061210e575061210e8185611f4f565b949350505050565b81600160a060020a031661212982611336565b600160a060020a03161461213c57600080fd5b6000818152600a6020526040902054600160a060020a031615611e87576000908152600a602052604090208054600160a060020a031916905550565b81600160a060020a031661218b82611336565b600160a060020a03161461219e57600080fd5b600160a060020a0382166000908152600960205260409020546121c890600163ffffffff612c8516565b600160a060020a039092166000908152600960209081526040808320949094559181526008909152208054600160a060020a0319169055565b600081815260086020526040902054600160a060020a03161561222357600080fd5b60008181526008602090815260408083208054600160a060020a031916600160a060020a03871690811790915583526009909152902054612265906001612c9c565b600160a060020a0390921660009081526009602052604090209190915550565b600080600060078581548110151561229957fe5b906000526020600020906002020191506007848154811015156122b857fe5b90600052602060002090600202019050611b0e82868387612496565b6000806007838154811015156122e657fe5b9060005260206000209060020201915060078481548110151561230557fe5b600091825260209091206002909102016001810180547bffffffff000000000000000000000000000000000000000000000000191660c060020a63ffffffff871602179055905061235582612cae565b61235e81612cae565b6000848152600b602090815260408083208054600160a060020a031990811690915586845281842080549091169055601180546001908101909155878452600883529281902054928401548151600160a060020a0390941684529183018790528281018690526801000000000000000090910467ffffffffffffffff166060830152517f241ea03ca20251805084d27d4440371c34a0b85ff108f6bb5611248f73818b80916080908290030190a150505050565b6000818152600860205260408082205484835290822054600160a060020a03918216911680821480611b0e57506000858152600b6020526040902054600160a060020a03908116908316149250505092915050565b60008160a0015163ffffffff16600014801561135a5750506040015167ffffffffffffffff4381169116111590565b6000818414156124a85750600061210e565b6001850154608060020a900463ffffffff168214806124d75750600185015460a060020a900463ffffffff1682145b156124e45750600061210e565b6001830154608060020a900463ffffffff168414806125135750600183015460a060020a900463ffffffff1684145b156125205750600061210e565b6001830154608060020a900463ffffffff16158061254d57506001850154608060020a900463ffffffff16155b1561255a5750600161210e565b60018581015490840154608060020a9182900463ffffffff908116929091041614806125a5575060018086015490840154608060020a900463ffffffff90811660a060020a90920416145b156125b25750600061210e565b6001808601549084015460a060020a900463ffffffff908116608060020a9092041614806125fd57506001858101549084015460a060020a9182900463ffffffff9081169290910416145b1561260a5750600061210e565b506001949350505050565b60008160a0015163ffffffff1660001415801561135a5750506040015167ffffffffffffffff4381169116111590565b600080612650613046565b600063ffffffff8916891461266457600080fd5b63ffffffff8816881461267657600080fd5b61ffff8716871461268657600080fd5b600287049250600d8361ffff16111561269e57600d92505b505060408051610100810182528581524267ffffffffffffffff90811660208301908152600093830184815263ffffffff8c8116606086019081528c82166080870190815260a0870188815261ffff8a811660c08a019081528f821660e08b01908152600780546001810182559c528a517fa66cc928b5edb82af9bd49922954155ab7b0942694bea4ce44661d9a8736c68860028e029081019190915598517fa66cc928b5edb82af9bd49922954155ab7b0942694bea4ce44661d9a8736c689909901805498519651955194519251915167ffffffffffffffff19909916998b16999099176fffffffffffffffff000000000000000019166801000000000000000096909a16959095029890981773ffffffff000000000000000000000000000000001916608060020a938616939093029290921777ffffffff0000000000000000000000000000000000000000191660a060020a91851691909102177bffffffff000000000000000000000000000000000000000000000000191660c060020a96841696909602959095177fffff0000ffffffffffffffffffffffffffffffffffffffffffffffffffffffff1660e060020a91861691909102177dffffffffffffffffffffffffffffffffffffffffffffffffffffffffffff1660f060020a92909416919091029290921790559091908116811461289c57600080fd5b60608281015160808085015185516040805187815263ffffffff95861660208201529490921684830152938301939093529151600160a060020a038816927f0a5311bd2a6608f08a180df2ee7c5946819a649b204b554bb8e39825b2c50ad5928290030190a261290c8582612d97565b98975050505050505050565b60008061292d85600160a060020a0316612ddd565b151561293c5760019150612a91565b6040517f150b7a020000000000000000000000000000000000000000000000000000000081523360048201818152600160a060020a03898116602485015260448401889052608060648501908152875160848601528751918a169463150b7a0294938c938b938b93909160a490910190602085019080838360005b838110156129cf5781810151838201526020016129b7565b50505050905090810190601f1680156129fc5780820380516001836020036101000a031916815260200191505b5095505050505050602060405180830381600087803b158015612a1e57600080fd5b505af1158015612a32573d6000803e3d6000fd5b505050506040513d6020811015612a4857600080fd5b50517bffffffffffffffffffffffffffffffffffffffffffffffffffffffff1981167f150b7a020000000000000000000000000000000000000000000000000000000014925090505b50949350505050565b60606000808281851515612ae35760408051808201909152600181527f300000000000000000000000000000000000000000000000000000000000000060208201529450612b84565b8593505b8315612afe57600190920191600a84049350612ae7565b826040519080825280601f01601f191660200182016040528015612b2c578160200160208202803883390190505b5091505060001982015b8515612b8057815160001982019160f860020a6030600a8a060102918491908110612b5d57fe5b906020010190600160f860020a031916908160001a905350600a86049550612b36565b8194505b50505050919050565b604080516020818101835260008083528351808301855281815284519283019094528152606092612045928692869290612de5565b600160a060020a03808316600081815260096020908152604080832080546001019055858352600890915290208054600160a060020a0319169091179055831615610cec57600160a060020a0383811660008181526009602090815260408083208054600019019055858352600b82528083208054600160a060020a0319908116909155600a9092528083208054909216909155518493861692917fddf252ad1be2c89b69c2b068fc378daa952ba7f163c4a11628f55a4df523b3ef91a4505050565b60008083831115612c9557600080fd5b5050900390565b60008282018381101561204557600080fd5b600654600182015443919060049060e060020a900461ffff16600e8110612cd157fe5b600891828204019190066004029054906101000a900463ffffffff1663ffffffff16811515612cfc57fe5b6001840180546fffffffffffffffff0000000000000000191668010000000000000000939092049390930167ffffffffffffffff16919091021790819055600d60e060020a90910461ffff161015612d94576001818101805461ffff60e060020a8083048216909401169092027fffff0000ffffffffffffffffffffffffffffffffffffffffffffffffffffffff9092169190911790555b50565b612da18282612201565b6040518190600160a060020a038416906000907fddf252ad1be2c89b69c2b068fc378daa952ba7f163c4a11628f55a4df523b3ef908290a45050565b6000903b1190565b6060806060806060806060806000808e98508d97508c96508b95508a94508451865188518a518c51010101016040519080825280601f01601f191660200182016040528015612e3e578160200160208202803883390190505b50935083925060009150600090505b8851811015612eab578881815181101515612e6457fe5b90602001015160f860020a900460f860020a028383806001019450815181101515612e8b57fe5b906020010190600160f860020a031916908160001a905350600101612e4d565b5060005b8751811015612f0d578781815181101515612ec657fe5b90602001015160f860020a900460f860020a028383806001019450815181101515612eed57fe5b906020010190600160f860020a031916908160001a905350600101612eaf565b5060005b8651811015612f6f578681815181101515612f2857fe5b90602001015160f860020a900460f860020a028383806001019450815181101515612f4f57fe5b906020010190600160f860020a031916908160001a905350600101612f11565b5060005b8551811015612fd1578581815181101515612f8a57fe5b90602001015160f860020a900460f860020a028383806001019450815181101515612fb157fe5b906020010190600160f860020a031916908160001a905350600101612f73565b5060005b8451811015613033578481815181101515612fec57fe5b90602001015160f860020a900460f860020a02838380600101945081518110151561301357fe5b906020010190600160f860020a031916908160001a905350600101612fd5565b50909d9c50505050505050505050505050565b6040805161010081018252600080825260208201819052918101829052606081018290526080810182905260a0810182905260c0810182905260e0810191909152905600a165627a7a7230582069ec9e3a52ad1c536a51f15feebc3d1cbf346fdfc4a6259c6961b5c74e2b698e0029",
  "source": "pragma solidity ^0.4.24;\n\nimport \"./KydySynthesizing.sol\";\nimport \"./Auction/ClockAuction.sol\";\nimport \"./Auction/SynthesizingClockAuction.sol\";\nimport \"./Auction/SaleClockAuction.sol\";\n\ncontract KydyAuction is KydySynthesizing {\n\n    SaleClockAuction public saleAuction;\n\n    SynthesizingClockAuction public synthesizingAuction;\n\n    function setSaleAuctionAddress(address _address) public onlyCEO {\n        SaleClockAuction candidateContract = SaleClockAuction(_address);\n\n        require(candidateContract.isSaleClockAuction());\n\n        saleAuction = candidateContract;\n    }\n\n    function setSynthesizingAuctionAddress(address _address) public onlyCEO {\n        SynthesizingClockAuction candidateContract = SynthesizingClockAuction(_address);\n\n        require(candidateContract.isSynthesizingClockAuction());\n\n        synthesizingAuction = candidateContract;\n    }\n\n    function createSaleAuction(\n        uint256 _kydyId,\n        uint256 _price\n    )\n        public\n        whenNotPaused\n    {\n        require(_owns(msg.sender, _kydyId));\n        approve(saleAuction, _kydyId);\n        saleAuction.createAuction(\n            _kydyId,\n            _price,\n            msg.sender\n        );\n    }\n\n    function createSynthesizingAuction(\n        uint256 _kydyId,\n        uint256 _price\n    )\n        public\n        whenNotPaused\n    {\n        require(_owns(msg.sender, _kydyId));\n        require(isReadyToSynthesize(_kydyId));\n        approve(synthesizingAuction, _kydyId);\n        synthesizingAuction.createAuction(\n            _kydyId,\n            _price,\n            msg.sender\n        );\n    }\n\n    function bidOnSynthesizingAuction(\n        uint256 _yangId,\n        uint256 _yinId\n    )\n        public\n        payable\n        whenNotPaused\n    {\n        require(_owns(msg.sender, _yinId));\n        require(isReadyToSynthesize(_yinId));\n        require(_canSynthesizeWithViaAuction(_yinId, _yangId));\n        uint256 currPrice = synthesizingAuction.getCurrentPrice(_yangId);\n\n        require (msg.value >= currPrice + autoBirthFee);\n\n        synthesizingAuction.bid.value(msg.value - autoBirthFee)(_yangId);\n        _synthesizeWith(uint32(_yinId), uint32(_yangId));\n    }\n\n    function withdrawAuctionBalances() external onlyCOO {\n        saleAuction.withdrawBalance();\n        synthesizingAuction.withdrawBalance();\n    }\n\n    function cancelSaleAuction(\n        uint256 _kydyId\n    )\n        public\n        whenNotPaused\n    {\n        require(_owns(saleAuction, _kydyId));\n        address _seller = msg.sender;\n        _approve(_kydyId, _seller);\n        saleAuction.cancelAuction(_kydyId, _seller);\n    }\n\n    function cancelSynthesizingAuction(\n        uint256 _kydyId\n    )\n        public\n        whenNotPaused\n    {\n        require(_owns(synthesizingAuction, _kydyId));\n        address _seller = msg.sender;\n        _approve(_kydyId, _seller);\n        synthesizingAuction.cancelAuction(_kydyId, _seller);\n    }\n}\n",
  "sourcePath": "/Users/Keki/Vrexlab/kydy-solidity/contracts/KydyAuction.sol",
  "compiler": {
    "name": "solc",
    "version": "0.4.24+commit.e67f0147.Emscripten.clang"
  },
  "schemaVersion": "2.0.1",
  "updatedAt": "2018-12-17T03:59:06.929Z"
}