{
  "contractName": "KydyTravelData",
  "abi": [
    {
      "constant": true,
      "inputs": [],
      "name": "round",
      "outputs": [
        {
          "name": "",
          "type": "uint256"
        }
      ],
      "payable": false,
      "stateMutability": "view",
      "type": "function"
    },
    {
      "constant": true,
      "inputs": [
        {
          "name": "",
          "type": "address"
        }
      ],
      "name": "TTProductionSnapshot",
      "outputs": [
        {
          "name": "",
          "type": "uint256"
        }
      ],
      "payable": false,
      "stateMutability": "view",
      "type": "function"
    },
    {
      "constant": false,
      "inputs": [],
      "name": "renounceOwnership",
      "outputs": [],
      "payable": false,
      "stateMutability": "nonpayable",
      "type": "function"
    },
    {
      "constant": true,
      "inputs": [],
      "name": "owner",
      "outputs": [
        {
          "name": "",
          "type": "address"
        }
      ],
      "payable": false,
      "stateMutability": "view",
      "type": "function"
    },
    {
      "constant": true,
      "inputs": [],
      "name": "isOwner",
      "outputs": [
        {
          "name": "",
          "type": "bool"
        }
      ],
      "payable": false,
      "stateMutability": "view",
      "type": "function"
    },
    {
      "constant": true,
      "inputs": [
        {
          "name": "",
          "type": "address"
        }
      ],
      "name": "lastClaimedRound",
      "outputs": [
        {
          "name": "",
          "type": "uint256"
        }
      ],
      "payable": false,
      "stateMutability": "view",
      "type": "function"
    },
    {
      "constant": true,
      "inputs": [
        {
          "name": "",
          "type": "uint256"
        }
      ],
      "name": "travelSeeds",
      "outputs": [
        {
          "name": "",
          "type": "uint256"
        }
      ],
      "payable": false,
      "stateMutability": "view",
      "type": "function"
    },
    {
      "constant": true,
      "inputs": [],
      "name": "totalProduction",
      "outputs": [
        {
          "name": "",
          "type": "uint256"
        }
      ],
      "payable": false,
      "stateMutability": "view",
      "type": "function"
    },
    {
      "constant": false,
      "inputs": [
        {
          "name": "newOwner",
          "type": "address"
        }
      ],
      "name": "transferOwnership",
      "outputs": [],
      "payable": false,
      "stateMutability": "nonpayable",
      "type": "function"
    },
    {
      "anonymous": false,
      "inputs": [
        {
          "indexed": true,
          "name": "previousOwner",
          "type": "address"
        },
        {
          "indexed": true,
          "name": "newOwner",
          "type": "address"
        }
      ],
      "name": "OwnershipTransferred",
      "type": "event"
    },
    {
      "constant": true,
      "inputs": [],
      "name": "isKydyTravelData",
      "outputs": [
        {
          "name": "",
          "type": "bool"
        }
      ],
      "payable": false,
      "stateMutability": "pure",
      "type": "function"
    },
    {
      "constant": false,
      "inputs": [
        {
          "name": "_seed",
          "type": "uint256"
        }
      ],
      "name": "setNewTravelSeed",
      "outputs": [],
      "payable": false,
      "stateMutability": "nonpayable",
      "type": "function"
    },
    {
      "constant": false,
      "inputs": [
        {
          "name": "_user",
          "type": "address"
        },
        {
          "name": "_production",
          "type": "uint256"
        }
      ],
      "name": "setTTProductionOf",
      "outputs": [],
      "payable": false,
      "stateMutability": "nonpayable",
      "type": "function"
    },
    {
      "constant": false,
      "inputs": [
        {
          "name": "_production",
          "type": "uint256"
        }
      ],
      "name": "setTotalProduction",
      "outputs": [],
      "payable": false,
      "stateMutability": "nonpayable",
      "type": "function"
    },
    {
      "constant": false,
      "inputs": [
        {
          "name": "_user",
          "type": "address"
        },
        {
          "name": "_round",
          "type": "uint256"
        }
      ],
      "name": "setLastClaimedRound",
      "outputs": [],
      "payable": false,
      "stateMutability": "nonpayable",
      "type": "function"
    }
  ],
  "bytecode": "0x6080604081905260008054600160a060020a0319163317808255600160a060020a0316917f8be0079c531659141344cd1fd0a4f28419497f9722a3daafe3b4186f6b6457e0908290a36104c7806100576000396000f3006080604052600436106100cf5763ffffffff7c0100000000000000000000000000000000000000000000000000000000600035041663146ca53181146100d45780632bdd3681146100fb5780634b057a01146101245780635334b76214610145578063715018a61461016b5780638481345b146101805780638da5cb5b146101985780638f32d59b146101c95780638f76a1f7146101de5780638f826557146101ff578063b404926614610223578063c3f67cf71461023b578063e7ad5d7914610253578063f2fde38b14610268575b600080fd5b3480156100e057600080fd5b506100e9610289565b60408051918252519081900360200190f35b34801561010757600080fd5b5061011061028f565b604080519115158252519081900360200190f35b34801561013057600080fd5b506100e9600160a060020a0360043516610294565b34801561015157600080fd5b50610169600160a060020a03600435166024356102a6565b005b34801561017757600080fd5b506101696102d5565b34801561018c57600080fd5b5061016960043561033f565b3480156101a457600080fd5b506101ad61036e565b60408051600160a060020a039092168252519081900360200190f35b3480156101d557600080fd5b5061011061037d565b3480156101ea57600080fd5b506100e9600160a060020a036004351661038e565b34801561020b57600080fd5b50610169600160a060020a03600435166024356103a0565b34801561022f57600080fd5b506100e96004356103cf565b34801561024757600080fd5b506101696004356103e1565b34801561025f57600080fd5b506100e96103f9565b34801561027457600080fd5b50610169600160a060020a03600435166103ff565b60025481565b600190565b60056020526000908152604090205481565b6102ae61037d565b15156102b957600080fd5b600160a060020a03909116600090815260056020526040902055565b6102dd61037d565b15156102e857600080fd5b60008054604051600160a060020a03909116907f8be0079c531659141344cd1fd0a4f28419497f9722a3daafe3b4186f6b6457e0908390a36000805473ffffffffffffffffffffffffffffffffffffffff19169055565b61034761037d565b151561035257600080fd5b6002805460010190819055600090815260046020526040902055565b600054600160a060020a031690565b600054600160a060020a0316331490565b60066020526000908152604090205481565b6103a861037d565b15156103b357600080fd5b600160a060020a03909116600090815260066020526040902055565b60046020526000908152604090205481565b6103e961037d565b15156103f457600080fd5b600355565b60035481565b61040761037d565b151561041257600080fd5b61041b8161041e565b50565b600160a060020a038116151561043357600080fd5b60008054604051600160a060020a03808516939216917f8be0079c531659141344cd1fd0a4f28419497f9722a3daafe3b4186f6b6457e091a36000805473ffffffffffffffffffffffffffffffffffffffff1916600160a060020a03929092169190911790555600a165627a7a7230582082aa7ce82fb0f06230cebfa49bc605ab28ff93522fb4a99ce21693ae863b44690029",
  "source": "pragma solidity 0.4.24;\n\nimport \"openzeppelin-solidity/contracts/ownership/Ownable.sol\";\n\ncontract KydyTravelData is Ownable {\n\n    address private coreAddr;\n\n    uint256 public round;\n    uint256 public totalProduction;\n\n    mapping (uint256 => uint256) public travelSeeds;\n    mapping (address => uint256) public TTProductionSnapshot;\n    mapping (address => uint256) public lastClaimedRound;\n\n    function isKydyTravelData() public pure returns (bool) {\n        return true;\n    }\n\n    function setNewTravelSeed(uint256 _seed) public onlyOwner {\n        round += 1;\n        travelSeeds[round] = _seed;\n    }\n\n    function setTTProductionOf(address _user, uint256 _production) public onlyOwner {\n        TTProductionSnapshot[_user] = _production;\n    }\n\n    function setTotalProduction(uint256 _production) public onlyOwner {\n        totalProduction = _production;\n    }\n\n    function setLastClaimedRound(address _user, uint256 _round) public onlyOwner {\n        lastClaimedRound[_user] = _round;\n    }\n}",
  "sourcePath": "/Users/Keki/Vrexlab/kydy-solidity/contracts/Travel/KydyTravelData.sol",
  "compiler": {
    "name": "solc",
    "version": "0.4.24+commit.e67f0147.Emscripten.clang"
  },
  "schemaVersion": "2.0.1",
  "updatedAt": "2018-12-13T10:21:24.761Z"
}