{
  "contractName": "KydyOwnership",
  "abi": [
    {
      "constant": true,
      "inputs": [
        {
          "name": "interfaceId",
          "type": "bytes4"
        }
      ],
      "name": "supportsInterface",
      "outputs": [
        {
          "name": "",
          "type": "bool"
        }
      ],
      "payable": false,
      "stateMutability": "view",
      "type": "function"
    },
    {
      "constant": true,
      "inputs": [],
      "name": "cfoAddress",
      "outputs": [
        {
          "name": "",
          "type": "address"
        }
      ],
      "payable": false,
      "stateMutability": "view",
      "type": "function"
    },
    {
      "constant": true,
      "inputs": [
        {
          "name": "tokenId",
          "type": "uint256"
        }
      ],
      "name": "getApproved",
      "outputs": [
        {
          "name": "",
          "type": "address"
        }
      ],
      "payable": false,
      "stateMutability": "view",
      "type": "function"
    },
    {
      "constant": true,
      "inputs": [],
      "name": "ceoAddress",
      "outputs": [
        {
          "name": "",
          "type": "address"
        }
      ],
      "payable": false,
      "stateMutability": "view",
      "type": "function"
    },
    {
      "constant": false,
      "inputs": [
        {
          "name": "_newCEO",
          "type": "address"
        }
      ],
      "name": "setCEO",
      "outputs": [],
      "payable": false,
      "stateMutability": "nonpayable",
      "type": "function"
    },
    {
      "constant": false,
      "inputs": [
        {
          "name": "_newCOO",
          "type": "address"
        }
      ],
      "name": "setCOO",
      "outputs": [],
      "payable": false,
      "stateMutability": "nonpayable",
      "type": "function"
    },
    {
      "constant": false,
      "inputs": [],
      "name": "unpause",
      "outputs": [],
      "payable": false,
      "stateMutability": "nonpayable",
      "type": "function"
    },
    {
      "constant": false,
      "inputs": [
        {
          "name": "_newCFO",
          "type": "address"
        }
      ],
      "name": "setCFO",
      "outputs": [],
      "payable": false,
      "stateMutability": "nonpayable",
      "type": "function"
    },
    {
      "constant": true,
      "inputs": [
        {
          "name": "",
          "type": "uint256"
        }
      ],
      "name": "kydyIndexToOwner",
      "outputs": [
        {
          "name": "",
          "type": "address"
        }
      ],
      "payable": false,
      "stateMutability": "view",
      "type": "function"
    },
    {
      "constant": false,
      "inputs": [
        {
          "name": "secs",
          "type": "uint256"
        }
      ],
      "name": "setSecondsPerBlock",
      "outputs": [],
      "payable": false,
      "stateMutability": "nonpayable",
      "type": "function"
    },
    {
      "constant": true,
      "inputs": [],
      "name": "paused",
      "outputs": [
        {
          "name": "",
          "type": "bool"
        }
      ],
      "payable": false,
      "stateMutability": "view",
      "type": "function"
    },
    {
      "constant": true,
      "inputs": [
        {
          "name": "_tokenId",
          "type": "uint256"
        }
      ],
      "name": "ownerOf",
      "outputs": [
        {
          "name": "",
          "type": "address"
        }
      ],
      "payable": false,
      "stateMutability": "view",
      "type": "function"
    },
    {
      "constant": true,
      "inputs": [],
      "name": "secondsPerBlock",
      "outputs": [
        {
          "name": "",
          "type": "uint256"
        }
      ],
      "payable": false,
      "stateMutability": "view",
      "type": "function"
    },
    {
      "constant": true,
      "inputs": [
        {
          "name": "",
          "type": "uint256"
        }
      ],
      "name": "kydyIndexToApproved",
      "outputs": [
        {
          "name": "",
          "type": "address"
        }
      ],
      "payable": false,
      "stateMutability": "view",
      "type": "function"
    },
    {
      "constant": false,
      "inputs": [],
      "name": "pause",
      "outputs": [],
      "payable": false,
      "stateMutability": "nonpayable",
      "type": "function"
    },
    {
      "constant": true,
      "inputs": [
        {
          "name": "",
          "type": "uint256"
        }
      ],
      "name": "synthesizeAllowedToAddress",
      "outputs": [
        {
          "name": "",
          "type": "address"
        }
      ],
      "payable": false,
      "stateMutability": "view",
      "type": "function"
    },
    {
      "constant": true,
      "inputs": [
        {
          "name": "",
          "type": "uint256"
        }
      ],
      "name": "cooldowns",
      "outputs": [
        {
          "name": "",
          "type": "uint32"
        }
      ],
      "payable": false,
      "stateMutability": "view",
      "type": "function"
    },
    {
      "constant": false,
      "inputs": [
        {
          "name": "to",
          "type": "address"
        },
        {
          "name": "approved",
          "type": "bool"
        }
      ],
      "name": "setApprovalForAll",
      "outputs": [],
      "payable": false,
      "stateMutability": "nonpayable",
      "type": "function"
    },
    {
      "constant": true,
      "inputs": [],
      "name": "cooAddress",
      "outputs": [
        {
          "name": "",
          "type": "address"
        }
      ],
      "payable": false,
      "stateMutability": "view",
      "type": "function"
    },
    {
      "constant": true,
      "inputs": [
        {
          "name": "owner",
          "type": "address"
        },
        {
          "name": "operator",
          "type": "address"
        }
      ],
      "name": "isApprovedForAll",
      "outputs": [
        {
          "name": "",
          "type": "bool"
        }
      ],
      "payable": false,
      "stateMutability": "view",
      "type": "function"
    },
    {
      "inputs": [],
      "payable": false,
      "stateMutability": "nonpayable",
      "type": "constructor"
    },
    {
      "anonymous": false,
      "inputs": [
        {
          "indexed": true,
          "name": "owner",
          "type": "address"
        },
        {
          "indexed": false,
          "name": "kydyId",
          "type": "uint256"
        },
        {
          "indexed": false,
          "name": "yinId",
          "type": "uint256"
        },
        {
          "indexed": false,
          "name": "yangId",
          "type": "uint256"
        },
        {
          "indexed": false,
          "name": "genes",
          "type": "uint256"
        }
      ],
      "name": "Birth",
      "type": "event"
    },
    {
      "anonymous": false,
      "inputs": [
        {
          "indexed": true,
          "name": "_from",
          "type": "address"
        },
        {
          "indexed": true,
          "name": "_to",
          "type": "address"
        },
        {
          "indexed": true,
          "name": "_tokenId",
          "type": "uint256"
        }
      ],
      "name": "Transfer",
      "type": "event"
    },
    {
      "anonymous": false,
      "inputs": [
        {
          "indexed": true,
          "name": "_owner",
          "type": "address"
        },
        {
          "indexed": true,
          "name": "_approved",
          "type": "address"
        },
        {
          "indexed": true,
          "name": "_tokenId",
          "type": "uint256"
        }
      ],
      "name": "Approval",
      "type": "event"
    },
    {
      "anonymous": false,
      "inputs": [
        {
          "indexed": true,
          "name": "_owner",
          "type": "address"
        },
        {
          "indexed": true,
          "name": "_operator",
          "type": "address"
        },
        {
          "indexed": false,
          "name": "_approved",
          "type": "bool"
        }
      ],
      "name": "ApprovalForAll",
      "type": "event"
    },
    {
      "anonymous": false,
      "inputs": [
        {
          "indexed": false,
          "name": "newContract",
          "type": "address"
        }
      ],
      "name": "ContractUpgrade",
      "type": "event"
    },
    {
      "constant": false,
      "inputs": [
        {
          "name": "_kydyId",
          "type": "uint256"
        },
        {
          "name": "_recipient",
          "type": "address"
        }
      ],
      "name": "rescueLostKydy",
      "outputs": [],
      "payable": false,
      "stateMutability": "nonpayable",
      "type": "function"
    },
    {
      "constant": true,
      "inputs": [
        {
          "name": "_owner",
          "type": "address"
        }
      ],
      "name": "balanceOf",
      "outputs": [
        {
          "name": "",
          "type": "uint256"
        }
      ],
      "payable": false,
      "stateMutability": "view",
      "type": "function"
    },
    {
      "constant": false,
      "inputs": [
        {
          "name": "to",
          "type": "address"
        },
        {
          "name": "tokenId",
          "type": "uint256"
        }
      ],
      "name": "approve",
      "outputs": [],
      "payable": false,
      "stateMutability": "nonpayable",
      "type": "function"
    },
    {
      "constant": false,
      "inputs": [
        {
          "name": "from",
          "type": "address"
        },
        {
          "name": "to",
          "type": "address"
        },
        {
          "name": "tokenId",
          "type": "uint256"
        }
      ],
      "name": "transferFrom",
      "outputs": [],
      "payable": false,
      "stateMutability": "nonpayable",
      "type": "function"
    },
    {
      "constant": false,
      "inputs": [
        {
          "name": "from",
          "type": "address"
        },
        {
          "name": "to",
          "type": "address"
        },
        {
          "name": "tokenId",
          "type": "uint256"
        }
      ],
      "name": "safeTransferFrom",
      "outputs": [],
      "payable": false,
      "stateMutability": "nonpayable",
      "type": "function"
    },
    {
      "constant": false,
      "inputs": [
        {
          "name": "from",
          "type": "address"
        },
        {
          "name": "to",
          "type": "address"
        },
        {
          "name": "tokenId",
          "type": "uint256"
        },
        {
          "name": "_data",
          "type": "bytes"
        }
      ],
      "name": "safeTransferFrom",
      "outputs": [],
      "payable": false,
      "stateMutability": "nonpayable",
      "type": "function"
    },
    {
      "constant": true,
      "inputs": [],
      "name": "name",
      "outputs": [
        {
          "name": "",
          "type": "string"
        }
      ],
      "payable": false,
      "stateMutability": "view",
      "type": "function"
    },
    {
      "constant": true,
      "inputs": [],
      "name": "symbol",
      "outputs": [
        {
          "name": "",
          "type": "string"
        }
      ],
      "payable": false,
      "stateMutability": "view",
      "type": "function"
    },
    {
      "constant": true,
      "inputs": [
        {
          "name": "tokenId",
          "type": "uint256"
        }
      ],
      "name": "tokenURI",
      "outputs": [
        {
          "name": "",
          "type": "string"
        }
      ],
      "payable": false,
      "stateMutability": "view",
      "type": "function"
    },
    {
      "constant": true,
      "inputs": [],
      "name": "totalSupply",
      "outputs": [
        {
          "name": "",
          "type": "uint256"
        }
      ],
      "payable": false,
      "stateMutability": "view",
      "type": "function"
    },
    {
      "constant": true,
      "inputs": [
        {
          "name": "_owner",
          "type": "address"
        }
      ],
      "name": "tokensOfOwner",
      "outputs": [
        {
          "name": "ownerTokens",
          "type": "uint256[]"
        }
      ],
      "payable": false,
      "stateMutability": "view",
      "type": "function"
    }
  ],
  "bytecode": "0x6002805460a060020a60ff0219169055610240604052603c6080908152607860a05261012c60c05261025860e05261070861010052610e1061012052611c2061014052613840610160526170806101805261e1006101a052620151806101c0526202a3006101e052620546006102005262093a80610220526200008790600490600e620002a7565b50600f6006556040805180820190915260078082527f44797665727365000000000000000000000000000000000000000000000000006020909201918252620000d391600d916200034a565b506040805180820190915260048082527f4b5944590000000000000000000000000000000000000000000000000000000060209092019182526200011a91600e916200034a565b506040805160608101825260298082527f687474703a2f2f746573746170692e64797665722e73652f6170692f4b796479602083019081527f4d657461646174612f000000000000000000000000000000000000000000000092909301919091526200018991600f916200034a565b503480156200019757600080fd5b50620001cc7f01ffc9a7000000000000000000000000000000000000000000000000000000006401000000006200023a810204565b620002007f80ac58cd000000000000000000000000000000000000000000000000000000006401000000006200023a810204565b620002347f5b5e139f000000000000000000000000000000000000000000000000000000006401000000006200023a810204565b6200040f565b7fffffffff0000000000000000000000000000000000000000000000000000000080821614156200026a57600080fd5b7fffffffff00000000000000000000000000000000000000000000000000000000166000908152600360205260409020805460ff19166001179055565b600283019183908215620003385791602002820160005b838211156200030457835183826101000a81548163ffffffff021916908363ffffffff1602179055509260200192600401602081600301049283019260010302620002be565b8015620003365782816101000a81549063ffffffff021916905560040160208160030104928301926001030262000304565b505b5062000346929150620003cb565b5090565b828054600181600116156101000203166002900490600052602060002090601f016020900481019282601f106200038d57805160ff1916838001178555620003bd565b82800160010185558215620003bd579182015b82811115620003bd578251825591602001919060010190620003a0565b5062000346929150620003f2565b620003ef91905b808211156200034657805463ffffffff19168155600101620003d2565b90565b620003ef91905b80821115620003465760008155600101620003f9565b6117a8806200041f6000396000f30060806040526004361061018a5763ffffffff7c010000000000000000000000000000000000000000000000000000000060003504166301ffc9a7811461018f5780630519ce79146101da57806306fdde031461020b578063081812fc14610295578063095ea7b3146102ad5780630a0f8168146102d357806318160ddd146102e857806323b872dd1461030f57806327d7874c146103395780632ba73c151461035a5780633f4ba83a1461037b57806342842e0e146103905780634e0a3379146103ba5780635627cdcb146103db5780635663896e146103f35780635c975abb1461040b5780636352211e1461042057806370a08231146104385780637a7d493714610459578063816f17711461046e5780638456cb59146104865780638462151c1461049b5780638f9f49b61461050c57806395d89b41146105245780639d6fac6f14610539578063a22cb4651461056a578063b047fb5014610590578063b88d4fde146105a5578063c87b56dd14610614578063cd47f3901461062c578063e985e9c514610650575b600080fd5b34801561019b57600080fd5b506101c67bffffffffffffffffffffffffffffffffffffffffffffffffffffffff1960043516610677565b604080519115158252519081900360200190f35b3480156101e657600080fd5b506101ef6106ab565b60408051600160a060020a039092168252519081900360200190f35b34801561021757600080fd5b506102206106ba565b6040805160208082528351818301528351919283929083019185019080838360005b8381101561025a578181015183820152602001610242565b50505050905090810190601f1680156102875780820380516001836020036101000a031916815260200191505b509250505060405180910390f35b3480156102a157600080fd5b506101ef600435610750565b3480156102b957600080fd5b506102d1600160a060020a0360043516602435610782565b005b3480156102df57600080fd5b506101ef61081f565b3480156102f457600080fd5b506102fd61082e565b60408051918252519081900360200190f35b34801561031b57600080fd5b506102d1600160a060020a0360043581169060243516604435610838565b34801561034557600080fd5b506102d1600160a060020a03600435166108f2565b34801561036657600080fd5b506102d1600160a060020a0360043516610940565b34801561038757600080fd5b506102d161098e565b34801561039c57600080fd5b506102d1600160a060020a03600435811690602435166044356109dd565b3480156103c657600080fd5b506102d1600160a060020a03600435166109fe565b3480156103e757600080fd5b506101ef600435610a4c565b3480156103ff57600080fd5b506102d1600435610a67565b34801561041757600080fd5b506101c6610ac3565b34801561042c57600080fd5b506101ef600435610ad3565b34801561044457600080fd5b506102fd600160a060020a0360043516610afd565b34801561046557600080fd5b506102fd610b30565b34801561047a57600080fd5b506101ef600435610b36565b34801561049257600080fd5b506102d1610b51565b3480156104a757600080fd5b506104bc600160a060020a0360043516610bd1565b60408051602080825283518183015283519192839290830191858101910280838360005b838110156104f85781810151838201526020016104e0565b505050509050019250505060405180910390f35b34801561051857600080fd5b506101ef600435610ca3565b34801561053057600080fd5b50610220610cbe565b34801561054557600080fd5b50610551600435610d1f565b6040805163ffffffff9092168252519081900360200190f35b34801561057657600080fd5b506102d1600160a060020a03600435166024351515610d4c565b34801561059c57600080fd5b506101ef610dd0565b3480156105b157600080fd5b50604080516020601f6064356004818101359283018490048402850184019095528184526102d194600160a060020a038135811695602480359092169560443595369560849401918190840183828082843750949750610ddf9650505050505050565b34801561062057600080fd5b50610220600435610e07565b34801561063857600080fd5b506102d1600435600160a060020a0360243516610ebd565b34801561065c57600080fd5b506101c6600160a060020a0360043581169060243516610f0f565b7bffffffffffffffffffffffffffffffffffffffffffffffffffffffff191660009081526003602052604090205460ff1690565b600154600160a060020a031681565b600d8054604080516020601f60026000196101006001881615020190951694909404938401819004810282018101909252828152606093909290918301828280156107465780601f1061071b57610100808354040283529160200191610746565b820191906000526020600020905b81548152906001019060200180831161072957829003601f168201915b5050505050905090565b600061075b82610f3d565b151561076657600080fd5b506000908152600a6020526040902054600160a060020a031690565b600061078d82610ad3565b9050600160a060020a0383811690821614156107a857600080fd5b33600160a060020a03821614806107c457506107c48133610f0f565b15156107cf57600080fd5b6107d98284610f5a565b8183600160a060020a031682600160a060020a03167f8c5be1e5ebec7d5bd14f71427d1e84f3dd0314c0f7b2291e5b200ac8c7c3b92560405160405180910390a4505050565b600054600160a060020a031681565b6007546000190190565b6108423382610f88565b151561084d57600080fd5b600160a060020a038216151561086257600080fd5b61086c8382610fe7565b600160a060020a03831615610898576000818152600b602052604090208054600160a060020a03191690555b6108a28382611049565b6108ac82826110d2565b8082600160a060020a031684600160a060020a03167fddf252ad1be2c89b69c2b068fc378daa952ba7f163c4a11628f55a4df523b3ef60405160405180910390a4505050565b600054600160a060020a0316331461090957600080fd5b600160a060020a038116151561091e57600080fd5b60008054600160a060020a031916600160a060020a0392909216919091179055565b600054600160a060020a0316331461095757600080fd5b600160a060020a038116151561096c57600080fd5b60028054600160a060020a031916600160a060020a0392909216919091179055565b600054600160a060020a031633146109a557600080fd5b60025460a060020a900460ff1615156109bd57600080fd5b6002805474ff000000000000000000000000000000000000000019169055565b6109f98383836020604051908101604052806000815250610ddf565b505050565b600054600160a060020a03163314610a1557600080fd5b600160a060020a0381161515610a2a57600080fd5b60018054600160a060020a031916600160a060020a0392909216919091179055565b600860205260009081526040902054600160a060020a031681565b600254600160a060020a0316331480610a8a5750600054600160a060020a031633145b80610a9f5750600154600160a060020a031633145b1515610aaa57600080fd5b60045463ffffffff168110610abe57600080fd5b600655565b60025460a060020a900460ff1681565b600081815260086020526040812054600160a060020a0316801515610af757600080fd5b92915050565b6000600160a060020a0382161515610b1457600080fd5b50600160a060020a031660009081526009602052604090205490565b60065481565b600a60205260009081526040902054600160a060020a031681565b600254600160a060020a0316331480610b745750600054600160a060020a031633145b80610b895750600154600160a060020a031633145b1515610b9457600080fd5b60025460a060020a900460ff1615610bab57600080fd5b6002805474ff0000000000000000000000000000000000000000191660a060020a179055565b6060600060606000806000610be587610afd565b9450841515610c04576040805160008152602081019091529550610c99565b84604051908082528060200260200182016040528015610c2e578160200160208202803883390190505b509350610c3961082e565b925060009150600190505b828111610c9557600081815260086020526040902054600160a060020a0388811691161415610c8d57808483815181101515610c7c57fe5b602090810290910101526001909101905b600101610c44565b8395505b5050505050919050565b600b60205260009081526040902054600160a060020a031681565b600e8054604080516020601f60026000196101006001881615020190951694909404938401819004810282018101909252828152606093909290918301828280156107465780601f1061071b57610100808354040283529160200191610746565b600481600e8110610d2c57fe5b60089182820401919006600402915054906101000a900463ffffffff1681565b600160a060020a038216331415610d6257600080fd5b336000818152600c60209081526040808320600160a060020a03871680855290835292819020805460ff1916861515908117909155815190815290519293927f17307eab39ab6107e8899845ad3d59bd9653f200f220920489ca2b5937696c31929181900390910190a35050565b600254600160a060020a031681565b610dea848484610838565b610df684848484611156565b1515610e0157600080fd5b50505050565b6060610e1282610f3d565b1515610e1d57600080fd5b600f8054604080516020601f60026000196101006001881615020190951694909404938401819004810282018101909252828152610af79390929091830182828015610eaa5780601f10610e7f57610100808354040283529160200191610eaa565b820191906000526020600020905b815481529060010190602001808311610e8d57829003601f168201915b5050505050610eb8846112d8565b6113cb565b600254600160a060020a03163314610ed457600080fd5b60025460a060020a900460ff1615610eeb57600080fd5b610ef53083611407565b1515610f0057600080fd5b610f0b308284611427565b5050565b600160a060020a039182166000908152600c6020908152604080832093909416825291909152205460ff1690565b600090815260086020526040902054600160a060020a0316151590565b6000918252600a60205260409091208054600160a060020a031916600160a060020a03909216919091179055565b600080610f9483610ad3565b905080600160a060020a031684600160a060020a03161480610fcf575083600160a060020a0316610fc484610750565b600160a060020a0316145b80610fdf5750610fdf8185610f0f565b949350505050565b81600160a060020a0316610ffa82610ad3565b600160a060020a03161461100d57600080fd5b6000818152600a6020526040902054600160a060020a031615610f0b576000908152600a602052604090208054600160a060020a031916905550565b81600160a060020a031661105c82610ad3565b600160a060020a03161461106f57600080fd5b600160a060020a03821660009081526009602052604090205461109990600163ffffffff6114ea16565b600160a060020a039092166000908152600960209081526040808320949094559181526008909152208054600160a060020a0319169055565b600081815260086020526040902054600160a060020a0316156110f457600080fd5b60008181526008602090815260408083208054600160a060020a031916600160a060020a03871690811790915583526009909152902054611136906001611501565b600160a060020a0390921660009081526009602052604090209190915550565b60008061116b85600160a060020a0316611513565b151561117a57600191506112cf565b6040517f150b7a020000000000000000000000000000000000000000000000000000000081523360048201818152600160a060020a03898116602485015260448401889052608060648501908152875160848601528751918a169463150b7a0294938c938b938b93909160a490910190602085019080838360005b8381101561120d5781810151838201526020016111f5565b50505050905090810190601f16801561123a5780820380516001836020036101000a031916815260200191505b5095505050505050602060405180830381600087803b15801561125c57600080fd5b505af1158015611270573d6000803e3d6000fd5b505050506040513d602081101561128657600080fd5b50517bffffffffffffffffffffffffffffffffffffffffffffffffffffffff1981167f150b7a020000000000000000000000000000000000000000000000000000000014925090505b50949350505050565b606060008082818515156113215760408051808201909152600181527f3000000000000000000000000000000000000000000000000000000000000000602082015294506113c2565b8593505b831561133c57600190920191600a84049350611325565b826040519080825280601f01601f19166020018201604052801561136a578160200160208202803883390190505b5091505060001982015b85156113be57815160001982019160f860020a6030600a8a06010291849190811061139b57fe5b906020010190600160f860020a031916908160001a905350600a86049550611374565b8194505b50505050919050565b60408051602081810183526000808352835180830185528181528451928301909452815260609261140092869286929061151b565b9392505050565b600090815260086020526040902054600160a060020a0391821691161490565b600160a060020a03808316600081815260096020908152604080832080546001019055858352600890915290208054600160a060020a03191690911790558316156108ac57600160a060020a0383811660008181526009602090815260408083208054600019019055858352600b82528083208054600160a060020a0319908116909155600a9092528083208054909216909155518493861692917fddf252ad1be2c89b69c2b068fc378daa952ba7f163c4a11628f55a4df523b3ef91a4505050565b600080838311156114fa57600080fd5b5050900390565b60008282018381101561140057600080fd5b6000903b1190565b6060806060806060806060806000808e98508d97508c96508b95508a94508451865188518a518c51010101016040519080825280601f01601f191660200182016040528015611574578160200160208202803883390190505b50935083925060009150600090505b88518110156115e157888181518110151561159a57fe5b90602001015160f860020a900460f860020a0283838060010194508151811015156115c157fe5b906020010190600160f860020a031916908160001a905350600101611583565b5060005b87518110156116435787818151811015156115fc57fe5b90602001015160f860020a900460f860020a02838380600101945081518110151561162357fe5b906020010190600160f860020a031916908160001a9053506001016115e5565b5060005b86518110156116a557868181518110151561165e57fe5b90602001015160f860020a900460f860020a02838380600101945081518110151561168557fe5b906020010190600160f860020a031916908160001a905350600101611647565b5060005b85518110156117075785818151811015156116c057fe5b90602001015160f860020a900460f860020a0283838060010194508151811015156116e757fe5b906020010190600160f860020a031916908160001a9053506001016116a9565b5060005b845181101561176957848181518110151561172257fe5b90602001015160f860020a900460f860020a02838380600101945081518110151561174957fe5b906020010190600160f860020a031916908160001a90535060010161170b565b50909d9c505050505050505050505050505600a165627a7a723058202b51726d0983ae61b40d609604ec4b580d025c8bd46f14795866333ffb9af38e0029",
  "source": "pragma solidity ^0.4.24;\n\nimport \"./KydyBase.sol\";\nimport \"./ERC721Standard/ERC721TokenReceiver.sol\";\nimport \"./lib/Strings.sol\";\n\ncontract KydyOwnership is KydyBase {\n    using Strings for string;\n\n    string private _name = \"Dyverse\";\n    string private _symbol = \"KYDY\";\n\n    // Base Server Address for Token MetaData URI\n    string internal tokenURIBase = \"http://testapi.dyver.se/api/KydyMetadata/\";\n\n    // Equals to `bytes4(keccak256(\"onERC721Received(address,address,uint256,bytes)\"))`\n    // which can be also obtained as `ERC721TokenReceiver(0).onERC721Received.selector`\n    bytes4 private constant _ERC721_RECEIVED = 0x150b7a02;\n\n    bytes4 private constant _InterfaceId_ERC165 = 0x01ffc9a7;\n    /**\n     * 0x01ffc9a7 ===\n     *     bytes4(keccak256('supportsInterface(bytes4)'))\n     */\n\n    bytes4 private constant _InterfaceId_ERC721 = 0x80ac58cd;\n    /*\n     * 0x80ac58cd ===\n     *     bytes4(keccak256('balanceOf(address)')) ^\n     *     bytes4(keccak256('ownerOf(uint256)')) ^\n     *     bytes4(keccak256('approve(address,uint256)')) ^\n     *     bytes4(keccak256('getApproved(uint256)')) ^\n     *     bytes4(keccak256('setApprovalForAll(address,bool)')) ^\n     *     bytes4(keccak256('isApprovedForAll(address,address)')) ^\n     *     bytes4(keccak256('transferFrom(address,address,uint256)')) ^\n     *     bytes4(keccak256('safeTransferFrom(address,address,uint256)')) ^\n     *     bytes4(keccak256('safeTransferFrom(address,address,uint256,bytes)'))\n     */\n\n    bytes4 private constant _InterfaceId_ERC721Metadata = 0x5b5e139f;\n    /**\n     * 0x5b5e139f ===\n     *     bytes4(keccak256('name()')) ^\n     *     bytes4(keccak256('symbol()')) ^\n     *     bytes4(keccak256('tokenURI(uint256)'))\n     */\n\n    constructor() public {\n        _registerInterface(_InterfaceId_ERC165);\n        // register the supported interfaces to conform to ERC721 via ERC165\n        _registerInterface(_InterfaceId_ERC721);\n        // register the supported interfaces to conform to ERC721 via ERC165\n        _registerInterface(_InterfaceId_ERC721Metadata);\n    }\n\n    function _owns(address _claimant, uint256 _tokenId) internal view returns (bool) {\n        return kydyIndexToOwner[_tokenId] == _claimant;\n    }\n\n    function _approve(uint256 _tokenId, address _approved) internal {\n        kydyIndexToApproved[_tokenId] = _approved;\n    }\n\n    function rescueLostKydy(uint256 _kydyId, address _recipient) public onlyCOO whenNotPaused {\n        require(_owns(this, _kydyId));\n        _transfer(this, _recipient, _kydyId);\n    }\n\n    /**\n     * @dev Gets the balance of the specified address\n     * @param _owner address to query the balance of\n     * @return uint256 representing the amount owned by the passed address\n     */\n    function balanceOf(address _owner) public view returns (uint256) {\n        require(_owner != address(0));\n        return ownershipTokenCount[_owner];\n    }\n\n    /**\n     * @dev Approves another address to transfer the given token ID\n     * The zero address indicates there is no approved address.\n     * There can only be one approved address per token at a given time.\n     * Can only be called by the token owner or an approved operator.\n     * @param to address to be approved for the given token ID\n     * @param tokenId uint256 ID of the token to be approved\n     */\n    function approve(address to, uint256 tokenId) public {\n        address owner = ownerOf(tokenId);\n        require(to != owner);\n        require(msg.sender == owner || isApprovedForAll(owner, msg.sender));\n\n        _approve(tokenId, to);\n        emit Approval(owner, to, tokenId);\n    }\n\n    /**\n     * @dev Transfers the ownership of a given token ID to another address\n     * Usage of this method is discouraged, use `safeTransferFrom` whenever possible\n     * Requires the msg sender to be the owner, approved, or operator\n     * @param from current owner of the token\n     * @param to address to receive the ownership of the given token ID\n     * @param tokenId uint256 ID of the token to be transferred\n    */\n    function transferFrom(address from, address to, uint256 tokenId) public {\n        require(_isApprovedOrOwner(msg.sender, tokenId));\n        require(to != address(0));\n\n        _clearApproval(from, tokenId);\n        if (from != address(0)) { // from internal _transfer() before\n            delete synthesizeAllowedToAddress[tokenId];\n        }\n        _removeTokenFrom(from, tokenId);\n        _addTokenTo(to, tokenId);\n\n        emit Transfer(from, to, tokenId);\n    }\n\n    /**\n     * @dev Safely transfers the ownership of a given token ID to another address\n     * If the target address is a contract, it must implement `onERC721Received`,\n     * which is called upon a safe transfer, and return the magic value\n     * `bytes4(keccak256(\"onERC721Received(address,address,uint256,bytes)\"))`; otherwise,\n     * the transfer is reverted.\n     *\n     * Requires the msg sender to be the owner, approved, or operator\n     * @param from current owner of the token\n     * @param to address to receive the ownership of the given token ID\n     * @param tokenId uint256 ID of the token to be transferred\n    */\n    function safeTransferFrom(address from, address to, uint256 tokenId) public {\n        // solium-disable-next-line arg-overflow\n        safeTransferFrom(from, to, tokenId, \"\");\n    }\n\n    /**\n     * @dev Safely transfers the ownership of a given token ID to another address\n     * If the target address is a contract, it must implement `onERC721Received`,\n     * which is called upon a safe transfer, and return the magic value\n     * `bytes4(keccak256(\"onERC721Received(address,address,uint256,bytes)\"))`; otherwise,\n     * the transfer is reverted.\n     * Requires the msg sender to be the owner, approved, or operator\n     * @param from current owner of the token\n     * @param to address to receive the ownership of the given token ID\n     * @param tokenId uint256 ID of the token to be transferred\n     * @param _data bytes data to send along with a safe transfer check\n     */\n    function safeTransferFrom(address from, address to, uint256 tokenId, bytes _data) public {\n        transferFrom(from, to, tokenId);\n        // solium-disable-next-line arg-overflow\n        require(_checkOnERC721Received(from, to, tokenId, _data));\n    }\n\n    /**\n     * @dev Internal function to invoke `onERC721Received` on a target address\n     * The call is not executed if the target address is not a contract\n     * @param from address representing the previous owner of the given token ID\n     * @param to target address that will receive the tokens\n     * @param tokenId uint256 ID of the token to be transferred\n     * @param _data bytes optional data to send along with the call\n     * @return whether the call correctly returned the expected magic value\n     */\n    function _checkOnERC721Received(address from, address to, uint256 tokenId, bytes _data) internal returns (bool) {\n        if (!to.isContract()) {\n            return true;\n        }\n\n        bytes4 retval = ERC721TokenReceiver(to).onERC721Received(msg.sender, from, tokenId, _data);\n        return (retval == _ERC721_RECEIVED);\n    }\n\n    // ERC721Metadata (OPTIONAL)\n    \n    /**\n     * @dev Gets the token name\n     * @return string representing the token name\n     */\n    function name() external view returns (string) {\n        return _name;\n    }\n\n    /**\n     * @dev Gets the token symbol\n     * @return string representing the token symbol\n     */\n    function symbol() external view returns (string) {\n        return _symbol;\n    }\n\n    /**\n     * @dev Returns an URI for a given token ID\n     * Throws if the token ID does not exist. May return an empty string.\n     * @param tokenId uint256 ID of the token to query\n     */\n    function tokenURI(uint256 tokenId) external view returns (string) {\n        require(_exists(tokenId));\n        return Strings.strConcat(\n            tokenURIBase,\n            Strings.uint2str(tokenId)\n        );\n    }\n\n    /**\n     * @dev Gets the total amount of tokens stored by the contract\n     * @return uint256 representing the total amount of tokens\n     */\n    function totalSupply() public view returns (uint256) {\n        return kydys.length - 1;\n    }\n\n    // Never call this function in smart contract. It's only for web3.\n    function tokensOfOwner(address _owner) external view returns(uint256[] ownerTokens) {\n        uint256 tokenCount = balanceOf(_owner);\n\n        if (tokenCount == 0) {\n            // Return an empty array\n            return new uint256[](0);\n        } else {\n            uint256[] memory result = new uint256[](tokenCount);\n            uint256 totalKydys = totalSupply();\n            uint256 resultIndex = 0;\n\n            // All kydys have IDs starting at 1 and increasing sequentially up to the totalKydy count.\n            uint256 kydyId;\n\n            for (kydyId = 1; kydyId <= totalKydys; kydyId++) {\n                if (kydyIndexToOwner[kydyId] == _owner) {\n                    result[resultIndex] = kydyId;\n                    resultIndex++;\n                }\n            }\n\n            return result;\n        }\n    }\n}\n",
  "sourcePath": "/Users/Keki/Vrexlab/kydy-solidity/contracts/KydyOwnership.sol",
  "compiler": {
    "name": "solc",
    "version": "0.4.24+commit.e67f0147.Emscripten.clang"
  },
  "schemaVersion": "2.0.1",
  "updatedAt": "2018-12-17T03:59:06.964Z"
}