{
  "contractName": "KydyBreeding",
  "abi": [
    {
      "constant": true,
      "inputs": [],
      "name": "cfoAddress",
      "outputs": [
        {
          "name": "",
          "type": "address"
        }
      ],
      "payable": false,
      "stateMutability": "view",
      "type": "function"
    },
    {
      "constant": true,
      "inputs": [],
      "name": "name",
      "outputs": [
        {
          "name": "",
          "type": "string"
        }
      ],
      "payable": false,
      "stateMutability": "view",
      "type": "function"
    },
    {
      "constant": false,
      "inputs": [
        {
          "name": "_to",
          "type": "address"
        },
        {
          "name": "_tokenId",
          "type": "uint256"
        }
      ],
      "name": "approve",
      "outputs": [],
      "payable": false,
      "stateMutability": "nonpayable",
      "type": "function"
    },
    {
      "constant": true,
      "inputs": [],
      "name": "ceoAddress",
      "outputs": [
        {
          "name": "",
          "type": "address"
        }
      ],
      "payable": false,
      "stateMutability": "view",
      "type": "function"
    },
    {
      "constant": true,
      "inputs": [],
      "name": "implementsERC721",
      "outputs": [
        {
          "name": "",
          "type": "bool"
        }
      ],
      "payable": false,
      "stateMutability": "pure",
      "type": "function"
    },
    {
      "constant": true,
      "inputs": [],
      "name": "totalSupply",
      "outputs": [
        {
          "name": "",
          "type": "uint256"
        }
      ],
      "payable": false,
      "stateMutability": "view",
      "type": "function"
    },
    {
      "constant": false,
      "inputs": [
        {
          "name": "_from",
          "type": "address"
        },
        {
          "name": "_to",
          "type": "address"
        },
        {
          "name": "_tokenId",
          "type": "uint256"
        }
      ],
      "name": "transferFrom",
      "outputs": [],
      "payable": false,
      "stateMutability": "nonpayable",
      "type": "function"
    },
    {
      "constant": false,
      "inputs": [
        {
          "name": "_newCEO",
          "type": "address"
        }
      ],
      "name": "setCEO",
      "outputs": [],
      "payable": false,
      "stateMutability": "nonpayable",
      "type": "function"
    },
    {
      "constant": false,
      "inputs": [
        {
          "name": "_newCOO",
          "type": "address"
        }
      ],
      "name": "setCOO",
      "outputs": [],
      "payable": false,
      "stateMutability": "nonpayable",
      "type": "function"
    },
    {
      "constant": false,
      "inputs": [],
      "name": "unpause",
      "outputs": [],
      "payable": false,
      "stateMutability": "nonpayable",
      "type": "function"
    },
    {
      "constant": false,
      "inputs": [
        {
          "name": "_newCFO",
          "type": "address"
        }
      ],
      "name": "setCFO",
      "outputs": [],
      "payable": false,
      "stateMutability": "nonpayable",
      "type": "function"
    },
    {
      "constant": true,
      "inputs": [
        {
          "name": "",
          "type": "uint256"
        }
      ],
      "name": "kydyIndexToOwner",
      "outputs": [
        {
          "name": "",
          "type": "address"
        }
      ],
      "payable": false,
      "stateMutability": "view",
      "type": "function"
    },
    {
      "constant": false,
      "inputs": [
        {
          "name": "secs",
          "type": "uint256"
        }
      ],
      "name": "setSecondsPerBlock",
      "outputs": [],
      "payable": false,
      "stateMutability": "nonpayable",
      "type": "function"
    },
    {
      "constant": true,
      "inputs": [],
      "name": "paused",
      "outputs": [
        {
          "name": "",
          "type": "bool"
        }
      ],
      "payable": false,
      "stateMutability": "view",
      "type": "function"
    },
    {
      "constant": true,
      "inputs": [
        {
          "name": "_tokenId",
          "type": "uint256"
        }
      ],
      "name": "ownerOf",
      "outputs": [
        {
          "name": "owner",
          "type": "address"
        }
      ],
      "payable": false,
      "stateMutability": "view",
      "type": "function"
    },
    {
      "constant": true,
      "inputs": [
        {
          "name": "_owner",
          "type": "address"
        }
      ],
      "name": "balanceOf",
      "outputs": [
        {
          "name": "count",
          "type": "uint256"
        }
      ],
      "payable": false,
      "stateMutability": "view",
      "type": "function"
    },
    {
      "constant": true,
      "inputs": [],
      "name": "secondsPerBlock",
      "outputs": [
        {
          "name": "",
          "type": "uint256"
        }
      ],
      "payable": false,
      "stateMutability": "view",
      "type": "function"
    },
    {
      "constant": true,
      "inputs": [
        {
          "name": "",
          "type": "uint256"
        }
      ],
      "name": "kydyIndexToApproved",
      "outputs": [
        {
          "name": "",
          "type": "address"
        }
      ],
      "payable": false,
      "stateMutability": "view",
      "type": "function"
    },
    {
      "constant": false,
      "inputs": [],
      "name": "pause",
      "outputs": [],
      "payable": false,
      "stateMutability": "nonpayable",
      "type": "function"
    },
    {
      "constant": true,
      "inputs": [
        {
          "name": "_owner",
          "type": "address"
        }
      ],
      "name": "tokensOfOwner",
      "outputs": [
        {
          "name": "ownerTokens",
          "type": "uint256[]"
        }
      ],
      "payable": false,
      "stateMutability": "view",
      "type": "function"
    },
    {
      "constant": true,
      "inputs": [
        {
          "name": "",
          "type": "uint256"
        }
      ],
      "name": "synthesizeAllowedToAddress",
      "outputs": [
        {
          "name": "",
          "type": "address"
        }
      ],
      "payable": false,
      "stateMutability": "view",
      "type": "function"
    },
    {
      "constant": true,
      "inputs": [],
      "name": "symbol",
      "outputs": [
        {
          "name": "",
          "type": "string"
        }
      ],
      "payable": false,
      "stateMutability": "view",
      "type": "function"
    },
    {
      "constant": true,
      "inputs": [
        {
          "name": "",
          "type": "uint256"
        }
      ],
      "name": "cooldowns",
      "outputs": [
        {
          "name": "",
          "type": "uint32"
        }
      ],
      "payable": false,
      "stateMutability": "view",
      "type": "function"
    },
    {
      "constant": true,
      "inputs": [],
      "name": "pregnantKydys",
      "outputs": [
        {
          "name": "",
          "type": "uint256"
        }
      ],
      "payable": false,
      "stateMutability": "view",
      "type": "function"
    },
    {
      "constant": false,
      "inputs": [
        {
          "name": "_to",
          "type": "address"
        },
        {
          "name": "_tokenId",
          "type": "uint256"
        }
      ],
      "name": "transfer",
      "outputs": [],
      "payable": false,
      "stateMutability": "nonpayable",
      "type": "function"
    },
    {
      "constant": true,
      "inputs": [],
      "name": "cooAddress",
      "outputs": [
        {
          "name": "",
          "type": "address"
        }
      ],
      "payable": false,
      "stateMutability": "view",
      "type": "function"
    },
    {
      "constant": true,
      "inputs": [],
      "name": "autoBirthFee",
      "outputs": [
        {
          "name": "",
          "type": "uint256"
        }
      ],
      "payable": false,
      "stateMutability": "view",
      "type": "function"
    },
    {
      "constant": false,
      "inputs": [
        {
          "name": "_kydyId",
          "type": "uint256"
        },
        {
          "name": "_recipient",
          "type": "address"
        }
      ],
      "name": "rescueLostKydy",
      "outputs": [],
      "payable": false,
      "stateMutability": "nonpayable",
      "type": "function"
    },
    {
      "constant": true,
      "inputs": [],
      "name": "geneScience",
      "outputs": [
        {
          "name": "",
          "type": "address"
        }
      ],
      "payable": false,
      "stateMutability": "view",
      "type": "function"
    },
    {
      "anonymous": false,
      "inputs": [
        {
          "indexed": false,
          "name": "owner",
          "type": "address"
        },
        {
          "indexed": false,
          "name": "yinId",
          "type": "uint256"
        },
        {
          "indexed": false,
          "name": "yangId",
          "type": "uint256"
        },
        {
          "indexed": false,
          "name": "cooldownEndBlock",
          "type": "uint256"
        }
      ],
      "name": "Pregnant",
      "type": "event"
    },
    {
      "anonymous": false,
      "inputs": [
        {
          "indexed": true,
          "name": "from",
          "type": "address"
        },
        {
          "indexed": true,
          "name": "to",
          "type": "address"
        },
        {
          "indexed": true,
          "name": "tokenId",
          "type": "uint256"
        }
      ],
      "name": "Transfer",
      "type": "event"
    },
    {
      "anonymous": false,
      "inputs": [
        {
          "indexed": true,
          "name": "owner",
          "type": "address"
        },
        {
          "indexed": true,
          "name": "approved",
          "type": "address"
        },
        {
          "indexed": true,
          "name": "tokenId",
          "type": "uint256"
        }
      ],
      "name": "Approval",
      "type": "event"
    },
    {
      "anonymous": false,
      "inputs": [
        {
          "indexed": true,
          "name": "owner",
          "type": "address"
        },
        {
          "indexed": false,
          "name": "kydyId",
          "type": "uint256"
        },
        {
          "indexed": false,
          "name": "yinId",
          "type": "uint256"
        },
        {
          "indexed": false,
          "name": "yangId",
          "type": "uint256"
        },
        {
          "indexed": false,
          "name": "genes",
          "type": "uint256"
        }
      ],
      "name": "Birth",
      "type": "event"
    },
    {
      "anonymous": false,
      "inputs": [
        {
          "indexed": false,
          "name": "newContract",
          "type": "address"
        }
      ],
      "name": "ContractUpgrade",
      "type": "event"
    },
    {
      "constant": false,
      "inputs": [
        {
          "name": "_address",
          "type": "address"
        }
      ],
      "name": "setGeneScienceAddress",
      "outputs": [],
      "payable": false,
      "stateMutability": "nonpayable",
      "type": "function"
    },
    {
      "constant": false,
      "inputs": [
        {
          "name": "_addr",
          "type": "address"
        },
        {
          "name": "_yangId",
          "type": "uint256"
        }
      ],
      "name": "approveSynthesizing",
      "outputs": [],
      "payable": false,
      "stateMutability": "nonpayable",
      "type": "function"
    },
    {
      "constant": false,
      "inputs": [
        {
          "name": "val",
          "type": "uint256"
        }
      ],
      "name": "setAutoBirthFee",
      "outputs": [],
      "payable": false,
      "stateMutability": "nonpayable",
      "type": "function"
    },
    {
      "constant": true,
      "inputs": [
        {
          "name": "_kydyId",
          "type": "uint256"
        }
      ],
      "name": "isReadyToBreed",
      "outputs": [
        {
          "name": "",
          "type": "bool"
        }
      ],
      "payable": false,
      "stateMutability": "view",
      "type": "function"
    },
    {
      "constant": true,
      "inputs": [
        {
          "name": "_yinId",
          "type": "uint256"
        },
        {
          "name": "_yangId",
          "type": "uint256"
        }
      ],
      "name": "canBreedWith",
      "outputs": [
        {
          "name": "",
          "type": "bool"
        }
      ],
      "payable": false,
      "stateMutability": "view",
      "type": "function"
    },
    {
      "constant": false,
      "inputs": [
        {
          "name": "_yinId",
          "type": "uint256"
        },
        {
          "name": "_yangId",
          "type": "uint256"
        }
      ],
      "name": "breedWithAuto",
      "outputs": [],
      "payable": true,
      "stateMutability": "payable",
      "type": "function"
    },
    {
      "constant": false,
      "inputs": [
        {
          "name": "_yinId",
          "type": "uint256"
        }
      ],
      "name": "giveBirth",
      "outputs": [
        {
          "name": "",
          "type": "uint256"
        }
      ],
      "payable": false,
      "stateMutability": "nonpayable",
      "type": "function"
    }
  ],
  "bytecode": "0x60806040526000600260146101000a81548160ff0219169083151502179055506101c060405190810160405280603c63ffffffff1663ffffffff168152602001607863ffffffff1663ffffffff16815260200161012c63ffffffff1663ffffffff16815260200161025863ffffffff1663ffffffff16815260200161070863ffffffff1663ffffffff168152602001610e1063ffffffff1663ffffffff168152602001611c2063ffffffff1663ffffffff16815260200161384063ffffffff1663ffffffff16815260200161708063ffffffff1663ffffffff16815260200161e10063ffffffff1663ffffffff1681526020016201518063ffffffff1663ffffffff1681526020016202a30063ffffffff1663ffffffff1681526020016205460063ffffffff1663ffffffff16815260200162093a8063ffffffff1663ffffffff16815250600390600e6200015692919062000217565b50600f6005556040805190810160405280600781526020017f4479766572736500000000000000000000000000000000000000000000000000815250600b9080519060200190620001a9929190620002c1565b506040805190810160405280600481526020017f4b59445900000000000000000000000000000000000000000000000000000000815250600c9080519060200190620001f7929190620002c1565b5066071afd498d0000600d553480156200021057600080fd5b50620003a6565b82600e600701600890048101928215620002ae5791602002820160005b838211156200027a57835183826101000a81548163ffffffff021916908363ffffffff160217905550926020019260040160208160030104928301926001030262000234565b8015620002ac5782816101000a81549063ffffffff02191690556004016020816003010492830192600103026200027a565b505b509050620002bd919062000348565b5090565b828054600181600116156101000203166002900490600052602060002090601f016020900481019282601f106200030457805160ff191683800117855562000335565b8280016001018555821562000335579182015b828111156200033457825182559160200191906001019062000317565b5b5090506200034491906200037e565b5090565b6200037b91905b808211156200037757600081816101000a81549063ffffffff0219169055506001016200034f565b5090565b90565b620003a391905b808211156200039f57600081600090555060010162000385565b5090565b90565b61318480620003b66000396000f3006080604052600436106101c2576000357c0100000000000000000000000000000000000000000000000000000000900463ffffffff1680630519ce79146101c757806306fdde031461021e578063095ea7b3146102ae5780630a0f8168146102fb5780631051db341461035257806318160ddd1461038157806323b872dd146103ac57806324e7a38a14610419578063254b1ddf1461045c57806327d7874c146104a95780632ba73c15146104ec5780633f4ba83a1461052f57806346d22c70146105465780634b85fd55146105955780634e0a3379146105c25780635627cdcb146106055780635663896e146106725780635c975abb1461069f5780636352211e146106ce57806370a082311461073b5780637a7d493714610792578063816f1771146107bd5780638456cb591461082a5780638462151c1461084157806388c2a0bf146108d95780638f9f49b61461091a57806395d89b41146109875780639d6fac6f14610a175780639e5aa5a914610a64578063a9059cbb14610a8f578063b047fb5014610adc578063b0c35c0514610b33578063cd47f39014610b5e578063d3e6f49f14610bab578063f2b47d5214610bf0578063f7d8c88314610c47575b600080fd5b3480156101d357600080fd5b506101dc610c71565b604051808273ffffffffffffffffffffffffffffffffffffffff1673ffffffffffffffffffffffffffffffffffffffff16815260200191505060405180910390f35b34801561022a57600080fd5b50610233610c97565b6040518080602001828103825283818151815260200191508051906020019080838360005b83811015610273578082015181840152602081019050610258565b50505050905090810190601f1680156102a05780820380516001836020036101000a031916815260200191505b509250505060405180910390f35b3480156102ba57600080fd5b506102f9600480360381019080803573ffffffffffffffffffffffffffffffffffffffff16906020019092919080359060200190929190505050610d35565b005b34801561030757600080fd5b50610310610dcf565b604051808273ffffffffffffffffffffffffffffffffffffffff1673ffffffffffffffffffffffffffffffffffffffff16815260200191505060405180910390f35b34801561035e57600080fd5b50610367610df4565b604051808215151515815260200191505060405180910390f35b34801561038d57600080fd5b50610396610dfd565b6040518082815260200191505060405180910390f35b3480156103b857600080fd5b50610417600480360381019080803573ffffffffffffffffffffffffffffffffffffffff169060200190929190803573ffffffffffffffffffffffffffffffffffffffff16906020019092919080359060200190929190505050610e0d565b005b34801561042557600080fd5b5061045a600480360381019080803573ffffffffffffffffffffffffffffffffffffffff169060200190929190505050610e63565b005b34801561046857600080fd5b506104a7600480360381019080803573ffffffffffffffffffffffffffffffffffffffff16906020019092919080359060200190929190505050610fb2565b005b3480156104b557600080fd5b506104ea600480360381019080803573ffffffffffffffffffffffffffffffffffffffff169060200190929190505050611039565b005b3480156104f857600080fd5b5061052d600480360381019080803573ffffffffffffffffffffffffffffffffffffffff169060200190929190505050611113565b005b34801561053b57600080fd5b506105446111ee565b005b34801561055257600080fd5b5061057b6004803603810190808035906020019092919080359060200190929190505050611281565b604051808215151515815260200191505060405180910390f35b3480156105a157600080fd5b506105c060048036038101908080359060200190929190505050611309565b005b3480156105ce57600080fd5b50610603600480360381019080803573ffffffffffffffffffffffffffffffffffffffff16906020019092919050505061136f565b005b34801561061157600080fd5b506106306004803603810190808035906020019092919050505061144a565b604051808273ffffffffffffffffffffffffffffffffffffffff1673ffffffffffffffffffffffffffffffffffffffff16815260200191505060405180910390f35b34801561067e57600080fd5b5061069d6004803603810190808035906020019092919050505061147d565b005b3480156106ab57600080fd5b506106b46115d1565b604051808215151515815260200191505060405180910390f35b3480156106da57600080fd5b506106f9600480360381019080803590602001909291905050506115e4565b604051808273ffffffffffffffffffffffffffffffffffffffff1673ffffffffffffffffffffffffffffffffffffffff16815260200191505060405180910390f35b34801561074757600080fd5b5061077c600480360381019080803573ffffffffffffffffffffffffffffffffffffffff16906020019092919050505061165d565b6040518082815260200191505060405180910390f35b34801561079e57600080fd5b506107a76116a6565b6040518082815260200191505060405180910390f35b3480156107c957600080fd5b506107e8600480360381019080803590602001909291905050506116ac565b604051808273ffffffffffffffffffffffffffffffffffffffff1673ffffffffffffffffffffffffffffffffffffffff16815260200191505060405180910390f35b34801561083657600080fd5b5061083f6116df565b005b34801561084d57600080fd5b50610882600480360381019080803573ffffffffffffffffffffffffffffffffffffffff169060200190929190505050611823565b6040518080602001828103825283818151815260200191508051906020019060200280838360005b838110156108c55780820151818401526020810190506108aa565b505050509050019250505060405180910390f35b3480156108e557600080fd5b5061090460048036038101908080359060200190929190505050611970565b6040518082815260200191505060405180910390f35b34801561092657600080fd5b5061094560048036038101908080359060200190929190505050611d8b565b604051808273ffffffffffffffffffffffffffffffffffffffff1673ffffffffffffffffffffffffffffffffffffffff16815260200191505060405180910390f35b34801561099357600080fd5b5061099c611dbe565b6040518080602001828103825283818151815260200191508051906020019080838360005b838110156109dc5780820151818401526020810190506109c1565b50505050905090810190601f168015610a095780820380516001836020036101000a031916815260200191505b509250505060405180910390f35b348015610a2357600080fd5b50610a4260048036038101908080359060200190929190505050611e5c565b604051808263ffffffff1663ffffffff16815260200191505060405180910390f35b348015610a7057600080fd5b50610a79611e8b565b6040518082815260200191505060405180910390f35b348015610a9b57600080fd5b50610ada600480360381019080803573ffffffffffffffffffffffffffffffffffffffff16906020019092919080359060200190929190505050611e91565b005b348015610ae857600080fd5b50610af1611f0d565b604051808273ffffffffffffffffffffffffffffffffffffffff1673ffffffffffffffffffffffffffffffffffffffff16815260200191505060405180910390f35b348015610b3f57600080fd5b50610b48611f33565b6040518082815260200191505060405180910390f35b348015610b6a57600080fd5b50610ba960048036038101908080359060200190929190803573ffffffffffffffffffffffffffffffffffffffff169060200190929190505050611f39565b005b348015610bb757600080fd5b50610bd660048036038101908080359060200190929190505050611fd5565b604051808215151515815260200191505060405180910390f35b348015610bfc57600080fd5b50610c05612144565b604051808273ffffffffffffffffffffffffffffffffffffffff1673ffffffffffffffffffffffffffffffffffffffff16815260200191505060405180910390f35b610c6f600480360381019080803590602001909291908035906020019092919050505061216a565b005b600160009054906101000a900473ffffffffffffffffffffffffffffffffffffffff1681565b600b8054600181600116156101000203166002900480601f016020809104026020016040519081016040528092919081815260200182805460018160011615610100020316600290048015610d2d5780601f10610d0257610100808354040283529160200191610d2d565b820191906000526020600020905b815481529060010190602001808311610d1057829003601f168201915b505050505081565b600260149054906101000a900460ff16151515610d5157600080fd5b610d5b33826124ab565b1515610d6657600080fd5b610d708183612517565b808273ffffffffffffffffffffffffffffffffffffffff163373ffffffffffffffffffffffffffffffffffffffff167f8c5be1e5ebec7d5bd14f71427d1e84f3dd0314c0f7b2291e5b200ac8c7c3b92560405160405180910390a45050565b6000809054906101000a900473ffffffffffffffffffffffffffffffffffffffff1681565b60006001905090565b6000600160068054905003905090565b600260149054906101000a900460ff16151515610e2957600080fd5b610e33338261256d565b1515610e3e57600080fd5b610e4883826124ab565b1515610e5357600080fd5b610e5e8383836125d9565b505050565b60008060009054906101000a900473ffffffffffffffffffffffffffffffffffffffff1673ffffffffffffffffffffffffffffffffffffffff163373ffffffffffffffffffffffffffffffffffffffff16141515610ec057600080fd5b8190508073ffffffffffffffffffffffffffffffffffffffff166354c15b826040518163ffffffff167c0100000000000000000000000000000000000000000000000000000000028152600401602060405180830381600087803b158015610f2757600080fd5b505af1158015610f3b573d6000803e3d6000fd5b505050506040513d6020811015610f5157600080fd5b81019080805190602001909291905050501515610f6d57600080fd5b80600f60006101000a81548173ffffffffffffffffffffffffffffffffffffffff021916908373ffffffffffffffffffffffffffffffffffffffff1602179055505050565b600260149054906101000a900460ff16151515610fce57600080fd5b610fd833826124ab565b1515610fe357600080fd5b81600a600083815260200190815260200160002060006101000a81548173ffffffffffffffffffffffffffffffffffffffff021916908373ffffffffffffffffffffffffffffffffffffffff1602179055505050565b6000809054906101000a900473ffffffffffffffffffffffffffffffffffffffff1673ffffffffffffffffffffffffffffffffffffffff163373ffffffffffffffffffffffffffffffffffffffff1614151561109457600080fd5b600073ffffffffffffffffffffffffffffffffffffffff168173ffffffffffffffffffffffffffffffffffffffff16141515156110d057600080fd5b806000806101000a81548173ffffffffffffffffffffffffffffffffffffffff021916908373ffffffffffffffffffffffffffffffffffffffff16021790555050565b6000809054906101000a900473ffffffffffffffffffffffffffffffffffffffff1673ffffffffffffffffffffffffffffffffffffffff163373ffffffffffffffffffffffffffffffffffffffff1614151561116e57600080fd5b600073ffffffffffffffffffffffffffffffffffffffff168173ffffffffffffffffffffffffffffffffffffffff16141515156111aa57600080fd5b80600260006101000a81548173ffffffffffffffffffffffffffffffffffffffff021916908373ffffffffffffffffffffffffffffffffffffffff16021790555050565b6000809054906101000a900473ffffffffffffffffffffffffffffffffffffffff1673ffffffffffffffffffffffffffffffffffffffff163373ffffffffffffffffffffffffffffffffffffffff1614151561124957600080fd5b600260149054906101000a900460ff16151561126457600080fd5b6000600260146101000a81548160ff021916908315150217905550565b6000806000808511151561129457600080fd5b6000841115156112a357600080fd5b6006858154811015156112b257fe5b906000526020600020906002020191506006848154811015156112d157fe5b906000526020600020906002020190506112ed828683876127cd565b80156112ff57506112fe84866129e2565b5b9250505092915050565b600260009054906101000a900473ffffffffffffffffffffffffffffffffffffffff1673ffffffffffffffffffffffffffffffffffffffff163373ffffffffffffffffffffffffffffffffffffffff1614151561136557600080fd5b80600d8190555050565b6000809054906101000a900473ffffffffffffffffffffffffffffffffffffffff1673ffffffffffffffffffffffffffffffffffffffff163373ffffffffffffffffffffffffffffffffffffffff161415156113ca57600080fd5b600073ffffffffffffffffffffffffffffffffffffffff168173ffffffffffffffffffffffffffffffffffffffff161415151561140657600080fd5b80600160006101000a81548173ffffffffffffffffffffffffffffffffffffffff021916908373ffffffffffffffffffffffffffffffffffffffff16021790555050565b60076020528060005260406000206000915054906101000a900473ffffffffffffffffffffffffffffffffffffffff1681565b600260009054906101000a900473ffffffffffffffffffffffffffffffffffffffff1673ffffffffffffffffffffffffffffffffffffffff163373ffffffffffffffffffffffffffffffffffffffff16148061152557506000809054906101000a900473ffffffffffffffffffffffffffffffffffffffff1673ffffffffffffffffffffffffffffffffffffffff163373ffffffffffffffffffffffffffffffffffffffff16145b8061157d5750600160009054906101000a900473ffffffffffffffffffffffffffffffffffffffff1673ffffffffffffffffffffffffffffffffffffffff163373ffffffffffffffffffffffffffffffffffffffff16145b151561158857600080fd5b60036000600e8110151561159857fe5b600891828204019190066004029054906101000a900463ffffffff1663ffffffff16811015156115c757600080fd5b8060058190555050565b600260149054906101000a900460ff1681565b60006007600083815260200190815260200160002060009054906101000a900473ffffffffffffffffffffffffffffffffffffffff169050600073ffffffffffffffffffffffffffffffffffffffff168173ffffffffffffffffffffffffffffffffffffffff161415151561165857600080fd5b919050565b6000600860008373ffffffffffffffffffffffffffffffffffffffff1673ffffffffffffffffffffffffffffffffffffffff168152602001908152602001600020549050919050565b60055481565b60096020528060005260406000206000915054906101000a900473ffffffffffffffffffffffffffffffffffffffff1681565b600260009054906101000a900473ffffffffffffffffffffffffffffffffffffffff1673ffffffffffffffffffffffffffffffffffffffff163373ffffffffffffffffffffffffffffffffffffffff16148061178757506000809054906101000a900473ffffffffffffffffffffffffffffffffffffffff1673ffffffffffffffffffffffffffffffffffffffff163373ffffffffffffffffffffffffffffffffffffffff16145b806117df5750600160009054906101000a900473ffffffffffffffffffffffffffffffffffffffff1673ffffffffffffffffffffffffffffffffffffffff163373ffffffffffffffffffffffffffffffffffffffff16145b15156117ea57600080fd5b600260149054906101000a900460ff1615151561180657600080fd5b6001600260146101000a81548160ff021916908315150217905550565b60606000606060008060006118378761165d565b9450600085141561187a5760006040519080825280602002602001820160405280156118725781602001602082028038833980820191505090505b509550611966565b846040519080825280602002602001820160405280156118a95781602001602082028038833980820191505090505b5093506118b4610dfd565b925060009150600190505b8281111515611962578673ffffffffffffffffffffffffffffffffffffffff166007600083815260200190815260200160002060009054906101000a900473ffffffffffffffffffffffffffffffffffffffff1673ffffffffffffffffffffffffffffffffffffffff1614156119555780848381518110151561193e57fe5b906020019060200201818152505081806001019250505b80806001019150506118bf565b8395505b5050505050919050565b600080600080600080600080600260149054906101000a900460ff1615151561199857600080fd5b6006898154811015156119a757fe5b9060005260206000209060020201965060008760010160009054906101000a900467ffffffffffffffff1667ffffffffffffffff16141515156119e957600080fd5b611b1f876101006040519081016040529081600082015481526020016001820160009054906101000a900467ffffffffffffffff1667ffffffffffffffff1667ffffffffffffffff1681526020016001820160089054906101000a900467ffffffffffffffff1667ffffffffffffffff1667ffffffffffffffff1681526020016001820160109054906101000a900463ffffffff1663ffffffff1663ffffffff1681526020016001820160149054906101000a900463ffffffff1663ffffffff1663ffffffff1681526020016001820160189054906101000a900463ffffffff1663ffffffff1663ffffffff16815260200160018201601c9054906101000a900461ffff1661ffff1661ffff16815260200160018201601e9054906101000a900461ffff1661ffff1661ffff1681525050612af5565b1515611b2a57600080fd5b8660010160189054906101000a900463ffffffff1663ffffffff169550600686815481101515611b5657fe5b9060005260206000209060020201945086600101601e9054906101000a900461ffff16935086600101601e9054906101000a900461ffff1661ffff1685600101601e9054906101000a900461ffff1661ffff161115611bc55784600101601e9054906101000a900461ffff1693505b600f60009054906101000a900473ffffffffffffffffffffffffffffffffffffffff1673ffffffffffffffffffffffffffffffffffffffff16638d8b1b88886000015487600001546040518363ffffffff167c01000000000000000000000000000000000000000000000000000000000281526004018083815260200182815260200192505050602060405180830381600087803b158015611c6657600080fd5b505af1158015611c7a573d6000803e3d6000fd5b505050506040513d6020811015611c9057600080fd5b81019080805190602001909291905050509250600760008a815260200190815260200160002060009054906101000a900473ffffffffffffffffffffffffffffffffffffffff169150611d07898860010160189054906101000a900463ffffffff1663ffffffff166001870161ffff168686612b30565b90508660010160186101000a81549063ffffffff0219169055600e60008154809291906001900391905055503373ffffffffffffffffffffffffffffffffffffffff166108fc600d549081150290604051600060405180830381858888f19350505050158015611d7b573d6000803e3d6000fd5b5080975050505050505050919050565b600a6020528060005260406000206000915054906101000a900473ffffffffffffffffffffffffffffffffffffffff1681565b600c8054600181600116156101000203166002900480601f016020809104026020016040519081016040528092919081815260200182805460018160011615610100020316600290048015611e545780601f10611e2957610100808354040283529160200191611e54565b820191906000526020600020905b815481529060010190602001808311611e3757829003601f168201915b505050505081565b600381600e81101515611e6b57fe5b60089182820401919006600402915054906101000a900463ffffffff1681565b600e5481565b600260149054906101000a900460ff16151515611ead57600080fd5b600073ffffffffffffffffffffffffffffffffffffffff168273ffffffffffffffffffffffffffffffffffffffff1614151515611ee957600080fd5b611ef333826124ab565b1515611efe57600080fd5b611f093383836125d9565b5050565b600260009054906101000a900473ffffffffffffffffffffffffffffffffffffffff1681565b600d5481565b600260009054906101000a900473ffffffffffffffffffffffffffffffffffffffff1673ffffffffffffffffffffffffffffffffffffffff163373ffffffffffffffffffffffffffffffffffffffff16141515611f9557600080fd5b600260149054906101000a900460ff16151515611fb157600080fd5b611fbb30836124ab565b1515611fc657600080fd5b611fd13082846125d9565b5050565b600080600083111515611fe757600080fd5b600683815481101515611ff657fe5b9060005260206000209060020201905061213c816101006040519081016040529081600082015481526020016001820160009054906101000a900467ffffffffffffffff1667ffffffffffffffff1667ffffffffffffffff1681526020016001820160089054906101000a900467ffffffffffffffff1667ffffffffffffffff1667ffffffffffffffff1681526020016001820160109054906101000a900463ffffffff1663ffffffff1663ffffffff1681526020016001820160149054906101000a900463ffffffff1663ffffffff1663ffffffff1681526020016001820160189054906101000a900463ffffffff1663ffffffff1663ffffffff16815260200160018201601c9054906101000a900461ffff1661ffff1661ffff16815260200160018201601e9054906101000a900461ffff1661ffff1661ffff1681525050612e0a565b915050919050565b600f60009054906101000a900473ffffffffffffffffffffffffffffffffffffffff1681565b600080600260149054906101000a900460ff1615151561218957600080fd5b600d54341015151561219a57600080fd5b6121a433856124ab565b15156121af57600080fd5b6121b983856129e2565b15156121c457600080fd5b6006848154811015156121d357fe5b90600052602060002090600202019150612319826101006040519081016040529081600082015481526020016001820160009054906101000a900467ffffffffffffffff1667ffffffffffffffff1667ffffffffffffffff1681526020016001820160089054906101000a900467ffffffffffffffff1667ffffffffffffffff1667ffffffffffffffff1681526020016001820160109054906101000a900463ffffffff1663ffffffff1663ffffffff1681526020016001820160149054906101000a900463ffffffff1663ffffffff1663ffffffff1681526020016001820160189054906101000a900463ffffffff1663ffffffff1663ffffffff16815260200160018201601c9054906101000a900461ffff1661ffff1661ffff16815260200160018201601e9054906101000a900461ffff1661ffff1661ffff1681525050612e0a565b151561232457600080fd5b60068381548110151561233357fe5b90600052602060002090600202019050612479816101006040519081016040529081600082015481526020016001820160009054906101000a900467ffffffffffffffff1667ffffffffffffffff1667ffffffffffffffff1681526020016001820160089054906101000a900467ffffffffffffffff1667ffffffffffffffff1667ffffffffffffffff1681526020016001820160109054906101000a900463ffffffff1663ffffffff1663ffffffff1681526020016001820160149054906101000a900463ffffffff1663ffffffff1663ffffffff1681526020016001820160189054906101000a900463ffffffff1663ffffffff1663ffffffff16815260200160018201601c9054906101000a900461ffff1661ffff1661ffff16815260200160018201601e9054906101000a900461ffff1661ffff1661ffff1681525050612e0a565b151561248457600080fd5b612490828583866127cd565b151561249b57600080fd5b6124a58484612e44565b50505050565b60008273ffffffffffffffffffffffffffffffffffffffff166007600084815260200190815260200160002060009054906101000a900473ffffffffffffffffffffffffffffffffffffffff1673ffffffffffffffffffffffffffffffffffffffff1614905092915050565b806009600084815260200190815260200160002060006101000a81548173ffffffffffffffffffffffffffffffffffffffff021916908373ffffffffffffffffffffffffffffffffffffffff1602179055505050565b60008273ffffffffffffffffffffffffffffffffffffffff166009600084815260200190815260200160002060009054906101000a900473ffffffffffffffffffffffffffffffffffffffff1673ffffffffffffffffffffffffffffffffffffffff1614905092915050565b600860008373ffffffffffffffffffffffffffffffffffffffff1673ffffffffffffffffffffffffffffffffffffffff16815260200190815260200160002060008154809291906001019190505550816007600083815260200190815260200160002060006101000a81548173ffffffffffffffffffffffffffffffffffffffff021916908373ffffffffffffffffffffffffffffffffffffffff160217905550600073ffffffffffffffffffffffffffffffffffffffff168373ffffffffffffffffffffffffffffffffffffffff1614151561276d57600860008473ffffffffffffffffffffffffffffffffffffffff1673ffffffffffffffffffffffffffffffffffffffff1681526020019081526020016000206000815480929190600190039190505550600a600082815260200190815260200160002060006101000a81549073ffffffffffffffffffffffffffffffffffffffff02191690556009600082815260200190815260200160002060006101000a81549073ffffffffffffffffffffffffffffffffffffffff02191690555b808273ffffffffffffffffffffffffffffffffffffffff168473ffffffffffffffffffffffffffffffffffffffff167fddf252ad1be2c89b69c2b068fc378daa952ba7f163c4a11628f55a4df523b3ef60405160405180910390a4505050565b6000818414156127e057600090506129da565b818560010160109054906101000a900463ffffffff1663ffffffff1614806128215750818560010160149054906101000a900463ffffffff1663ffffffff16145b1561282f57600090506129da565b838360010160109054906101000a900463ffffffff1663ffffffff1614806128705750838360010160149054906101000a900463ffffffff1663ffffffff16145b1561287e57600090506129da565b60008360010160109054906101000a900463ffffffff1663ffffffff1614806128c1575060008560010160109054906101000a900463ffffffff1663ffffffff16145b156128cf57600190506129da565b8460010160109054906101000a900463ffffffff1663ffffffff168360010160109054906101000a900463ffffffff1663ffffffff16148061294457508460010160149054906101000a900463ffffffff1663ffffffff168360010160109054906101000a900463ffffffff1663ffffffff16145b1561295257600090506129da565b8460010160109054906101000a900463ffffffff1663ffffffff168360010160149054906101000a900463ffffffff1663ffffffff1614806129c757508460010160149054906101000a900463ffffffff1663ffffffff168360010160149054906101000a900463ffffffff1663ffffffff16145b156129d557600090506129da565b600190505b949350505050565b60008060006007600085815260200190815260200160002060009054906101000a900473ffffffffffffffffffffffffffffffffffffffff1691506007600086815260200190815260200160002060009054906101000a900473ffffffffffffffffffffffffffffffffffffffff1690508073ffffffffffffffffffffffffffffffffffffffff168273ffffffffffffffffffffffffffffffffffffffff161480612aeb57508173ffffffffffffffffffffffffffffffffffffffff16600a600087815260200190815260200160002060009054906101000a900473ffffffffffffffffffffffffffffffffffffffff1673ffffffffffffffffffffffffffffffffffffffff16145b9250505092915050565b6000808260a0015163ffffffff1614158015612b2957504367ffffffffffffffff16826040015167ffffffffffffffff1611155b9050919050565b600080612b3b6130e4565b60008863ffffffff1689141515612b5157600080fd5b8763ffffffff1688141515612b6557600080fd5b8661ffff1687141515612b7757600080fd5b600287811515612b8357fe5b049250600d8361ffff161115612b9857600d92505b610100604051908101604052808781526020014267ffffffffffffffff168152602001600067ffffffffffffffff1681526020018a63ffffffff1681526020018963ffffffff168152602001600063ffffffff1681526020018461ffff1681526020018861ffff1681525091506001600683908060018154018082558091505090600182039060005260206000209060020201600090919290919091506000820151816000015560208201518160010160006101000a81548167ffffffffffffffff021916908367ffffffffffffffff16021790555060408201518160010160086101000a81548167ffffffffffffffff021916908367ffffffffffffffff16021790555060608201518160010160106101000a81548163ffffffff021916908363ffffffff16021790555060808201518160010160146101000a81548163ffffffff021916908363ffffffff16021790555060a08201518160010160186101000a81548163ffffffff021916908363ffffffff16021790555060c082015181600101601c6101000a81548161ffff021916908361ffff16021790555060e082015181600101601e6101000a81548161ffff021916908361ffff16021790555050500390508063ffffffff1681141515612d7157600080fd5b8473ffffffffffffffffffffffffffffffffffffffff167f0a5311bd2a6608f08a180df2ee7c5946819a649b204b554bb8e39825b2c50ad582846060015163ffffffff16856080015163ffffffff1686600001516040518085815260200184815260200183815260200182815260200194505050505060405180910390a2612dfb600086836125d9565b80935050505095945050505050565b6000808260a0015163ffffffff16148015612e3d57504367ffffffffffffffff16826040015167ffffffffffffffff1611155b9050919050565b600080600683815481101515612e5657fe5b90600052602060002090600202019150600684815481101515612e7557fe5b90600052602060002090600202019050828160010160186101000a81548163ffffffff021916908363ffffffff160217905550612eb18261300e565b612eba8161300e565b600a600085815260200190815260200160002060006101000a81549073ffffffffffffffffffffffffffffffffffffffff0219169055600a600084815260200190815260200160002060006101000a81549073ffffffffffffffffffffffffffffffffffffffff0219169055600e600081548092919060010191905055507f241ea03ca20251805084d27d4440371c34a0b85ff108f6bb5611248f73818b806007600086815260200190815260200160002060009054906101000a900473ffffffffffffffffffffffffffffffffffffffff1685858460010160089054906101000a900467ffffffffffffffff16604051808573ffffffffffffffffffffffffffffffffffffffff1673ffffffffffffffffffffffffffffffffffffffff1681526020018481526020018381526020018267ffffffffffffffff16815260200194505050505060405180910390a150505050565b43600554600383600101601c9054906101000a900461ffff1661ffff16600e8110151561303757fe5b600891828204019190066004029054906101000a900463ffffffff1663ffffffff1681151561306257fe5b04018160010160086101000a81548167ffffffffffffffff021916908367ffffffffffffffff160217905550600d81600101601c9054906101000a900461ffff1661ffff1610156130e157600181600101601c8282829054906101000a900461ffff160192506101000a81548161ffff021916908361ffff1602179055505b50565b6101006040519081016040528060008152602001600067ffffffffffffffff168152602001600067ffffffffffffffff168152602001600063ffffffff168152602001600063ffffffff168152602001600063ffffffff168152602001600061ffff168152602001600061ffff16815250905600a165627a7a72305820ee0adac9a9c79261c655e3b96a1db80df419f35af2927ee505b47f99deb254260029",
  "source": "pragma solidity ^0.4.24;\n\nimport './ExternalInterfaces/GeneScienceInterface.sol';\nimport './KydyOwnership.sol';\n\n\ncontract KydyBreeding is KydyOwnership {\n\n    event Pregnant(address owner, uint256 yinId, uint256 yangId, uint256 cooldownEndBlock);\n\n    uint256 public autoBirthFee = 2 finney;\n\n    uint256 public pregnantKydys;\n\n    GeneScienceInterface public geneScience;\n\n    function setGeneScienceAddress(address _address) public onlyCEO {\n        GeneScienceInterface candidateContract = GeneScienceInterface(_address);\n\n        require(candidateContract.isGeneScience());\n\n        geneScience = candidateContract;\n    }\n\n    function _isReadyToBreed(Kydy _kyd) internal view returns (bool) {\n        return (_kyd.synthesizingWithId == 0) && (_kyd.cooldownEndBlock <= uint64(block.number));\n    }\n\n    function _isSynthesizingPermitted(uint256 _yangId, uint256 _yinId) internal view returns (bool) {\n        address yinOwner = kydyIndexToOwner[_yinId];\n        address yangOwner = kydyIndexToOwner[_yangId];\n\n        return (yinOwner == yangOwner || synthesizeAllowedToAddress[_yangId] == yinOwner);\n    }\n\n    function _triggerCooldown(Kydy storage _kyd) internal {\n        _kyd.cooldownEndBlock = uint64((cooldowns[_kyd.cooldownIndex] / secondsPerBlock) + block.number);\n\n        if (_kyd.cooldownIndex < 13) {\n            _kyd.cooldownIndex += 1;\n        }\n    }\n\n    function approveSynthesizing(address _addr, uint256 _yangId)\n        public\n        whenNotPaused\n    {\n        require(_owns(msg.sender, _yangId));\n        synthesizeAllowedToAddress[_yangId] = _addr;\n    }\n\n    function setAutoBirthFee(uint256 val) public onlyCOO {\n        autoBirthFee = val;\n    }\n\n    function _isReadyToGiveBirth(Kydy _yin) private view returns (bool) {\n        return (_yin.synthesizingWithId != 0) && (_yin.cooldownEndBlock <= uint64(block.number));\n    }\n\n    function isReadyToBreed(uint256 _kydyId)\n        public\n        view\n        returns (bool)\n    {\n        require(_kydyId > 0);\n        Kydy storage kyd = kydys[_kydyId];\n        return _isReadyToBreed(kyd);\n    }\n\n    function _isValidMatingPair(\n        Kydy storage _yin,\n        uint256 _yinId,\n        Kydy storage _yang,\n        uint256 _yangId\n    )\n        private\n        view\n        returns(bool)\n    {\n        if (_yinId == _yangId) {\n            return false;\n        }\n\n        if (_yin.yinId == _yangId || _yin.yangId == _yangId) {\n            return false;\n        }\n        if (_yang.yinId == _yinId || _yang.yangId == _yinId) {\n            return false;\n        }\n\n        if (_yang.yinId == 0 || _yin.yinId == 0) {\n            return true;\n        }\n\n        if (_yang.yinId == _yin.yinId || _yang.yinId == _yin.yangId) {\n            return false;\n        }\n        if (_yang.yangId == _yin.yinId || _yang.yangId == _yin.yangId) {\n            return false;\n        }\n\n        return true;\n    }\n\n    function _canBreedWithViaAuction(uint256 _yinId, uint256 _yangId)\n        internal\n        view\n        returns (bool)\n    {\n        Kydy storage yin = kydys[_yinId];\n        Kydy storage yang = kydys[_yangId];\n        return _isValidMatingPair(yin, _yinId, yang, _yangId);\n    }\n\n    function canBreedWith(uint256 _yinId, uint256 _yangId)\n        public\n        view\n        returns(bool)\n    {\n        require(_yinId > 0);\n        require(_yangId > 0);\n        Kydy storage yin = kydys[_yinId];\n        Kydy storage yang = kydys[_yangId];\n        return _isValidMatingPair(yin, _yinId, yang, _yangId) &&\n            _isSynthesizingPermitted(_yangId, _yinId);\n    }\n\n    function _breedWith(uint256 _yinId, uint256 _yangId) internal {\n        Kydy storage yang = kydys[_yangId];\n        Kydy storage yin = kydys[_yinId];\n\n        yin.synthesizingWithId = uint32(_yangId);\n\n        _triggerCooldown(yang);\n        _triggerCooldown(yin);\n\n        delete synthesizeAllowedToAddress[_yinId];\n        delete synthesizeAllowedToAddress[_yangId];\n\n        pregnantKydys++;\n\n        emit Pregnant(kydyIndexToOwner[_yinId], _yinId, _yangId, yin.cooldownEndBlock);\n    }\n\n    function breedWithAuto(uint256 _yinId, uint256 _yangId)\n        public\n        payable\n        whenNotPaused\n    {\n        require(msg.value >= autoBirthFee);\n\n        require(_owns(msg.sender, _yinId));\n\n        require(_isSynthesizingPermitted(_yangId, _yinId));\n\n        Kydy storage yin = kydys[_yinId];\n\n        require(_isReadyToBreed(yin));\n\n        Kydy storage yang = kydys[_yangId];\n\n        require(_isReadyToBreed(yang));\n\n        require(_isValidMatingPair(\n            yin,\n            _yinId,\n            yang,\n            _yangId\n        ));\n\n        _breedWith(_yinId, _yangId);\n\n    }\n\n    function giveBirth(uint256 _yinId)\n        public\n        whenNotPaused\n        returns(uint256)\n    {\n        Kydy storage yin = kydys[_yinId];\n\n        require(yin.birthTime != 0);\n\n        require(_isReadyToGiveBirth(yin));\n\n        uint256 yangId = yin.synthesizingWithId;\n        Kydy storage yang = kydys[yangId];\n\n        uint16 parentGen = yin.generation;\n        if (yang.generation > yin.generation) {\n            parentGen = yang.generation;\n        }\n\n        uint256 childGenes = geneScience.mixGenes(yin.genes, yang.genes);\n\n        address owner = kydyIndexToOwner[_yinId];\n        uint256 kydyId = _createKydy(_yinId, yin.synthesizingWithId, parentGen + 1, childGenes, owner);\n\n        delete yin.synthesizingWithId;\n\n        pregnantKydys--;\n\n        // Send the balance fee to the person who made birth happen.\n        msg.sender.transfer(autoBirthFee);\n\n        return kydyId;\n    }\n}\n",
  "sourcePath": "/Users/Keki/Vrexlab/kydy-solidity/contracts/KydyBreeding.sol",
  "compiler": {
    "name": "solc",
    "version": "0.4.24+commit.e67f0147.Emscripten.clang"
  },
  "schemaVersion": "2.0.1",
  "updatedAt": "2018-11-12T07:02:22.695Z"
}