{
  "contractName": "KydyAuction",
  "abi": [
    {
      "constant": true,
      "inputs": [],
      "name": "cfoAddress",
      "outputs": [
        {
          "name": "",
          "type": "address"
        }
      ],
      "payable": false,
      "stateMutability": "view",
      "type": "function"
    },
    {
      "constant": true,
      "inputs": [],
      "name": "name",
      "outputs": [
        {
          "name": "",
          "type": "string"
        }
      ],
      "payable": false,
      "stateMutability": "view",
      "type": "function"
    },
    {
      "constant": false,
      "inputs": [
        {
          "name": "_to",
          "type": "address"
        },
        {
          "name": "_tokenId",
          "type": "uint256"
        }
      ],
      "name": "approve",
      "outputs": [],
      "payable": false,
      "stateMutability": "nonpayable",
      "type": "function"
    },
    {
      "constant": true,
      "inputs": [],
      "name": "ceoAddress",
      "outputs": [
        {
          "name": "",
          "type": "address"
        }
      ],
      "payable": false,
      "stateMutability": "view",
      "type": "function"
    },
    {
      "constant": true,
      "inputs": [],
      "name": "implementsERC721",
      "outputs": [
        {
          "name": "",
          "type": "bool"
        }
      ],
      "payable": false,
      "stateMutability": "pure",
      "type": "function"
    },
    {
      "constant": true,
      "inputs": [],
      "name": "totalSupply",
      "outputs": [
        {
          "name": "",
          "type": "uint256"
        }
      ],
      "payable": false,
      "stateMutability": "view",
      "type": "function"
    },
    {
      "constant": true,
      "inputs": [],
      "name": "synthesizingAuction",
      "outputs": [
        {
          "name": "",
          "type": "address"
        }
      ],
      "payable": false,
      "stateMutability": "view",
      "type": "function"
    },
    {
      "constant": false,
      "inputs": [
        {
          "name": "_from",
          "type": "address"
        },
        {
          "name": "_to",
          "type": "address"
        },
        {
          "name": "_tokenId",
          "type": "uint256"
        }
      ],
      "name": "transferFrom",
      "outputs": [],
      "payable": false,
      "stateMutability": "nonpayable",
      "type": "function"
    },
    {
      "constant": false,
      "inputs": [
        {
          "name": "_address",
          "type": "address"
        }
      ],
      "name": "setGeneScienceAddress",
      "outputs": [],
      "payable": false,
      "stateMutability": "nonpayable",
      "type": "function"
    },
    {
      "constant": false,
      "inputs": [
        {
          "name": "_addr",
          "type": "address"
        },
        {
          "name": "_yangId",
          "type": "uint256"
        }
      ],
      "name": "approveSynthesizing",
      "outputs": [],
      "payable": false,
      "stateMutability": "nonpayable",
      "type": "function"
    },
    {
      "constant": false,
      "inputs": [
        {
          "name": "_newCEO",
          "type": "address"
        }
      ],
      "name": "setCEO",
      "outputs": [],
      "payable": false,
      "stateMutability": "nonpayable",
      "type": "function"
    },
    {
      "constant": false,
      "inputs": [
        {
          "name": "_newCOO",
          "type": "address"
        }
      ],
      "name": "setCOO",
      "outputs": [],
      "payable": false,
      "stateMutability": "nonpayable",
      "type": "function"
    },
    {
      "constant": false,
      "inputs": [],
      "name": "unpause",
      "outputs": [],
      "payable": false,
      "stateMutability": "nonpayable",
      "type": "function"
    },
    {
      "constant": true,
      "inputs": [
        {
          "name": "_yinId",
          "type": "uint256"
        },
        {
          "name": "_yangId",
          "type": "uint256"
        }
      ],
      "name": "canBreedWith",
      "outputs": [
        {
          "name": "",
          "type": "bool"
        }
      ],
      "payable": false,
      "stateMutability": "view",
      "type": "function"
    },
    {
      "constant": false,
      "inputs": [
        {
          "name": "val",
          "type": "uint256"
        }
      ],
      "name": "setAutoBirthFee",
      "outputs": [],
      "payable": false,
      "stateMutability": "nonpayable",
      "type": "function"
    },
    {
      "constant": false,
      "inputs": [
        {
          "name": "_newCFO",
          "type": "address"
        }
      ],
      "name": "setCFO",
      "outputs": [],
      "payable": false,
      "stateMutability": "nonpayable",
      "type": "function"
    },
    {
      "constant": true,
      "inputs": [
        {
          "name": "",
          "type": "uint256"
        }
      ],
      "name": "kydyIndexToOwner",
      "outputs": [
        {
          "name": "",
          "type": "address"
        }
      ],
      "payable": false,
      "stateMutability": "view",
      "type": "function"
    },
    {
      "constant": false,
      "inputs": [
        {
          "name": "secs",
          "type": "uint256"
        }
      ],
      "name": "setSecondsPerBlock",
      "outputs": [],
      "payable": false,
      "stateMutability": "nonpayable",
      "type": "function"
    },
    {
      "constant": true,
      "inputs": [],
      "name": "paused",
      "outputs": [
        {
          "name": "",
          "type": "bool"
        }
      ],
      "payable": false,
      "stateMutability": "view",
      "type": "function"
    },
    {
      "constant": true,
      "inputs": [
        {
          "name": "_tokenId",
          "type": "uint256"
        }
      ],
      "name": "ownerOf",
      "outputs": [
        {
          "name": "owner",
          "type": "address"
        }
      ],
      "payable": false,
      "stateMutability": "view",
      "type": "function"
    },
    {
      "constant": true,
      "inputs": [
        {
          "name": "_owner",
          "type": "address"
        }
      ],
      "name": "balanceOf",
      "outputs": [
        {
          "name": "count",
          "type": "uint256"
        }
      ],
      "payable": false,
      "stateMutability": "view",
      "type": "function"
    },
    {
      "constant": true,
      "inputs": [],
      "name": "secondsPerBlock",
      "outputs": [
        {
          "name": "",
          "type": "uint256"
        }
      ],
      "payable": false,
      "stateMutability": "view",
      "type": "function"
    },
    {
      "constant": true,
      "inputs": [
        {
          "name": "",
          "type": "uint256"
        }
      ],
      "name": "kydyIndexToApproved",
      "outputs": [
        {
          "name": "",
          "type": "address"
        }
      ],
      "payable": false,
      "stateMutability": "view",
      "type": "function"
    },
    {
      "constant": false,
      "inputs": [],
      "name": "pause",
      "outputs": [],
      "payable": false,
      "stateMutability": "nonpayable",
      "type": "function"
    },
    {
      "constant": true,
      "inputs": [
        {
          "name": "_owner",
          "type": "address"
        }
      ],
      "name": "tokensOfOwner",
      "outputs": [
        {
          "name": "ownerTokens",
          "type": "uint256[]"
        }
      ],
      "payable": false,
      "stateMutability": "view",
      "type": "function"
    },
    {
      "constant": false,
      "inputs": [
        {
          "name": "_yinId",
          "type": "uint256"
        }
      ],
      "name": "giveBirth",
      "outputs": [
        {
          "name": "",
          "type": "uint256"
        }
      ],
      "payable": false,
      "stateMutability": "nonpayable",
      "type": "function"
    },
    {
      "constant": true,
      "inputs": [
        {
          "name": "",
          "type": "uint256"
        }
      ],
      "name": "synthesizeAllowedToAddress",
      "outputs": [
        {
          "name": "",
          "type": "address"
        }
      ],
      "payable": false,
      "stateMutability": "view",
      "type": "function"
    },
    {
      "constant": true,
      "inputs": [],
      "name": "symbol",
      "outputs": [
        {
          "name": "",
          "type": "string"
        }
      ],
      "payable": false,
      "stateMutability": "view",
      "type": "function"
    },
    {
      "constant": true,
      "inputs": [
        {
          "name": "",
          "type": "uint256"
        }
      ],
      "name": "cooldowns",
      "outputs": [
        {
          "name": "",
          "type": "uint32"
        }
      ],
      "payable": false,
      "stateMutability": "view",
      "type": "function"
    },
    {
      "constant": true,
      "inputs": [],
      "name": "pregnantKydys",
      "outputs": [
        {
          "name": "",
          "type": "uint256"
        }
      ],
      "payable": false,
      "stateMutability": "view",
      "type": "function"
    },
    {
      "constant": false,
      "inputs": [
        {
          "name": "_to",
          "type": "address"
        },
        {
          "name": "_tokenId",
          "type": "uint256"
        }
      ],
      "name": "transfer",
      "outputs": [],
      "payable": false,
      "stateMutability": "nonpayable",
      "type": "function"
    },
    {
      "constant": true,
      "inputs": [],
      "name": "cooAddress",
      "outputs": [
        {
          "name": "",
          "type": "address"
        }
      ],
      "payable": false,
      "stateMutability": "view",
      "type": "function"
    },
    {
      "constant": true,
      "inputs": [],
      "name": "autoBirthFee",
      "outputs": [
        {
          "name": "",
          "type": "uint256"
        }
      ],
      "payable": false,
      "stateMutability": "view",
      "type": "function"
    },
    {
      "constant": false,
      "inputs": [
        {
          "name": "_kydyId",
          "type": "uint256"
        },
        {
          "name": "_recipient",
          "type": "address"
        }
      ],
      "name": "rescueLostKydy",
      "outputs": [],
      "payable": false,
      "stateMutability": "nonpayable",
      "type": "function"
    },
    {
      "constant": true,
      "inputs": [
        {
          "name": "_kydyId",
          "type": "uint256"
        }
      ],
      "name": "isReadyToBreed",
      "outputs": [
        {
          "name": "",
          "type": "bool"
        }
      ],
      "payable": false,
      "stateMutability": "view",
      "type": "function"
    },
    {
      "constant": true,
      "inputs": [],
      "name": "saleAuction",
      "outputs": [
        {
          "name": "",
          "type": "address"
        }
      ],
      "payable": false,
      "stateMutability": "view",
      "type": "function"
    },
    {
      "constant": true,
      "inputs": [],
      "name": "geneScience",
      "outputs": [
        {
          "name": "",
          "type": "address"
        }
      ],
      "payable": false,
      "stateMutability": "view",
      "type": "function"
    },
    {
      "constant": false,
      "inputs": [
        {
          "name": "_yinId",
          "type": "uint256"
        },
        {
          "name": "_yangId",
          "type": "uint256"
        }
      ],
      "name": "breedWithAuto",
      "outputs": [],
      "payable": true,
      "stateMutability": "payable",
      "type": "function"
    },
    {
      "anonymous": false,
      "inputs": [
        {
          "indexed": false,
          "name": "owner",
          "type": "address"
        },
        {
          "indexed": false,
          "name": "yinId",
          "type": "uint256"
        },
        {
          "indexed": false,
          "name": "yangId",
          "type": "uint256"
        },
        {
          "indexed": false,
          "name": "cooldownEndBlock",
          "type": "uint256"
        }
      ],
      "name": "Pregnant",
      "type": "event"
    },
    {
      "anonymous": false,
      "inputs": [
        {
          "indexed": true,
          "name": "from",
          "type": "address"
        },
        {
          "indexed": true,
          "name": "to",
          "type": "address"
        },
        {
          "indexed": true,
          "name": "tokenId",
          "type": "uint256"
        }
      ],
      "name": "Transfer",
      "type": "event"
    },
    {
      "anonymous": false,
      "inputs": [
        {
          "indexed": true,
          "name": "owner",
          "type": "address"
        },
        {
          "indexed": true,
          "name": "approved",
          "type": "address"
        },
        {
          "indexed": true,
          "name": "tokenId",
          "type": "uint256"
        }
      ],
      "name": "Approval",
      "type": "event"
    },
    {
      "anonymous": false,
      "inputs": [
        {
          "indexed": true,
          "name": "owner",
          "type": "address"
        },
        {
          "indexed": false,
          "name": "kydyId",
          "type": "uint256"
        },
        {
          "indexed": false,
          "name": "yinId",
          "type": "uint256"
        },
        {
          "indexed": false,
          "name": "yangId",
          "type": "uint256"
        },
        {
          "indexed": false,
          "name": "genes",
          "type": "uint256"
        }
      ],
      "name": "Birth",
      "type": "event"
    },
    {
      "anonymous": false,
      "inputs": [
        {
          "indexed": false,
          "name": "newContract",
          "type": "address"
        }
      ],
      "name": "ContractUpgrade",
      "type": "event"
    },
    {
      "constant": false,
      "inputs": [
        {
          "name": "_address",
          "type": "address"
        }
      ],
      "name": "setSaleAuctionAddress",
      "outputs": [],
      "payable": false,
      "stateMutability": "nonpayable",
      "type": "function"
    },
    {
      "constant": false,
      "inputs": [
        {
          "name": "_address",
          "type": "address"
        }
      ],
      "name": "setSynthesizingAuctionAddress",
      "outputs": [],
      "payable": false,
      "stateMutability": "nonpayable",
      "type": "function"
    },
    {
      "constant": false,
      "inputs": [
        {
          "name": "_kydyId",
          "type": "uint256"
        },
        {
          "name": "_price",
          "type": "uint256"
        }
      ],
      "name": "createSaleAuction",
      "outputs": [],
      "payable": false,
      "stateMutability": "nonpayable",
      "type": "function"
    },
    {
      "constant": false,
      "inputs": [
        {
          "name": "_kydyId",
          "type": "uint256"
        },
        {
          "name": "_price",
          "type": "uint256"
        }
      ],
      "name": "createSynthesizingAuction",
      "outputs": [],
      "payable": false,
      "stateMutability": "nonpayable",
      "type": "function"
    },
    {
      "constant": false,
      "inputs": [
        {
          "name": "_yangId",
          "type": "uint256"
        },
        {
          "name": "_yinId",
          "type": "uint256"
        }
      ],
      "name": "bidOnSynthesizingAuction",
      "outputs": [],
      "payable": true,
      "stateMutability": "payable",
      "type": "function"
    },
    {
      "constant": false,
      "inputs": [],
      "name": "withdrawAuctionBalances",
      "outputs": [],
      "payable": false,
      "stateMutability": "nonpayable",
      "type": "function"
    },
    {
      "constant": false,
      "inputs": [
        {
          "name": "_kydyId",
          "type": "uint256"
        }
      ],
      "name": "cancelSaleAuction",
      "outputs": [],
      "payable": false,
      "stateMutability": "nonpayable",
      "type": "function"
    },
    {
      "constant": false,
      "inputs": [
        {
          "name": "_kydyId",
          "type": "uint256"
        }
      ],
      "name": "cancelSynthesizingAuction",
      "outputs": [],
      "payable": false,
      "stateMutability": "nonpayable",
      "type": "function"
    }
  ],
  "bytecode": "0x60806040526000600260146101000a81548160ff0219169083151502179055506101c060405190810160405280603c63ffffffff1663ffffffff168152602001607863ffffffff1663ffffffff16815260200161012c63ffffffff1663ffffffff16815260200161025863ffffffff1663ffffffff16815260200161070863ffffffff1663ffffffff168152602001610e1063ffffffff1663ffffffff168152602001611c2063ffffffff1663ffffffff16815260200161384063ffffffff1663ffffffff16815260200161708063ffffffff1663ffffffff16815260200161e10063ffffffff1663ffffffff1681526020016201518063ffffffff1663ffffffff1681526020016202a30063ffffffff1663ffffffff1681526020016205460063ffffffff1663ffffffff16815260200162093a8063ffffffff1663ffffffff16815250600390600e6200015692919062000217565b50600f6005556040805190810160405280600781526020017f4479766572736500000000000000000000000000000000000000000000000000815250600b9080519060200190620001a9929190620002c1565b506040805190810160405280600481526020017f4b59445900000000000000000000000000000000000000000000000000000000815250600c9080519060200190620001f7929190620002c1565b5066071afd498d0000600d553480156200021057600080fd5b50620003a6565b82600e600701600890048101928215620002ae5791602002820160005b838211156200027a57835183826101000a81548163ffffffff021916908363ffffffff160217905550926020019260040160208160030104928301926001030262000234565b8015620002ac5782816101000a81549063ffffffff02191690556004016020816003010492830192600103026200027a565b505b509050620002bd919062000348565b5090565b828054600181600116156101000203166002900490600052602060002090601f016020900481019282601f106200030457805160ff191683800117855562000335565b8280016001018555821562000335579182015b828111156200033457825182559160200191906001019062000317565b5b5090506200034491906200037e565b5090565b6200037b91905b808211156200037757600081816101000a81549063ffffffff0219169055506001016200034f565b5090565b90565b620003a391905b808211156200039f57600081600090555060010162000385565b5090565b90565b61403880620003b66000396000f300608060405260043610610230576000357c0100000000000000000000000000000000000000000000000000000000900463ffffffff1680630519ce791461023557806306fdde031461028c578063095ea7b31461031c5780630a0f8168146103695780631051db34146103c057806318160ddd146103ef578063192ec99d1461041a57806319d70e0b1461047157806323b872dd146104a857806324e7a38a14610515578063254b1ddf1461055857806327d7874c146105a55780632ba73c15146105e857806339e395e21461062b5780633f4ba83a1461065557806346d22c701461066c5780634b85fd55146106bb5780634e0a3379146106e85780635627cdcb1461072b5780635663896e146107985780635c975abb146107c55780636352211e146107f45780636fbde40d1461086157806370a08231146108a45780637a7d4937146108fb578063816f1771146109265780638456cb59146109935780638462151c146109aa57806388c2a0bf14610a425780638f9f49b614610a8357806391876e5714610af05780639307cdf414610b0757806395d89b4114610b4a5780639bacf1ed14610bda5780639d6fac6f14610c115780639e5aa5a914610c5e578063a9059cbb14610c89578063b047fb5014610cd6578063b0c35c0514610d2d578063c31f586d14610d58578063cd47f39014610d85578063d3e6f49f14610dd2578063d5f48e7614610e17578063e6cbe35114610e44578063f2b47d5214610e9b578063f7d8c88314610ef2575b600080fd5b34801561024157600080fd5b5061024a610f1c565b604051808273ffffffffffffffffffffffffffffffffffffffff1673ffffffffffffffffffffffffffffffffffffffff16815260200191505060405180910390f35b34801561029857600080fd5b506102a1610f42565b6040518080602001828103825283818151815260200191508051906020019080838360005b838110156102e15780820151818401526020810190506102c6565b50505050905090810190601f16801561030e5780820380516001836020036101000a031916815260200191505b509250505060405180910390f35b34801561032857600080fd5b50610367600480360381019080803573ffffffffffffffffffffffffffffffffffffffff16906020019092919080359060200190929190505050610fe0565b005b34801561037557600080fd5b5061037e61107a565b604051808273ffffffffffffffffffffffffffffffffffffffff1673ffffffffffffffffffffffffffffffffffffffff16815260200191505060405180910390f35b3480156103cc57600080fd5b506103d561109f565b604051808215151515815260200191505060405180910390f35b3480156103fb57600080fd5b506104046110a8565b6040518082815260200191505060405180910390f35b34801561042657600080fd5b5061042f6110b8565b604051808273ffffffffffffffffffffffffffffffffffffffff1673ffffffffffffffffffffffffffffffffffffffff16815260200191505060405180910390f35b34801561047d57600080fd5b506104a660048036038101908080359060200190929190803590602001909291905050506110de565b005b3480156104b457600080fd5b50610513600480360381019080803573ffffffffffffffffffffffffffffffffffffffff169060200190929190803573ffffffffffffffffffffffffffffffffffffffff16906020019092919080359060200190929190505050611224565b005b34801561052157600080fd5b50610556600480360381019080803573ffffffffffffffffffffffffffffffffffffffff16906020019092919050505061127a565b005b34801561056457600080fd5b506105a3600480360381019080803573ffffffffffffffffffffffffffffffffffffffff169060200190929190803590602001909291905050506113c9565b005b3480156105b157600080fd5b506105e6600480360381019080803573ffffffffffffffffffffffffffffffffffffffff169060200190929190505050611450565b005b3480156105f457600080fd5b50610629600480360381019080803573ffffffffffffffffffffffffffffffffffffffff16906020019092919050505061152a565b005b6106536004803603810190808035906020019092919080359060200190929190505050611605565b005b34801561066157600080fd5b5061066a61180b565b005b34801561067857600080fd5b506106a1600480360381019080803590602001909291908035906020019092919050505061189e565b604051808215151515815260200191505060405180910390f35b3480156106c757600080fd5b506106e660048036038101908080359060200190929190505050611926565b005b3480156106f457600080fd5b50610729600480360381019080803573ffffffffffffffffffffffffffffffffffffffff16906020019092919050505061198c565b005b34801561073757600080fd5b5061075660048036038101908080359060200190929190505050611a67565b604051808273ffffffffffffffffffffffffffffffffffffffff1673ffffffffffffffffffffffffffffffffffffffff16815260200191505060405180910390f35b3480156107a457600080fd5b506107c360048036038101908080359060200190929190505050611a9a565b005b3480156107d157600080fd5b506107da611bee565b604051808215151515815260200191505060405180910390f35b34801561080057600080fd5b5061081f60048036038101908080359060200190929190505050611c01565b604051808273ffffffffffffffffffffffffffffffffffffffff1673ffffffffffffffffffffffffffffffffffffffff16815260200191505060405180910390f35b34801561086d57600080fd5b506108a2600480360381019080803573ffffffffffffffffffffffffffffffffffffffff169060200190929190505050611c7a565b005b3480156108b057600080fd5b506108e5600480360381019080803573ffffffffffffffffffffffffffffffffffffffff169060200190929190505050611dc9565b6040518082815260200191505060405180910390f35b34801561090757600080fd5b50610910611e12565b6040518082815260200191505060405180910390f35b34801561093257600080fd5b5061095160048036038101908080359060200190929190505050611e18565b604051808273ffffffffffffffffffffffffffffffffffffffff1673ffffffffffffffffffffffffffffffffffffffff16815260200191505060405180910390f35b34801561099f57600080fd5b506109a8611e4b565b005b3480156109b657600080fd5b506109eb600480360381019080803573ffffffffffffffffffffffffffffffffffffffff169060200190929190505050611f8f565b6040518080602001828103825283818151815260200191508051906020019060200280838360005b83811015610a2e578082015181840152602081019050610a13565b505050509050019250505060405180910390f35b348015610a4e57600080fd5b50610a6d600480360381019080803590602001909291905050506120dc565b6040518082815260200191505060405180910390f35b348015610a8f57600080fd5b50610aae600480360381019080803590602001909291905050506124f7565b604051808273ffffffffffffffffffffffffffffffffffffffff1673ffffffffffffffffffffffffffffffffffffffff16815260200191505060405180910390f35b348015610afc57600080fd5b50610b0561252a565b005b348015610b1357600080fd5b50610b48600480360381019080803573ffffffffffffffffffffffffffffffffffffffff1690602001909291905050506126c4565b005b348015610b5657600080fd5b50610b5f612813565b6040518080602001828103825283818151815260200191508051906020019080838360005b83811015610b9f578082015181840152602081019050610b84565b50505050905090810190601f168015610bcc5780820380516001836020036101000a031916815260200191505b509250505060405180910390f35b348015610be657600080fd5b50610c0f60048036038101908080359060200190929190803590602001909291905050506128b1565b005b348015610c1d57600080fd5b50610c3c60048036038101908080359060200190929190505050612a0b565b604051808263ffffffff1663ffffffff16815260200191505060405180910390f35b348015610c6a57600080fd5b50610c73612a3a565b6040518082815260200191505060405180910390f35b348015610c9557600080fd5b50610cd4600480360381019080803573ffffffffffffffffffffffffffffffffffffffff16906020019092919080359060200190929190505050612a40565b005b348015610ce257600080fd5b50610ceb612abc565b604051808273ffffffffffffffffffffffffffffffffffffffff1673ffffffffffffffffffffffffffffffffffffffff16815260200191505060405180910390f35b348015610d3957600080fd5b50610d42612ae2565b6040518082815260200191505060405180910390f35b348015610d6457600080fd5b50610d8360048036038101908080359060200190929190505050612ae8565b005b348015610d9157600080fd5b50610dd060048036038101908080359060200190929190803573ffffffffffffffffffffffffffffffffffffffff169060200190929190505050612c2b565b005b348015610dde57600080fd5b50610dfd60048036038101908080359060200190929190505050612cc7565b604051808215151515815260200191505060405180910390f35b348015610e2357600080fd5b50610e4260048036038101908080359060200190929190505050612e36565b005b348015610e5057600080fd5b50610e59612f79565b604051808273ffffffffffffffffffffffffffffffffffffffff1673ffffffffffffffffffffffffffffffffffffffff16815260200191505060405180910390f35b348015610ea757600080fd5b50610eb0612f9f565b604051808273ffffffffffffffffffffffffffffffffffffffff1673ffffffffffffffffffffffffffffffffffffffff16815260200191505060405180910390f35b610f1a6004803603810190808035906020019092919080359060200190929190505050612fc5565b005b600160009054906101000a900473ffffffffffffffffffffffffffffffffffffffff1681565b600b8054600181600116156101000203166002900480601f016020809104026020016040519081016040528092919081815260200182805460018160011615610100020316600290048015610fd85780601f10610fad57610100808354040283529160200191610fd8565b820191906000526020600020905b815481529060010190602001808311610fbb57829003601f168201915b505050505081565b600260149054906101000a900460ff16151515610ffc57600080fd5b6110063382613306565b151561101157600080fd5b61101b8183613372565b808273ffffffffffffffffffffffffffffffffffffffff163373ffffffffffffffffffffffffffffffffffffffff167f8c5be1e5ebec7d5bd14f71427d1e84f3dd0314c0f7b2291e5b200ac8c7c3b92560405160405180910390a45050565b6000809054906101000a900473ffffffffffffffffffffffffffffffffffffffff1681565b60006001905090565b6000600160068054905003905090565b601160009054906101000a900473ffffffffffffffffffffffffffffffffffffffff1681565b600260149054906101000a900460ff161515156110fa57600080fd5b6111043383613306565b151561110f57600080fd5b61113b82601060009054906101000a900473ffffffffffffffffffffffffffffffffffffffff16613372565b601060009054906101000a900473ffffffffffffffffffffffffffffffffffffffff1673ffffffffffffffffffffffffffffffffffffffff166354279bdd8383336040518463ffffffff167c0100000000000000000000000000000000000000000000000000000000028152600401808481526020018381526020018273ffffffffffffffffffffffffffffffffffffffff1673ffffffffffffffffffffffffffffffffffffffff1681526020019350505050600060405180830381600087803b15801561120857600080fd5b505af115801561121c573d6000803e3d6000fd5b505050505050565b600260149054906101000a900460ff1615151561124057600080fd5b61124a33826133c8565b151561125557600080fd5b61125f8382613306565b151561126a57600080fd5b611275838383613434565b505050565b60008060009054906101000a900473ffffffffffffffffffffffffffffffffffffffff1673ffffffffffffffffffffffffffffffffffffffff163373ffffffffffffffffffffffffffffffffffffffff161415156112d757600080fd5b8190508073ffffffffffffffffffffffffffffffffffffffff166354c15b826040518163ffffffff167c0100000000000000000000000000000000000000000000000000000000028152600401602060405180830381600087803b15801561133e57600080fd5b505af1158015611352573d6000803e3d6000fd5b505050506040513d602081101561136857600080fd5b8101908080519060200190929190505050151561138457600080fd5b80600f60006101000a81548173ffffffffffffffffffffffffffffffffffffffff021916908373ffffffffffffffffffffffffffffffffffffffff1602179055505050565b600260149054906101000a900460ff161515156113e557600080fd5b6113ef3382613306565b15156113fa57600080fd5b81600a600083815260200190815260200160002060006101000a81548173ffffffffffffffffffffffffffffffffffffffff021916908373ffffffffffffffffffffffffffffffffffffffff1602179055505050565b6000809054906101000a900473ffffffffffffffffffffffffffffffffffffffff1673ffffffffffffffffffffffffffffffffffffffff163373ffffffffffffffffffffffffffffffffffffffff161415156114ab57600080fd5b600073ffffffffffffffffffffffffffffffffffffffff168173ffffffffffffffffffffffffffffffffffffffff16141515156114e757600080fd5b806000806101000a81548173ffffffffffffffffffffffffffffffffffffffff021916908373ffffffffffffffffffffffffffffffffffffffff16021790555050565b6000809054906101000a900473ffffffffffffffffffffffffffffffffffffffff1673ffffffffffffffffffffffffffffffffffffffff163373ffffffffffffffffffffffffffffffffffffffff1614151561158557600080fd5b600073ffffffffffffffffffffffffffffffffffffffff168173ffffffffffffffffffffffffffffffffffffffff16141515156115c157600080fd5b80600260006101000a81548173ffffffffffffffffffffffffffffffffffffffff021916908373ffffffffffffffffffffffffffffffffffffffff16021790555050565b6000600260149054906101000a900460ff1615151561162357600080fd5b61162d3383613306565b151561163857600080fd5b61164182612cc7565b151561164c57600080fd5b6116568284613628565b151561166157600080fd5b601160009054906101000a900473ffffffffffffffffffffffffffffffffffffffff1673ffffffffffffffffffffffffffffffffffffffff1663c55d0f56846040518263ffffffff167c010000000000000000000000000000000000000000000000000000000002815260040180828152602001915050602060405180830381600087803b1580156116f257600080fd5b505af1158015611706573d6000803e3d6000fd5b505050506040513d602081101561171c57600080fd5b81019080805190602001909291905050509050600d548101341015151561174257600080fd5b601160009054906101000a900473ffffffffffffffffffffffffffffffffffffffff1673ffffffffffffffffffffffffffffffffffffffff1663454a2ab3600d543403856040518363ffffffff167c0100000000000000000000000000000000000000000000000000000000028152600401808281526020019150506000604051808303818588803b1580156117d757600080fd5b505af11580156117eb573d6000803e3d6000fd5b50505050506118068263ffffffff168463ffffffff16613681565b505050565b6000809054906101000a900473ffffffffffffffffffffffffffffffffffffffff1673ffffffffffffffffffffffffffffffffffffffff163373ffffffffffffffffffffffffffffffffffffffff1614151561186657600080fd5b600260149054906101000a900460ff16151561188157600080fd5b6000600260146101000a81548160ff021916908315150217905550565b600080600080851115156118b157600080fd5b6000841115156118c057600080fd5b6006858154811015156118cf57fe5b906000526020600020906002020191506006848154811015156118ee57fe5b9060005260206000209060020201905061190a8286838761384b565b801561191c575061191b8486613a60565b5b9250505092915050565b600260009054906101000a900473ffffffffffffffffffffffffffffffffffffffff1673ffffffffffffffffffffffffffffffffffffffff163373ffffffffffffffffffffffffffffffffffffffff1614151561198257600080fd5b80600d8190555050565b6000809054906101000a900473ffffffffffffffffffffffffffffffffffffffff1673ffffffffffffffffffffffffffffffffffffffff163373ffffffffffffffffffffffffffffffffffffffff161415156119e757600080fd5b600073ffffffffffffffffffffffffffffffffffffffff168173ffffffffffffffffffffffffffffffffffffffff1614151515611a2357600080fd5b80600160006101000a81548173ffffffffffffffffffffffffffffffffffffffff021916908373ffffffffffffffffffffffffffffffffffffffff16021790555050565b60076020528060005260406000206000915054906101000a900473ffffffffffffffffffffffffffffffffffffffff1681565b600260009054906101000a900473ffffffffffffffffffffffffffffffffffffffff1673ffffffffffffffffffffffffffffffffffffffff163373ffffffffffffffffffffffffffffffffffffffff161480611b4257506000809054906101000a900473ffffffffffffffffffffffffffffffffffffffff1673ffffffffffffffffffffffffffffffffffffffff163373ffffffffffffffffffffffffffffffffffffffff16145b80611b9a5750600160009054906101000a900473ffffffffffffffffffffffffffffffffffffffff1673ffffffffffffffffffffffffffffffffffffffff163373ffffffffffffffffffffffffffffffffffffffff16145b1515611ba557600080fd5b60036000600e81101515611bb557fe5b600891828204019190066004029054906101000a900463ffffffff1663ffffffff1681101515611be457600080fd5b8060058190555050565b600260149054906101000a900460ff1681565b60006007600083815260200190815260200160002060009054906101000a900473ffffffffffffffffffffffffffffffffffffffff169050600073ffffffffffffffffffffffffffffffffffffffff168173ffffffffffffffffffffffffffffffffffffffff1614151515611c7557600080fd5b919050565b60008060009054906101000a900473ffffffffffffffffffffffffffffffffffffffff1673ffffffffffffffffffffffffffffffffffffffff163373ffffffffffffffffffffffffffffffffffffffff16141515611cd757600080fd5b8190508073ffffffffffffffffffffffffffffffffffffffff166385b861886040518163ffffffff167c0100000000000000000000000000000000000000000000000000000000028152600401602060405180830381600087803b158015611d3e57600080fd5b505af1158015611d52573d6000803e3d6000fd5b505050506040513d6020811015611d6857600080fd5b81019080805190602001909291905050501515611d8457600080fd5b80601060006101000a81548173ffffffffffffffffffffffffffffffffffffffff021916908373ffffffffffffffffffffffffffffffffffffffff1602179055505050565b6000600860008373ffffffffffffffffffffffffffffffffffffffff1673ffffffffffffffffffffffffffffffffffffffff168152602001908152602001600020549050919050565b60055481565b60096020528060005260406000206000915054906101000a900473ffffffffffffffffffffffffffffffffffffffff1681565b600260009054906101000a900473ffffffffffffffffffffffffffffffffffffffff1673ffffffffffffffffffffffffffffffffffffffff163373ffffffffffffffffffffffffffffffffffffffff161480611ef357506000809054906101000a900473ffffffffffffffffffffffffffffffffffffffff1673ffffffffffffffffffffffffffffffffffffffff163373ffffffffffffffffffffffffffffffffffffffff16145b80611f4b5750600160009054906101000a900473ffffffffffffffffffffffffffffffffffffffff1673ffffffffffffffffffffffffffffffffffffffff163373ffffffffffffffffffffffffffffffffffffffff16145b1515611f5657600080fd5b600260149054906101000a900460ff16151515611f7257600080fd5b6001600260146101000a81548160ff021916908315150217905550565b6060600060606000806000611fa387611dc9565b94506000851415611fe6576000604051908082528060200260200182016040528015611fde5781602001602082028038833980820191505090505b5095506120d2565b846040519080825280602002602001820160405280156120155781602001602082028038833980820191505090505b5093506120206110a8565b925060009150600190505b82811115156120ce578673ffffffffffffffffffffffffffffffffffffffff166007600083815260200190815260200160002060009054906101000a900473ffffffffffffffffffffffffffffffffffffffff1673ffffffffffffffffffffffffffffffffffffffff1614156120c1578084838151811015156120aa57fe5b906020019060200201818152505081806001019250505b808060010191505061202b565b8395505b5050505050919050565b600080600080600080600080600260149054906101000a900460ff1615151561210457600080fd5b60068981548110151561211357fe5b9060005260206000209060020201965060008760010160009054906101000a900467ffffffffffffffff1667ffffffffffffffff161415151561215557600080fd5b61228b876101006040519081016040529081600082015481526020016001820160009054906101000a900467ffffffffffffffff1667ffffffffffffffff1667ffffffffffffffff1681526020016001820160089054906101000a900467ffffffffffffffff1667ffffffffffffffff1667ffffffffffffffff1681526020016001820160109054906101000a900463ffffffff1663ffffffff1663ffffffff1681526020016001820160149054906101000a900463ffffffff1663ffffffff1663ffffffff1681526020016001820160189054906101000a900463ffffffff1663ffffffff1663ffffffff16815260200160018201601c9054906101000a900461ffff1661ffff1661ffff16815260200160018201601e9054906101000a900461ffff1661ffff1661ffff1681525050613b73565b151561229657600080fd5b8660010160189054906101000a900463ffffffff1663ffffffff1695506006868154811015156122c257fe5b9060005260206000209060020201945086600101601e9054906101000a900461ffff16935086600101601e9054906101000a900461ffff1661ffff1685600101601e9054906101000a900461ffff1661ffff1611156123315784600101601e9054906101000a900461ffff1693505b600f60009054906101000a900473ffffffffffffffffffffffffffffffffffffffff1673ffffffffffffffffffffffffffffffffffffffff16638d8b1b88886000015487600001546040518363ffffffff167c01000000000000000000000000000000000000000000000000000000000281526004018083815260200182815260200192505050602060405180830381600087803b1580156123d257600080fd5b505af11580156123e6573d6000803e3d6000fd5b505050506040513d60208110156123fc57600080fd5b81019080805190602001909291905050509250600760008a815260200190815260200160002060009054906101000a900473ffffffffffffffffffffffffffffffffffffffff169150612473898860010160189054906101000a900463ffffffff1663ffffffff166001870161ffff168686613bae565b90508660010160186101000a81549063ffffffff0219169055600e60008154809291906001900391905055503373ffffffffffffffffffffffffffffffffffffffff166108fc600d549081150290604051600060405180830381858888f193505050501580156124e7573d6000803e3d6000fd5b5080975050505050505050919050565b600a6020528060005260406000206000915054906101000a900473ffffffffffffffffffffffffffffffffffffffff1681565b600260009054906101000a900473ffffffffffffffffffffffffffffffffffffffff1673ffffffffffffffffffffffffffffffffffffffff163373ffffffffffffffffffffffffffffffffffffffff1614151561258657600080fd5b601060009054906101000a900473ffffffffffffffffffffffffffffffffffffffff1673ffffffffffffffffffffffffffffffffffffffff16635fd8c7106040518163ffffffff167c0100000000000000000000000000000000000000000000000000000000028152600401600060405180830381600087803b15801561260c57600080fd5b505af1158015612620573d6000803e3d6000fd5b50505050601160009054906101000a900473ffffffffffffffffffffffffffffffffffffffff1673ffffffffffffffffffffffffffffffffffffffff16635fd8c7106040518163ffffffff167c0100000000000000000000000000000000000000000000000000000000028152600401600060405180830381600087803b1580156126aa57600080fd5b505af11580156126be573d6000803e3d6000fd5b50505050565b60008060009054906101000a900473ffffffffffffffffffffffffffffffffffffffff1673ffffffffffffffffffffffffffffffffffffffff163373ffffffffffffffffffffffffffffffffffffffff1614151561272157600080fd5b8190508073ffffffffffffffffffffffffffffffffffffffff1663ffadaae56040518163ffffffff167c0100000000000000000000000000000000000000000000000000000000028152600401602060405180830381600087803b15801561278857600080fd5b505af115801561279c573d6000803e3d6000fd5b505050506040513d60208110156127b257600080fd5b810190808051906020019092919050505015156127ce57600080fd5b80601160006101000a81548173ffffffffffffffffffffffffffffffffffffffff021916908373ffffffffffffffffffffffffffffffffffffffff1602179055505050565b600c8054600181600116156101000203166002900480601f0160208091040260200160405190810160405280929190818152602001828054600181600116156101000203166002900480156128a95780601f1061287e576101008083540402835291602001916128a9565b820191906000526020600020905b81548152906001019060200180831161288c57829003601f168201915b505050505081565b600260149054906101000a900460ff161515156128cd57600080fd5b6128d73383613306565b15156128e257600080fd5b6128eb82612cc7565b15156128f657600080fd5b61292282601160009054906101000a900473ffffffffffffffffffffffffffffffffffffffff16613372565b601160009054906101000a900473ffffffffffffffffffffffffffffffffffffffff1673ffffffffffffffffffffffffffffffffffffffff166354279bdd8383336040518463ffffffff167c0100000000000000000000000000000000000000000000000000000000028152600401808481526020018381526020018273ffffffffffffffffffffffffffffffffffffffff1673ffffffffffffffffffffffffffffffffffffffff1681526020019350505050600060405180830381600087803b1580156129ef57600080fd5b505af1158015612a03573d6000803e3d6000fd5b505050505050565b600381600e81101515612a1a57fe5b60089182820401919006600402915054906101000a900463ffffffff1681565b600e5481565b600260149054906101000a900460ff16151515612a5c57600080fd5b600073ffffffffffffffffffffffffffffffffffffffff168273ffffffffffffffffffffffffffffffffffffffff1614151515612a9857600080fd5b612aa23382613306565b1515612aad57600080fd5b612ab8338383613434565b5050565b600260009054906101000a900473ffffffffffffffffffffffffffffffffffffffff1681565b600d5481565b6000600260149054906101000a900460ff16151515612b0657600080fd5b612b32601060009054906101000a900473ffffffffffffffffffffffffffffffffffffffff1683613306565b1515612b3d57600080fd5b339050612b4a8282613372565b601060009054906101000a900473ffffffffffffffffffffffffffffffffffffffff1673ffffffffffffffffffffffffffffffffffffffff16634e8eaa1383836040518363ffffffff167c0100000000000000000000000000000000000000000000000000000000028152600401808381526020018273ffffffffffffffffffffffffffffffffffffffff1673ffffffffffffffffffffffffffffffffffffffff16815260200192505050600060405180830381600087803b158015612c0f57600080fd5b505af1158015612c23573d6000803e3d6000fd5b505050505050565b600260009054906101000a900473ffffffffffffffffffffffffffffffffffffffff1673ffffffffffffffffffffffffffffffffffffffff163373ffffffffffffffffffffffffffffffffffffffff16141515612c8757600080fd5b600260149054906101000a900460ff16151515612ca357600080fd5b612cad3083613306565b1515612cb857600080fd5b612cc3308284613434565b5050565b600080600083111515612cd957600080fd5b600683815481101515612ce857fe5b90600052602060002090600202019050612e2e816101006040519081016040529081600082015481526020016001820160009054906101000a900467ffffffffffffffff1667ffffffffffffffff1667ffffffffffffffff1681526020016001820160089054906101000a900467ffffffffffffffff1667ffffffffffffffff1667ffffffffffffffff1681526020016001820160109054906101000a900463ffffffff1663ffffffff1663ffffffff1681526020016001820160149054906101000a900463ffffffff1663ffffffff1663ffffffff1681526020016001820160189054906101000a900463ffffffff1663ffffffff1663ffffffff16815260200160018201601c9054906101000a900461ffff1661ffff1661ffff16815260200160018201601e9054906101000a900461ffff1661ffff1661ffff1681525050613e88565b915050919050565b6000600260149054906101000a900460ff16151515612e5457600080fd5b612e80601160009054906101000a900473ffffffffffffffffffffffffffffffffffffffff1683613306565b1515612e8b57600080fd5b339050612e988282613372565b601160009054906101000a900473ffffffffffffffffffffffffffffffffffffffff1673ffffffffffffffffffffffffffffffffffffffff16634e8eaa1383836040518363ffffffff167c0100000000000000000000000000000000000000000000000000000000028152600401808381526020018273ffffffffffffffffffffffffffffffffffffffff1673ffffffffffffffffffffffffffffffffffffffff16815260200192505050600060405180830381600087803b158015612f5d57600080fd5b505af1158015612f71573d6000803e3d6000fd5b505050505050565b601060009054906101000a900473ffffffffffffffffffffffffffffffffffffffff1681565b600f60009054906101000a900473ffffffffffffffffffffffffffffffffffffffff1681565b600080600260149054906101000a900460ff16151515612fe457600080fd5b600d543410151515612ff557600080fd5b612fff3385613306565b151561300a57600080fd5b6130148385613a60565b151561301f57600080fd5b60068481548110151561302e57fe5b90600052602060002090600202019150613174826101006040519081016040529081600082015481526020016001820160009054906101000a900467ffffffffffffffff1667ffffffffffffffff1667ffffffffffffffff1681526020016001820160089054906101000a900467ffffffffffffffff1667ffffffffffffffff1667ffffffffffffffff1681526020016001820160109054906101000a900463ffffffff1663ffffffff1663ffffffff1681526020016001820160149054906101000a900463ffffffff1663ffffffff1663ffffffff1681526020016001820160189054906101000a900463ffffffff1663ffffffff1663ffffffff16815260200160018201601c9054906101000a900461ffff1661ffff1661ffff16815260200160018201601e9054906101000a900461ffff1661ffff1661ffff1681525050613e88565b151561317f57600080fd5b60068381548110151561318e57fe5b906000526020600020906002020190506132d4816101006040519081016040529081600082015481526020016001820160009054906101000a900467ffffffffffffffff1667ffffffffffffffff1667ffffffffffffffff1681526020016001820160089054906101000a900467ffffffffffffffff1667ffffffffffffffff1667ffffffffffffffff1681526020016001820160109054906101000a900463ffffffff1663ffffffff1663ffffffff1681526020016001820160149054906101000a900463ffffffff1663ffffffff1663ffffffff1681526020016001820160189054906101000a900463ffffffff1663ffffffff1663ffffffff16815260200160018201601c9054906101000a900461ffff1661ffff1661ffff16815260200160018201601e9054906101000a900461ffff1661ffff1661ffff1681525050613e88565b15156132df57600080fd5b6132eb8285838661384b565b15156132f657600080fd5b6133008484613681565b50505050565b60008273ffffffffffffffffffffffffffffffffffffffff166007600084815260200190815260200160002060009054906101000a900473ffffffffffffffffffffffffffffffffffffffff1673ffffffffffffffffffffffffffffffffffffffff1614905092915050565b806009600084815260200190815260200160002060006101000a81548173ffffffffffffffffffffffffffffffffffffffff021916908373ffffffffffffffffffffffffffffffffffffffff1602179055505050565b60008273ffffffffffffffffffffffffffffffffffffffff166009600084815260200190815260200160002060009054906101000a900473ffffffffffffffffffffffffffffffffffffffff1673ffffffffffffffffffffffffffffffffffffffff1614905092915050565b600860008373ffffffffffffffffffffffffffffffffffffffff1673ffffffffffffffffffffffffffffffffffffffff16815260200190815260200160002060008154809291906001019190505550816007600083815260200190815260200160002060006101000a81548173ffffffffffffffffffffffffffffffffffffffff021916908373ffffffffffffffffffffffffffffffffffffffff160217905550600073ffffffffffffffffffffffffffffffffffffffff168373ffffffffffffffffffffffffffffffffffffffff161415156135c857600860008473ffffffffffffffffffffffffffffffffffffffff1673ffffffffffffffffffffffffffffffffffffffff1681526020019081526020016000206000815480929190600190039190505550600a600082815260200190815260200160002060006101000a81549073ffffffffffffffffffffffffffffffffffffffff02191690556009600082815260200190815260200160002060006101000a81549073ffffffffffffffffffffffffffffffffffffffff02191690555b808273ffffffffffffffffffffffffffffffffffffffff168473ffffffffffffffffffffffffffffffffffffffff167fddf252ad1be2c89b69c2b068fc378daa952ba7f163c4a11628f55a4df523b3ef60405160405180910390a4505050565b600080600060068581548110151561363c57fe5b9060005260206000209060020201915060068481548110151561365b57fe5b906000526020600020906002020190506136778286838761384b565b9250505092915050565b60008060068381548110151561369357fe5b906000526020600020906002020191506006848154811015156136b257fe5b90600052602060002090600202019050828160010160186101000a81548163ffffffff021916908363ffffffff1602179055506136ee82613ec2565b6136f781613ec2565b600a600085815260200190815260200160002060006101000a81549073ffffffffffffffffffffffffffffffffffffffff0219169055600a600084815260200190815260200160002060006101000a81549073ffffffffffffffffffffffffffffffffffffffff0219169055600e600081548092919060010191905055507f241ea03ca20251805084d27d4440371c34a0b85ff108f6bb5611248f73818b806007600086815260200190815260200160002060009054906101000a900473ffffffffffffffffffffffffffffffffffffffff1685858460010160089054906101000a900467ffffffffffffffff16604051808573ffffffffffffffffffffffffffffffffffffffff1673ffffffffffffffffffffffffffffffffffffffff1681526020018481526020018381526020018267ffffffffffffffff16815260200194505050505060405180910390a150505050565b60008184141561385e5760009050613a58565b818560010160109054906101000a900463ffffffff1663ffffffff16148061389f5750818560010160149054906101000a900463ffffffff1663ffffffff16145b156138ad5760009050613a58565b838360010160109054906101000a900463ffffffff1663ffffffff1614806138ee5750838360010160149054906101000a900463ffffffff1663ffffffff16145b156138fc5760009050613a58565b60008360010160109054906101000a900463ffffffff1663ffffffff16148061393f575060008560010160109054906101000a900463ffffffff1663ffffffff16145b1561394d5760019050613a58565b8460010160109054906101000a900463ffffffff1663ffffffff168360010160109054906101000a900463ffffffff1663ffffffff1614806139c257508460010160149054906101000a900463ffffffff1663ffffffff168360010160109054906101000a900463ffffffff1663ffffffff16145b156139d05760009050613a58565b8460010160109054906101000a900463ffffffff1663ffffffff168360010160149054906101000a900463ffffffff1663ffffffff161480613a4557508460010160149054906101000a900463ffffffff1663ffffffff168360010160149054906101000a900463ffffffff1663ffffffff16145b15613a535760009050613a58565b600190505b949350505050565b60008060006007600085815260200190815260200160002060009054906101000a900473ffffffffffffffffffffffffffffffffffffffff1691506007600086815260200190815260200160002060009054906101000a900473ffffffffffffffffffffffffffffffffffffffff1690508073ffffffffffffffffffffffffffffffffffffffff168273ffffffffffffffffffffffffffffffffffffffff161480613b6957508173ffffffffffffffffffffffffffffffffffffffff16600a600087815260200190815260200160002060009054906101000a900473ffffffffffffffffffffffffffffffffffffffff1673ffffffffffffffffffffffffffffffffffffffff16145b9250505092915050565b6000808260a0015163ffffffff1614158015613ba757504367ffffffffffffffff16826040015167ffffffffffffffff1611155b9050919050565b600080613bb9613f98565b60008863ffffffff1689141515613bcf57600080fd5b8763ffffffff1688141515613be357600080fd5b8661ffff1687141515613bf557600080fd5b600287811515613c0157fe5b049250600d8361ffff161115613c1657600d92505b610100604051908101604052808781526020014267ffffffffffffffff168152602001600067ffffffffffffffff1681526020018a63ffffffff1681526020018963ffffffff168152602001600063ffffffff1681526020018461ffff1681526020018861ffff1681525091506001600683908060018154018082558091505090600182039060005260206000209060020201600090919290919091506000820151816000015560208201518160010160006101000a81548167ffffffffffffffff021916908367ffffffffffffffff16021790555060408201518160010160086101000a81548167ffffffffffffffff021916908367ffffffffffffffff16021790555060608201518160010160106101000a81548163ffffffff021916908363ffffffff16021790555060808201518160010160146101000a81548163ffffffff021916908363ffffffff16021790555060a08201518160010160186101000a81548163ffffffff021916908363ffffffff16021790555060c082015181600101601c6101000a81548161ffff021916908361ffff16021790555060e082015181600101601e6101000a81548161ffff021916908361ffff16021790555050500390508063ffffffff1681141515613def57600080fd5b8473ffffffffffffffffffffffffffffffffffffffff167f0a5311bd2a6608f08a180df2ee7c5946819a649b204b554bb8e39825b2c50ad582846060015163ffffffff16856080015163ffffffff1686600001516040518085815260200184815260200183815260200182815260200194505050505060405180910390a2613e7960008683613434565b80935050505095945050505050565b6000808260a0015163ffffffff16148015613ebb57504367ffffffffffffffff16826040015167ffffffffffffffff1611155b9050919050565b43600554600383600101601c9054906101000a900461ffff1661ffff16600e81101515613eeb57fe5b600891828204019190066004029054906101000a900463ffffffff1663ffffffff16811515613f1657fe5b04018160010160086101000a81548167ffffffffffffffff021916908367ffffffffffffffff160217905550600d81600101601c9054906101000a900461ffff1661ffff161015613f9557600181600101601c8282829054906101000a900461ffff160192506101000a81548161ffff021916908361ffff1602179055505b50565b6101006040519081016040528060008152602001600067ffffffffffffffff168152602001600067ffffffffffffffff168152602001600063ffffffff168152602001600063ffffffff168152602001600063ffffffff168152602001600061ffff168152602001600061ffff16815250905600a165627a7a72305820532b99dbded166d92911367337bd13f3fc1b0dda9a6c8d7eec8f19093cc9d7d60029",
  "source": "pragma solidity ^0.4.24;\n\nimport \"./KydyBreeding.sol\";\nimport \"./Auction/ClockAuction.sol\";\nimport \"./Auction/SynthesizingClockAuction.sol\";\nimport \"./Auction/SaleClockAuction.sol\";\n\ncontract KydyAuction is KydyBreeding {\n\n    SaleClockAuction public saleAuction;\n\n    SynthesizingClockAuction public synthesizingAuction;\n\n    function setSaleAuctionAddress(address _address) public onlyCEO {\n        SaleClockAuction candidateContract = SaleClockAuction(_address);\n\n        require(candidateContract.isSaleClockAuction());\n\n        saleAuction = candidateContract;\n    }\n\n    function setSynthesizingAuctionAddress(address _address) public onlyCEO {\n        SynthesizingClockAuction candidateContract = SynthesizingClockAuction(_address);\n\n        require(candidateContract.isSynthesizingClockAuction());\n\n        synthesizingAuction = candidateContract;\n    }\n\n    function createSaleAuction(\n        uint256 _kydyId,\n        uint256 _price\n    )\n        public\n        whenNotPaused\n    {\n        require(_owns(msg.sender, _kydyId));\n        _approve(_kydyId, saleAuction);\n        saleAuction.createAuction(\n            _kydyId,\n            _price,\n            msg.sender\n        );\n    }\n\n    function createSynthesizingAuction(\n        uint256 _kydyId,\n        uint256 _price\n    )\n        public\n        whenNotPaused\n    {\n        require(_owns(msg.sender, _kydyId));\n        require(isReadyToBreed(_kydyId));\n        _approve(_kydyId, synthesizingAuction);\n        synthesizingAuction.createAuction(\n            _kydyId,\n            _price,\n            msg.sender\n        );\n    }\n\n    function bidOnSynthesizingAuction(\n        uint256 _yangId,\n        uint256 _yinId\n    )\n        public\n        payable\n        whenNotPaused\n    {\n        require(_owns(msg.sender, _yinId));\n        require(isReadyToBreed(_yinId));\n        require(_canBreedWithViaAuction(_yinId, _yangId));\n        uint256 currPrice = synthesizingAuction.getCurrentPrice(_yangId);\n\n        require (msg.value >= currPrice + autoBirthFee);\n\n        synthesizingAuction.bid.value(msg.value - autoBirthFee)(_yangId);\n        _breedWith(uint32(_yinId), uint32(_yangId));\n    }\n\n    function withdrawAuctionBalances() external onlyCOO {\n        saleAuction.withdrawBalance();\n        synthesizingAuction.withdrawBalance();\n    }\n\n    function cancelSaleAuction(\n        uint256 _kydyId\n    )\n        public\n        whenNotPaused\n    {\n        require(_owns(saleAuction, _kydyId));\n        address _seller = msg.sender;\n        _approve(_kydyId, _seller);\n        saleAuction.cancelAuction(_kydyId, _seller);\n    }\n\n    function cancelSynthesizingAuction(\n        uint256 _kydyId\n    )\n        public\n        whenNotPaused\n    {\n        require(_owns(synthesizingAuction, _kydyId));\n        address _seller = msg.sender;\n        _approve(_kydyId, _seller);\n        synthesizingAuction.cancelAuction(_kydyId, _seller);\n    }\n}\n",
  "sourcePath": "/Users/Keki/Vrexlab/kydy-solidity/contracts/KydyAuction.sol",
  "compiler": {
    "name": "solc",
    "version": "0.4.24+commit.e67f0147.Emscripten.clang"
  },
  "schemaVersion": "2.0.1",
  "updatedAt": "2018-11-12T07:02:22.700Z"
}