{
  "contractName": "KydyTravelCore",
  "abi": [
    {
      "constant": true,
      "inputs": [],
      "name": "cfoAddress",
      "outputs": [
        {
          "name": "",
          "type": "address"
        }
      ],
      "payable": false,
      "stateMutability": "view",
      "type": "function"
    },
    {
      "constant": true,
      "inputs": [],
      "name": "ceoAddress",
      "outputs": [
        {
          "name": "",
          "type": "address"
        }
      ],
      "payable": false,
      "stateMutability": "view",
      "type": "function"
    },
    {
      "constant": true,
      "inputs": [],
      "name": "conf",
      "outputs": [
        {
          "name": "",
          "type": "address"
        }
      ],
      "payable": false,
      "stateMutability": "view",
      "type": "function"
    },
    {
      "constant": false,
      "inputs": [
        {
          "name": "_newCEO",
          "type": "address"
        }
      ],
      "name": "setCEO",
      "outputs": [],
      "payable": false,
      "stateMutability": "nonpayable",
      "type": "function"
    },
    {
      "constant": false,
      "inputs": [
        {
          "name": "_newCOO",
          "type": "address"
        }
      ],
      "name": "setCOO",
      "outputs": [],
      "payable": false,
      "stateMutability": "nonpayable",
      "type": "function"
    },
    {
      "constant": false,
      "inputs": [],
      "name": "unpause",
      "outputs": [],
      "payable": false,
      "stateMutability": "nonpayable",
      "type": "function"
    },
    {
      "constant": false,
      "inputs": [
        {
          "name": "_newCFO",
          "type": "address"
        }
      ],
      "name": "setCFO",
      "outputs": [],
      "payable": false,
      "stateMutability": "nonpayable",
      "type": "function"
    },
    {
      "constant": true,
      "inputs": [],
      "name": "paused",
      "outputs": [
        {
          "name": "",
          "type": "bool"
        }
      ],
      "payable": false,
      "stateMutability": "view",
      "type": "function"
    },
    {
      "constant": true,
      "inputs": [],
      "name": "data",
      "outputs": [
        {
          "name": "",
          "type": "address"
        }
      ],
      "payable": false,
      "stateMutability": "view",
      "type": "function"
    },
    {
      "constant": false,
      "inputs": [],
      "name": "pause",
      "outputs": [],
      "payable": false,
      "stateMutability": "nonpayable",
      "type": "function"
    },
    {
      "constant": true,
      "inputs": [],
      "name": "cooAddress",
      "outputs": [
        {
          "name": "",
          "type": "address"
        }
      ],
      "payable": false,
      "stateMutability": "view",
      "type": "function"
    },
    {
      "constant": true,
      "inputs": [],
      "name": "kydyCore",
      "outputs": [
        {
          "name": "",
          "type": "address"
        }
      ],
      "payable": false,
      "stateMutability": "view",
      "type": "function"
    },
    {
      "constant": true,
      "inputs": [],
      "name": "token",
      "outputs": [
        {
          "name": "",
          "type": "address"
        }
      ],
      "payable": false,
      "stateMutability": "view",
      "type": "function"
    },
    {
      "inputs": [],
      "payable": false,
      "stateMutability": "nonpayable",
      "type": "constructor"
    },
    {
      "anonymous": false,
      "inputs": [
        {
          "indexed": false,
          "name": "newContract",
          "type": "address"
        }
      ],
      "name": "ContractUpgrade",
      "type": "event"
    },
    {
      "constant": false,
      "inputs": [
        {
          "name": "_newKydyCore",
          "type": "address"
        }
      ],
      "name": "setKydyCore",
      "outputs": [],
      "payable": false,
      "stateMutability": "nonpayable",
      "type": "function"
    },
    {
      "constant": false,
      "inputs": [
        {
          "name": "_newToken",
          "type": "address"
        }
      ],
      "name": "setToken",
      "outputs": [],
      "payable": false,
      "stateMutability": "nonpayable",
      "type": "function"
    },
    {
      "constant": false,
      "inputs": [
        {
          "name": "_newConf",
          "type": "address"
        }
      ],
      "name": "setConf",
      "outputs": [],
      "payable": false,
      "stateMutability": "nonpayable",
      "type": "function"
    },
    {
      "constant": false,
      "inputs": [
        {
          "name": "_newData",
          "type": "address"
        }
      ],
      "name": "setData",
      "outputs": [],
      "payable": false,
      "stateMutability": "nonpayable",
      "type": "function"
    },
    {
      "constant": false,
      "inputs": [],
      "name": "newTravelRound",
      "outputs": [],
      "payable": false,
      "stateMutability": "nonpayable",
      "type": "function"
    },
    {
      "constant": false,
      "inputs": [],
      "name": "freezeGame",
      "outputs": [],
      "payable": false,
      "stateMutability": "nonpayable",
      "type": "function"
    },
    {
      "constant": false,
      "inputs": [],
      "name": "unfreezeGame",
      "outputs": [],
      "payable": false,
      "stateMutability": "nonpayable",
      "type": "function"
    },
    {
      "constant": false,
      "inputs": [],
      "name": "claimTravelToken",
      "outputs": [],
      "payable": false,
      "stateMutability": "nonpayable",
      "type": "function"
    },
    {
      "constant": true,
      "inputs": [
        {
          "name": "_user",
          "type": "address"
        }
      ],
      "name": "balanceOfUnclaimedTT",
      "outputs": [
        {
          "name": "",
          "type": "uint256"
        }
      ],
      "payable": false,
      "stateMutability": "view",
      "type": "function"
    },
    {
      "constant": true,
      "inputs": [],
      "name": "getRound",
      "outputs": [
        {
          "name": "",
          "type": "uint256"
        }
      ],
      "payable": false,
      "stateMutability": "view",
      "type": "function"
    },
    {
      "constant": true,
      "inputs": [
        {
          "name": "_round",
          "type": "uint256"
        }
      ],
      "name": "getTravelSeed",
      "outputs": [
        {
          "name": "",
          "type": "uint256"
        }
      ],
      "payable": false,
      "stateMutability": "view",
      "type": "function"
    },
    {
      "constant": true,
      "inputs": [
        {
          "name": "_user",
          "type": "address"
        }
      ],
      "name": "getProductionOf",
      "outputs": [
        {
          "name": "",
          "type": "uint256"
        }
      ],
      "payable": false,
      "stateMutability": "view",
      "type": "function"
    },
    {
      "constant": true,
      "inputs": [
        {
          "name": "_user",
          "type": "address"
        }
      ],
      "name": "getTokenBalanceOf",
      "outputs": [
        {
          "name": "",
          "type": "uint256"
        }
      ],
      "payable": false,
      "stateMutability": "view",
      "type": "function"
    },
    {
      "constant": false,
      "inputs": [
        {
          "name": "_from",
          "type": "address"
        },
        {
          "name": "_to",
          "type": "address"
        },
        {
          "name": "_kydyId",
          "type": "uint256"
        }
      ],
      "name": "transferTTProduction",
      "outputs": [],
      "payable": false,
      "stateMutability": "nonpayable",
      "type": "function"
    }
  ],
  "bytecode": "0x60806040526002805460a060020a60ff021916905534801561002057600080fd5b506002805460008054600160a060020a03199081163390811790925560a060020a60ff0219909216740100000000000000000000000000000000000000001782168117909255600180549091169091179055611802806100816000396000f3006080604052600436106101455763ffffffff60e060020a6000350416630519ce79811461014a578063086f70b51461017b5780630a0f81681461019e578063144fa6d7146101b357806317792729146101d457806327d7874c146101e95780632ba73c151461020a5780633f4ba83a1461022b5780634e0a3379146102405780635aab6afa146102615780635c975abb1461028257806361dfdae6146102ab57806373d4a13a146102cc57806373edff39146102e15780637405b546146102f6578063838945481461032057806383e99a93146103415780638456cb59146103625780638e29c2ce146103775780639f8743f71461038c578063a9671d8f146103a1578063b047fb50146103c2578063c6f33804146103d7578063cc29a0e6146103ec578063cd0fb37614610416578063e5b79e861461042b578063fc0c546a14610440575b600080fd5b34801561015657600080fd5b5061015f610455565b60408051600160a060020a039092168252519081900360200190f35b34801561018757600080fd5b5061019c600160a060020a0360043516610464565b005b3480156101aa57600080fd5b5061015f61058f565b3480156101bf57600080fd5b5061019c600160a060020a036004351661059e565b3480156101e057600080fd5b5061015f6106c2565b3480156101f557600080fd5b5061019c600160a060020a03600435166106d1565b34801561021657600080fd5b5061019c600160a060020a036004351661071f565b34801561023757600080fd5b5061019c61076d565b34801561024c57600080fd5b5061019c600160a060020a03600435166107bc565b34801561026d57600080fd5b5061019c600160a060020a036004351661080a565b34801561028e57600080fd5b5061029761085b565b604080519115158252519081900360200190f35b3480156102b757600080fd5b5061019c600160a060020a036004351661086b565b3480156102d857600080fd5b5061015f610993565b3480156102ed57600080fd5b5061019c6109a2565b34801561030257600080fd5b5061030e600435610b73565b60408051918252519081900360200190f35b34801561032c57600080fd5b5061030e600160a060020a0360043516610c0b565b34801561034d57600080fd5b5061030e600160a060020a0360043516610c78565b34801561036e57600080fd5b5061019c610dc9565b34801561038357600080fd5b5061019c610e49565b34801561039857600080fd5b5061030e610f6c565b3480156103ad57600080fd5b5061030e600160a060020a0360043516610ffc565b3480156103ce57600080fd5b5061015f611067565b3480156103e357600080fd5b5061019c611076565b3480156103f857600080fd5b5061019c600160a060020a0360043581169060243516604435611081565b34801561042257600080fd5b5061015f6114db565b34801561043757600080fd5b5061019c6114ea565b34801561044c57600080fd5b5061015f61159b565b600154600160a060020a031681565b600054600160a060020a0316331461047b57600080fd5b60025460a060020a900460ff16151561049357600080fd5b60058054600160a060020a031916600160a060020a038381169190911791829055604080517f99e132ed000000000000000000000000000000000000000000000000000000008152905192909116916399e132ed916004808201926020929091908290030181600087803b15801561050a57600080fd5b505af115801561051e573d6000803e3d6000fd5b505050506040513d602081101561053457600080fd5b5051151561058c576040805160e560020a62461bcd02815260206004820152601960248201527f4e6f7420612076616c696420636f6e6620636f6e747261637400000000000000604482015290519081900360640190fd5b50565b600054600160a060020a031681565b600054600160a060020a031633146105b557600080fd5b60025460a060020a900460ff1615156105cd57600080fd5b60048054600160a060020a031916600160a060020a0383811691909117808355604080517f5adc5ee700000000000000000000000000000000000000000000000000000000815290519190921692635adc5ee7928082019260209290918290030181600087803b15801561064057600080fd5b505af1158015610654573d6000803e3d6000fd5b505050506040513d602081101561066a57600080fd5b5051151561058c576040805160e560020a62461bcd02815260206004820152601a60248201527f4e6f7420612076616c696420746f6b656e20636f6e7472616374000000000000604482015290519081900360640190fd5b600554600160a060020a031681565b600054600160a060020a031633146106e857600080fd5b600160a060020a03811615156106fd57600080fd5b60008054600160a060020a031916600160a060020a0392909216919091179055565b600054600160a060020a0316331461073657600080fd5b600160a060020a038116151561074b57600080fd5b60028054600160a060020a031916600160a060020a0392909216919091179055565b600054600160a060020a0316331461078457600080fd5b60025460a060020a900460ff16151561079c57600080fd5b6002805474ff000000000000000000000000000000000000000019169055565b600054600160a060020a031633146107d357600080fd5b600160a060020a03811615156107e857600080fd5b60018054600160a060020a031916600160a060020a0392909216919091179055565b600054600160a060020a0316331461082157600080fd5b60025460a060020a900460ff16151561083957600080fd5b60038054600160a060020a031916600160a060020a0392909216919091179055565b60025460a060020a900460ff1681565b600054600160a060020a0316331461088257600080fd5b60025460a060020a900460ff16151561089a57600080fd5b60068054600160a060020a031916600160a060020a038381169190911791829055604080517f2bdd368100000000000000000000000000000000000000000000000000000000815290519290911691632bdd3681916004808201926020929091908290030181600087803b15801561091157600080fd5b505af1158015610925573d6000803e3d6000fd5b505050506040513d602081101561093b57600080fd5b5051151561058c576040805160e560020a62461bcd02815260206004820152601960248201527f4e6f7420612076616c6964206461746120636f6e747261637400000000000000604482015290519081900360640190fd5b600654600160a060020a031681565b600054600160a060020a031633146109b957600080fd5b600454600160a060020a03161515610a1b576040805160e560020a62461bcd02815260206004820152601960248201527f53686f756c642073657420746f6b656e20636f6e747261637400000000000000604482015290519081900360640190fd5b600554600160a060020a03161515610a7d576040805160e560020a62461bcd02815260206004820152601860248201527f53686f756c642073657420636f6e6620636f6e74726163740000000000000000604482015290519081900360640190fd5b600654600160a060020a03161515610adf576040805160e560020a62461bcd02815260206004820152601860248201527f53686f756c6420736574206461746120636f6e74726163740000000000000000604482015290519081900360640190fd5b60048054604080517f3f4ba83a0000000000000000000000000000000000000000000000000000000081529051600160a060020a0390921692633f4ba83a92828201926000929082900301818387803b158015610b3b57600080fd5b505af1158015610b4f573d6000803e3d6000fd5b50506002805474ff0000000000000000000000000000000000000000191690555050565b600654604080517fb4049266000000000000000000000000000000000000000000000000000000008152600481018490529051600092600160a060020a03169163b404926691602480830192602092919082900301818787803b158015610bd957600080fd5b505af1158015610bed573d6000803e3d6000fd5b505050506040513d6020811015610c0357600080fd5b505192915050565b60048054604080517f70a08231000000000000000000000000000000000000000000000000000000008152600160a060020a03858116948201949094529051600093909216916370a082319160248082019260209290919082900301818787803b158015610bd957600080fd5b600080600080600660009054906101000a9004600160a060020a0316600160a060020a031663146ca5316040518163ffffffff1660e060020a028152600401602060405180830381600087803b158015610cd157600080fd5b505af1158015610ce5573d6000803e3d6000fd5b505050506040513d6020811015610cfb57600080fd5b5051600654604080517f8f76a1f7000000000000000000000000000000000000000000000000000000008152600160a060020a0389811660048301529151939650911691638f76a1f7916024808201926020929091908290030181600087803b158015610d6757600080fd5b505af1158015610d7b573d6000803e3d6000fd5b505050506040513d6020811015610d9157600080fd5b50519150610d9e85610ffc565b9050610dc081610db4858563ffffffff6115aa16565b9063ffffffff6115c816565b95945050505050565b600254600160a060020a0316331480610dec5750600054600160a060020a031633145b80610e015750600154600160a060020a031633145b1515610e0c57600080fd5b60025460a060020a900460ff1615610e2357600080fd5b6002805474ff0000000000000000000000000000000000000000191660a060020a179055565b600254600090600160a060020a03163314610e6357600080fd5b600660009054906101000a9004600160a060020a0316600160a060020a031663146ca5316040518163ffffffff1660e060020a028152600401602060405180830381600087803b158015610eb657600080fd5b505af1158015610eca573d6000803e3d6000fd5b505050506040513d6020811015610ee057600080fd5b5051600654604080517f8481345b000000000000000000000000000000000000000000000000000000008152600019430140840260048201529051929350600160a060020a0390911691638481345b9160248082019260009290919082900301818387803b158015610f5157600080fd5b505af1158015610f65573d6000803e3d6000fd5b5050505050565b600654604080517f146ca5310000000000000000000000000000000000000000000000000000000081529051600092600160a060020a03169163146ca53191600480830192602092919082900301818787803b158015610fcb57600080fd5b505af1158015610fdf573d6000803e3d6000fd5b505050506040513d6020811015610ff557600080fd5b5051905090565b600654604080517f4b057a01000000000000000000000000000000000000000000000000000000008152600160a060020a03848116600483015291516000939290921691634b057a019160248082019260209290919082900301818787803b158015610bd957600080fd5b600254600160a060020a031681565b61107f336115fd565b565b600354600090819081908190600160a060020a031633146110ec576040805160e560020a62461bcd02815260206004820152601f60248201527f6f6e6c79204b796479436f726520636f6e74726163742063616e2063616c6c00604482015290519081900360640190fd5b6110f5856117d0565b9350600660009054906101000a9004600160a060020a0316600160a060020a031663e7ad5d796040518163ffffffff1660e060020a028152600401602060405180830381600087803b15801561114a57600080fd5b505af115801561115e573d6000803e3d6000fd5b505050506040513d602081101561117457600080fd5b50519250611181866115fd565b61118a876115fd565b600160a060020a0387161561133657600654604080517f4b057a01000000000000000000000000000000000000000000000000000000008152600160a060020a038a8116600483015291519190921691634b057a019160248083019260209291908290030181600087803b15801561120157600080fd5b505af1158015611215573d6000803e3d6000fd5b505050506040513d602081101561122b57600080fd5b5051600654604080517f5334b762000000000000000000000000000000000000000000000000000000008152600160a060020a038b8116600483015288850360248301529151939550911691635334b7629160448082019260009290919082900301818387803b15801561129e57600080fd5b505af11580156112b2573d6000803e3d6000fd5b5050600654604080517fc3f67cf700000000000000000000000000000000000000000000000000000000815288880360048201529051600160a060020a03909216935063c3f67cf7925060248082019260009290919082900301818387803b15801561131d57600080fd5b505af1158015611331573d6000803e3d6000fd5b505050505b600654604080517f4b057a01000000000000000000000000000000000000000000000000000000008152600160a060020a03898116600483015291519190921691634b057a019160248083019260209291908290030181600087803b15801561139e57600080fd5b505af11580156113b2573d6000803e3d6000fd5b505050506040513d60208110156113c857600080fd5b5051600654604080517f5334b762000000000000000000000000000000000000000000000000000000008152600160a060020a038a8116600483015288850160248301529151939450911691635334b7629160448082019260009290919082900301818387803b15801561143b57600080fd5b505af115801561144f573d6000803e3d6000fd5b5050600654604080517fc3f67cf700000000000000000000000000000000000000000000000000000000815287890160048201529051600160a060020a03909216935063c3f67cf7925060248082019260009290919082900301818387803b1580156114ba57600080fd5b505af11580156114ce573d6000803e3d6000fd5b5050505050505050505050565b600354600160a060020a031681565b600054600160a060020a0316331461150157600080fd5b60048054604080517f8456cb590000000000000000000000000000000000000000000000000000000081529051600160a060020a0390921692638456cb5992828201926000929082900301818387803b15801561155d57600080fd5b505af1158015611571573d6000803e3d6000fd5b50506002805474ff0000000000000000000000000000000000000000191660a060020a1790555050565b600454600160a060020a031681565b600080838311156115ba57600080fd5b5050808203805b5092915050565b6000808315156115db57600091506115c1565b508282028284828115156115eb57fe5b04146115f657600080fd5b9392505050565b60008061160983610c78565b9150811515611617576117cb565b60048054604080517f40c10f19000000000000000000000000000000000000000000000000000000008152600160a060020a038781169482019490945260248101869052905192909116916340c10f19916044808201926020929091908290030181600087803b15801561168a57600080fd5b505af115801561169e573d6000803e3d6000fd5b505050506040513d60208110156116b457600080fd5b5050600654604080517f146ca5310000000000000000000000000000000000000000000000000000000081529051600160a060020a039092169163146ca531916004808201926020929091908290030181600087803b15801561171657600080fd5b505af115801561172a573d6000803e3d6000fd5b505050506040513d602081101561174057600080fd5b5051600654604080517f8f826557000000000000000000000000000000000000000000000000000000008152600160a060020a038781166004830152602482018590529151939450911691638f8265579160448082019260009290919082900301818387803b1580156117b257600080fd5b505af11580156117c6573d6000803e3d6000fd5b505050505b505050565b506001905600a165627a7a72305820363f109fa4b345b48253f7736a931f6c2dde29d13a51c0c72e7dfb2307d2f5920029",
  "source": "pragma solidity 0.4.24;\n\nimport \"./KydyTravelConf.sol\";\nimport \"./KydyTravelToken.sol\";\nimport \"./KydyTravelData.sol\";\nimport \"./../KydyAccessControl.sol\";\nimport \"./KydyTravelInterface.sol\";\n\ncontract KydyTravelCore is KydyAccessControl, KydyTravelInterface {\n    using SafeMath for uint256;\n\n    address public kydyCore;\n\n    KydyTravelToken public token;\n    KydyTravelConf public conf;\n    KydyTravelData public data;\n\n    modifier onlyKydyCore() {\n        require(msg.sender == kydyCore, \"only KydyCore contract can call\");\n        _;\n    }\n\n    constructor() public {\n        paused = true;\n\n        ceoAddress = msg.sender;\n        cooAddress = msg.sender;\n        cfoAddress = msg.sender;\n    }\n\n    // Management functions\n    function setKydyCore(address _newKydyCore) public onlyCEO whenPaused {\n        kydyCore = _newKydyCore;\n    }\n    \n    function setToken(address _newToken) public onlyCEO whenPaused {\n        token = KydyTravelToken(_newToken);\n        require(token.isKydyTravelToken(), \"Not a valid token contract\");\n    }\n\n    function setConf(address _newConf) public onlyCEO whenPaused {\n        conf = KydyTravelConf(_newConf);\n        require(conf.isKydyTravelConf(), \"Not a valid conf contract\");\n    }\n\n    function setData(address _newData) public onlyCEO whenPaused {\n        data = KydyTravelData(_newData);\n        require(data.isKydyTravelData(), \"Not a valid data contract\");\n    }\n\n    // I know using number is not a good way to implement RNG.\n    // However, until travelSeed doesn't affect any monetary stuff,\n    // we can keep this simple seed.\n    // Replace it when needed.\n    function newTravelRound() public onlyCOO {\n        uint256 round = data.round();\n        data.setNewTravelSeed(uint256(blockhash(block.number - 1)) * round);\n    }\n    \n    function freezeGame() public onlyCEO {\n        token.pause();\n        paused = true;\n    }\n\n    function unfreezeGame() public onlyCEO {\n        require (token != address(0), \"Should set token contract\");\n        require (conf != address(0), \"Should set conf contract\");\n        require (data != address(0), \"Should set data contract\");\n\n        token.unpause();\n        paused = false;\n    }\n\n    // User functions\n    function claimTravelToken() public {\n        mintAndTransferTT(msg.sender);\n    }\n\n    function balanceOfUnclaimedTT(address _user) public view returns (uint256) {\n        uint256 currentRound = data.round();\n        uint256 lastClaimedRound = data.lastClaimedRound(_user);\n        uint256 production = getProductionOf(_user);\n\n        return currentRound.sub(lastClaimedRound).mul(production);\n    }\n\n    function getRound() public view returns (uint256) {\n        return data.round();\n    }\n\n    function getTravelSeed(uint256 _round) public view returns (uint256) {\n        return data.travelSeeds(_round);\n    }\n\n    function getProductionOf(address _user) public view returns (uint256) {\n        return data.TTProductionSnapshot(_user);\n    }\n\n    function getTokenBalanceOf(address _user) public view returns (uint256) {\n        return token.balanceOf(_user);\n    }\n\n    function transferTTProduction(address _from, address _to, uint256 _kydyId) public onlyKydyCore {\n        uint256 production = calcProductionOfKydy(_kydyId);\n        uint256 currentTotalProd = data.totalProduction();\n\n        mintAndTransferTT(_to);\n        mintAndTransferTT(_from);\n\n        if (_from != address(0)) {\n            uint256 currentFromProd = data.TTProductionSnapshot(_from);\n            data.setTTProductionOf(_from, currentFromProd - production);\n            data.setTotalProduction(currentTotalProd - production);\n        }\n        uint256 currentToProd = data.TTProductionSnapshot(_to);\n        data.setTTProductionOf(_to, currentToProd + production);\n        data.setTotalProduction(currentTotalProd + production);\n    }\n\n    function mintAndTransferTT(address _user) internal {\n        uint256 claimable = balanceOfUnclaimedTT(_user);\n        if(claimable == 0) return;\n\n        token.mint(_user, claimable);\n\n        uint256 currentRound = data.round();\n        data.setLastClaimedRound(_user, currentRound);\n    }\n\n    // TODO(): temporary fix for compile error\n    // function calcProductionOfKydy(uint256 _kydyId) internal view returns (uint256) {\n    function calcProductionOfKydy(uint256 _kydyId) internal pure returns (uint256) {\n        _kydyId;\n        return 1;\n    }\n\n}",
  "sourcePath": "/Users/Keki/Vrexlab/kydy-solidity/contracts/Travel/KydyTravelCore.sol",
  "compiler": {
    "name": "solc",
    "version": "0.4.24+commit.e67f0147.Emscripten.clang"
  },
  "schemaVersion": "2.0.1",
  "updatedAt": "2018-12-13T10:21:24.770Z"
}