{
  "contractName": "KydyUtil",
  "abi": [
    {
      "constant": true,
      "inputs": [],
      "name": "isKydyUtil",
      "outputs": [
        {
          "name": "",
          "type": "bool"
        }
      ],
      "payable": false,
      "stateMutability": "pure",
      "type": "function"
    },
    {
      "constant": false,
      "inputs": [
        {
          "name": "tempSeed",
          "type": "uint256"
        }
      ],
      "name": "getRand",
      "outputs": [
        {
          "name": "",
          "type": "uint256"
        }
      ],
      "payable": false,
      "stateMutability": "nonpayable",
      "type": "function"
    }
  ],
  "bytecode": "0x60806040526000805534801561001457600080fd5b5060f1806100236000396000f30060806040526004361060485763ffffffff7c01000000000000000000000000000000000000000000000000000000006000350416635e5201b78114604d578063c733ef4a146074575b600080fd5b348015605857600080fd5b506062600435609a565b60408051918252519081900360200190f35b348015607f57600080fd5b50608660c0565b604080519115158252519081900360200190f35b604080519182525190819003602001902060008054909101908190554360001901400190565b6001905600a165627a7a72305820c38b5491688720c4b9c880b7e35a64063ceda3f370bba41123a8ad8335719a670029",
  "source": "pragma solidity ^0.4.24;\n\ncontract KydyUtil {\n    uint256 private randomSeed_ = 0;\n\n    function isKydyUtil() public pure returns (bool) {\n        return true;\n    }\n\n    function getRand(uint256 tempSeed) public returns (uint256) {\n        bytes32 seedHash = keccak256(bytes32(tempSeed));\n        randomSeed_ += uint256(seedHash);\n\n        return randomSeed_ + uint256(blockhash(block.number - 1));\n    }\n}\n",
  "sourcePath": "/Users/Keki/Vrexlab/kydy-solidity/contracts/KydyUtil.sol",
  "compiler": {
    "name": "solc",
    "version": "0.4.24+commit.e67f0147.Emscripten.clang"
  },
  "schemaVersion": "2.0.1",
  "updatedAt": "2018-12-17T03:59:09.735Z"
}