{
  "contractName": "NonFungibleMock",
  "abi": [
    {
      "anonymous": false,
      "inputs": [
        {
          "indexed": true,
          "name": "from",
          "type": "address"
        },
        {
          "indexed": true,
          "name": "to",
          "type": "address"
        },
        {
          "indexed": true,
          "name": "tokenId",
          "type": "uint256"
        }
      ],
      "name": "Transfer",
      "type": "event"
    },
    {
      "anonymous": false,
      "inputs": [
        {
          "indexed": true,
          "name": "owner",
          "type": "address"
        },
        {
          "indexed": true,
          "name": "approved",
          "type": "address"
        },
        {
          "indexed": true,
          "name": "tokenId",
          "type": "uint256"
        }
      ],
      "name": "Approval",
      "type": "event"
    },
    {
      "constant": true,
      "inputs": [],
      "name": "implementsERC721",
      "outputs": [
        {
          "name": "",
          "type": "bool"
        }
      ],
      "payable": false,
      "stateMutability": "pure",
      "type": "function"
    },
    {
      "constant": false,
      "inputs": [],
      "name": "createToken",
      "outputs": [
        {
          "name": "",
          "type": "uint256"
        }
      ],
      "payable": false,
      "stateMutability": "nonpayable",
      "type": "function"
    },
    {
      "constant": true,
      "inputs": [],
      "name": "totalSupply",
      "outputs": [
        {
          "name": "",
          "type": "uint256"
        }
      ],
      "payable": false,
      "stateMutability": "view",
      "type": "function"
    },
    {
      "constant": true,
      "inputs": [
        {
          "name": "_owner",
          "type": "address"
        }
      ],
      "name": "balanceOf",
      "outputs": [
        {
          "name": "",
          "type": "uint256"
        }
      ],
      "payable": false,
      "stateMutability": "view",
      "type": "function"
    },
    {
      "constant": true,
      "inputs": [
        {
          "name": "_owner",
          "type": "address"
        },
        {
          "name": "_index",
          "type": "uint256"
        }
      ],
      "name": "tokensOfOwnerByIndex",
      "outputs": [
        {
          "name": "tokenId",
          "type": "uint256"
        }
      ],
      "payable": false,
      "stateMutability": "view",
      "type": "function"
    },
    {
      "constant": true,
      "inputs": [
        {
          "name": "_tokenId",
          "type": "uint256"
        }
      ],
      "name": "ownerOf",
      "outputs": [
        {
          "name": "owner",
          "type": "address"
        }
      ],
      "payable": false,
      "stateMutability": "view",
      "type": "function"
    },
    {
      "constant": false,
      "inputs": [
        {
          "name": "_to",
          "type": "address"
        },
        {
          "name": "_tokenId",
          "type": "uint256"
        }
      ],
      "name": "transfer",
      "outputs": [],
      "payable": false,
      "stateMutability": "nonpayable",
      "type": "function"
    },
    {
      "constant": false,
      "inputs": [
        {
          "name": "_to",
          "type": "address"
        },
        {
          "name": "_tokenId",
          "type": "uint256"
        }
      ],
      "name": "approve",
      "outputs": [],
      "payable": false,
      "stateMutability": "nonpayable",
      "type": "function"
    },
    {
      "constant": false,
      "inputs": [
        {
          "name": "_from",
          "type": "address"
        },
        {
          "name": "_to",
          "type": "address"
        },
        {
          "name": "_tokenId",
          "type": "uint256"
        }
      ],
      "name": "transferFrom",
      "outputs": [],
      "payable": false,
      "stateMutability": "nonpayable",
      "type": "function"
    }
  ],
  "bytecode": "0x608060405234801561001057600080fd5b50610510806100206000396000f3006080604052600436106100985763ffffffff7c0100000000000000000000000000000000000000000000000000000000600035041663095ea7b3811461009d5780631051db34146100c357806318160ddd146100ec57806323b872dd146101135780634707f44f1461013d5780636352211e1461016157806370a08231146101955780639cbf9e36146101b6578063a9059cbb146101cb575b600080fd5b3480156100a957600080fd5b506100c1600160a060020a03600435166024356101ef565b005b3480156100cf57600080fd5b506100d861023f565b604080519115158252519081900360200190f35b3480156100f857600080fd5b50610101610244565b60408051918252519081900360200190f35b34801561011f57600080fd5b506100c1600160a060020a036004358116906024351660443561024a565b34801561014957600080fd5b50610101600160a060020a03600435166024356102b0565b34801561016d57600080fd5b50610179600435610352565b60408051600160a060020a039092168252519081900360200190f35b3480156101a157600080fd5b50610101600160a060020a036004351661036d565b3480156101c257600080fd5b506101016103de565b3480156101d757600080fd5b506100c1600160a060020a036004351660243561044e565b6101f9338261049e565b151561020457600080fd5b6000908152600260205260409020805473ffffffffffffffffffffffffffffffffffffffff1916600160a060020a0392909216919091179055565b600190565b60005490565b61025433826104c4565b151561025f57600080fd5b610269838261049e565b151561027457600080fd5b6000908152600160205260409020805473ffffffffffffffffffffffffffffffffffffffff1916600160a060020a039290921691909117905550565b600080805b6102bd610244565b8110156103455784600160a060020a03166001600080848154811015156102e057fe5b60009182526020808320909101548352820192909252604001902054600160a060020a0316141561033d578382141561033657600080548290811061032157fe5b9060005260206000200160000154925061034a565b6001909101905b6001016102b5565b600092505b505092915050565b600090815260016020526040902054600160a060020a031690565b600080805b61037a610244565b8110156103d75783600160a060020a031660016000808481548110151561039d57fe5b60009182526020808320909101548352820192909252604001902054600160a060020a031614156103cf576001909101905b600101610372565b5092915050565b600080546040805160208181018352600180850180845280875586805292517f290decd9548b62a8d60345a988386fc84ba6bc95484008f6362f93160ef3e56390950194909455908452919091528120805473ffffffffffffffffffffffffffffffffffffffff19163317905590565b610458338261049e565b151561046357600080fd5b6000908152600160205260409020805473ffffffffffffffffffffffffffffffffffffffff1916600160a060020a0392909216919091179055565b600082600160a060020a03166104b383610352565b600160a060020a0316149392505050565b600090815260026020526040902054600160a060020a03918216911614905600a165627a7a72305820c35831d41d728827325dfbe4b80043b06484840128d67a0c293a01cab1f2dfeb0029",
  "source": "pragma solidity ^0.4.24;\n\nimport \"./ERC721Draft.sol\";\n\n/// @title NonFungibleMock\n/// @dev Mock implementation of NonFungible, aiming for simplicity.\ncontract NonFungibleMock is ERC721 {\n\n    struct MockNFT {\n        uint256 id;\n    }\n\n    // Global list of all NFTs\n    MockNFT[] tokens;\n    // Tracks ownership of each token\n    mapping (uint => address) tokenIdToOwner;\n    // Tracks allowances for proxy ownership of each token\n    mapping (uint => address) allowances;\n\n    function implementsERC721() public pure returns (bool)\n    {\n        return true;\n    }\n\n    function _owns(address _claimant, uint256 _tokenId) internal view returns (bool) {\n        return ownerOf(_tokenId) == _claimant;\n    }\n\n    function _approvedFor(address _claimant, uint256 _tokenId) internal view returns (bool) {\n        return allowances[_tokenId] == _claimant;\n    }\n\n    /// @dev creates a new token and assigns ownership to the sender\n    function createToken() public returns (uint) {\n        uint256 id = tokens.length + 1;\n        tokens.push(MockNFT(id));\n        tokenIdToOwner[id] = msg.sender;\n    }\n\n    function totalSupply() public view returns (uint) {\n        return tokens.length;\n    }\n\n    function balanceOf(address _owner) public view returns (uint) {\n        uint256 balance = 0;\n        for (uint256 i = 0; i < totalSupply(); i++) {\n            if (tokenIdToOwner[tokens[i].id] == _owner) {\n                balance++;\n            }\n        }\n        return balance;\n    }\n\n    function tokensOfOwnerByIndex(address _owner, uint256 _index) public view returns (uint256 tokenId) {\n        uint256 indexCounter = 0;\n        for (uint256 i = 0; i < totalSupply(); i++) {\n            if (tokenIdToOwner[tokens[i].id] == _owner) {\n                if (indexCounter == _index) {\n                    return tokens[i].id;\n                } else {\n                    indexCounter++;\n                }\n            }\n        }\n        return 0;\n    }\n\n    function ownerOf(uint256 _tokenId) public view returns (address owner) {\n        return tokenIdToOwner[_tokenId];\n    }\n\n    function transfer(address _to, uint256 _tokenId) public {\n        require(_owns(msg.sender, _tokenId));\n        // NOTE: This implementation does not clear approvals on transfer for simplicity\n        // A complete implementation should do this.\n        tokenIdToOwner[_tokenId] = _to;\n    }\n\n    function approve(address _to, uint256 _tokenId) public {\n        require(_owns(msg.sender, _tokenId));\n        allowances[_tokenId] = _to;\n    }\n\n    function transferFrom(address _from, address _to, uint256 _tokenId) public {\n        require(_approvedFor(msg.sender, _tokenId));\n        require(_owns(_from, _tokenId));\n        // NOTE: This implementation does not clear approvals on transfer for simplicity\n        // A complete implementation should do this.\n        tokenIdToOwner[_tokenId] = _to;\n    }\n}\n",
  "sourcePath": "/Users/Keki/Vrexlab/kydy-solidity/contracts/NonFungibleMock.sol",
  "compiler": {
    "name": "solc",
    "version": "0.4.24+commit.e67f0147.Emscripten.clang"
  },
  "schemaVersion": "2.0.1",
  "updatedAt": "2018-12-07T09:34:59.808Z"
}