{
  "contractName": "NonFungibleMock",
  "abi": [
    {
      "anonymous": false,
      "inputs": [
        {
          "indexed": true,
          "name": "from",
          "type": "address"
        },
        {
          "indexed": true,
          "name": "to",
          "type": "address"
        },
        {
          "indexed": true,
          "name": "tokenId",
          "type": "uint256"
        }
      ],
      "name": "Transfer",
      "type": "event"
    },
    {
      "anonymous": false,
      "inputs": [
        {
          "indexed": true,
          "name": "owner",
          "type": "address"
        },
        {
          "indexed": true,
          "name": "approved",
          "type": "address"
        },
        {
          "indexed": true,
          "name": "tokenId",
          "type": "uint256"
        }
      ],
      "name": "Approval",
      "type": "event"
    },
    {
      "constant": true,
      "inputs": [],
      "name": "implementsERC721",
      "outputs": [
        {
          "name": "",
          "type": "bool"
        }
      ],
      "payable": false,
      "stateMutability": "pure",
      "type": "function"
    },
    {
      "constant": false,
      "inputs": [],
      "name": "createToken",
      "outputs": [
        {
          "name": "",
          "type": "uint256"
        }
      ],
      "payable": false,
      "stateMutability": "nonpayable",
      "type": "function"
    },
    {
      "constant": true,
      "inputs": [],
      "name": "totalSupply",
      "outputs": [
        {
          "name": "",
          "type": "uint256"
        }
      ],
      "payable": false,
      "stateMutability": "view",
      "type": "function"
    },
    {
      "constant": true,
      "inputs": [
        {
          "name": "_owner",
          "type": "address"
        }
      ],
      "name": "balanceOf",
      "outputs": [
        {
          "name": "",
          "type": "uint256"
        }
      ],
      "payable": false,
      "stateMutability": "view",
      "type": "function"
    },
    {
      "constant": true,
      "inputs": [
        {
          "name": "_owner",
          "type": "address"
        },
        {
          "name": "_index",
          "type": "uint256"
        }
      ],
      "name": "tokensOfOwnerByIndex",
      "outputs": [
        {
          "name": "tokenId",
          "type": "uint256"
        }
      ],
      "payable": false,
      "stateMutability": "view",
      "type": "function"
    },
    {
      "constant": true,
      "inputs": [
        {
          "name": "_tokenId",
          "type": "uint256"
        }
      ],
      "name": "ownerOf",
      "outputs": [
        {
          "name": "owner",
          "type": "address"
        }
      ],
      "payable": false,
      "stateMutability": "view",
      "type": "function"
    },
    {
      "constant": false,
      "inputs": [
        {
          "name": "_to",
          "type": "address"
        },
        {
          "name": "_tokenId",
          "type": "uint256"
        }
      ],
      "name": "transfer",
      "outputs": [],
      "payable": false,
      "stateMutability": "nonpayable",
      "type": "function"
    },
    {
      "constant": false,
      "inputs": [
        {
          "name": "_to",
          "type": "address"
        },
        {
          "name": "_tokenId",
          "type": "uint256"
        }
      ],
      "name": "approve",
      "outputs": [],
      "payable": false,
      "stateMutability": "nonpayable",
      "type": "function"
    },
    {
      "constant": false,
      "inputs": [
        {
          "name": "_from",
          "type": "address"
        },
        {
          "name": "_to",
          "type": "address"
        },
        {
          "name": "_tokenId",
          "type": "uint256"
        }
      ],
      "name": "transferFrom",
      "outputs": [],
      "payable": false,
      "stateMutability": "nonpayable",
      "type": "function"
    }
  ],
  "bytecode": "0x608060405234801561001057600080fd5b50610826806100206000396000f300608060405260043610610099576000357c0100000000000000000000000000000000000000000000000000000000900463ffffffff168063095ea7b31461009e5780631051db34146100eb57806318160ddd1461011a57806323b872dd146101455780634707f44f146101b25780636352211e1461021357806370a08231146102805780639cbf9e36146102d7578063a9059cbb14610302575b600080fd5b3480156100aa57600080fd5b506100e9600480360381019080803573ffffffffffffffffffffffffffffffffffffffff1690602001909291908035906020019092919050505061034f565b005b3480156100f757600080fd5b506101006103ba565b604051808215151515815260200191505060405180910390f35b34801561012657600080fd5b5061012f6103c3565b6040518082815260200191505060405180910390f35b34801561015157600080fd5b506101b0600480360381019080803573ffffffffffffffffffffffffffffffffffffffff169060200190929190803573ffffffffffffffffffffffffffffffffffffffff169060200190929190803590602001909291905050506103cf565b005b3480156101be57600080fd5b506101fd600480360381019080803573ffffffffffffffffffffffffffffffffffffffff16906020019092919080359060200190929190505050610450565b6040518082815260200191505060405180910390f35b34801561021f57600080fd5b5061023e6004803603810190808035906020019092919050505061053d565b604051808273ffffffffffffffffffffffffffffffffffffffff1673ffffffffffffffffffffffffffffffffffffffff16815260200191505060405180910390f35b34801561028c57600080fd5b506102c1600480360381019080803573ffffffffffffffffffffffffffffffffffffffff16906020019092919050505061057a565b6040518082815260200191505060405180910390f35b3480156102e357600080fd5b506102ec610638565b6040518082815260200191505060405180910390f35b34801561030e57600080fd5b5061034d600480360381019080803573ffffffffffffffffffffffffffffffffffffffff169060200190929190803590602001909291905050506106e2565b005b610359338261074d565b151561036457600080fd5b816002600083815260200190815260200160002060006101000a81548173ffffffffffffffffffffffffffffffffffffffff021916908373ffffffffffffffffffffffffffffffffffffffff1602179055505050565b60006001905090565b60008080549050905090565b6103d9338261078e565b15156103e457600080fd5b6103ee838261074d565b15156103f957600080fd5b816001600083815260200190815260200160002060006101000a81548173ffffffffffffffffffffffffffffffffffffffff021916908373ffffffffffffffffffffffffffffffffffffffff160217905550505050565b6000806000809150600090505b6104656103c3565b811015610530578473ffffffffffffffffffffffffffffffffffffffff1660016000808481548110151561049557fe5b9060005260206000200160000154815260200190815260200160002060009054906101000a900473ffffffffffffffffffffffffffffffffffffffff1673ffffffffffffffffffffffffffffffffffffffff161415610523578382141561051a5760008181548110151561050557fe5b90600052602060002001600001549250610535565b81806001019250505b808060010191505061045d565b600092505b505092915050565b60006001600083815260200190815260200160002060009054906101000a900473ffffffffffffffffffffffffffffffffffffffff169050919050565b6000806000809150600090505b61058f6103c3565b81101561062e578373ffffffffffffffffffffffffffffffffffffffff166001600080848154811015156105bf57fe5b9060005260206000200160000154815260200190815260200160002060009054906101000a900473ffffffffffffffffffffffffffffffffffffffff1673ffffffffffffffffffffffffffffffffffffffff1614156106215781806001019250505b8080600101915050610587565b8192505050919050565b600080600160008054905001905060006020604051908101604052808381525090806001815401808255809150509060018203906000526020600020016000909192909190915060008201518160000155505050336001600083815260200190815260200160002060006101000a81548173ffffffffffffffffffffffffffffffffffffffff021916908373ffffffffffffffffffffffffffffffffffffffff1602179055505090565b6106ec338261074d565b15156106f757600080fd5b816001600083815260200190815260200160002060006101000a81548173ffffffffffffffffffffffffffffffffffffffff021916908373ffffffffffffffffffffffffffffffffffffffff1602179055505050565b60008273ffffffffffffffffffffffffffffffffffffffff1661076f8361053d565b73ffffffffffffffffffffffffffffffffffffffff1614905092915050565b60008273ffffffffffffffffffffffffffffffffffffffff166002600084815260200190815260200160002060009054906101000a900473ffffffffffffffffffffffffffffffffffffffff1673ffffffffffffffffffffffffffffffffffffffff16149050929150505600a165627a7a72305820a6149842a36c4ea24c741908f693a6cdd4cd794c1431447a0e0a39d9894cd66d0029",
  "source": "pragma solidity ^0.4.24;\n\nimport \"./ERC721Draft.sol\";\n\n/// @title NonFungibleMock\n/// @dev Mock implementation of NonFungible, aiming for simplicity.\ncontract NonFungibleMock is ERC721 {\n\n    struct MockNFT {\n        uint256 id;\n    }\n\n    // Global list of all NFTs\n    MockNFT[] tokens;\n    // Tracks ownership of each token\n    mapping (uint => address) tokenIdToOwner;\n    // Tracks allowances for proxy ownership of each token\n    mapping (uint => address) allowances;\n\n    function implementsERC721() public pure returns (bool)\n    {\n        return true;\n    }\n\n    function _owns(address _claimant, uint256 _tokenId) internal view returns (bool) {\n        return ownerOf(_tokenId) == _claimant;\n    }\n\n    function _approvedFor(address _claimant, uint256 _tokenId) internal view returns (bool) {\n        return allowances[_tokenId] == _claimant;\n    }\n\n    /// @dev creates a new token and assigns ownership to the sender\n    function createToken() public returns (uint) {\n        uint256 id = tokens.length + 1;\n        tokens.push(MockNFT(id));\n        tokenIdToOwner[id] = msg.sender;\n    }\n\n    function totalSupply() public view returns (uint) {\n        return tokens.length;\n    }\n\n    function balanceOf(address _owner) public view returns (uint) {\n        uint256 balance = 0;\n        for (uint256 i = 0; i < totalSupply(); i++) {\n            if (tokenIdToOwner[tokens[i].id] == _owner) {\n                balance++;\n            }\n        }\n        return balance;\n    }\n\n    function tokensOfOwnerByIndex(address _owner, uint256 _index) public view returns (uint256 tokenId) {\n        uint256 indexCounter = 0;\n        for (uint256 i = 0; i < totalSupply(); i++) {\n            if (tokenIdToOwner[tokens[i].id] == _owner) {\n                if (indexCounter == _index) {\n                    return tokens[i].id;\n                } else {\n                    indexCounter++;\n                }\n            }\n        }\n        return 0;\n    }\n\n    function ownerOf(uint256 _tokenId) public view returns (address owner) {\n        return tokenIdToOwner[_tokenId];\n    }\n\n    function transfer(address _to, uint256 _tokenId) public {\n        require(_owns(msg.sender, _tokenId));\n        // NOTE: This implementation does not clear approvals on transfer for simplicity\n        // A complete implementation should do this.\n        tokenIdToOwner[_tokenId] = _to;\n    }\n\n    function approve(address _to, uint256 _tokenId) public {\n        require(_owns(msg.sender, _tokenId));\n        allowances[_tokenId] = _to;\n    }\n\n    function transferFrom(address _from, address _to, uint256 _tokenId) public {\n        require(_approvedFor(msg.sender, _tokenId));\n        require(_owns(_from, _tokenId));\n        // NOTE: This implementation does not clear approvals on transfer for simplicity\n        // A complete implementation should do this.\n        tokenIdToOwner[_tokenId] = _to;\n    }\n}\n",
  "sourcePath": "/Users/Keki/Vrexlab/kydy-solidity/contracts/NonFungibleMock.sol",
  "compiler": {
    "name": "solc",
    "version": "0.4.24+commit.e67f0147.Emscripten.clang"
  },
  "schemaVersion": "2.0.1",
  "updatedAt": "2018-10-29T02:35:16.195Z"
}