{
  "contractName": "SaleClockAuction",
  "abi": [
    {
      "constant": false,
      "inputs": [
        {
          "name": "",
          "type": "address"
        },
        {
          "name": "",
          "type": "address"
        },
        {
          "name": "",
          "type": "uint256"
        },
        {
          "name": "",
          "type": "bytes"
        }
      ],
      "name": "onERC721Received",
      "outputs": [
        {
          "name": "",
          "type": "bytes4"
        }
      ],
      "payable": false,
      "stateMutability": "nonpayable",
      "type": "function"
    },
    {
      "constant": false,
      "inputs": [],
      "name": "unpause",
      "outputs": [],
      "payable": false,
      "stateMutability": "nonpayable",
      "type": "function"
    },
    {
      "constant": true,
      "inputs": [
        {
          "name": "",
          "type": "uint256"
        }
      ],
      "name": "lastGen0SalePrices",
      "outputs": [
        {
          "name": "",
          "type": "uint256"
        }
      ],
      "payable": false,
      "stateMutability": "view",
      "type": "function"
    },
    {
      "constant": false,
      "inputs": [
        {
          "name": "_tokenId",
          "type": "uint256"
        },
        {
          "name": "_seller",
          "type": "address"
        }
      ],
      "name": "cancelAuction",
      "outputs": [],
      "payable": false,
      "stateMutability": "nonpayable",
      "type": "function"
    },
    {
      "constant": true,
      "inputs": [],
      "name": "paused",
      "outputs": [
        {
          "name": "",
          "type": "bool"
        }
      ],
      "payable": false,
      "stateMutability": "view",
      "type": "function"
    },
    {
      "constant": false,
      "inputs": [],
      "name": "withdrawBalance",
      "outputs": [],
      "payable": false,
      "stateMutability": "nonpayable",
      "type": "function"
    },
    {
      "constant": true,
      "inputs": [
        {
          "name": "_tokenId",
          "type": "uint256"
        }
      ],
      "name": "getAuction",
      "outputs": [
        {
          "name": "seller",
          "type": "address"
        },
        {
          "name": "price",
          "type": "uint256"
        },
        {
          "name": "startedAt",
          "type": "uint256"
        }
      ],
      "payable": false,
      "stateMutability": "view",
      "type": "function"
    },
    {
      "constant": true,
      "inputs": [],
      "name": "ownerCut",
      "outputs": [
        {
          "name": "",
          "type": "uint256"
        }
      ],
      "payable": false,
      "stateMutability": "view",
      "type": "function"
    },
    {
      "constant": false,
      "inputs": [],
      "name": "pause",
      "outputs": [],
      "payable": false,
      "stateMutability": "nonpayable",
      "type": "function"
    },
    {
      "constant": true,
      "inputs": [],
      "name": "isSaleClockAuction",
      "outputs": [
        {
          "name": "",
          "type": "bool"
        }
      ],
      "payable": false,
      "stateMutability": "view",
      "type": "function"
    },
    {
      "constant": false,
      "inputs": [
        {
          "name": "_tokenId",
          "type": "uint256"
        }
      ],
      "name": "cancelAuctionWhenPaused",
      "outputs": [],
      "payable": false,
      "stateMutability": "nonpayable",
      "type": "function"
    },
    {
      "constant": true,
      "inputs": [],
      "name": "gen0SaleCount",
      "outputs": [
        {
          "name": "",
          "type": "uint256"
        }
      ],
      "payable": false,
      "stateMutability": "view",
      "type": "function"
    },
    {
      "constant": true,
      "inputs": [],
      "name": "owner",
      "outputs": [
        {
          "name": "",
          "type": "address"
        }
      ],
      "payable": false,
      "stateMutability": "view",
      "type": "function"
    },
    {
      "constant": true,
      "inputs": [
        {
          "name": "_tokenId",
          "type": "uint256"
        }
      ],
      "name": "getCurrentPrice",
      "outputs": [
        {
          "name": "",
          "type": "uint256"
        }
      ],
      "payable": false,
      "stateMutability": "view",
      "type": "function"
    },
    {
      "constant": true,
      "inputs": [],
      "name": "nonFungibleContract",
      "outputs": [
        {
          "name": "",
          "type": "address"
        }
      ],
      "payable": false,
      "stateMutability": "view",
      "type": "function"
    },
    {
      "constant": false,
      "inputs": [
        {
          "name": "newOwner",
          "type": "address"
        }
      ],
      "name": "transferOwnership",
      "outputs": [],
      "payable": false,
      "stateMutability": "nonpayable",
      "type": "function"
    },
    {
      "inputs": [
        {
          "name": "_nftAddr",
          "type": "address"
        },
        {
          "name": "_cut",
          "type": "uint256"
        }
      ],
      "payable": false,
      "stateMutability": "nonpayable",
      "type": "constructor"
    },
    {
      "payable": false,
      "stateMutability": "nonpayable",
      "type": "fallback"
    },
    {
      "anonymous": false,
      "inputs": [
        {
          "indexed": false,
          "name": "tokenId",
          "type": "uint256"
        },
        {
          "indexed": false,
          "name": "price",
          "type": "uint256"
        }
      ],
      "name": "AuctionCreated",
      "type": "event"
    },
    {
      "anonymous": false,
      "inputs": [
        {
          "indexed": false,
          "name": "tokenId",
          "type": "uint256"
        },
        {
          "indexed": false,
          "name": "totalPrice",
          "type": "uint256"
        },
        {
          "indexed": false,
          "name": "winner",
          "type": "address"
        }
      ],
      "name": "AuctionSuccessful",
      "type": "event"
    },
    {
      "anonymous": false,
      "inputs": [
        {
          "indexed": false,
          "name": "tokenId",
          "type": "uint256"
        }
      ],
      "name": "AuctionCancelled",
      "type": "event"
    },
    {
      "anonymous": false,
      "inputs": [],
      "name": "Pause",
      "type": "event"
    },
    {
      "anonymous": false,
      "inputs": [],
      "name": "Unpause",
      "type": "event"
    },
    {
      "anonymous": false,
      "inputs": [
        {
          "indexed": true,
          "name": "previousOwner",
          "type": "address"
        },
        {
          "indexed": true,
          "name": "newOwner",
          "type": "address"
        }
      ],
      "name": "OwnershipTransferred",
      "type": "event"
    },
    {
      "constant": false,
      "inputs": [
        {
          "name": "_tokenId",
          "type": "uint256"
        },
        {
          "name": "_price",
          "type": "uint256"
        },
        {
          "name": "_seller",
          "type": "address"
        }
      ],
      "name": "createAuction",
      "outputs": [],
      "payable": false,
      "stateMutability": "nonpayable",
      "type": "function"
    },
    {
      "constant": false,
      "inputs": [
        {
          "name": "_tokenId",
          "type": "uint256"
        }
      ],
      "name": "bid",
      "outputs": [],
      "payable": true,
      "stateMutability": "payable",
      "type": "function"
    },
    {
      "constant": true,
      "inputs": [],
      "name": "averageGen0SalePrice",
      "outputs": [
        {
          "name": "",
          "type": "uint256"
        }
      ],
      "payable": false,
      "stateMutability": "view",
      "type": "function"
    }
  ],
  "bytecode": "0x60806040526000805460a060020a60ff02191690556004805460ff1916600117905534801561002d57600080fd5b50604051604080610e2c83398101604052805160209091015160008054600160a060020a031916331781558290829061271082111561006b57600080fd5b5060025560018054600160a060020a03909216600160a060020a03199092169190911790555050610d8b806100a16000396000f3006080604052600436106101065763ffffffff7c0100000000000000000000000000000000000000000000000000000000600035041663150b7a0281146101155780633f4ba83a146101b9578063454a2ab3146101d0578063484eccb4146101db5780634e8eaa131461020557806354279bdd146102295780635c975abb146102505780635fd8c7101461027957806378bd79351461028e57806383b5ff8b146102ce5780638456cb59146102e357806385b86188146102f8578063878eb3681461030d5780638a98a9cc146103255780638da5cb5b1461033a578063c55d0f561461036b578063dd1b7a0f14610383578063eac9d94c14610398578063f2fde38b146103ad575b34801561011257600080fd5b50005b34801561012157600080fd5b50604080516020601f60643560048181013592830184900484028501840190955281845261018494600160a060020a0381358116956024803590921695604435953695608494019181908401838280828437509497506103ce9650505050505050565b604080517fffffffff000000000000000000000000000000000000000000000000000000009092168252519081900360200190f35b3480156101c557600080fd5b506101ce6103f7565b005b6101ce60043561046d565b3480156101e757600080fd5b506101f36004356104d7565b60408051918252519081900360200190f35b34801561021157600080fd5b506101ce600435600160a060020a03602435166104eb565b34801561023557600080fd5b506101ce600435602435600160a060020a036044351661053a565b34801561025c57600080fd5b506102656105d4565b604080519115158252519081900360200190f35b34801561028557600080fd5b506101ce6105e4565b34801561029a57600080fd5b506102a6600435610651565b60408051600160a060020a039094168452602084019290925282820152519081900360600190f35b3480156102da57600080fd5b506101f36106c6565b3480156102ef57600080fd5b506101ce6106cc565b34801561030457600080fd5b50610265610747565b34801561031957600080fd5b506101ce600435610750565b34801561033157600080fd5b506101f36107b9565b34801561034657600080fd5b5061034f6107bf565b60408051600160a060020a039092168252519081900360200190f35b34801561037757600080fd5b506101f36004356107ce565b34801561038f57600080fd5b5061034f610800565b3480156103a457600080fd5b506101f361080f565b3480156103b957600080fd5b506101ce600160a060020a0360043516610843565b7f150b7a0200000000000000000000000000000000000000000000000000000000949350505050565b600054600160a060020a0316331461040e57600080fd5b60005460a060020a900460ff16151561042657600080fd5b6000805474ff0000000000000000000000000000000000000000191681556040517f7805862f689e2f13df9f062ff482ad3ad112aca9e0847911ed832e158c525b339190a1565b600081815260036020526040812054600160a060020a03169061049083346108d7565b905061049c33846109d4565b600154600160a060020a03838116911614156104d25760058054829160069106600581106104c657fe5b01556005805460010190555b505050565b600681600581106104e457fe5b0154905081565b60008281526003602052604081209061050382610a64565b151561050e57600080fd5b508054600160a060020a03908116908316811461052a57600080fd5b6105348482610a8d565b50505050565b610542610d3f565b826fffffffffffffffffffffffffffffffff811061055f57600080fd5b600154600160a060020a0316331461057657600080fd5b6105808386610ad7565b60606040519081016040528084600160a060020a03168152602001856fffffffffffffffffffffffffffffffff1681526020014267ffffffffffffffff1681525091506105cd8583610b4b565b5050505050565b60005460a060020a900460ff1681565b600154600054600160a060020a03918216911633148061060c575033600160a060020a038216145b151561061757600080fd5b604051600160a060020a03821690303180156108fc02916000818181858888f1935050505015801561064d573d6000803e3d6000fd5b5050565b60008181526003602052604081208190819061066c81610a64565b151561067757600080fd5b8054600190910154600160a060020a03909116956fffffffffffffffffffffffffffffffff8216955070010000000000000000000000000000000090910467ffffffffffffffff169350915050565b60025481565b600054600160a060020a031633146106e357600080fd5b60005460a060020a900460ff16156106fa57600080fd5b6000805474ff0000000000000000000000000000000000000000191660a060020a1781556040517f6985a02210a168e66602d3235cb6db0e70f92b3ba4d376a33c0f3d9434bff6259190a1565b60045460ff1681565b6000805460a060020a900460ff16151561076957600080fd5b600054600160a060020a0316331461078057600080fd5b50600081815260036020526040902061079881610a64565b15156107a357600080fd5b805461064d908390600160a060020a0316610a8d565b60055481565b600054600160a060020a031681565b60008181526003602052604081206107e581610a64565b15156107f057600080fd5b6107f981610c3b565b9392505050565b600154600160a060020a031681565b600080805b6005811015610839576006816005811061082a57fe5b01549190910190600101610814565b5060059004919050565b600054600160a060020a0316331461085a57600080fd5b600160a060020a038116151561086f57600080fd5b60008054604051600160a060020a03808516939216917f8be0079c531659141344cd1fd0a4f28419497f9722a3daafe3b4186f6b6457e091a36000805473ffffffffffffffffffffffffffffffffffffffff1916600160a060020a0392909216919091179055565b6000828152600360205260408120818080806108f285610a64565b15156108fd57600080fd5b61090685610c3b565b935086841461091457600080fd5b8454600160a060020a0316925061092a88610c54565b60008411156109895761093c84610ca1565b915061094e848363ffffffff610cd016565b604051909150600160a060020a0384169082156108fc029083906000818181858888f19350505050158015610987573d6000803e3d6000fd5b505b6040805189815260208101869052338183015290517f4fcc30d90a842164dd58501ab874a101a3749c3d4747139cefe7c876f4ccebd29181900360600190a150919695505050505050565b600154604080517f42842e0e000000000000000000000000000000000000000000000000000000008152306004820152600160a060020a03858116602483015260448201859052915191909216916342842e0e91606480830192600092919082900301818387803b158015610a4857600080fd5b505af1158015610a5c573d6000803e3d6000fd5b505050505050565b60010154600070010000000000000000000000000000000090910467ffffffffffffffff161190565b610a9682610c54565b610aa081836109d4565b6040805183815290517f2809c7e17bf978fbc7194c0a694b638c4215e9140cacc6c38ca36010b45697df9181900360200190a15050565b600154604080517f42842e0e000000000000000000000000000000000000000000000000000000008152600160a060020a03858116600483015230602483015260448201859052915191909216916342842e0e91606480830192600092919082900301818387803b158015610a4857600080fd5b6000828152600360209081526040918290208351815473ffffffffffffffffffffffffffffffffffffffff1916600160a060020a039091161781558382015160019091018054858501516fffffffffffffffffffffffffffffffff199091166fffffffffffffffffffffffffffffffff90931692831777ffffffffffffffff00000000000000000000000000000000191670010000000000000000000000000000000067ffffffffffffffff9092169190910217905582518581529182015281517fe00a2da3a0f34a566402a244ab7ec63f8ab7472591cb18edf3269aa00461a410929181900390910190a15050565b600101546fffffffffffffffffffffffffffffffff1690565b6000908152600360205260409020805473ffffffffffffffffffffffffffffffffffffffff19168155600101805477ffffffffffffffffffffffffffffffffffffffffffffffff19169055565b6000610cca612710610cbe60025485610cee90919063ffffffff16565b9063ffffffff610d1c16565b92915050565b60008083831115610ce057600080fd5b5050808203805b5092915050565b600080831515610d015760009150610ce7565b50828202828482811515610d1157fe5b04146107f957600080fd5b600080808311610d2b57600080fd5b8284811515610d3657fe5b04949350505050565b6040805160608101825260008082526020820181905291810191909152905600a165627a7a72305820f91703060a2192271b1168544d366002a328240484df864196220559490da97d0029",
  "source": "pragma solidity ^0.4.24;\n\nimport \"./ClockAuction.sol\";\n\ncontract SaleClockAuction is ClockAuction {\n\n    bool public isSaleClockAuction = true;\n\n    uint256 public gen0SaleCount;\n    uint256[5] public lastGen0SalePrices;\n\n    constructor(address _nftAddr, uint256 _cut) public\n        ClockAuction(_nftAddr, _cut) {}\n\n    function createAuction(\n        uint256 _tokenId,\n        uint256 _price,\n        address _seller\n    )\n        public\n        canBeStoredWith128Bits(_price)\n    {\n        require(msg.sender == address(nonFungibleContract));\n        _escrow(_seller, _tokenId);\n        Auction memory auction = Auction(\n            _seller,\n            uint128(_price),\n            uint64(now)\n        );\n        _addAuction(_tokenId, auction);\n    }\n\n    function bid(uint256 _tokenId)\n        public\n        payable\n    {\n        address seller = tokenIdToAuction[_tokenId].seller;\n        uint256 price = _bid(_tokenId, msg.value);\n        _transfer(msg.sender, _tokenId);\n\n        // TODO(santony): check if this is feasible\n        if (seller == address(nonFungibleContract)) {\n            lastGen0SalePrices[gen0SaleCount % 5] = price;\n            gen0SaleCount++;\n        }\n    }\n\n    function averageGen0SalePrice() public view returns (uint256) {\n        uint256 sum = 0;\n        for (uint256 i = 0; i < 5; i++) {\n            sum += lastGen0SalePrices[i];\n        }\n        return sum / 5;\n    }\n\n}\n",
  "sourcePath": "/Users/Keki/Vrexlab/kydy-solidity/contracts/Auction/SaleClockAuction.sol",
  "compiler": {
    "name": "solc",
    "version": "0.4.24+commit.e67f0147.Emscripten.clang"
  },
  "schemaVersion": "2.0.1",
  "updatedAt": "2018-12-17T03:59:09.737Z"
}