{
  "contractName": "SynthesizingClockAuction",
  "abi": [
    {
      "constant": false,
      "inputs": [
        {
          "name": "",
          "type": "address"
        },
        {
          "name": "",
          "type": "address"
        },
        {
          "name": "",
          "type": "uint256"
        },
        {
          "name": "",
          "type": "bytes"
        }
      ],
      "name": "onERC721Received",
      "outputs": [
        {
          "name": "",
          "type": "bytes4"
        }
      ],
      "payable": false,
      "stateMutability": "nonpayable",
      "type": "function"
    },
    {
      "constant": false,
      "inputs": [],
      "name": "unpause",
      "outputs": [],
      "payable": false,
      "stateMutability": "nonpayable",
      "type": "function"
    },
    {
      "constant": false,
      "inputs": [
        {
          "name": "_tokenId",
          "type": "uint256"
        },
        {
          "name": "_seller",
          "type": "address"
        }
      ],
      "name": "cancelAuction",
      "outputs": [],
      "payable": false,
      "stateMutability": "nonpayable",
      "type": "function"
    },
    {
      "constant": true,
      "inputs": [],
      "name": "paused",
      "outputs": [
        {
          "name": "",
          "type": "bool"
        }
      ],
      "payable": false,
      "stateMutability": "view",
      "type": "function"
    },
    {
      "constant": false,
      "inputs": [],
      "name": "withdrawBalance",
      "outputs": [],
      "payable": false,
      "stateMutability": "nonpayable",
      "type": "function"
    },
    {
      "constant": true,
      "inputs": [
        {
          "name": "_tokenId",
          "type": "uint256"
        }
      ],
      "name": "getAuction",
      "outputs": [
        {
          "name": "seller",
          "type": "address"
        },
        {
          "name": "price",
          "type": "uint256"
        },
        {
          "name": "startedAt",
          "type": "uint256"
        }
      ],
      "payable": false,
      "stateMutability": "view",
      "type": "function"
    },
    {
      "constant": true,
      "inputs": [],
      "name": "ownerCut",
      "outputs": [
        {
          "name": "",
          "type": "uint256"
        }
      ],
      "payable": false,
      "stateMutability": "view",
      "type": "function"
    },
    {
      "constant": false,
      "inputs": [],
      "name": "pause",
      "outputs": [],
      "payable": false,
      "stateMutability": "nonpayable",
      "type": "function"
    },
    {
      "constant": false,
      "inputs": [
        {
          "name": "_tokenId",
          "type": "uint256"
        }
      ],
      "name": "cancelAuctionWhenPaused",
      "outputs": [],
      "payable": false,
      "stateMutability": "nonpayable",
      "type": "function"
    },
    {
      "constant": true,
      "inputs": [],
      "name": "owner",
      "outputs": [
        {
          "name": "",
          "type": "address"
        }
      ],
      "payable": false,
      "stateMutability": "view",
      "type": "function"
    },
    {
      "constant": true,
      "inputs": [
        {
          "name": "_tokenId",
          "type": "uint256"
        }
      ],
      "name": "getCurrentPrice",
      "outputs": [
        {
          "name": "",
          "type": "uint256"
        }
      ],
      "payable": false,
      "stateMutability": "view",
      "type": "function"
    },
    {
      "constant": true,
      "inputs": [],
      "name": "nonFungibleContract",
      "outputs": [
        {
          "name": "",
          "type": "address"
        }
      ],
      "payable": false,
      "stateMutability": "view",
      "type": "function"
    },
    {
      "constant": false,
      "inputs": [
        {
          "name": "newOwner",
          "type": "address"
        }
      ],
      "name": "transferOwnership",
      "outputs": [],
      "payable": false,
      "stateMutability": "nonpayable",
      "type": "function"
    },
    {
      "constant": true,
      "inputs": [],
      "name": "isSynthesizingClockAuction",
      "outputs": [
        {
          "name": "",
          "type": "bool"
        }
      ],
      "payable": false,
      "stateMutability": "view",
      "type": "function"
    },
    {
      "inputs": [
        {
          "name": "_nftAddr",
          "type": "address"
        },
        {
          "name": "_cut",
          "type": "uint256"
        }
      ],
      "payable": false,
      "stateMutability": "nonpayable",
      "type": "constructor"
    },
    {
      "payable": false,
      "stateMutability": "nonpayable",
      "type": "fallback"
    },
    {
      "anonymous": false,
      "inputs": [
        {
          "indexed": false,
          "name": "tokenId",
          "type": "uint256"
        },
        {
          "indexed": false,
          "name": "price",
          "type": "uint256"
        }
      ],
      "name": "AuctionCreated",
      "type": "event"
    },
    {
      "anonymous": false,
      "inputs": [
        {
          "indexed": false,
          "name": "tokenId",
          "type": "uint256"
        },
        {
          "indexed": false,
          "name": "totalPrice",
          "type": "uint256"
        },
        {
          "indexed": false,
          "name": "winner",
          "type": "address"
        }
      ],
      "name": "AuctionSuccessful",
      "type": "event"
    },
    {
      "anonymous": false,
      "inputs": [
        {
          "indexed": false,
          "name": "tokenId",
          "type": "uint256"
        }
      ],
      "name": "AuctionCancelled",
      "type": "event"
    },
    {
      "anonymous": false,
      "inputs": [],
      "name": "Pause",
      "type": "event"
    },
    {
      "anonymous": false,
      "inputs": [],
      "name": "Unpause",
      "type": "event"
    },
    {
      "anonymous": false,
      "inputs": [
        {
          "indexed": true,
          "name": "previousOwner",
          "type": "address"
        },
        {
          "indexed": true,
          "name": "newOwner",
          "type": "address"
        }
      ],
      "name": "OwnershipTransferred",
      "type": "event"
    },
    {
      "constant": false,
      "inputs": [
        {
          "name": "_tokenId",
          "type": "uint256"
        },
        {
          "name": "_price",
          "type": "uint256"
        },
        {
          "name": "_seller",
          "type": "address"
        }
      ],
      "name": "createAuction",
      "outputs": [],
      "payable": false,
      "stateMutability": "nonpayable",
      "type": "function"
    },
    {
      "constant": false,
      "inputs": [
        {
          "name": "_tokenId",
          "type": "uint256"
        }
      ],
      "name": "bid",
      "outputs": [],
      "payable": true,
      "stateMutability": "payable",
      "type": "function"
    }
  ],
  "bytecode": "0x60806040526000805460a060020a60ff02191690556004805460ff1916600117905534801561002d57600080fd5b50604051604080610d5983398101604052805160209091015160008054600160a060020a031916331781558290829061271082111561006b57600080fd5b5060025560018054600160a060020a03909216600160a060020a03199092169190911790555050610cb8806100a16000396000f3006080604052600436106100e55763ffffffff7c0100000000000000000000000000000000000000000000000000000000600035041663150b7a0281146100f45780633f4ba83a14610198578063454a2ab3146101af5780634e8eaa13146101ba57806354279bdd146101de5780635c975abb146102055780635fd8c7101461022e57806378bd79351461024357806383b5ff8b146102835780638456cb59146102aa578063878eb368146102bf5780638da5cb5b146102d7578063c55d0f5614610308578063dd1b7a0f14610320578063f2fde38b14610335578063ffadaae514610356575b3480156100f157600080fd5b50005b34801561010057600080fd5b50604080516020601f60643560048181013592830184900484028501840190955281845261016394600160a060020a03813581169560248035909216956044359536956084940191819084018382808284375094975061036b9650505050505050565b604080517fffffffff000000000000000000000000000000000000000000000000000000009092168252519081900360200190f35b3480156101a457600080fd5b506101ad610394565b005b6101ad60043561040a565b3480156101c657600080fd5b506101ad600435600160a060020a0360243516610456565b3480156101ea57600080fd5b506101ad600435602435600160a060020a03604435166104a5565b34801561021157600080fd5b5061021a61053f565b604080519115158252519081900360200190f35b34801561023a57600080fd5b506101ad61054f565b34801561024f57600080fd5b5061025b6004356105b8565b60408051600160a060020a039094168452602084019290925282820152519081900360600190f35b34801561028f57600080fd5b5061029861062d565b60408051918252519081900360200190f35b3480156102b657600080fd5b506101ad610633565b3480156102cb57600080fd5b506101ad6004356106ae565b3480156102e357600080fd5b506102ec610717565b60408051600160a060020a039092168252519081900360200190f35b34801561031457600080fd5b50610298600435610726565b34801561032c57600080fd5b506102ec610758565b34801561034157600080fd5b506101ad600160a060020a0360043516610767565b34801561036257600080fd5b5061021a6107fb565b7f150b7a0200000000000000000000000000000000000000000000000000000000949350505050565b600054600160a060020a031633146103ab57600080fd5b60005460a060020a900460ff1615156103c357600080fd5b6000805474ff0000000000000000000000000000000000000000191681556040517f7805862f689e2f13df9f062ff482ad3ad112aca9e0847911ed832e158c525b339190a1565b600154600090600160a060020a0316331461042457600080fd5b50600081815260036020526040902054600160a060020a03166104478234610804565b506104528183610901565b5050565b60008281526003602052604081209061046e82610991565b151561047957600080fd5b508054600160a060020a03908116908316811461049557600080fd5b61049f84826109ba565b50505050565b6104ad610c6c565b826fffffffffffffffffffffffffffffffff81106104ca57600080fd5b600154600160a060020a031633146104e157600080fd5b6104eb8386610a04565b60606040519081016040528084600160a060020a03168152602001856fffffffffffffffffffffffffffffffff1681526020014267ffffffffffffffff1681525091506105388583610a78565b5050505050565b60005460a060020a900460ff1681565b600154600054600160a060020a039182169116331480610577575033600160a060020a038216145b151561058257600080fd5b604051600160a060020a03821690303180156108fc02916000818181858888f19350505050158015610452573d6000803e3d6000fd5b6000818152600360205260408120819081906105d381610991565b15156105de57600080fd5b8054600190910154600160a060020a03909116956fffffffffffffffffffffffffffffffff8216955070010000000000000000000000000000000090910467ffffffffffffffff169350915050565b60025481565b600054600160a060020a0316331461064a57600080fd5b60005460a060020a900460ff161561066157600080fd5b6000805474ff0000000000000000000000000000000000000000191660a060020a1781556040517f6985a02210a168e66602d3235cb6db0e70f92b3ba4d376a33c0f3d9434bff6259190a1565b6000805460a060020a900460ff1615156106c757600080fd5b600054600160a060020a031633146106de57600080fd5b5060008181526003602052604090206106f681610991565b151561070157600080fd5b8054610452908390600160a060020a03166109ba565b600054600160a060020a031681565b600081815260036020526040812061073d81610991565b151561074857600080fd5b61075181610b68565b9392505050565b600154600160a060020a031681565b600054600160a060020a0316331461077e57600080fd5b600160a060020a038116151561079357600080fd5b60008054604051600160a060020a03808516939216917f8be0079c531659141344cd1fd0a4f28419497f9722a3daafe3b4186f6b6457e091a36000805473ffffffffffffffffffffffffffffffffffffffff1916600160a060020a0392909216919091179055565b60045460ff1681565b60008281526003602052604081208180808061081f85610991565b151561082a57600080fd5b61083385610b68565b935086841461084157600080fd5b8454600160a060020a0316925061085788610b81565b60008411156108b65761086984610bce565b915061087b848363ffffffff610bfd16565b604051909150600160a060020a0384169082156108fc029083906000818181858888f193505050501580156108b4573d6000803e3d6000fd5b505b6040805189815260208101869052338183015290517f4fcc30d90a842164dd58501ab874a101a3749c3d4747139cefe7c876f4ccebd29181900360600190a150919695505050505050565b600154604080517f42842e0e000000000000000000000000000000000000000000000000000000008152306004820152600160a060020a03858116602483015260448201859052915191909216916342842e0e91606480830192600092919082900301818387803b15801561097557600080fd5b505af1158015610989573d6000803e3d6000fd5b505050505050565b60010154600070010000000000000000000000000000000090910467ffffffffffffffff161190565b6109c382610b81565b6109cd8183610901565b6040805183815290517f2809c7e17bf978fbc7194c0a694b638c4215e9140cacc6c38ca36010b45697df9181900360200190a15050565b600154604080517f42842e0e000000000000000000000000000000000000000000000000000000008152600160a060020a03858116600483015230602483015260448201859052915191909216916342842e0e91606480830192600092919082900301818387803b15801561097557600080fd5b6000828152600360209081526040918290208351815473ffffffffffffffffffffffffffffffffffffffff1916600160a060020a039091161781558382015160019091018054858501516fffffffffffffffffffffffffffffffff199091166fffffffffffffffffffffffffffffffff90931692831777ffffffffffffffff00000000000000000000000000000000191670010000000000000000000000000000000067ffffffffffffffff9092169190910217905582518581529182015281517fe00a2da3a0f34a566402a244ab7ec63f8ab7472591cb18edf3269aa00461a410929181900390910190a15050565b600101546fffffffffffffffffffffffffffffffff1690565b6000908152600360205260409020805473ffffffffffffffffffffffffffffffffffffffff19168155600101805477ffffffffffffffffffffffffffffffffffffffffffffffff19169055565b6000610bf7612710610beb60025485610c1b90919063ffffffff16565b9063ffffffff610c4916565b92915050565b60008083831115610c0d57600080fd5b5050808203805b5092915050565b600080831515610c2e5760009150610c14565b50828202828482811515610c3e57fe5b041461075157600080fd5b600080808311610c5857600080fd5b8284811515610c6357fe5b04949350505050565b6040805160608101825260008082526020820181905291810191909152905600a165627a7a723058208ac18a16607676a0e6faede6dc5651ff247c59a70b54463d19df5831d250c3790029",
  "source": "pragma solidity ^0.4.24;\n\nimport \"./ClockAuction.sol\";\n\ncontract SynthesizingClockAuction is ClockAuction {\n\n    bool public isSynthesizingClockAuction = true;\n\n    constructor(address _nftAddr, uint256 _cut) public\n        ClockAuction(_nftAddr, _cut) {}\n\n    function createAuction(\n        uint256 _tokenId,\n        uint256 _price,\n        address _seller\n    )\n        public\n        canBeStoredWith128Bits(_price)\n    {\n        require(msg.sender == address(nonFungibleContract));\n        _escrow(_seller, _tokenId);\n        Auction memory auction = Auction(\n            _seller,\n            uint128(_price),\n            uint64(now)\n        );\n        _addAuction(_tokenId, auction);\n    }\n\n    function bid(uint256 _tokenId)\n        public\n        payable\n    {\n        require(msg.sender == address(nonFungibleContract));\n        address seller = tokenIdToAuction[_tokenId].seller;\n        _bid(_tokenId, msg.value);\n        _transfer(seller, _tokenId);\n    }\n\n}\n",
  "sourcePath": "/Users/Keki/Vrexlab/kydy-solidity/contracts/Auction/SynthesizingClockAuction.sol",
  "compiler": {
    "name": "solc",
    "version": "0.4.24+commit.e67f0147.Emscripten.clang"
  },
  "schemaVersion": "2.0.1",
  "updatedAt": "2018-12-17T03:59:09.748Z"
}